{
  "contractName": "CropProtection",
  "abi": [
    {
      "constant": true,
      "inputs": [
        {
          "name": "index",
          "type": "uint256"
        }
      ],
      "name": "getAgreement",
      "outputs": [
        {
          "name": "",
          "type": "address"
        },
        {
          "name": "",
          "type": "address"
        },
        {
          "name": "",
          "type": "uint256"
        },
        {
          "name": "",
          "type": "uint256"
        }
      ],
      "payable": false,
      "stateMutability": "view",
      "type": "function"
    },
    {
      "constant": false,
      "inputs": [
        {
          "name": "_buyer",
          "type": "address"
        },
        {
          "name": "_seller",
          "type": "address"
        },
        {
          "name": "_protection",
          "type": "uint256"
        },
        {
          "name": "_cost",
          "type": "uint256"
        }
      ],
      "name": "createAgreement",
      "outputs": [
        {
          "name": "",
          "type": "uint256"
        }
      ],
      "payable": false,
      "stateMutability": "nonpayable",
      "type": "function"
    },
    {
      "constant": true,
      "inputs": [
        {
          "name": "",
          "type": "uint256"
        }
      ],
      "name": "agreements",
      "outputs": [
        {
          "name": "buyer",
          "type": "address"
        },
        {
          "name": "seller",
          "type": "address"
        },
        {
          "name": "protection",
          "type": "uint256"
        },
        {
          "name": "cost",
          "type": "uint256"
        }
      ],
      "payable": false,
      "stateMutability": "view",
      "type": "function"
    },
    {
      "constant": true,
      "inputs": [],
      "name": "systemFeePPM",
      "outputs": [
        {
          "name": "",
          "type": "uint256"
        }
      ],
      "payable": false,
      "stateMutability": "view",
      "type": "function"
    }
  ],
  "bytecode": "0x6060604052612710600155341561001557600080fd5b610616806100246000396000f300606060405260043610610062576000357c0100000000000000000000000000000000000000000000000000000000900463ffffffff1680634f9f6fe6146100675780636b9720901461010b578063bd14de9614610189578063e2fc40071461022d575b600080fd5b341561007257600080fd5b6100886004808035906020019091905050610256565b604051808573ffffffffffffffffffffffffffffffffffffffff1673ffffffffffffffffffffffffffffffffffffffff1681526020018473ffffffffffffffffffffffffffffffffffffffff1673ffffffffffffffffffffffffffffffffffffffff16815260200183815260200182815260200194505050505060405180910390f35b341561011657600080fd5b610173600480803573ffffffffffffffffffffffffffffffffffffffff1690602001909190803573ffffffffffffffffffffffffffffffffffffffff1690602001909190803590602001909190803590602001909190505061032f565b6040518082815260200191505060405180910390f35b341561019457600080fd5b6101aa6004808035906020019091905050610461565b604051808573ffffffffffffffffffffffffffffffffffffffff1673ffffffffffffffffffffffffffffffffffffffff1681526020018473ffffffffffffffffffffffffffffffffffffffff1673ffffffffffffffffffffffffffffffffffffffff16815260200183815260200182815260200194505050505060405180910390f35b341561023857600080fd5b6102406104e0565b6040518082815260200191505060405180910390f35b60008060008060008581548110151561026b57fe5b906000526020600020906004020160000160009054906101000a900473ffffffffffffffffffffffffffffffffffffffff166000868154811015156102ac57fe5b906000526020600020906004020160010160009054906101000a900473ffffffffffffffffffffffffffffffffffffffff166000878154811015156102ed57fe5b90600052602060002090600402016002015460008881548110151561030e57fe5b90600052602060002090600402016003015493509350935093509193509193565b60006103396104e6565b6080604051908101604052808773ffffffffffffffffffffffffffffffffffffffff1681526020018673ffffffffffffffffffffffffffffffffffffffff1681526020018581526020018481525090506000805480600101828161039d919061053b565b9160005260206000209060040201600083909190915060008201518160000160006101000a81548173ffffffffffffffffffffffffffffffffffffffff021916908373ffffffffffffffffffffffffffffffffffffffff16021790555060208201518160010160006101000a81548173ffffffffffffffffffffffffffffffffffffffff021916908373ffffffffffffffffffffffffffffffffffffffff160217905550604082015181600201556060820151816003015550505050949350505050565b60008181548110151561047057fe5b90600052602060002090600402016000915090508060000160009054906101000a900473ffffffffffffffffffffffffffffffffffffffff16908060010160009054906101000a900473ffffffffffffffffffffffffffffffffffffffff16908060020154908060030154905084565b60015481565b608060405190810160405280600073ffffffffffffffffffffffffffffffffffffffff168152602001600073ffffffffffffffffffffffffffffffffffffffff16815260200160008152602001600081525090565b81548183558181151161056857600402816004028360005260206000209182019101610567919061056d565b5b505050565b6105e791905b808211156105e357600080820160006101000a81549073ffffffffffffffffffffffffffffffffffffffff02191690556001820160006101000a81549073ffffffffffffffffffffffffffffffffffffffff02191690556002820160009055600382016000905550600401610573565b5090565b905600a165627a7a7230582069b2f2f55faaa18ae52626ec2a002d3a2966d9be4836cde6858b77328af35a6e0029",
  "source": "pragma solidity ^0.4.16;\n\n/// @title The Crop Protection Dapp.\ncontract CropProtection {\n//A Protection Agreement, which represents an agerement\n//between buyer and seller to protect a crop.\n    struct Agreement {\n        address buyer; //the farmer\n        address seller; //the financeer\n        uint protection; //amount of wei to cover the crop\n        uint cost; //amount of wei to be paid to the seller\n    }\n    \n    // A dynamically-sized array of `Agreement` structs.\n    Agreement[] public agreements;\n\n    //the system fee in parts per million (10000 = 1%)\n    uint public systemFeePPM = 10000;\n    \n    function getAgreement(uint index) public constant returns (address, address, uint, uint) {\n        return (agreements[index].buyer, agreements[index].seller, agreements[index].protection, agreements[index].cost);\n    }\n\n    function createAgreement(address _buyer, address _seller, uint _protection, uint _cost) public returns (uint){\n        Agreement memory a = Agreement(_buyer, _seller, _protection, _cost);\n        agreements.push(a);\n    }\n\n}\n\n",
  "sourcePath": "/Users/benandre/cropcrop/contracts/CropProtection.sol",
  "compiler": {
    "name": "solc",
    "version": "0.4.18+commit.9cf6e910.Emscripten.clang"
  },
  "schemaVersion": "1.0.1",
  "updatedAt": "2018-02-03T06:06:12.335Z"
}