{
  "contractName": "DecoupledERC721Token",
  "abi": [
    {
      "constant": false,
      "inputs": [
        {
          "name": "_to",
          "type": "address"
        },
        {
          "name": "_tokenId",
          "type": "uint256"
        }
      ],
      "name": "approve",
      "outputs": [],
      "payable": false,
      "stateMutability": "nonpayable",
      "type": "function"
    },
    {
      "constant": true,
      "inputs": [
        {
          "name": "tokenID",
          "type": "uint256"
        }
      ],
      "name": "ownerOf",
      "outputs": [
        {
          "name": "",
          "type": "address"
        }
      ],
      "payable": false,
      "stateMutability": "view",
      "type": "function"
    },
    {
      "constant": true,
      "inputs": [
        {
          "name": "owner",
          "type": "address"
        }
      ],
      "name": "balanceOf",
      "outputs": [
        {
          "name": "",
          "type": "uint256"
        }
      ],
      "payable": false,
      "stateMutability": "view",
      "type": "function"
    },
    {
      "constant": false,
      "inputs": [
        {
          "name": "_to",
          "type": "address"
        },
        {
          "name": "_tokenId",
          "type": "uint256"
        }
      ],
      "name": "transfer",
      "outputs": [],
      "payable": false,
      "stateMutability": "nonpayable",
      "type": "function"
    },
    {
      "constant": false,
      "inputs": [
        {
          "name": "_tokenId",
          "type": "uint256"
        }
      ],
      "name": "takeOwnership",
      "outputs": [],
      "payable": false,
      "stateMutability": "nonpayable",
      "type": "function"
    },
    {
      "inputs": [
        {
          "name": "storage_address",
          "type": "address"
        }
      ],
      "payable": false,
      "stateMutability": "nonpayable",
      "type": "constructor"
    },
    {
      "anonymous": false,
      "inputs": [
        {
          "indexed": true,
          "name": "_from",
          "type": "address"
        },
        {
          "indexed": true,
          "name": "_to",
          "type": "address"
        },
        {
          "indexed": false,
          "name": "_tokenId",
          "type": "uint256"
        }
      ],
      "name": "Transfer",
      "type": "event"
    },
    {
      "anonymous": false,
      "inputs": [
        {
          "indexed": true,
          "name": "_owner",
          "type": "address"
        },
        {
          "indexed": true,
          "name": "_approved",
          "type": "address"
        },
        {
          "indexed": false,
          "name": "_tokenId",
          "type": "uint256"
        }
      ],
      "name": "Approval",
      "type": "event"
    }
  ],
  "bytecode": "0x6060604052341561000f57600080fd5b60405160208061125483398101604052808051906020019091905050806000806101000a81548173ffffffffffffffffffffffffffffffffffffffff021916908373ffffffffffffffffffffffffffffffffffffffff160217905550506111d98061007b6000396000f30060606040526004361061006d576000357c0100000000000000000000000000000000000000000000000000000000900463ffffffff168063095ea7b3146100725780636352211e146100b457806370a0823114610117578063a9059cbb14610164578063b2e6ceeb146101a6575b600080fd5b341561007d57600080fd5b6100b2600480803573ffffffffffffffffffffffffffffffffffffffff169060200190919080359060200190919050506101c9565b005b34156100bf57600080fd5b6100d56004808035906020019091905050610314565b604051808273ffffffffffffffffffffffffffffffffffffffff1673ffffffffffffffffffffffffffffffffffffffff16815260200191505060405180910390f35b341561012257600080fd5b61014e600480803573ffffffffffffffffffffffffffffffffffffffff16906020019091905050610456565b6040518082815260200191505060405180910390f35b341561016f57600080fd5b6101a4600480803573ffffffffffffffffffffffffffffffffffffffff16906020019091908035906020019091905050610592565b005b34156101b157600080fd5b6101c760048080359060200190919050506105e5565b005b6000813373ffffffffffffffffffffffffffffffffffffffff166101ec82610314565b73ffffffffffffffffffffffffffffffffffffffff1614151561020e57600080fd5b61021783610314565b91508173ffffffffffffffffffffffffffffffffffffffff168473ffffffffffffffffffffffffffffffffffffffff161415151561025457600080fd5b600061025f84610610565b73ffffffffffffffffffffffffffffffffffffffff16141580610299575060008473ffffffffffffffffffffffffffffffffffffffff1614155b1561030e576102a88385610711565b8373ffffffffffffffffffffffffffffffffffffffff168273ffffffffffffffffffffffffffffffffffffffff167f8c5be1e5ebec7d5bd14f71427d1e84f3dd0314c0f7b2291e5b200ac8c7c3b925856040518082815260200191505060405180910390a35b50505050565b6000806000809054906101000a900473ffffffffffffffffffffffffffffffffffffffff1673ffffffffffffffffffffffffffffffffffffffff16634c77e5ba8460405180807f4f776e65724f660000000000000000000000000000000000000000000000000081525060070182815260200191505060405180910390206000604051602001526040518263ffffffff167c0100000000000000000000000000000000000000000000000000000000028152600401808260001916600019168152602001915050602060405180830381600087803b15156103f457600080fd5b6102c65a03f1151561040557600080fd5b505050604051805190509050600073ffffffffffffffffffffffffffffffffffffffff168173ffffffffffffffffffffffffffffffffffffffff161415151561044d57600080fd5b80915050919050565b60008060009054906101000a900473ffffffffffffffffffffffffffffffffffffffff1673ffffffffffffffffffffffffffffffffffffffff1663bdc963d88360405180807f42616c616e63654f6600000000000000000000000000000000000000000000008152506009018273ffffffffffffffffffffffffffffffffffffffff1673ffffffffffffffffffffffffffffffffffffffff166c0100000000000000000000000002815260140191505060405180910390206000604051602001526040518263ffffffff167c0100000000000000000000000000000000000000000000000000000000028152600401808260001916600019168152602001915050602060405180830381600087803b151561057057600080fd5b6102c65a03f1151561058157600080fd5b505050604051805190509050919050565b803373ffffffffffffffffffffffffffffffffffffffff166105b382610314565b73ffffffffffffffffffffffffffffffffffffffff161415156105d557600080fd5b6105e0338484610831565b505050565b6105ef338261097a565b15156105fa57600080fd5b61060d61060682610314565b3383610831565b50565b60008060009054906101000a900473ffffffffffffffffffffffffffffffffffffffff1673ffffffffffffffffffffffffffffffffffffffff16634c77e5ba8360405180807f417070726f766564466f72000000000000000000000000000000000000000000815250600b0182815260200191505060405180910390206000604051602001526040518263ffffffff167c0100000000000000000000000000000000000000000000000000000000028152600401808260001916600019168152602001915050602060405180830381600087803b15156106ef57600080fd5b6102c65a03f1151561070057600080fd5b505050604051805190509050919050565b6000809054906101000a900473ffffffffffffffffffffffffffffffffffffffff1673ffffffffffffffffffffffffffffffffffffffff16635a2bf25a8360405180807f417070726f766564466f72000000000000000000000000000000000000000000815250600b018281526020019150506040518091039020836040518363ffffffff167c01000000000000000000000000000000000000000000000000000000000281526004018083600019166000191681526020018273ffffffffffffffffffffffffffffffffffffffff1673ffffffffffffffffffffffffffffffffffffffff16815260200192505050600060405180830381600087803b151561081957600080fd5b6102c65a03f1151561082a57600080fd5b5050505050565b600073ffffffffffffffffffffffffffffffffffffffff168273ffffffffffffffffffffffffffffffffffffffff161415151561086d57600080fd5b61087681610314565b73ffffffffffffffffffffffffffffffffffffffff168273ffffffffffffffffffffffffffffffffffffffff16141515156108b057600080fd5b8273ffffffffffffffffffffffffffffffffffffffff166108d082610314565b73ffffffffffffffffffffffffffffffffffffffff161415156108f257600080fd5b6108fc83826109bb565b6109068382610a5c565b6109108282610cde565b8173ffffffffffffffffffffffffffffffffffffffff168373ffffffffffffffffffffffffffffffffffffffff167fddf252ad1be2c89b69c2b068fc378daa952ba7f163c4a11628f55a4df523b3ef836040518082815260200191505060405180910390a3505050565b60008273ffffffffffffffffffffffffffffffffffffffff1661099c83610610565b73ffffffffffffffffffffffffffffffffffffffff1614905092915050565b8173ffffffffffffffffffffffffffffffffffffffff166109db82610314565b73ffffffffffffffffffffffffffffffffffffffff161415156109fd57600080fd5b610a08816000610711565b60008273ffffffffffffffffffffffffffffffffffffffff167f8c5be1e5ebec7d5bd14f71427d1e84f3dd0314c0f7b2291e5b200ac8c7c3b925836040518082815260200191505060405180910390a35050565b60008273ffffffffffffffffffffffffffffffffffffffff16610a7e83610314565b73ffffffffffffffffffffffffffffffffffffffff16141515610aa057600080fd5b610aab826000610f5f565b610ab483610456565b90506000809054906101000a900473ffffffffffffffffffffffffffffffffffffffff1673ffffffffffffffffffffffffffffffffffffffff16633562fd208460405180807f42616c616e63654f6600000000000000000000000000000000000000000000008152506009018273ffffffffffffffffffffffffffffffffffffffff1673ffffffffffffffffffffffffffffffffffffffff166c010000000000000000000000000281526014019150506040518091039020610b8060018561107f90919063ffffffff16565b6040518363ffffffff167c010000000000000000000000000000000000000000000000000000000002815260040180836000191660001916815260200182815260200192505050600060405180830381600087803b1515610be057600080fd5b6102c65a03f11515610bf157600080fd5b5050506000809054906101000a900473ffffffffffffffffffffffffffffffffffffffff1673ffffffffffffffffffffffffffffffffffffffff16633562fd20610c4c6001610c3e611098565b61107f90919063ffffffff16565b6040518263ffffffff167c010000000000000000000000000000000000000000000000000000000002815260040180807f546f74616c537570706c79000000000000000000000000000000000000000000815250602001828152602001915050600060405180830381600087803b1515610cc557600080fd5b6102c65a03f11515610cd657600080fd5b505050505050565b60008073ffffffffffffffffffffffffffffffffffffffff16610d0083610314565b73ffffffffffffffffffffffffffffffffffffffff16141515610d2257600080fd5b610d2c8284610f5f565b610d3583610456565b90506000809054906101000a900473ffffffffffffffffffffffffffffffffffffffff1673ffffffffffffffffffffffffffffffffffffffff16633562fd208460405180807f42616c616e63654f6600000000000000000000000000000000000000000000008152506009018273ffffffffffffffffffffffffffffffffffffffff1673ffffffffffffffffffffffffffffffffffffffff166c010000000000000000000000000281526014019150506040518091039020610e0160018561118f90919063ffffffff16565b6040518363ffffffff167c010000000000000000000000000000000000000000000000000000000002815260040180836000191660001916815260200182815260200192505050600060405180830381600087803b1515610e6157600080fd5b6102c65a03f11515610e7257600080fd5b5050506000809054906101000a900473ffffffffffffffffffffffffffffffffffffffff1673ffffffffffffffffffffffffffffffffffffffff16633562fd20610ecd6001610ebf611098565b61118f90919063ffffffff16565b6040518263ffffffff167c010000000000000000000000000000000000000000000000000000000002815260040180807f546f74616c537570706c79000000000000000000000000000000000000000000815250602001828152602001915050600060405180830381600087803b1515610f4657600080fd5b6102c65a03f11515610f5757600080fd5b505050505050565b6000809054906101000a900473ffffffffffffffffffffffffffffffffffffffff1673ffffffffffffffffffffffffffffffffffffffff16635a2bf25a8360405180807f4f776e65724f66000000000000000000000000000000000000000000000000008152506007018281526020019150506040518091039020836040518363ffffffff167c01000000000000000000000000000000000000000000000000000000000281526004018083600019166000191681526020018273ffffffffffffffffffffffffffffffffffffffff1673ffffffffffffffffffffffffffffffffffffffff16815260200192505050600060405180830381600087803b151561106757600080fd5b6102c65a03f1151561107857600080fd5b5050505050565b600082821115151561108d57fe5b818303905092915050565b60008060009054906101000a900473ffffffffffffffffffffffffffffffffffffffff1673ffffffffffffffffffffffffffffffffffffffff1663bdc963d860405180807f546f74616c537570706c79000000000000000000000000000000000000000000815250600b01905060405180910390206000604051602001526040518263ffffffff167c0100000000000000000000000000000000000000000000000000000000028152600401808260001916600019168152602001915050602060405180830381600087803b151561116f57600080fd5b6102c65a03f1151561118057600080fd5b50505060405180519050905090565b60008082840190508381101515156111a357fe5b80915050929150505600a165627a7a723058201a57ff28c240ee9cf984545af08f7afab463601bac86a9c10de86105868d64240029",
  "source": "pragma solidity ^0.4.18;\n\nimport 'zeppelin-solidity/contracts/token/ERC721/ERC721.sol';\nimport 'zeppelin-solidity/contracts/math/SafeMath.sol';\nimport './EternalDonut.sol';\n\n/**\n * @title DecoupledERC721Token\n * An implementation of the ERC721 token standard that uses a decoupled storage contract \n * instead of keeping all data in this contract.\n */\ncontract DecoupledERC721Token is ERC721 {\n  using SafeMath for uint256;\n\n  // The storage contract\n  EternalDonut private storageContract;\n\n  function DecoupledERC721Token(address storage_address) {\n    storageContract = EternalDonut(storage_address);\n  }\n\n  function getTotalTokens() private constant returns (uint) {\n    return storageContract.getUIntValue(keccak256(\"TotalSupply\"));\n  }\n\n  function ownerOf(uint tokenID) public view returns (address) {\n        address owner = storageContract.getAddressValue(keccak256(\"OwnerOf\", tokenID));\n        require(owner != address(0));\n        return owner;\n  }\n\n  function setOwnerOf(uint tokenID, address owner) private {\n    storageContract.setAddressValue(keccak256(\"OwnerOf\", tokenID), owner);\n  }\n\n  /**\n   * @dev Gets the approved address to take ownership of a given token ID\n   * @param tokenID uint256 ID of the token to query the approval of\n   * @return address currently approved to take ownership of the given token ID\n   */\n  function approvedFor(uint tokenID) private returns (address) {\n    return storageContract.getAddressValue(keccak256(\"ApprovedFor\", tokenID));\n  }\n\n  function setTokenApproval(uint tokenID, address approvee) private {\n    storageContract.setAddressValue(keccak256(\"ApprovedFor\", tokenID), approvee);\n  }\n\n  /**\n  * @dev Gets the balance of the specified address\n  * @param owner address to query the balance of\n  * @return uint256 representing the amount owned by the passed address\n  */\n  function balanceOf(address owner) public view returns (uint) {\n    return storageContract.getUIntValue(keccak256(\"BalanceOf\", owner));\n  }\n\n  /**\n  * @dev Gets the list of tokens owned by a given address\n  * @param owner address to query the tokens of\n  * @return uint256[] representing the list of tokens owned by the passed address\n  */\n  function tokensOf(address owner) private returns (uint[]) {\n    uint balance = balanceOf(owner);    \n    uint[] memory ownedTokens = new uint[](balance.sub(1));\n//    for (uint balanceItr = 0; balanceItr < balance; balanceItr.add(1)) {\n  //      ownedTokens[balanceItr] = storageContract.getUIntValue(keccak256(\"TokensOf\", address, balanceItr));\n    //}\n    return ownedTokens;\n  }\n\n  /**\n  * @dev Guarantees msg.sender is owner of the given token\n  * @param _tokenId uint256 ID of the token to validate its ownership belongs to msg.sender\n  */\n  modifier onlyOwnerOf(uint256 _tokenId) {\n    require(ownerOf(_tokenId) == msg.sender);\n    _;\n  }\n\n  /**\n  * @dev Transfers the ownership of a given token ID to another address\n  * @param _to address to receive the ownership of the given token ID\n  * @param _tokenId uint256 ID of the token to be transferred\n  */\n  function transfer(address _to, uint256 _tokenId) public onlyOwnerOf(_tokenId) {\n    clearApprovalAndTransfer(msg.sender, _to, _tokenId);\n  }\n\n  /**\n  * @dev Approves another address to claim for the ownership of the given token ID\n  * @param _to address to be approved for the given token ID\n  * @param _tokenId uint256 ID of the token to be approved\n  */\n  function approve(address _to, uint256 _tokenId) public onlyOwnerOf(_tokenId) {\n    address owner = ownerOf(_tokenId);\n    require(_to != owner);\n    if (approvedFor(_tokenId) != 0 || _to != 0) {\n      setTokenApproval(_tokenId, _to);\n      Approval(owner, _to, _tokenId);\n    }\n  }\n\n  /**\n  * @dev Claims the ownership of a given token ID\n  * @param _tokenId uint256 ID of the token being claimed by the msg.sender\n  */\n  function takeOwnership(uint256 _tokenId) public {\n    require(isApprovedFor(msg.sender, _tokenId));\n    clearApprovalAndTransfer(ownerOf(_tokenId), msg.sender, _tokenId);\n  }\n\n  /**\n  * @dev Mint token function\n  * @param _to The address that will own the minted token\n  * @param _tokenId uint256 ID of the token to be minted by the msg.sender\n  */\n  function _mint(address _to, uint256 _tokenId) internal {\n    require(_to != address(0));\n    addToken(_to, _tokenId);\n    Transfer(0x0, _to, _tokenId);\n  }\n\n  /**\n  * @dev Burns a specific token\n  * @param _tokenId uint256 ID of the token being burned by the msg.sender\n  */\n  function _burn(uint256 _tokenId) internal {\n    if (approvedFor(_tokenId) != 0) {\n      clearApproval(msg.sender, _tokenId);\n    }\n    removeToken(msg.sender, _tokenId);\n    Transfer(msg.sender, 0x0, _tokenId);\n  }\n\n  /**\n   * @dev Tells whether the msg.sender is approved for the given token ID or not\n   * This function is not private so it can be extended in further implementations like the operatable ERC721\n   * @param _owner address of the owner to query the approval of\n   * @param _tokenId uint256 ID of the token to query the approval of\n   * @return bool whether the msg.sender is approved for the given token ID or not\n   */\n  function isApprovedFor(address _owner, uint256 _tokenId) internal view returns (bool) {\n    return approvedFor(_tokenId) == _owner;\n  }\n\n  /**\n  * @dev Internal function to clear current approval and transfer the ownership of a given token ID\n  * @param _from address which you want to send tokens from\n  * @param _to address which you want to transfer the token to\n  * @param _tokenId uint256 ID of the token to be transferred\n  */\n  function clearApprovalAndTransfer(address _from, address _to, uint256 _tokenId) internal {\n    require(_to != address(0));\n    require(_to != ownerOf(_tokenId));\n    require(ownerOf(_tokenId) == _from);\n\n    clearApproval(_from, _tokenId);\n    removeToken(_from, _tokenId);\n    addToken(_to, _tokenId);\n    Transfer(_from, _to, _tokenId);\n  }\n\n  /**\n  * @dev Internal function to clear current approval of a given token ID\n  * @param _tokenId uint256 ID of the token to be transferred\n  */\n  function clearApproval(address _owner, uint256 _tokenId) private {\n    require(ownerOf(_tokenId) == _owner);\n    setTokenApproval(_tokenId, 0);\n    Approval(_owner, 0, _tokenId);\n  }\n\n  /**\n  * @dev Internal function to add a token ID to the list of a given address\n  * @param _to address representing the new owner of the given token ID\n  * @param _tokenId uint256 ID of the token to be added to the tokens list of the given address\n  */\n  function addToken(address _to, uint256 _tokenId) private {\n    require(ownerOf(_tokenId) == address(0));\n    setOwnerOf(_tokenId, _to);\n\n    \n    uint balance = balanceOf(_to);\n\n\n    storageContract.setUIntValue(keccak256(\"BalanceOf\", _to), balance.add(1));\n//    storageContract.setUIntValue(keccak256(\"TokensOf\", _to, balance.add(1)), _tokenId);\n\n    storageContract.setUIntValue(\"TotalSupply\", getTotalTokens().add(1));\n\n  }\n\n  /**\n  * @dev Internal function to remove a token ID from the list of a given address\n  * @param _from address representing the previous owner of the given token ID\n  * @param _tokenId uint256 ID of the token to be removed from the tokens list of the given address\n  */\n  function removeToken(address _from, uint256 _tokenId) private {\n    require(ownerOf(_tokenId) == _from);\n\n    setOwnerOf(_tokenId, address(0));\n\n    // change value in \"TokensOf\" mapping.\n    // Yes, this does work for a balance of 1.\n    uint balance = balanceOf(_from);\n  //  uint[] tokensOf = tokensOf(_from);\n //   uint lastToken = storageContract.getUIntValue(keccak256(\"TokensOf\", _from, balance.sub(1)));\n   // for (uint balanceItr = 0; balanceItr < balance; balanceItr.add(1)) {\n     // if (storageContract.getUIntValue(keccak256(\"TokensOf\", _from, balanceItr)) == _tokenId) { // if we're on the right \"index\"\n       // storageContract.setUIntValue(keccak256(\"TokensOf\", _from, balanceItr), lastToken);      // move the value at the last \"index\" to the current \"index\"\n       // storageContract.setUIntValue(keccak256(\"TokensOf\", _from, balance.sub(1)), 0);           // set the value at the last \"index\" to 0\n   //   }\n   // }\n\n    // decrement token balance of user.\n    storageContract.setUIntValue(keccak256(\"BalanceOf\", _from), balance.sub(1));\n\n    storageContract.setUIntValue(\"TotalSupply\", getTotalTokens().sub(1));\n  }\n}\n",
  "sourcePath": "/Users/benandre/cropcrop/contracts/DecoupledERC721Token.sol",
  "compiler": {
    "name": "solc",
    "version": "0.4.18+commit.9cf6e910.Emscripten.clang"
  },
  "schemaVersion": "1.0.1",
  "updatedAt": "2018-03-29T08:52:18.063Z"
}