{
  "contractName": "DecoupledERC721Token",
  "abi": [
    {
      "anonymous": false,
      "inputs": [
        {
          "indexed": true,
          "name": "_from",
          "type": "address"
        },
        {
          "indexed": true,
          "name": "_to",
          "type": "address"
        },
        {
          "indexed": false,
          "name": "_tokenId",
          "type": "uint256"
        }
      ],
      "name": "Transfer",
      "type": "event"
    },
    {
      "anonymous": false,
      "inputs": [
        {
          "indexed": true,
          "name": "_owner",
          "type": "address"
        },
        {
          "indexed": true,
          "name": "_approved",
          "type": "address"
        },
        {
          "indexed": false,
          "name": "_tokenId",
          "type": "uint256"
        }
      ],
      "name": "Approval",
      "type": "event"
    },
    {
      "constant": false,
      "inputs": [],
      "name": "totalSupply",
      "outputs": [
        {
          "name": "",
          "type": "uint256"
        }
      ],
      "payable": false,
      "stateMutability": "nonpayable",
      "type": "function"
    },
    {
      "constant": true,
      "inputs": [
        {
          "name": "tokenID",
          "type": "uint256"
        }
      ],
      "name": "ownerOf",
      "outputs": [
        {
          "name": "",
          "type": "address"
        }
      ],
      "payable": false,
      "stateMutability": "view",
      "type": "function"
    },
    {
      "constant": true,
      "inputs": [
        {
          "name": "owner",
          "type": "address"
        }
      ],
      "name": "balanceOf",
      "outputs": [
        {
          "name": "",
          "type": "uint256"
        }
      ],
      "payable": false,
      "stateMutability": "view",
      "type": "function"
    },
    {
      "constant": false,
      "inputs": [
        {
          "name": "_to",
          "type": "address"
        },
        {
          "name": "_tokenId",
          "type": "uint256"
        }
      ],
      "name": "transfer",
      "outputs": [],
      "payable": false,
      "stateMutability": "nonpayable",
      "type": "function"
    },
    {
      "constant": false,
      "inputs": [
        {
          "name": "_to",
          "type": "address"
        },
        {
          "name": "_tokenId",
          "type": "uint256"
        }
      ],
      "name": "approve",
      "outputs": [],
      "payable": false,
      "stateMutability": "nonpayable",
      "type": "function"
    },
    {
      "constant": false,
      "inputs": [
        {
          "name": "_tokenId",
          "type": "uint256"
        }
      ],
      "name": "takeOwnership",
      "outputs": [],
      "payable": false,
      "stateMutability": "nonpayable",
      "type": "function"
    }
  ],
  "bytecode": "0x608060405234801561001057600080fd5b50611276806100206000396000f300608060405260043610610078576000357c0100000000000000000000000000000000000000000000000000000000900463ffffffff168063095ea7b31461007d57806318160ddd146100ca5780636352211e146100f557806370a0823114610162578063a9059cbb146101b9578063b2e6ceeb14610206575b600080fd5b34801561008957600080fd5b506100c8600480360381019080803573ffffffffffffffffffffffffffffffffffffffff16906020019092919080359060200190929190505050610233565b005b3480156100d657600080fd5b506100df61037e565b6040518082815260200191505060405180910390f35b34801561010157600080fd5b506101206004803603810190808035906020019092919050505061048d565b604051808273ffffffffffffffffffffffffffffffffffffffff1673ffffffffffffffffffffffffffffffffffffffff16815260200191505060405180910390f35b34801561016e57600080fd5b506101a3600480360381019080803573ffffffffffffffffffffffffffffffffffffffff1690602001909291905050506105ab565b6040518082815260200191505060405180910390f35b3480156101c557600080fd5b50610204600480360381019080803573ffffffffffffffffffffffffffffffffffffffff169060200190929190803590602001909291905050506106ff565b005b34801561021257600080fd5b5061023160048036038101908080359060200190929190505050610752565b005b6000813373ffffffffffffffffffffffffffffffffffffffff166102568261048d565b73ffffffffffffffffffffffffffffffffffffffff1614151561027857600080fd5b6102818361048d565b91508173ffffffffffffffffffffffffffffffffffffffff168473ffffffffffffffffffffffffffffffffffffffff16141515156102be57600080fd5b60006102c98461077d565b73ffffffffffffffffffffffffffffffffffffffff16141580610303575060008473ffffffffffffffffffffffffffffffffffffffff1614155b15610378576103128385610896565b8373ffffffffffffffffffffffffffffffffffffffff168273ffffffffffffffffffffffffffffffffffffffff167f8c5be1e5ebec7d5bd14f71427d1e84f3dd0314c0f7b2291e5b200ac8c7c3b925856040518082815260200191505060405180910390a35b50505050565b60008060009054906101000a900473ffffffffffffffffffffffffffffffffffffffff1673ffffffffffffffffffffffffffffffffffffffff1663bdc963d860405180807f546f74616c537570706c79000000000000000000000000000000000000000000815250600b01905060405180910390206040518263ffffffff167c0100000000000000000000000000000000000000000000000000000000028152600401808260001916600019168152602001915050602060405180830381600087803b15801561044d57600080fd5b505af1158015610461573d6000803e3d6000fd5b505050506040513d602081101561047757600080fd5b8101908080519060200190929190505050905090565b6000806000809054906101000a900473ffffffffffffffffffffffffffffffffffffffff1673ffffffffffffffffffffffffffffffffffffffff16634c77e5ba8460405180807f4f776e65724f660000000000000000000000000000000000000000000000000081525060070182815260200191505060405180910390206040518263ffffffff167c0100000000000000000000000000000000000000000000000000000000028152600401808260001916600019168152602001915050602060405180830381600087803b15801561056557600080fd5b505af1158015610579573d6000803e3d6000fd5b505050506040513d602081101561058f57600080fd5b8101908080519060200190929190505050905080915050919050565b60008060009054906101000a900473ffffffffffffffffffffffffffffffffffffffff1673ffffffffffffffffffffffffffffffffffffffff1663bdc963d88360405180807f42616c616e63654f6600000000000000000000000000000000000000000000008152506009018273ffffffffffffffffffffffffffffffffffffffff1673ffffffffffffffffffffffffffffffffffffffff166c0100000000000000000000000002815260140191505060405180910390206040518263ffffffff167c0100000000000000000000000000000000000000000000000000000000028152600401808260001916600019168152602001915050602060405180830381600087803b1580156106bd57600080fd5b505af11580156106d1573d6000803e3d6000fd5b505050506040513d60208110156106e757600080fd5b81019080805190602001909291905050509050919050565b803373ffffffffffffffffffffffffffffffffffffffff166107208261048d565b73ffffffffffffffffffffffffffffffffffffffff1614151561074257600080fd5b61074d3384846109bb565b505050565b61075c3382610b04565b151561076757600080fd5b61077a6107738261048d565b33836109bb565b50565b60008060009054906101000a900473ffffffffffffffffffffffffffffffffffffffff1673ffffffffffffffffffffffffffffffffffffffff16634c77e5ba8360405180807f417070726f766564466f72000000000000000000000000000000000000000000815250600b0182815260200191505060405180910390206040518263ffffffff167c0100000000000000000000000000000000000000000000000000000000028152600401808260001916600019168152602001915050602060405180830381600087803b15801561085457600080fd5b505af1158015610868573d6000803e3d6000fd5b505050506040513d602081101561087e57600080fd5b81019080805190602001909291905050509050919050565b6000809054906101000a900473ffffffffffffffffffffffffffffffffffffffff1673ffffffffffffffffffffffffffffffffffffffff16635a2bf25a8360405180807f417070726f766564466f72000000000000000000000000000000000000000000815250600b018281526020019150506040518091039020836040518363ffffffff167c01000000000000000000000000000000000000000000000000000000000281526004018083600019166000191681526020018273ffffffffffffffffffffffffffffffffffffffff1673ffffffffffffffffffffffffffffffffffffffff16815260200192505050600060405180830381600087803b15801561099f57600080fd5b505af11580156109b3573d6000803e3d6000fd5b505050505050565b600073ffffffffffffffffffffffffffffffffffffffff168273ffffffffffffffffffffffffffffffffffffffff16141515156109f757600080fd5b610a008161048d565b73ffffffffffffffffffffffffffffffffffffffff168273ffffffffffffffffffffffffffffffffffffffff1614151515610a3a57600080fd5b8273ffffffffffffffffffffffffffffffffffffffff16610a5a8261048d565b73ffffffffffffffffffffffffffffffffffffffff16141515610a7c57600080fd5b610a868382610b45565b610a908382610be6565b610a9a8282610e4d565b8173ffffffffffffffffffffffffffffffffffffffff168373ffffffffffffffffffffffffffffffffffffffff167fddf252ad1be2c89b69c2b068fc378daa952ba7f163c4a11628f55a4df523b3ef836040518082815260200191505060405180910390a3505050565b60008273ffffffffffffffffffffffffffffffffffffffff16610b268361077d565b73ffffffffffffffffffffffffffffffffffffffff1614905092915050565b8173ffffffffffffffffffffffffffffffffffffffff16610b658261048d565b73ffffffffffffffffffffffffffffffffffffffff16141515610b8757600080fd5b610b92816000610896565b60008273ffffffffffffffffffffffffffffffffffffffff167f8c5be1e5ebec7d5bd14f71427d1e84f3dd0314c0f7b2291e5b200ac8c7c3b925836040518082815260200191505060405180910390a35050565b6000610bf38260006110f0565b610bfc836105ab565b90506000809054906101000a900473ffffffffffffffffffffffffffffffffffffffff1673ffffffffffffffffffffffffffffffffffffffff16633562fd208460405180807f42616c616e63654f6600000000000000000000000000000000000000000000008152506009018273ffffffffffffffffffffffffffffffffffffffff1673ffffffffffffffffffffffffffffffffffffffff166c010000000000000000000000000281526014019150506040518091039020610cc860018561121590919063ffffffff16565b6040518363ffffffff167c010000000000000000000000000000000000000000000000000000000002815260040180836000191660001916815260200182815260200192505050600060405180830381600087803b158015610d2957600080fd5b505af1158015610d3d573d6000803e3d6000fd5b505050506000809054906101000a900473ffffffffffffffffffffffffffffffffffffffff1673ffffffffffffffffffffffffffffffffffffffff16633562fd2060405180807f546f74616c537570706c79000000000000000000000000000000000000000000815250600b0190506040518091039020610dcf6001610dc161037e565b61121590919063ffffffff16565b6040518363ffffffff167c010000000000000000000000000000000000000000000000000000000002815260040180836000191660001916815260200182815260200192505050600060405180830381600087803b158015610e3057600080fd5b505af1158015610e44573d6000803e3d6000fd5b50505050505050565b600073ffffffffffffffffffffffffffffffffffffffff16610e6e8261048d565b73ffffffffffffffffffffffffffffffffffffffff16141515610e9057600080fd5b610e9a81836110f0565b6000809054906101000a900473ffffffffffffffffffffffffffffffffffffffff1673ffffffffffffffffffffffffffffffffffffffff16633562fd208360405180807f42616c616e63654f6600000000000000000000000000000000000000000000008152506009018273ffffffffffffffffffffffffffffffffffffffff1673ffffffffffffffffffffffffffffffffffffffff166c010000000000000000000000000281526014019150506040518091039020610f6c6001610f5e876105ab565b61122e90919063ffffffff16565b6040518363ffffffff167c010000000000000000000000000000000000000000000000000000000002815260040180836000191660001916815260200182815260200192505050600060405180830381600087803b158015610fcd57600080fd5b505af1158015610fe1573d6000803e3d6000fd5b505050506000809054906101000a900473ffffffffffffffffffffffffffffffffffffffff1673ffffffffffffffffffffffffffffffffffffffff16633562fd2060405180807f546f74616c537570706c79000000000000000000000000000000000000000000815250600b0190506040518091039020611073600161106561037e565b61122e90919063ffffffff16565b6040518363ffffffff167c010000000000000000000000000000000000000000000000000000000002815260040180836000191660001916815260200182815260200192505050600060405180830381600087803b1580156110d457600080fd5b505af11580156110e8573d6000803e3d6000fd5b505050505050565b6000809054906101000a900473ffffffffffffffffffffffffffffffffffffffff1673ffffffffffffffffffffffffffffffffffffffff16635a2bf25a8360405180807f4f776e65724f66000000000000000000000000000000000000000000000000008152506007018281526020019150506040518091039020836040518363ffffffff167c01000000000000000000000000000000000000000000000000000000000281526004018083600019166000191681526020018273ffffffffffffffffffffffffffffffffffffffff1673ffffffffffffffffffffffffffffffffffffffff16815260200192505050600060405180830381600087803b1580156111f957600080fd5b505af115801561120d573d6000803e3d6000fd5b505050505050565b600082821115151561122357fe5b818303905092915050565b6000818301905082811015151561124157fe5b809050929150505600a165627a7a72305820a7aac5b4c0cab02a014ed6dd83aa4a32cc29c88a47093bb525a3a6353df943410029",
  "source": "pragma solidity ^0.4.18;\n\nimport './ERC721.sol';\nimport './SafeMath.sol';\nimport './EternalDonut.sol';\n\n/**\n * @title DecoupledERC721Token\n * An implementation of the ERC721 token standard that uses a decoupled storage contract \n * instead of keeping all data in this contract.\n */\ncontract DecoupledERC721Token is ERC721 {\n    using SafeMath for uint256;\n\n    // The storage contract\n    EternalDonut internal storageContract;\n\n    function totalSupply() public returns (uint) {\n        return storageContract.getUIntValue(keccak256(\"TotalSupply\"));\n    }\n\n    function ownerOf(uint tokenID) public view returns (address) {\n        address owner = storageContract.getAddressValue(keccak256(\"OwnerOf\", tokenID));\n        // require(owner != address(0));\n        return owner;\n    }\n\n    function setOwnerOf(uint tokenID, address owner) private {    \n        storageContract.setAddressValue(keccak256(\"OwnerOf\", tokenID), owner);\n    }\n\n    /**\n     * @dev Gets the approved address to take ownership of a given token ID\n     * @param tokenID uint256 ID of the token to query the approval of\n     * @return address currently approved to take ownership of the given token ID\n     */\n    function approvedFor(uint tokenID) private returns (address) {\n        return storageContract.getAddressValue(keccak256(\"ApprovedFor\", tokenID));\n    }\n\n    function setTokenApproval(uint tokenID, address approvee) private {\n        storageContract.setAddressValue(keccak256(\"ApprovedFor\", tokenID), approvee);\n    }\n\n    /**\n     * @dev Gets the balance of the specified address\n     * @param owner address to query the balance of\n     * @return uint256 representing the amount owned by the passed address\n     */\n    function balanceOf(address owner) public view returns (uint) {\n        return storageContract.getUIntValue(keccak256(\"BalanceOf\", owner));\n    }\n\n    /**\n     * @dev Gets the list of tokens owned by a given address\n     * @param owner address to query the tokens of\n     * @return uint256[] representing the list of tokens owned by the passed address\n     */\n    function tokensOf(address owner) private returns (uint[]) {\n        uint balance = balanceOf(owner);    \n        uint[] memory ownedTokens = new uint[](balance.sub(1));\n        return ownedTokens;\n    }\n\n    /**\n     * @dev Guarantees msg.sender is owner of the given token\n     * @param _tokenId uint256 ID of the token to validate its ownership belongs to msg.sender\n     */\n    modifier onlyOwnerOf(uint256 _tokenId) {\n        require(ownerOf(_tokenId) == msg.sender);\n        _;\n    }\n\n    /**\n     * @dev Transfers the ownership of a given token ID to another address\n     * @param _to address to receive the ownership of the given token ID\n     * @param _tokenId uint256 ID of the token to be transferred\n     */\n    function transfer(address _to, uint256 _tokenId) public onlyOwnerOf(_tokenId) {\n        clearApprovalAndTransfer(msg.sender, _to, _tokenId);\n    }\n\n    /**\n     * @dev Approves another address to claim for the ownership of the given token ID\n     * @param _to address to be approved for the given token ID\n     * @param _tokenId uint256 ID of the token to be approved\n     */\n    function approve(address _to, uint256 _tokenId) public onlyOwnerOf(_tokenId) {\n        address owner = ownerOf(_tokenId);\n        require(_to != owner);\n        if (approvedFor(_tokenId) != 0 || _to != 0) {\n            setTokenApproval(_tokenId, _to);\n            Approval(owner, _to, _tokenId);\n        }\n    }\n\n    /**\n     * @dev Claims the ownership of a given token ID\n     * @param _tokenId uint256 ID of the token being claimed by the msg.sender\n     */\n    function takeOwnership(uint256 _tokenId) public {\n        require(isApprovedFor(msg.sender, _tokenId));\n        clearApprovalAndTransfer(ownerOf(_tokenId), msg.sender, _tokenId);\n    }\n\n    /**\n     * @dev Mint token function\n     * @param _to The address that will own the minted token\n     * @param _tokenId uint256 ID of the token to be minted by the msg.sender\n     */\n    function _mint(address _to, uint256 _tokenId) internal {\n        require(_to != address(0));\n        addToken(_to, _tokenId);\n        Transfer(0x0, _to, _tokenId);\n    }\n\n    /**\n     * @dev Burns a specific token\n     * @param _tokenId uint256 ID of the token being burned by the msg.sender\n     */\n    function _burn(address owner, uint256 _tokenId) internal {\n        if (approvedFor(_tokenId) != 0) {\n            clearApproval(owner, _tokenId);\n        }\n        removeToken(owner, _tokenId);\n        Transfer(owner, 0x0, _tokenId);\n    }\n\n\n    /**\n     * @dev Tells whether the msg.sender is approved for the given token ID or not\n     * This function is not private so it can be extended in further implementations like the operatable ERC721\n     * @param _owner address of the owner to query the approval of\n     * @param _tokenId uint256 ID of the token to query the approval of\n     * @return bool whether the msg.sender is approved for the given token ID or not\n     */\n    function isApprovedFor(address _owner, uint256 _tokenId) internal view returns (bool) {\n        return approvedFor(_tokenId) == _owner;\n    }\n\n    /**\n     * @dev Internal function to clear current approval and transfer the ownership of a given token ID\n     * @param _from address which you want to send tokens from\n     * @param _to address which you want to transfer the token to\n     * @param _tokenId uint256 ID of the token to be transferred\n     */\n    function clearApprovalAndTransfer(address _from, address _to, uint256 _tokenId) internal {\n        require(_to != address(0));\n        require(_to != ownerOf(_tokenId));\n        require(ownerOf(_tokenId) == _from);\n        clearApproval(_from, _tokenId);\n        removeToken(_from, _tokenId);\n        addToken(_to, _tokenId);\n        Transfer(_from, _to, _tokenId);\n    }\n\n    /**\n     * @dev Internal function to clear current approval of a given token ID\n     * @param _tokenId uint256 ID of the token to be transferred\n    */\n    function clearApproval(address _owner, uint256 _tokenId) private {\n        require(ownerOf(_tokenId) == _owner);\n        setTokenApproval(_tokenId, 0);\n        Approval(_owner, 0, _tokenId);\n    }\n\n    /**\n     * @dev Internal function to add a token ID to the list of a given address\n     * @param _to address representing the new owner of the given token ID\n     * @param _tokenId uint256 ID of the token to be added to the tokens list of the given address\n     */\n    function addToken(address _to, uint256 _tokenId) private {\n        require(ownerOf(_tokenId) == address(0));\n        setOwnerOf(_tokenId, _to);\n        storageContract.setUIntValue(keccak256(\"BalanceOf\", _to), balanceOf(_to).add(1));\n        storageContract.setUIntValue(keccak256(\"TotalSupply\"), totalSupply().add(1));\n    }\n\n    /**\n     * @dev Internal function to remove a token ID from the list of a given address\n     * @param _from address representing the previous owner of the given token ID\n     * @param _tokenId uint256 ID of the token to be removed from the tokens list of the given address\n     */\n    function removeToken(address _from, uint256 _tokenId) private {\n        setOwnerOf(_tokenId, address(0));\n        uint balance = balanceOf(_from);\n \n        // decrement token balance of user.\n        storageContract.setUIntValue(keccak256(\"BalanceOf\", _from), balance.sub(1));\n        storageContract.setUIntValue(keccak256(\"TotalSupply\"), totalSupply().sub(1));\n    }\n\n}",
  "sourcePath": "/Users/benandre/cropcrop/contracts/DecoupledERC721Token.sol",
  "compiler": {
    "name": "solc",
    "version": "0.4.24+commit.e67f0147.Emscripten.clang"
  },
  "schemaVersion": "2.0.1",
  "updatedAt": "2018-07-26T13:32:08.003Z"
}