{
  "contractName": "DecoupledERC721Token",
  "abi": [
    {
      "constant": false,
      "inputs": [
        {
          "name": "_to",
          "type": "address"
        },
        {
          "name": "_tokenId",
          "type": "uint256"
        }
      ],
      "name": "approve",
      "outputs": [],
      "payable": false,
      "stateMutability": "nonpayable",
      "type": "function"
    },
    {
      "constant": false,
      "inputs": [],
      "name": "totalSupply",
      "outputs": [
        {
          "name": "",
          "type": "uint256"
        }
      ],
      "payable": false,
      "stateMutability": "nonpayable",
      "type": "function"
    },
    {
      "constant": true,
      "inputs": [
        {
          "name": "tokenID",
          "type": "uint256"
        }
      ],
      "name": "ownerOf",
      "outputs": [
        {
          "name": "",
          "type": "address"
        }
      ],
      "payable": false,
      "stateMutability": "view",
      "type": "function"
    },
    {
      "constant": true,
      "inputs": [
        {
          "name": "owner",
          "type": "address"
        }
      ],
      "name": "balanceOf",
      "outputs": [
        {
          "name": "",
          "type": "uint256"
        }
      ],
      "payable": false,
      "stateMutability": "view",
      "type": "function"
    },
    {
      "constant": false,
      "inputs": [
        {
          "name": "_to",
          "type": "address"
        },
        {
          "name": "_tokenId",
          "type": "uint256"
        }
      ],
      "name": "transfer",
      "outputs": [],
      "payable": false,
      "stateMutability": "nonpayable",
      "type": "function"
    },
    {
      "constant": false,
      "inputs": [
        {
          "name": "_tokenId",
          "type": "uint256"
        }
      ],
      "name": "takeOwnership",
      "outputs": [],
      "payable": false,
      "stateMutability": "nonpayable",
      "type": "function"
    },
    {
      "anonymous": false,
      "inputs": [
        {
          "indexed": false,
          "name": "one",
          "type": "uint256"
        }
      ],
      "name": "debug",
      "type": "event"
    },
    {
      "anonymous": false,
      "inputs": [
        {
          "indexed": true,
          "name": "_from",
          "type": "address"
        },
        {
          "indexed": true,
          "name": "_to",
          "type": "address"
        },
        {
          "indexed": false,
          "name": "_tokenId",
          "type": "uint256"
        }
      ],
      "name": "Transfer",
      "type": "event"
    },
    {
      "anonymous": false,
      "inputs": [
        {
          "indexed": true,
          "name": "_owner",
          "type": "address"
        },
        {
          "indexed": true,
          "name": "_approved",
          "type": "address"
        },
        {
          "indexed": false,
          "name": "_tokenId",
          "type": "uint256"
        }
      ],
      "name": "Approval",
      "type": "event"
    }
  ],
  "bytecode": "0x6060604052341561000f57600080fd5b6111e98061001e6000396000f300606060405260043610610078576000357c0100000000000000000000000000000000000000000000000000000000900463ffffffff168063095ea7b31461007d57806318160ddd146100bf5780636352211e146100e857806370a082311461014b578063a9059cbb14610198578063b2e6ceeb146101da575b600080fd5b341561008857600080fd5b6100bd600480803573ffffffffffffffffffffffffffffffffffffffff169060200190919080359060200190919050506101fd565b005b34156100ca57600080fd5b6100d2610348565b6040518082815260200191505060405180910390f35b34156100f357600080fd5b610109600480803590602001909190505061043f565b604051808273ffffffffffffffffffffffffffffffffffffffff1673ffffffffffffffffffffffffffffffffffffffff16815260200191505060405180910390f35b341561015657600080fd5b610182600480803573ffffffffffffffffffffffffffffffffffffffff16906020019091905050610545565b6040518082815260200191505060405180910390f35b34156101a357600080fd5b6101d8600480803573ffffffffffffffffffffffffffffffffffffffff16906020019091908035906020019091905050610681565b005b34156101e557600080fd5b6101fb60048080359060200190919050506106d4565b005b6000813373ffffffffffffffffffffffffffffffffffffffff166102208261043f565b73ffffffffffffffffffffffffffffffffffffffff1614151561024257600080fd5b61024b8361043f565b91508173ffffffffffffffffffffffffffffffffffffffff168473ffffffffffffffffffffffffffffffffffffffff161415151561028857600080fd5b6000610293846106ff565b73ffffffffffffffffffffffffffffffffffffffff161415806102cd575060008473ffffffffffffffffffffffffffffffffffffffff1614155b15610342576102dc8385610800565b8373ffffffffffffffffffffffffffffffffffffffff168273ffffffffffffffffffffffffffffffffffffffff167f8c5be1e5ebec7d5bd14f71427d1e84f3dd0314c0f7b2291e5b200ac8c7c3b925856040518082815260200191505060405180910390a35b50505050565b60008060009054906101000a900473ffffffffffffffffffffffffffffffffffffffff1673ffffffffffffffffffffffffffffffffffffffff1663bdc963d860405180807f546f74616c537570706c79000000000000000000000000000000000000000000815250600b01905060405180910390206000604051602001526040518263ffffffff167c0100000000000000000000000000000000000000000000000000000000028152600401808260001916600019168152602001915050602060405180830381600087803b151561041f57600080fd5b6102c65a03f1151561043057600080fd5b50505060405180519050905090565b6000806000809054906101000a900473ffffffffffffffffffffffffffffffffffffffff1673ffffffffffffffffffffffffffffffffffffffff16634c77e5ba8460405180807f4f776e65724f660000000000000000000000000000000000000000000000000081525060070182815260200191505060405180910390206000604051602001526040518263ffffffff167c0100000000000000000000000000000000000000000000000000000000028152600401808260001916600019168152602001915050602060405180830381600087803b151561051f57600080fd5b6102c65a03f1151561053057600080fd5b50505060405180519050905080915050919050565b60008060009054906101000a900473ffffffffffffffffffffffffffffffffffffffff1673ffffffffffffffffffffffffffffffffffffffff1663bdc963d88360405180807f42616c616e63654f6600000000000000000000000000000000000000000000008152506009018273ffffffffffffffffffffffffffffffffffffffff1673ffffffffffffffffffffffffffffffffffffffff166c0100000000000000000000000002815260140191505060405180910390206000604051602001526040518263ffffffff167c0100000000000000000000000000000000000000000000000000000000028152600401808260001916600019168152602001915050602060405180830381600087803b151561065f57600080fd5b6102c65a03f1151561067057600080fd5b505050604051805190509050919050565b803373ffffffffffffffffffffffffffffffffffffffff166106a28261043f565b73ffffffffffffffffffffffffffffffffffffffff161415156106c457600080fd5b6106cf338484610920565b505050565b6106de3382610a69565b15156106e957600080fd5b6106fc6106f58261043f565b3383610920565b50565b60008060009054906101000a900473ffffffffffffffffffffffffffffffffffffffff1673ffffffffffffffffffffffffffffffffffffffff16634c77e5ba8360405180807f417070726f766564466f72000000000000000000000000000000000000000000815250600b0182815260200191505060405180910390206000604051602001526040518263ffffffff167c0100000000000000000000000000000000000000000000000000000000028152600401808260001916600019168152602001915050602060405180830381600087803b15156107de57600080fd5b6102c65a03f115156107ef57600080fd5b505050604051805190509050919050565b6000809054906101000a900473ffffffffffffffffffffffffffffffffffffffff1673ffffffffffffffffffffffffffffffffffffffff16635a2bf25a8360405180807f417070726f766564466f72000000000000000000000000000000000000000000815250600b018281526020019150506040518091039020836040518363ffffffff167c01000000000000000000000000000000000000000000000000000000000281526004018083600019166000191681526020018273ffffffffffffffffffffffffffffffffffffffff1673ffffffffffffffffffffffffffffffffffffffff16815260200192505050600060405180830381600087803b151561090857600080fd5b6102c65a03f1151561091957600080fd5b5050505050565b600073ffffffffffffffffffffffffffffffffffffffff168273ffffffffffffffffffffffffffffffffffffffff161415151561095c57600080fd5b6109658161043f565b73ffffffffffffffffffffffffffffffffffffffff168273ffffffffffffffffffffffffffffffffffffffff161415151561099f57600080fd5b8273ffffffffffffffffffffffffffffffffffffffff166109bf8261043f565b73ffffffffffffffffffffffffffffffffffffffff161415156109e157600080fd5b6109eb8382610aaa565b6109f58382610b4b565b6109ff8282610dcd565b8173ffffffffffffffffffffffffffffffffffffffff168373ffffffffffffffffffffffffffffffffffffffff167fddf252ad1be2c89b69c2b068fc378daa952ba7f163c4a11628f55a4df523b3ef836040518082815260200191505060405180910390a3505050565b60008273ffffffffffffffffffffffffffffffffffffffff16610a8b836106ff565b73ffffffffffffffffffffffffffffffffffffffff1614905092915050565b8173ffffffffffffffffffffffffffffffffffffffff16610aca8261043f565b73ffffffffffffffffffffffffffffffffffffffff16141515610aec57600080fd5b610af7816000610800565b60008273ffffffffffffffffffffffffffffffffffffffff167f8c5be1e5ebec7d5bd14f71427d1e84f3dd0314c0f7b2291e5b200ac8c7c3b925836040518082815260200191505060405180910390a35050565b60008273ffffffffffffffffffffffffffffffffffffffff16610b6d8361043f565b73ffffffffffffffffffffffffffffffffffffffff16141515610b8f57600080fd5b610b9a826000611066565b610ba383610545565b90506000809054906101000a900473ffffffffffffffffffffffffffffffffffffffff1673ffffffffffffffffffffffffffffffffffffffff16633562fd208460405180807f42616c616e63654f6600000000000000000000000000000000000000000000008152506009018273ffffffffffffffffffffffffffffffffffffffff1673ffffffffffffffffffffffffffffffffffffffff166c010000000000000000000000000281526014019150506040518091039020610c6f60018561118690919063ffffffff16565b6040518363ffffffff167c010000000000000000000000000000000000000000000000000000000002815260040180836000191660001916815260200182815260200192505050600060405180830381600087803b1515610ccf57600080fd5b6102c65a03f11515610ce057600080fd5b5050506000809054906101000a900473ffffffffffffffffffffffffffffffffffffffff1673ffffffffffffffffffffffffffffffffffffffff16633562fd20610d3b6001610d2d610348565b61118690919063ffffffff16565b6040518263ffffffff167c010000000000000000000000000000000000000000000000000000000002815260040180807f546f74616c537570706c79000000000000000000000000000000000000000000815250602001828152602001915050600060405180830381600087803b1515610db457600080fd5b6102c65a03f11515610dc557600080fd5b505050505050565b600073ffffffffffffffffffffffffffffffffffffffff16610dee8261043f565b73ffffffffffffffffffffffffffffffffffffffff16141515610e1057600080fd5b610e1a8183611066565b6000809054906101000a900473ffffffffffffffffffffffffffffffffffffffff1673ffffffffffffffffffffffffffffffffffffffff16633562fd208360405180807f42616c616e63654f6600000000000000000000000000000000000000000000008152506009018273ffffffffffffffffffffffffffffffffffffffff1673ffffffffffffffffffffffffffffffffffffffff166c010000000000000000000000000281526014019150506040518091039020610eec6001610ede87610545565b61119f90919063ffffffff16565b6040518363ffffffff167c010000000000000000000000000000000000000000000000000000000002815260040180836000191660001916815260200182815260200192505050600060405180830381600087803b1515610f4c57600080fd5b6102c65a03f11515610f5d57600080fd5b5050506000809054906101000a900473ffffffffffffffffffffffffffffffffffffffff1673ffffffffffffffffffffffffffffffffffffffff16633562fd2060405180807f546f74616c537570706c79000000000000000000000000000000000000000000815250600b0190506040518091039020610fee6001610fe0610348565b61119f90919063ffffffff16565b6040518363ffffffff167c010000000000000000000000000000000000000000000000000000000002815260040180836000191660001916815260200182815260200192505050600060405180830381600087803b151561104e57600080fd5b6102c65a03f1151561105f57600080fd5b5050505050565b6000809054906101000a900473ffffffffffffffffffffffffffffffffffffffff1673ffffffffffffffffffffffffffffffffffffffff16635a2bf25a8360405180807f4f776e65724f66000000000000000000000000000000000000000000000000008152506007018281526020019150506040518091039020836040518363ffffffff167c01000000000000000000000000000000000000000000000000000000000281526004018083600019166000191681526020018273ffffffffffffffffffffffffffffffffffffffff1673ffffffffffffffffffffffffffffffffffffffff16815260200192505050600060405180830381600087803b151561116e57600080fd5b6102c65a03f1151561117f57600080fd5b5050505050565b600082821115151561119457fe5b818303905092915050565b60008082840190508381101515156111b357fe5b80915050929150505600a165627a7a7230582078d3df817828923c17eda7a8c6d3b100b3ec66f29b26876d3e73e071deb10f0b0029",
  "source": "pragma solidity ^0.4.18;\n\nimport 'zeppelin-solidity/contracts/token/ERC721/ERC721.sol';\nimport 'zeppelin-solidity/contracts/math/SafeMath.sol';\nimport './EternalDonut.sol';\n\n/**\n * @title DecoupledERC721Token\n * An implementation of the ERC721 token standard that uses a decoupled storage contract \n * instead of keeping all data in this contract.\n */\ncontract DecoupledERC721Token is ERC721 {\n  using SafeMath for uint256;\n\n  // The storage contract\n  EternalDonut internal storageContract;\n\n\n  function totalSupply() public returns (uint) {\n    return storageContract.getUIntValue(keccak256(\"TotalSupply\"));\n  }\n\n  function ownerOf(uint tokenID) public view returns (address) {\n        address owner = storageContract.getAddressValue(keccak256(\"OwnerOf\", tokenID));\n      //  require(owner != address(0));\n        return owner;\n  }\n\n  event debug(uint one);\n\n  function setOwnerOf(uint tokenID, address owner) private {    \n    storageContract.setAddressValue(keccak256(\"OwnerOf\", tokenID), owner);\n  }\n\n  /**\n   * @dev Gets the approved address to take ownership of a given token ID\n   * @param tokenID uint256 ID of the token to query the approval of\n   * @return address currently approved to take ownership of the given token ID\n   */\n  function approvedFor(uint tokenID) private returns (address) {\n    return storageContract.getAddressValue(keccak256(\"ApprovedFor\", tokenID));\n  }\n\n  function setTokenApproval(uint tokenID, address approvee) private {\n    storageContract.setAddressValue(keccak256(\"ApprovedFor\", tokenID), approvee);\n  }\n\n  /**\n  * @dev Gets the balance of the specified address\n  * @param owner address to query the balance of\n  * @return uint256 representing the amount owned by the passed address\n  */\n  function balanceOf(address owner) public view returns (uint) {\n    return storageContract.getUIntValue(keccak256(\"BalanceOf\", owner));\n  }\n\n  /**\n  * @dev Gets the list of tokens owned by a given address\n  * @param owner address to query the tokens of\n  * @return uint256[] representing the list of tokens owned by the passed address\n  */\n  function tokensOf(address owner) private returns (uint[]) {\n    uint balance = balanceOf(owner);    \n    uint[] memory ownedTokens = new uint[](balance.sub(1));\n//    for (uint balanceItr = 0; balanceItr < balance; balanceItr.add(1)) {\n  //      ownedTokens[balanceItr] = storageContract.getUIntValue(keccak256(\"TokensOf\", address, balanceItr));\n    //}\n    return ownedTokens;\n  }\n\n  /**\n  * @dev Guarantees msg.sender is owner of the given token\n  * @param _tokenId uint256 ID of the token to validate its ownership belongs to msg.sender\n  */\n  modifier onlyOwnerOf(uint256 _tokenId) {\n    require(ownerOf(_tokenId) == msg.sender);\n    _;\n  }\n\n  /**\n  * @dev Transfers the ownership of a given token ID to another address\n  * @param _to address to receive the ownership of the given token ID\n  * @param _tokenId uint256 ID of the token to be transferred\n  */\n  function transfer(address _to, uint256 _tokenId) public onlyOwnerOf(_tokenId) {\n    clearApprovalAndTransfer(msg.sender, _to, _tokenId);\n  }\n\n  /**\n  * @dev Approves another address to claim for the ownership of the given token ID\n  * @param _to address to be approved for the given token ID\n  * @param _tokenId uint256 ID of the token to be approved\n  */\n  function approve(address _to, uint256 _tokenId) public onlyOwnerOf(_tokenId) {\n    address owner = ownerOf(_tokenId);\n    require(_to != owner);\n    if (approvedFor(_tokenId) != 0 || _to != 0) {\n      setTokenApproval(_tokenId, _to);\n      Approval(owner, _to, _tokenId);\n    }\n  }\n\n  /**\n  * @dev Claims the ownership of a given token ID\n  * @param _tokenId uint256 ID of the token being claimed by the msg.sender\n  */\n  function takeOwnership(uint256 _tokenId) public {\n    require(isApprovedFor(msg.sender, _tokenId));\n    clearApprovalAndTransfer(ownerOf(_tokenId), msg.sender, _tokenId);\n  }\n\n  /**\n  * @dev Mint token function\n  * @param _to The address that will own the minted token\n  * @param _tokenId uint256 ID of the token to be minted by the msg.sender\n  */\n  function _mint(address _to, uint256 _tokenId) internal {\n    require(_to != address(0));\n    addToken(_to, _tokenId);\n    Transfer(0x0, _to, _tokenId);\n  }\n\n  /**\n  * @dev Burns a specific token\n  * @param _tokenId uint256 ID of the token being burned by the msg.sender\n  */\n  function _burn(uint256 _tokenId) internal {\n    if (approvedFor(_tokenId) != 0) {\n      clearApproval(msg.sender, _tokenId);\n    }\n    removeToken(msg.sender, _tokenId);\n    Transfer(msg.sender, 0x0, _tokenId);\n  }\n\n  /**\n   * @dev Tells whether the msg.sender is approved for the given token ID or not\n   * This function is not private so it can be extended in further implementations like the operatable ERC721\n   * @param _owner address of the owner to query the approval of\n   * @param _tokenId uint256 ID of the token to query the approval of\n   * @return bool whether the msg.sender is approved for the given token ID or not\n   */\n  function isApprovedFor(address _owner, uint256 _tokenId) internal view returns (bool) {\n    return approvedFor(_tokenId) == _owner;\n  }\n\n  /**\n  * @dev Internal function to clear current approval and transfer the ownership of a given token ID\n  * @param _from address which you want to send tokens from\n  * @param _to address which you want to transfer the token to\n  * @param _tokenId uint256 ID of the token to be transferred\n  */\n  function clearApprovalAndTransfer(address _from, address _to, uint256 _tokenId) internal {\n    require(_to != address(0));\n    require(_to != ownerOf(_tokenId));\n    require(ownerOf(_tokenId) == _from);\n\n    clearApproval(_from, _tokenId);\n    removeToken(_from, _tokenId);\n    addToken(_to, _tokenId);\n    Transfer(_from, _to, _tokenId);\n  }\n\n  /**\n  * @dev Internal function to clear current approval of a given token ID\n  * @param _tokenId uint256 ID of the token to be transferred\n  */\n  function clearApproval(address _owner, uint256 _tokenId) private {\n    require(ownerOf(_tokenId) == _owner);\n    setTokenApproval(_tokenId, 0);\n    Approval(_owner, 0, _tokenId);\n  }\n\n\n  /**\n  * @dev Internal function to add a token ID to the list of a given address\n  * @param _to address representing the new owner of the given token ID\n  * @param _tokenId uint256 ID of the token to be added to the tokens list of the given address\n  */\n  function addToken(address _to, uint256 _tokenId) private {\n    require(ownerOf(_tokenId) == address(0));\n    setOwnerOf(_tokenId, _to);\n\n    storageContract.setUIntValue(keccak256(\"BalanceOf\", _to), balanceOf(_to).add(1));\n//    storageContract.setUIntValue(keccak256(\"TokensOf\", _to, balance.add(1)), _tokenId);\n\n    storageContract.setUIntValue(keccak256(\"TotalSupply\"), totalSupply().add(1));\n\n  }\n\n  /**\n  * @dev Internal function to remove a token ID from the list of a given address\n  * @param _from address representing the previous owner of the given token ID\n  * @param _tokenId uint256 ID of the token to be removed from the tokens list of the given address\n  */\n  function removeToken(address _from, uint256 _tokenId) private {\n    require(ownerOf(_tokenId) == _from);\n\n    setOwnerOf(_tokenId, address(0));\n\n    // change value in \"TokensOf\" mapping.\n    // Yes, this does work for a balance of 1.\n    uint balance = balanceOf(_from);\n  //  uint[] tokensOf = tokensOf(_from);\n //   uint lastToken = storageContract.getUIntValue(keccak256(\"TokensOf\", _from, balance.sub(1)));\n   // for (uint balanceItr = 0; balanceItr < balance; balanceItr.add(1)) {\n     // if (storageContract.getUIntValue(keccak256(\"TokensOf\", _from, balanceItr)) == _tokenId) { // if we're on the right \"index\"\n       // storageContract.setUIntValue(keccak256(\"TokensOf\", _from, balanceItr), lastToken);      // move the value at the last \"index\" to the current \"index\"\n       // storageContract.setUIntValue(keccak256(\"TokensOf\", _from, balance.sub(1)), 0);           // set the value at the last \"index\" to 0\n   //   }\n   // }\n\n    // decrement token balance of user.\n    storageContract.setUIntValue(keccak256(\"BalanceOf\", _from), balance.sub(1));\n\n    storageContract.setUIntValue(\"TotalSupply\", totalSupply().sub(1));\n  }\n}\n",
  "sourcePath": "/Users/benandre/cropcrop/contracts/DecoupledERC721Token.sol",
  "compiler": {
    "name": "solc",
    "version": "0.4.18+commit.9cf6e910.Emscripten.clang"
  },
  "schemaVersion": "1.0.1",
  "updatedAt": "2018-04-26T20:14:35.635Z"
}