{
  "contractName": "EternalDonut",
  "abi": [
    {
      "constant": false,
      "inputs": [],
      "name": "renounceOwnership",
      "outputs": [],
      "payable": false,
      "stateMutability": "nonpayable",
      "type": "function"
    },
    {
      "constant": true,
      "inputs": [],
      "name": "owner",
      "outputs": [
        {
          "name": "",
          "type": "address"
        }
      ],
      "payable": false,
      "stateMutability": "view",
      "type": "function"
    },
    {
      "constant": false,
      "inputs": [
        {
          "name": "client",
          "type": "address"
        }
      ],
      "name": "grantAuthorization",
      "outputs": [],
      "payable": false,
      "stateMutability": "nonpayable",
      "type": "function"
    },
    {
      "constant": false,
      "inputs": [
        {
          "name": "client",
          "type": "address"
        }
      ],
      "name": "revokeAuthorization",
      "outputs": [],
      "payable": false,
      "stateMutability": "nonpayable",
      "type": "function"
    },
    {
      "constant": false,
      "inputs": [
        {
          "name": "_newOwner",
          "type": "address"
        }
      ],
      "name": "transferOwnership",
      "outputs": [],
      "payable": false,
      "stateMutability": "nonpayable",
      "type": "function"
    },
    {
      "anonymous": false,
      "inputs": [
        {
          "indexed": true,
          "name": "newClient",
          "type": "address"
        }
      ],
      "name": "ClientAuthorizationGranted",
      "type": "event"
    },
    {
      "anonymous": false,
      "inputs": [
        {
          "indexed": true,
          "name": "formerClient",
          "type": "address"
        }
      ],
      "name": "ClientAuthorizationRevoked",
      "type": "event"
    },
    {
      "anonymous": false,
      "inputs": [
        {
          "indexed": true,
          "name": "previousOwner",
          "type": "address"
        }
      ],
      "name": "OwnershipRenounced",
      "type": "event"
    },
    {
      "anonymous": false,
      "inputs": [
        {
          "indexed": true,
          "name": "previousOwner",
          "type": "address"
        },
        {
          "indexed": true,
          "name": "newOwner",
          "type": "address"
        }
      ],
      "name": "OwnershipTransferred",
      "type": "event"
    },
    {
      "constant": true,
      "inputs": [
        {
          "name": "record",
          "type": "bytes32"
        }
      ],
      "name": "getUIntValue",
      "outputs": [
        {
          "name": "",
          "type": "uint256"
        }
      ],
      "payable": false,
      "stateMutability": "view",
      "type": "function"
    },
    {
      "constant": false,
      "inputs": [
        {
          "name": "record",
          "type": "bytes32"
        },
        {
          "name": "value",
          "type": "uint256"
        }
      ],
      "name": "setUIntValue",
      "outputs": [],
      "payable": false,
      "stateMutability": "nonpayable",
      "type": "function"
    },
    {
      "constant": true,
      "inputs": [
        {
          "name": "record",
          "type": "bytes32"
        }
      ],
      "name": "getStringValue",
      "outputs": [
        {
          "name": "",
          "type": "string"
        }
      ],
      "payable": false,
      "stateMutability": "view",
      "type": "function"
    },
    {
      "constant": false,
      "inputs": [
        {
          "name": "record",
          "type": "bytes32"
        },
        {
          "name": "value",
          "type": "string"
        }
      ],
      "name": "setStringValue",
      "outputs": [],
      "payable": false,
      "stateMutability": "nonpayable",
      "type": "function"
    },
    {
      "constant": true,
      "inputs": [
        {
          "name": "record",
          "type": "bytes32"
        }
      ],
      "name": "getAddressValue",
      "outputs": [
        {
          "name": "",
          "type": "address"
        }
      ],
      "payable": false,
      "stateMutability": "view",
      "type": "function"
    },
    {
      "constant": false,
      "inputs": [
        {
          "name": "record",
          "type": "bytes32"
        },
        {
          "name": "value",
          "type": "address"
        }
      ],
      "name": "setAddressValue",
      "outputs": [],
      "payable": false,
      "stateMutability": "nonpayable",
      "type": "function"
    },
    {
      "constant": true,
      "inputs": [
        {
          "name": "record",
          "type": "bytes32"
        }
      ],
      "name": "getBytes32Value",
      "outputs": [
        {
          "name": "",
          "type": "bytes32"
        }
      ],
      "payable": false,
      "stateMutability": "view",
      "type": "function"
    },
    {
      "constant": false,
      "inputs": [
        {
          "name": "record",
          "type": "bytes32"
        },
        {
          "name": "value",
          "type": "bytes32"
        }
      ],
      "name": "setBytes32Value",
      "outputs": [],
      "payable": false,
      "stateMutability": "nonpayable",
      "type": "function"
    },
    {
      "constant": true,
      "inputs": [
        {
          "name": "record",
          "type": "bytes32"
        }
      ],
      "name": "getBytesValue",
      "outputs": [
        {
          "name": "",
          "type": "bytes"
        }
      ],
      "payable": false,
      "stateMutability": "view",
      "type": "function"
    },
    {
      "constant": false,
      "inputs": [
        {
          "name": "record",
          "type": "bytes32"
        },
        {
          "name": "value",
          "type": "bytes"
        }
      ],
      "name": "setBytesValue",
      "outputs": [],
      "payable": false,
      "stateMutability": "nonpayable",
      "type": "function"
    },
    {
      "constant": true,
      "inputs": [
        {
          "name": "record",
          "type": "bytes32"
        }
      ],
      "name": "getBooleanValue",
      "outputs": [
        {
          "name": "",
          "type": "bool"
        }
      ],
      "payable": false,
      "stateMutability": "view",
      "type": "function"
    },
    {
      "constant": false,
      "inputs": [
        {
          "name": "record",
          "type": "bytes32"
        },
        {
          "name": "value",
          "type": "bool"
        }
      ],
      "name": "setBooleanValue",
      "outputs": [],
      "payable": false,
      "stateMutability": "nonpayable",
      "type": "function"
    },
    {
      "constant": true,
      "inputs": [
        {
          "name": "record",
          "type": "bytes32"
        }
      ],
      "name": "getIntValue",
      "outputs": [
        {
          "name": "",
          "type": "int256"
        }
      ],
      "payable": false,
      "stateMutability": "view",
      "type": "function"
    },
    {
      "constant": false,
      "inputs": [
        {
          "name": "record",
          "type": "bytes32"
        },
        {
          "name": "value",
          "type": "int256"
        }
      ],
      "name": "setIntValue",
      "outputs": [],
      "payable": false,
      "stateMutability": "nonpayable",
      "type": "function"
    }
  ],
  "bytecode": "0x6080604052336000806101000a81548173ffffffffffffffffffffffffffffffffffffffff021916908373ffffffffffffffffffffffffffffffffffffffff160217905550611447806100536000396000f300608060405260043610610107576000357c0100000000000000000000000000000000000000000000000000000000900463ffffffff168063025ec81a1461010c57806317e7dd221461015957806325cf512d146101a25780633562fd20146101e15780633eba9ed21461021c57806344bfa56e146102595780634c77e5ba146103035780635a2bf25a14610374578063715018a6146103c55780638da5cb5b146103dc5780638f2fdb42146104335780639007127b14610476578063a209a29c146104bb578063a77aa49e14610565578063b48028e3146105a0578063bdc963d8146105e3578063c9a52d2c14610628578063f2fde38b1461069f578063f5866066146106e2575b600080fd5b34801561011857600080fd5b5061013b6004803603810190808035600019169060200190929190505050610759565b60405180826000191660001916815260200191505060405180910390f35b34801561016557600080fd5b50610188600480360381019080803560001916906020019092919050505061077e565b604051808215151515815260200191505060405180910390f35b3480156101ae57600080fd5b506101df600480360381019080803560001916906020019092919080356000191690602001909291905050506107b0565b005b3480156101ed57600080fd5b5061021a600480360381019080803560001916906020019092919080359060200190929190505050610837565b005b34801561022857600080fd5b5061025760048036038101908080356000191690602001909291908035151590602001909291905050506108ba565b005b34801561026557600080fd5b506102886004803603810190808035600019169060200190929190505050610950565b6040518080602001828103825283818151815260200191508051906020019080838360005b838110156102c85780820151818401526020810190506102ad565b50505050905090810190601f1680156102f55780820380516001836020036101000a031916815260200191505b509250505060405180910390f35b34801561030f57600080fd5b506103326004803603810190808035600019169060200190929190505050610a0d565b604051808273ffffffffffffffffffffffffffffffffffffffff1673ffffffffffffffffffffffffffffffffffffffff16815260200191505060405180910390f35b34801561038057600080fd5b506103c36004803603810190808035600019169060200190929190803573ffffffffffffffffffffffffffffffffffffffff169060200190929190505050610a52565b005b3480156103d157600080fd5b506103da610b0f565b005b3480156103e857600080fd5b506103f1610c11565b604051808273ffffffffffffffffffffffffffffffffffffffff1673ffffffffffffffffffffffffffffffffffffffff16815260200191505060405180910390f35b34801561043f57600080fd5b50610474600480360381019080803573ffffffffffffffffffffffffffffffffffffffff169060200190929190505050610c36565b005b34801561048257600080fd5b506104a56004803603810190808035600019169060200190929190505050610d8d565b6040518082815260200191505060405180910390f35b3480156104c757600080fd5b506104ea6004803603810190808035600019169060200190929190505050610db2565b6040518080602001828103825283818151815260200191508051906020019080838360005b8381101561052a57808201518184015260208101905061050f565b50505050905090810190601f1680156105575780820380516001836020036101000a031916815260200191505b509250505060405180910390f35b34801561057157600080fd5b5061059e600480360381019080803560001916906020019092919080359060200190929190505050610e6f565b005b3480156105ac57600080fd5b506105e1600480360381019080803573ffffffffffffffffffffffffffffffffffffffff169060200190929190505050610ef2565b005b3480156105ef57600080fd5b50610612600480360381019080803560001916906020019092919050505061104a565b6040518082815260200191505060405180910390f35b34801561063457600080fd5b5061069d6004803603810190808035600019169060200190929190803590602001908201803590602001908080601f016020809104026020016040519081016040528093929190818152602001838380828437820191505050505050919291929050505061106f565b005b3480156106ab57600080fd5b506106e0600480360381019080803573ffffffffffffffffffffffffffffffffffffffff169060200190929190505050611102565b005b3480156106ee57600080fd5b506107576004803603810190808035600019169060200190929190803590602001908201803590602001908080601f0160208091040260200160405190810160405280939291908181526020018383808284378201915050505050509192919290505050611169565b005b6000600560008360001916600019168152602001908152602001600020549050919050565b600060076000836000191660001916815260200190815260200160002060009054906101000a900460ff169050919050565b60011515600160003373ffffffffffffffffffffffffffffffffffffffff1673ffffffffffffffffffffffffffffffffffffffff16815260200190815260200160002060009054906101000a900460ff16151514151561080f57600080fd5b8060056000846000191660001916815260200190815260200160002081600019169055505050565b60011515600160003373ffffffffffffffffffffffffffffffffffffffff1673ffffffffffffffffffffffffffffffffffffffff16815260200190815260200160002060009054906101000a900460ff16151514151561089657600080fd5b80600260008460001916600019168152602001908152602001600020819055505050565b60011515600160003373ffffffffffffffffffffffffffffffffffffffff1673ffffffffffffffffffffffffffffffffffffffff16815260200190815260200160002060009054906101000a900460ff16151514151561091957600080fd5b8060076000846000191660001916815260200190815260200160002060006101000a81548160ff0219169083151502179055505050565b60606006600083600019166000191681526020019081526020016000208054600181600116156101000203166002900480601f016020809104026020016040519081016040528092919081815260200182805460018160011615610100020316600290048015610a015780601f106109d657610100808354040283529160200191610a01565b820191906000526020600020905b8154815290600101906020018083116109e457829003601f168201915b50505050509050919050565b600060046000836000191660001916815260200190815260200160002060009054906101000a900473ffffffffffffffffffffffffffffffffffffffff169050919050565b60011515600160003373ffffffffffffffffffffffffffffffffffffffff1673ffffffffffffffffffffffffffffffffffffffff16815260200190815260200160002060009054906101000a900460ff161515141515610ab157600080fd5b8060046000846000191660001916815260200190815260200160002060006101000a81548173ffffffffffffffffffffffffffffffffffffffff021916908373ffffffffffffffffffffffffffffffffffffffff1602179055505050565b6000809054906101000a900473ffffffffffffffffffffffffffffffffffffffff1673ffffffffffffffffffffffffffffffffffffffff163373ffffffffffffffffffffffffffffffffffffffff16141515610b6a57600080fd5b6000809054906101000a900473ffffffffffffffffffffffffffffffffffffffff1673ffffffffffffffffffffffffffffffffffffffff167ff8df31144d9c2f0f6b59d69b8b98abd5459d07f2742c4df920b25aae33c6482060405160405180910390a260008060006101000a81548173ffffffffffffffffffffffffffffffffffffffff021916908373ffffffffffffffffffffffffffffffffffffffff160217905550565b6000809054906101000a900473ffffffffffffffffffffffffffffffffffffffff1681565b6000809054906101000a900473ffffffffffffffffffffffffffffffffffffffff1673ffffffffffffffffffffffffffffffffffffffff163373ffffffffffffffffffffffffffffffffffffffff16141515610c9157600080fd5b60001515600160008373ffffffffffffffffffffffffffffffffffffffff1673ffffffffffffffffffffffffffffffffffffffff16815260200190815260200160002060009054906101000a900460ff161515141515610cf057600080fd5b60018060008373ffffffffffffffffffffffffffffffffffffffff1673ffffffffffffffffffffffffffffffffffffffff16815260200190815260200160002060006101000a81548160ff0219169083151502179055508073ffffffffffffffffffffffffffffffffffffffff167f9e82816672e359bcd941da425d962c0001b91d8c043c00aaba283bb8bce4e42a60405160405180910390a250565b6000600860008360001916600019168152602001908152602001600020549050919050565b60606003600083600019166000191681526020019081526020016000208054600181600116156101000203166002900480601f016020809104026020016040519081016040528092919081815260200182805460018160011615610100020316600290048015610e635780601f10610e3857610100808354040283529160200191610e63565b820191906000526020600020905b815481529060010190602001808311610e4657829003601f168201915b50505050509050919050565b60011515600160003373ffffffffffffffffffffffffffffffffffffffff1673ffffffffffffffffffffffffffffffffffffffff16815260200190815260200160002060009054906101000a900460ff161515141515610ece57600080fd5b80600860008460001916600019168152602001908152602001600020819055505050565b6000809054906101000a900473ffffffffffffffffffffffffffffffffffffffff1673ffffffffffffffffffffffffffffffffffffffff163373ffffffffffffffffffffffffffffffffffffffff16141515610f4d57600080fd5b60011515600160008373ffffffffffffffffffffffffffffffffffffffff1673ffffffffffffffffffffffffffffffffffffffff16815260200190815260200160002060009054906101000a900460ff161515141515610fac57600080fd5b6000600160008373ffffffffffffffffffffffffffffffffffffffff1673ffffffffffffffffffffffffffffffffffffffff16815260200190815260200160002060006101000a81548160ff0219169083151502179055508073ffffffffffffffffffffffffffffffffffffffff167fd33fc48ddfa3028c3f6cc2b20bbae786aaef02a5e63af6c64d30751542444d2460405160405180910390a250565b6000600260008360001916600019168152602001908152602001600020549050919050565b60011515600160003373ffffffffffffffffffffffffffffffffffffffff1673ffffffffffffffffffffffffffffffffffffffff16815260200190815260200160002060009054906101000a900460ff1615151415156110ce57600080fd5b8060066000846000191660001916815260200190815260200160002090805190602001906110fd9291906112f6565b505050565b6000809054906101000a900473ffffffffffffffffffffffffffffffffffffffff1673ffffffffffffffffffffffffffffffffffffffff163373ffffffffffffffffffffffffffffffffffffffff1614151561115d57600080fd5b611166816111fc565b50565b60011515600160003373ffffffffffffffffffffffffffffffffffffffff1673ffffffffffffffffffffffffffffffffffffffff16815260200190815260200160002060009054906101000a900460ff1615151415156111c857600080fd5b8060036000846000191660001916815260200190815260200160002090805190602001906111f7929190611376565b505050565b600073ffffffffffffffffffffffffffffffffffffffff168173ffffffffffffffffffffffffffffffffffffffff161415151561123857600080fd5b8073ffffffffffffffffffffffffffffffffffffffff166000809054906101000a900473ffffffffffffffffffffffffffffffffffffffff1673ffffffffffffffffffffffffffffffffffffffff167f8be0079c531659141344cd1fd0a4f28419497f9722a3daafe3b4186f6b6457e060405160405180910390a3806000806101000a81548173ffffffffffffffffffffffffffffffffffffffff021916908373ffffffffffffffffffffffffffffffffffffffff16021790555050565b828054600181600116156101000203166002900490600052602060002090601f016020900481019282601f1061133757805160ff1916838001178555611365565b82800160010185558215611365579182015b82811115611364578251825591602001919060010190611349565b5b50905061137291906113f6565b5090565b828054600181600116156101000203166002900490600052602060002090601f016020900481019282601f106113b757805160ff19168380011785556113e5565b828001600101855582156113e5579182015b828111156113e45782518255916020019190600101906113c9565b5b5090506113f291906113f6565b5090565b61141891905b808211156114145760008160009055506001016113fc565b5090565b905600a165627a7a723058201a8f13646e9f6eb956ac704f68e65626e6cab16803f64c06660f847ae155259d0029",
  "source": "pragma solidity ^0.4.18;\n\nimport './AccessControlled.sol';\n\ncontract EternalDonut is AccessControlled {\n\n    mapping(bytes32 => uint) UIntStorage;\n\n    function getUIntValue(bytes32 record) public constant returns (uint) {\n        return UIntStorage[record];\n    }\n\n    function setUIntValue(bytes32 record, uint value) public \n    requiresAuthorization {\n        UIntStorage[record] = value;\n    }\n\n    mapping(bytes32 => string) StringStorage;\n\n    function getStringValue(bytes32 record) public constant returns (string) {\n        return StringStorage[record];\n    }\n\n    function setStringValue(bytes32 record, string value) public \n    requiresAuthorization {\n        StringStorage[record] = value;\n    }\n\n    mapping(bytes32 => address) AddressStorage;\n\n    function getAddressValue(bytes32 record) public constant returns (address) {\n        return AddressStorage[record];\n    }\n\n    function setAddressValue(bytes32 record, address value) public \n    requiresAuthorization {\n        AddressStorage[record] = value;\n    }\n\n    mapping(bytes32 => bytes32) Bytes32Storage;\n\n    function getBytes32Value(bytes32 record) public constant returns (bytes32) {\n        return Bytes32Storage[record];\n    }\n\n    function setBytes32Value(bytes32 record, bytes32 value) public \n    requiresAuthorization {\n        Bytes32Storage[record] = value;\n    }\n\n    mapping(bytes32 => bytes) BytesStorage;\n\n    function getBytesValue(bytes32 record) public constant returns (bytes) {\n        return BytesStorage[record];\n    }\n\n    function setBytesValue(bytes32 record, bytes value) public \n    requiresAuthorization {\n        BytesStorage[record] = value;\n    }\n\n    mapping(bytes32 => bool) BooleanStorage;\n\n    function getBooleanValue(bytes32 record) public constant returns (bool) {\n        return BooleanStorage[record];\n    }\n\n    function setBooleanValue(bytes32 record, bool value) public \n    requiresAuthorization {\n        BooleanStorage[record] = value;\n    }\n    \n    mapping(bytes32 => int) IntStorage;\n\n    function getIntValue(bytes32 record) public constant returns (int) {\n        return IntStorage[record];\n    }\n\n    function setIntValue(bytes32 record, int value) public\n    requiresAuthorization {\n        IntStorage[record] = value;\n    }\n\n}",
  "sourcePath": "/Users/benandre/cropcrop/contracts/EternalDonut.sol",
  "compiler": {
    "name": "solc",
    "version": "0.4.24+commit.e67f0147.Emscripten.clang"
  },
  "schemaVersion": "2.0.1",
  "updatedAt": "2018-07-26T13:32:10.139Z"
}