{
  "contractName": "NOAAPrecipAggregate",
  "abi": [
    {
      "constant": true,
      "inputs": [],
      "name": "the_owner",
      "outputs": [
        {
          "name": "",
          "type": "address"
        }
      ],
      "payable": false,
      "stateMutability": "view",
      "type": "function"
    },
    {
      "constant": false,
      "inputs": [
        {
          "name": "newOwner",
          "type": "address"
        }
      ],
      "name": "transferOwnership",
      "outputs": [],
      "payable": false,
      "stateMutability": "nonpayable",
      "type": "function"
    },
    {
      "payable": true,
      "stateMutability": "payable",
      "type": "fallback"
    },
    {
      "anonymous": false,
      "inputs": [
        {
          "indexed": false,
          "name": "key",
          "type": "string"
        },
        {
          "indexed": false,
          "name": "result",
          "type": "string"
        },
        {
          "indexed": false,
          "name": "remainingGas",
          "type": "uint256"
        }
      ],
      "name": "gotNOAAPrecipAggregateCallback",
      "type": "event"
    },
    {
      "anonymous": false,
      "inputs": [
        {
          "indexed": false,
          "name": "precipScript",
          "type": "string"
        },
        {
          "indexed": false,
          "name": "WITID",
          "type": "uint256"
        },
        {
          "indexed": false,
          "name": "avgedYearsStartEnd",
          "type": "string"
        },
        {
          "indexed": false,
          "name": "thresholdFactorPPTTH",
          "type": "uint256"
        },
        {
          "indexed": false,
          "name": "location",
          "type": "string"
        }
      ],
      "name": "sentNOAAPrecipAggregateOraclizeComputation",
      "type": "event"
    },
    {
      "anonymous": false,
      "inputs": [
        {
          "indexed": true,
          "name": "previousOwner",
          "type": "address"
        },
        {
          "indexed": true,
          "name": "newOwner",
          "type": "address"
        }
      ],
      "name": "OwnershipTransferred",
      "type": "event"
    },
    {
      "constant": false,
      "inputs": [
        {
          "name": "WITID",
          "type": "uint256"
        },
        {
          "name": "start",
          "type": "uint256"
        },
        {
          "name": "end",
          "type": "uint256"
        },
        {
          "name": "thresholdFactorPPTTH",
          "type": "uint256"
        },
        {
          "name": "location",
          "type": "string"
        },
        {
          "name": "num_averaged_years",
          "type": "uint256"
        },
        {
          "name": "runtimeParams",
          "type": "string"
        }
      ],
      "name": "evaluateWIT",
      "outputs": [],
      "payable": true,
      "stateMutability": "payable",
      "type": "function"
    },
    {
      "constant": false,
      "inputs": [
        {
          "name": "myid",
          "type": "bytes32"
        },
        {
          "name": "result",
          "type": "string"
        }
      ],
      "name": "__callback",
      "outputs": [],
      "payable": false,
      "stateMutability": "nonpayable",
      "type": "function"
    },
    {
      "constant": false,
      "inputs": [
        {
          "name": "myid",
          "type": "bytes32"
        },
        {
          "name": "result",
          "type": "string"
        },
        {
          "name": "proof",
          "type": "bytes"
        }
      ],
      "name": "__callback",
      "outputs": [],
      "payable": false,
      "stateMutability": "nonpayable",
      "type": "function"
    },
    {
      "constant": false,
      "inputs": [],
      "name": "setLocalOAR",
      "outputs": [],
      "payable": false,
      "stateMutability": "nonpayable",
      "type": "function"
    },
    {
      "constant": false,
      "inputs": [
        {
          "name": "scriptHash",
          "type": "string"
        }
      ],
      "name": "updateIPFSMultihash",
      "outputs": [],
      "payable": false,
      "stateMutability": "nonpayable",
      "type": "function"
    },
    {
      "constant": true,
      "inputs": [],
      "name": "getNameAndDescription",
      "outputs": [
        {
          "name": "name",
          "type": "string"
        },
        {
          "name": "description",
          "type": "string"
        }
      ],
      "payable": false,
      "stateMutability": "pure",
      "type": "function"
    }
  ],
  "bytecode": "0x6080604052606060405190810160405280602e81526020017f516d524e51684b5254685943516533384c79636a3764544e564346513762466e81526020017f70516446384e787146396a5069340000000000000000000000000000000000008152506006908051906020019062000078929190620000c0565b5033600560006101000a81548173ffffffffffffffffffffffffffffffffffffffff021916908373ffffffffffffffffffffffffffffffffffffffff1602179055506200016f565b828054600181600116156101000203166002900490600052602060002090601f016020900481019282601f106200010357805160ff191683800117855562000134565b8280016001018555821562000134579182015b828111156200013357825182559160200191906001019062000116565b5b50905062000143919062000147565b5090565b6200016c91905b80821115620001685760008160009055506001016200014e565b5090565b90565b6133b3806200017f6000396000f30060806040526004361061008e576000357c0100000000000000000000000000000000000000000000000000000000900463ffffffff16806327dc297e146100905780632eb91c4d1461010757806338bbfa501461011e5780638ab54581146101db578063aa012ec914610244578063cb23e45214610318578063ee52d2871461036f578063f2fde38b1461046b575b005b34801561009c57600080fd5b506101056004803603810190808035600019169060200190929190803590602001908201803590602001908080601f01602080910402602001604051908101604052809392919081815260200183838082843782019150505050505091929192905050506104ae565b005b34801561011357600080fd5b5061011c6108dc565b005b34801561012a57600080fd5b506101d96004803603810190808035600019169060200190929190803590602001908201803590602001908080601f0160208091040260200160405190810160405280939291908181526020018383808284378201915050505050509192919290803590602001908201803590602001908080601f016020809104026020016040519081016040528093929190818152602001838380828437820191505050505050919291929050505061098e565b005b3480156101e757600080fd5b50610242600480360381019080803590602001908201803590602001908080601f0160208091040260200160405190810160405280939291908181526020018383808284378201915050505050509192919290505050610993565b005b61031660048036038101908080359060200190929190803590602001909291908035906020019092919080359060200190929190803590602001908201803590602001908080601f016020809104026020016040519081016040528093929190818152602001838380828437820191505050505050919291929080359060200190929190803590602001908201803590602001908080601f0160208091040260200160405190810160405280939291908181526020018383808284378201915050505050509192919290505050610a09565b005b34801561032457600080fd5b5061032d610e57565b604051808273ffffffffffffffffffffffffffffffffffffffff1673ffffffffffffffffffffffffffffffffffffffff16815260200191505060405180910390f35b34801561037b57600080fd5b50610384610e7d565b604051808060200180602001838103835285818151815260200191508051906020019080838360005b838110156103c85780820151818401526020810190506103ad565b50505050905090810190601f1680156103f55780820380516001836020036101000a031916815260200191505b50838103825284818151815260200191508051906020019080838360005b8381101561042e578082015181840152602081019050610413565b50505050905090810190601f16801561045b5780820380516001836020036101000a031916815260200191505b5094505050505060405180910390f35b34801561047757600080fd5b506104ac600480360381019080803573ffffffffffffffffffffffffffffffffffffffff169060200190929190505050610f8e565b005b6104b66132ae565b6104be6132ae565b600060606104ca6110e6565b73ffffffffffffffffffffffffffffffffffffffff163373ffffffffffffffffffffffffffffffffffffffff1614151561050357600080fd5b7f565fae302b57150ce424225759a2bb174e54a85ccc09f53f2bb928d19f3eca74855a604051808060200180602001848152602001838103835260638152602001807f687474702d726573706f6e73652d7374617475732d636f6465267769742d696481526020017f266f7574636f6d6526617665726167652d707265637069746174696f6e26746581526020017f726d2d70726563697069746174696f6e266162736f6c7574652d74687265736881526020017f6f6c640000000000000000000000000000000000000000000000000000000000815250608001838103825285818151815260200191508051906020019080838360005b838110156106165780820151818401526020810190506105fb565b50505050905090810190601f1680156106435780820380516001836020036101000a031916815260200191505b5094505050505060405180910390a161065b85611444565b93506106ad61069e6040805190810160405280600181526020017f2600000000000000000000000000000000000000000000000000000000000000815250611444565b8561147290919063ffffffff16565b92506106f6836106f16040805190810160405280600381526020017f3230300000000000000000000000000000000000000000000000000000000000815250611444565b61148c565b1515610701576108d4565b61076161075c6107576107486040805190810160405280600181526020017f2600000000000000000000000000000000000000000000000000000000000000815250611444565b8761147290919063ffffffff16565b6114a2565b611504565b91506107bb6107b66107a76040805190810160405280600181526020017f2600000000000000000000000000000000000000000000000000000000000000815250611444565b8661147290919063ffffffff16565b6114a2565b9050600560009054906101000a900473ffffffffffffffffffffffffffffffffffffffff1673ffffffffffffffffffffffffffffffffffffffff1663dbef1a2983836040518363ffffffff167c01000000000000000000000000000000000000000000000000000000000281526004018083815260200180602001828103825283818151815260200191508051906020019080838360005b8381101561086e578082015181840152602081019050610853565b50505050905090810190601f16801561089b5780820380516001836020036101000a031916815260200191505b509350505050600060405180830381600087803b1580156108bb57600080fd5b505af11580156108cf573d6000803e3d6000fd5b505050505b505050505050565b600560009054906101000a900473ffffffffffffffffffffffffffffffffffffffff1673ffffffffffffffffffffffffffffffffffffffff163373ffffffffffffffffffffffffffffffffffffffff1614151561093857600080fd5b736f485c8bf6fc43ea212e93bbf8ce046c7f1cb4756000806101000a81548173ffffffffffffffffffffffffffffffffffffffff021916908373ffffffffffffffffffffffffffffffffffffffff160217905550565b505050565b600560009054906101000a900473ffffffffffffffffffffffffffffffffffffffff1673ffffffffffffffffffffffffffffffffffffffff163373ffffffffffffffffffffffffffffffffffffffff161415156109ef57600080fd5b8060069080519060200190610a059291906132c8565b5050565b60006060600560009054906101000a900473ffffffffffffffffffffffffffffffffffffffff1673ffffffffffffffffffffffffffffffffffffffff163373ffffffffffffffffffffffffffffffffffffffff16141515610a6957600080fd5b6207a12091503073ffffffffffffffffffffffffffffffffffffffff163182101515610a9457600080fd5b6301e276f0610aac898961151890919063ffffffff16565b101515610ab857600080fd5b856064101515610ac757600080fd5b620186a086101515610ad857600080fd5b610b946040805190810160405280600281526020017f31300000000000000000000000000000000000000000000000000000000000008152506040805190810160405280600181526020017f2600000000000000000000000000000000000000000000000000000000000000815250610b508b611539565b6040805190810160405280600181526020017f2600000000000000000000000000000000000000000000000000000000000000815250610b8f8c611539565b611690565b9050610ca76040805190810160405280600b81526020017f636f6d7075746174696f6e00000000000000000000000000000000000000000081525060a06040519081016040528060068054600181600116156101000203166002900480601f016020809104026020016040519081016040528092919081815260200182805460018160011615610100020316600290048015610c715780601f10610c4657610100808354040283529160200191610c71565b820191906000526020600020905b815481529060010190602001808311610c5457829003601f168201915b50505050508152602001610c848d611539565b8152602001848152602001610c988a611539565b81526020018881525084611aa5565b507fe2527f63162f71161621da8d9d8609aea319367e2cd40a2413cb01b81c3090d760068a83898960405180806020018681526020018060200185815260200180602001848103845289818154600181600116156101000203166002900481526020019150805460018160011615610100020316600290048015610d6c5780601f10610d4157610100808354040283529160200191610d6c565b820191906000526020600020905b815481529060010190602001808311610d4f57829003601f168201915b5050848103835287818151815260200191508051906020019080838360005b83811015610da6578082015181840152602081019050610d8b565b50505050905090810190601f168015610dd35780820380516001836020036101000a031916815260200191505b50848103825285818151815260200191508051906020019080838360005b83811015610e0c578082015181840152602081019050610df1565b50505050905090810190601f168015610e395780820380516001836020036101000a031916815260200191505b509850505050505050505060405180910390a1505050505050505050565b600560009054906101000a900473ffffffffffffffffffffffffffffffffffffffff1681565b606080606060405190810160405280602a81526020017f4e4f41412050726563697069746174696f6e204167677265676174652057495481526020017f204576616c7561746f720000000000000000000000000000000000000000000081525060a060405190810160405280606281526020017f5468697320636f6e7472616374206d616b657320612063616c6c20746f20746881526020017f65204e4f41412061676772656761746520656e64706f696e7420616e6420657681526020017f616c7561746573206120574954206261736564206f6e2074686520726573756c81526020017f742e000000000000000000000000000000000000000000000000000000000000815250915091509091565b600560009054906101000a900473ffffffffffffffffffffffffffffffffffffffff1673ffffffffffffffffffffffffffffffffffffffff163373ffffffffffffffffffffffffffffffffffffffff16141515610fea57600080fd5b600073ffffffffffffffffffffffffffffffffffffffff168173ffffffffffffffffffffffffffffffffffffffff161415151561102657600080fd5b8073ffffffffffffffffffffffffffffffffffffffff16600560009054906101000a900473ffffffffffffffffffffffffffffffffffffffff1673ffffffffffffffffffffffffffffffffffffffff167f8be0079c531659141344cd1fd0a4f28419497f9722a3daafe3b4186f6b6457e060405160405180910390a380600560006101000a81548173ffffffffffffffffffffffffffffffffffffffff021916908373ffffffffffffffffffffffffffffffffffffffff16021790555050565b6000806000809054906101000a900473ffffffffffffffffffffffffffffffffffffffff1673ffffffffffffffffffffffffffffffffffffffff161480611156575060006111546000809054906101000a900473ffffffffffffffffffffffffffffffffffffffff16611e7d565b145b15611167576111656000611e88565b505b6000809054906101000a900473ffffffffffffffffffffffffffffffffffffffff1673ffffffffffffffffffffffffffffffffffffffff166338cc48316040518163ffffffff167c0100000000000000000000000000000000000000000000000000000000028152600401602060405180830381600087803b1580156111ec57600080fd5b505af1158015611200573d6000803e3d6000fd5b505050506040513d602081101561121657600080fd5b810190808051906020019092919050505073ffffffffffffffffffffffffffffffffffffffff16600160009054906101000a900473ffffffffffffffffffffffffffffffffffffffff1673ffffffffffffffffffffffffffffffffffffffff1614151561137e576000809054906101000a900473ffffffffffffffffffffffffffffffffffffffff1673ffffffffffffffffffffffffffffffffffffffff166338cc48316040518163ffffffff167c0100000000000000000000000000000000000000000000000000000000028152600401602060405180830381600087803b15801561130257600080fd5b505af1158015611316573d6000803e3d6000fd5b505050506040513d602081101561132c57600080fd5b8101908080519060200190929190505050600160006101000a81548173ffffffffffffffffffffffffffffffffffffffff021916908373ffffffffffffffffffffffffffffffffffffffff1602179055505b600160009054906101000a900473ffffffffffffffffffffffffffffffffffffffff1673ffffffffffffffffffffffffffffffffffffffff1663c281d19e6040518163ffffffff167c0100000000000000000000000000000000000000000000000000000000028152600401602060405180830381600087803b15801561140457600080fd5b505af1158015611418573d6000803e3d6000fd5b505050506040513d602081101561142e57600080fd5b8101908080519060200190929190505050905090565b61144c6132ae565b600060208301905060408051908101604052808451815260200182815250915050919050565b61147a6132ae565b611485838383611e99565b5092915050565b6000806114998484611f37565b14905092915050565b606080600083600001516040519080825280601f01601f1916602001820160405280156114de5781602001602082028038833980820191505090505b5091506020820190506114fa8185602001518660000151611ff1565b8192505050919050565b600061151182600061203c565b9050919050565b60008083831115151561152a57600080fd5b82840390508091505092915050565b60606000806060600080861415611587576040805190810160405280600181526020017f30000000000000000000000000000000000000000000000000000000000000008152509450611687565b8593505b6000841415156115b1578280600101935050600a848115156115a957fe5b04935061158b565b826040519080825280601f01601f1916602001820160405280156115e45781602001602082028038833980820191505090505b5091506001830390505b60008614151561168357600a8681151561160457fe5b066030017f01000000000000000000000000000000000000000000000000000000000000000282828060019003935081518110151561163f57fe5b9060200101907effffffffffffffffffffffffffffffffffffffffffffffffffffffffffffff1916908160001a905350600a8681151561167b57fe5b0495506115ee565b8194505b50505050919050565b6060806060806060806060806000808e98508d97508c96508b95508a94508451865188518a518c51010101016040519080825280601f01601f1916602001820160405280156116ee5781602001602082028038833980820191505090505b50935083925060009150600090505b88518110156117b057888181518110151561171457fe5b9060200101517f010000000000000000000000000000000000000000000000000000000000000090047f010000000000000000000000000000000000000000000000000000000000000002838380600101945081518110151561177357fe5b9060200101907effffffffffffffffffffffffffffffffffffffffffffffffffffffffffffff1916908160001a90535080806001019150506116fd565b600090505b87518110156118685787818151811015156117cc57fe5b9060200101517f010000000000000000000000000000000000000000000000000000000000000090047f010000000000000000000000000000000000000000000000000000000000000002838380600101945081518110151561182b57fe5b9060200101907effffffffffffffffffffffffffffffffffffffffffffffffffffffffffffff1916908160001a90535080806001019150506117b5565b600090505b865181101561192057868181518110151561188457fe5b9060200101517f010000000000000000000000000000000000000000000000000000000000000090047f01000000000000000000000000000000000000000000000000000000000000000283838060010194508151811015156118e357fe5b9060200101907effffffffffffffffffffffffffffffffffffffffffffffffffffffffffffff1916908160001a905350808060010191505061186d565b600090505b85518110156119d857858181518110151561193c57fe5b9060200101517f010000000000000000000000000000000000000000000000000000000000000090047f010000000000000000000000000000000000000000000000000000000000000002838380600101945081518110151561199b57fe5b9060200101907effffffffffffffffffffffffffffffffffffffffffffffffffffffffffffff1916908160001a9053508080600101915050611925565b600090505b8451811015611a905784818151811015156119f457fe5b9060200101517f010000000000000000000000000000000000000000000000000000000000000090047f0100000000000000000000000000000000000000000000000000000000000000028383806001019450815181101515611a5357fe5b9060200101907effffffffffffffffffffffffffffffffffffffffffffffffffffffffffffff1916908160001a90535080806001019150506119dd565b82995050505050505050505095945050505050565b6000606060008060009054906101000a900473ffffffffffffffffffffffffffffffffffffffff1673ffffffffffffffffffffffffffffffffffffffff161480611b1857506000611b166000809054906101000a900473ffffffffffffffffffffffffffffffffffffffff16611e7d565b145b15611b2957611b276000611e88565b505b6000809054906101000a900473ffffffffffffffffffffffffffffffffffffffff1673ffffffffffffffffffffffffffffffffffffffff166338cc48316040518163ffffffff167c0100000000000000000000000000000000000000000000000000000000028152600401602060405180830381600087803b158015611bae57600080fd5b505af1158015611bc2573d6000803e3d6000fd5b505050506040513d6020811015611bd857600080fd5b810190808051906020019092919050505073ffffffffffffffffffffffffffffffffffffffff16600160009054906101000a900473ffffffffffffffffffffffffffffffffffffffff1673ffffffffffffffffffffffffffffffffffffffff16141515611d40576000809054906101000a900473ffffffffffffffffffffffffffffffffffffffff1673ffffffffffffffffffffffffffffffffffffffff166338cc48316040518163ffffffff167c0100000000000000000000000000000000000000000000000000000000028152600401602060405180830381600087803b158015611cc457600080fd5b505af1158015611cd8573d6000803e3d6000fd5b505050506040513d6020811015611cee57600080fd5b8101908080519060200190929190505050600160006101000a81548173ffffffffffffffffffffffffffffffffffffffff021916908373ffffffffffffffffffffffffffffffffffffffff1602179055505b6005604051908082528060200260200182016040528015611d7557816020015b6060815260200190600190039081611d605790505b509050836000600581101515611d8757fe5b6020020151816000815181101515611d9b57fe5b90602001906020020181905250836001600581101515611db757fe5b6020020151816001815181101515611dcb57fe5b90602001906020020181905250836002600581101515611de757fe5b6020020151816002815181101515611dfb57fe5b90602001906020020181905250836003600581101515611e1757fe5b6020020151816003815181101515611e2b57fe5b90602001906020020181905250836004600581101515611e4757fe5b6020020151816004815181101515611e5b57fe5b90602001906020020181905250611e73858285612330565b9150509392505050565b6000813b9050919050565b6000611e926128ee565b9050919050565b611ea16132ae565b6000611ebf8560000151866020015186600001518760200151612d7d565b90508460200151836020018181525050846020015181038360000181815250508460000151856020015101811415611f01576000856000018181525050611f2c565b8360000151836000015101856000018181510391508181525050836000015181018560200181815250505b829150509392505050565b60008060008060008060008060008a6000015197508a600001518a600001511015611f6457896000015197505b8a60200151965089602001519550600094505b87851015611fd55786519350855192508284141515611fbe57600185896020030160080260020a03199150818316828516039050600081141515611fbd57809850611fe3565b5b602087019650602086019550602085019450611f77565b89600001518b600001510398505b505050505050505092915050565b60005b6020821015156120195782518452602084019350602083019250602082039150611ff4565b6001826020036101000a0390508019835116818551168181178652505050505050565b6000606060008060008693506000925060009150600090505b83518110156123115760307f010000000000000000000000000000000000000000000000000000000000000002848281518110151561209057fe5b9060200101517f010000000000000000000000000000000000000000000000000000000000000090047f0100000000000000000000000000000000000000000000000000000000000000027effffffffffffffffffffffffffffffffffffffffffffffffffffffffffffff1916101580156121a8575060397f010000000000000000000000000000000000000000000000000000000000000002848281518110151561213857fe5b9060200101517f010000000000000000000000000000000000000000000000000000000000000090047f0100000000000000000000000000000000000000000000000000000000000000027effffffffffffffffffffffffffffffffffffffffffffffffffffffffffffff191611155b156122595781156121cb5760008614156121c157612311565b8580600190039650505b600a83029250603084828151811015156121e157fe5b9060200101517f010000000000000000000000000000000000000000000000000000000000000090047f0100000000000000000000000000000000000000000000000000000000000000027f010000000000000000000000000000000000000000000000000000000000000090040383019250612304565b602e7f010000000000000000000000000000000000000000000000000000000000000002848281518110151561228b57fe5b9060200101517f010000000000000000000000000000000000000000000000000000000000000090047f0100000000000000000000000000000000000000000000000000000000000000027effffffffffffffffffffffffffffffffffffffffffffffffffffffffffffff1916141561230357600191505b5b8080600101915050612055565b60008611156123235785600a0a830292505b8294505050505092915050565b600080606060008060009054906101000a900473ffffffffffffffffffffffffffffffffffffffff1673ffffffffffffffffffffffffffffffffffffffff1614806123a4575060006123a26000809054906101000a900473ffffffffffffffffffffffffffffffffffffffff16611e7d565b145b156123b5576123b36000611e88565b505b6000809054906101000a900473ffffffffffffffffffffffffffffffffffffffff1673ffffffffffffffffffffffffffffffffffffffff166338cc48316040518163ffffffff167c0100000000000000000000000000000000000000000000000000000000028152600401602060405180830381600087803b15801561243a57600080fd5b505af115801561244e573d6000803e3d6000fd5b505050506040513d602081101561246457600080fd5b810190808051906020019092919050505073ffffffffffffffffffffffffffffffffffffffff16600160009054906101000a900473ffffffffffffffffffffffffffffffffffffffff1673ffffffffffffffffffffffffffffffffffffffff161415156125cc576000809054906101000a900473ffffffffffffffffffffffffffffffffffffffff1673ffffffffffffffffffffffffffffffffffffffff166338cc48316040518163ffffffff167c0100000000000000000000000000000000000000000000000000000000028152600401602060405180830381600087803b15801561255057600080fd5b505af1158015612564573d6000803e3d6000fd5b505050506040513d602081101561257a57600080fd5b8101908080519060200190929190505050600160006101000a81548173ffffffffffffffffffffffffffffffffffffffff021916908373ffffffffffffffffffffffffffffffffffffffff1602179055505b600160009054906101000a900473ffffffffffffffffffffffffffffffffffffffff1673ffffffffffffffffffffffffffffffffffffffff16632ef3accc87866040518363ffffffff167c01000000000000000000000000000000000000000000000000000000000281526004018080602001838152602001828103825284818151815260200191508051906020019080838360005b8381101561267d578082015181840152602081019050612662565b50505050905090810190601f1680156126aa5780820380516001836020036101000a031916815260200191505b509350505050602060405180830381600087803b1580156126ca57600080fd5b505af11580156126de573d6000803e3d6000fd5b505050506040513d60208110156126f457600080fd5b81019080805190602001909291905050509150833a02670de0b6b3a76400000182111561272757600060010292506128e5565b61273085612e63565b9050600160009054906101000a900473ffffffffffffffffffffffffffffffffffffffff1673ffffffffffffffffffffffffffffffffffffffff1663c55c1cb68360008985896040518663ffffffff167c0100000000000000000000000000000000000000000000000000000000028152600401808581526020018060200180602001848152602001838103835286818151815260200191508051906020019080838360005b838110156127f15780820151818401526020810190506127d6565b50505050905090810190601f16801561281e5780820380516001836020036101000a031916815260200191505b50838103825285818151815260200191508051906020019080838360005b8381101561285757808201518184015260208101905061283c565b50505050905090810190601f1680156128845780820380516001836020036101000a031916815260200191505b5096505050505050506020604051808303818588803b1580156128a657600080fd5b505af11580156128ba573d6000803e3d6000fd5b50505050506040513d60208110156128d157600080fd5b810190808051906020019092919050505092505b50509392505050565b60008061290e731d3b2638a7cc9f2cb3d298a3da7a90b67e5506ed611e7d565b11156129af57731d3b2638a7cc9f2cb3d298a3da7a90b67e5506ed6000806101000a81548173ffffffffffffffffffffffffffffffffffffffff021916908373ffffffffffffffffffffffffffffffffffffffff1602179055506129a66040805190810160405280600b81526020017f6574685f6d61696e6e6574000000000000000000000000000000000000000000815250612ee8565b60019050612d7a565b60006129ce73c03a2615d5efaf5f49f60b7bb6583eaec212fdf1611e7d565b1115612a6f5773c03a2615d5efaf5f49f60b7bb6583eaec212fdf16000806101000a81548173ffffffffffffffffffffffffffffffffffffffff021916908373ffffffffffffffffffffffffffffffffffffffff160217905550612a666040805190810160405280600c81526020017f6574685f726f707374656e330000000000000000000000000000000000000000815250612ee8565b60019050612d7a565b6000612a8e73b7a07bcf2ba2f2703b24c0691b5278999c59ac7e611e7d565b1115612b2f5773b7a07bcf2ba2f2703b24c0691b5278999c59ac7e6000806101000a81548173ffffffffffffffffffffffffffffffffffffffff021916908373ffffffffffffffffffffffffffffffffffffffff160217905550612b266040805190810160405280600981526020017f6574685f6b6f76616e0000000000000000000000000000000000000000000000815250612ee8565b60019050612d7a565b6000612b4e73146500cfd35b22e4a392fe0adc06de1a1368ed48611e7d565b1115612bef5773146500cfd35b22e4a392fe0adc06de1a1368ed486000806101000a81548173ffffffffffffffffffffffffffffffffffffffff021916908373ffffffffffffffffffffffffffffffffffffffff160217905550612be66040805190810160405280600b81526020017f6574685f72696e6b656279000000000000000000000000000000000000000000815250612ee8565b60019050612d7a565b6000612c0e736f485c8bf6fc43ea212e93bbf8ce046c7f1cb475611e7d565b1115612c7157736f485c8bf6fc43ea212e93bbf8ce046c7f1cb4756000806101000a81548173ffffffffffffffffffffffffffffffffffffffff021916908373ffffffffffffffffffffffffffffffffffffffff16021790555060019050612d7a565b6000612c907320e12a1f859b3feae5fb2a0a32c18f5a65555bbf611e7d565b1115612cf3577320e12a1f859b3feae5fb2a0a32c18f5a65555bbf6000806101000a81548173ffffffffffffffffffffffffffffffffffffffff021916908373ffffffffffffffffffffffffffffffffffffffff16021790555060019050612d7a565b6000612d127351efaf4c8b3c9afbd5ab9f4bbc82784ab6ef8faa611e7d565b1115612d75577351efaf4c8b3c9afbd5ab9f4bbc82784ab6ef8faa6000806101000a81548173ffffffffffffffffffffffffffffffffffffffff021916908373ffffffffffffffffffffffffffffffffffffffff16021790555060019050612d7a565b600090505b90565b60008060008060008060008060008b97508c8b111515612e4d5760208b111515612e075760018b60200360080260020a03196001029550858a511694508a8d8d010393508588511692505b84600019168360001916141515612dff578388101515612dec578c8c019850612e53565b8780600101985050858851169250612dc8565b879850612e53565b8a8a209150600096505b8a8d0387111515612e4c578a88209050806000191682600019161415612e3957879850612e53565b6001880197508680600101975050612e11565b5b8c8c0198505b5050505050505050949350505050565b6060612e6d613348565b6000612e77612f02565b612e8382610400612f0e565b612e8c82612f5e565b600090505b8351811015612ed157612ec48482815181101515612eab57fe5b9060200190602002015183612f6c90919063ffffffff16565b8080600101915050612e91565b612eda82612f91565b816000015192505050919050565b8060029080519060200190612efe9291906132c8565b5050565b60405180590338823950565b60008190506000602082811515612f2157fe5b06141515612f3e57602081811515612f3557fe5b06602003810190505b808360200181815250506040518084526000815281810160405250505050565b612f69816004612f9f565b50565b612f798260038351612fc3565b612f8c818361311c90919063ffffffff16565b505050565b612f9c816007612f9f565b50565b612fbf601f60058360ff169060020a0217836131c890919063ffffffff16565b5050565b601781111515612ff457612fef8160058460ff169060020a0260ff1617846131c890919063ffffffff16565b613117565b60ff8111151561303a5761301e601860058460ff169060020a0217846131c890919063ffffffff16565b613034816001856132089092919063ffffffff16565b50613116565b61ffff8111151561308157613065601960058460ff169060020a0217846131c890919063ffffffff16565b61307b816002856132089092919063ffffffff16565b50613115565b63ffffffff811115156130ca576130ae601a60058460ff169060020a0217846131c890919063ffffffff16565b6130c4816004856132089092919063ffffffff16565b50613114565b67ffffffffffffffff81111515613113576130fb601b60058460ff169060020a0217846131c890919063ffffffff16565b613111816008856132089092919063ffffffff16565b505b5b5b5b5b505050565b613124613348565b6000806000808660200151876000015151875101111561315a576131598760026131538a602001518a5161326f565b0261328b565b5b8551915086518051602081830101955087518101825260208801945050505b60208210151561319e5782518452602084019350602083019250602082039150613179565b6001826020036101000a039050801983511681855116818117865250508694505050505092915050565b816020015160018360000151510111156131ee576131ed82600284602001510261328b565b5b815180516020818301018381536001820183525050505050565b613210613348565b60008460200151856000015151840111156132405761323f85600261323988602001518761326f565b0261328b565b5b6001836101000a0390508451805184818301018684198251161781528582018352505050849150509392505050565b60008183111561328157829050613285565b8190505b92915050565b60608260000151905061329e8383612f0e565b6132a8838261311c565b50505050565b604080519081016040528060008152602001600081525090565b828054600181600116156101000203166002900490600052602060002090601f016020900481019282601f1061330957805160ff1916838001178555613337565b82800160010185558215613337579182015b8281111561333657825182559160200191906001019061331b565b5b5090506133449190613362565b5090565b604080519081016040528060608152602001600081525090565b61338491905b80821115613380576000816000905550600101613368565b5090565b905600a165627a7a72305820a379b7f600e0fdbee23b247f5499831787e5ee78ba16a6cc369e8363a73b14ff0029",
  "source": "pragma solidity 0.4.24;\nimport \"./oraclizeAPI_0.5.sol\";\nimport \"./WITEvaluator.sol\";\nimport \"./Ownable.sol\";\nimport \"./CallbackableWIT.sol\";\nimport \"./strings.sol\";\nimport './SafeMath.sol';\n\n\ncontract NOAAPrecipAggregate is usingOraclize, WITEvaluator, Ownable {\n    using SafeMath for uint;\n    using strings for *;\n\n    string precipScript = \"QmRNQhKRThYCQe38Lycj7dTNVCFQ7bFnpQdF8NxqF9jPi4\";\n\n    event gotNOAAPrecipAggregateCallback(string key, string result, uint remainingGas);\n    event sentNOAAPrecipAggregateOraclizeComputation(string precipScript, uint WITID, string avgedYearsStartEnd, uint thresholdFactorPPTTH, string location);\n\n    /**\n    * @dev \n    * @param WITID The ID of the WIT being evaluated. Needed for the callback.\n    * @param start Start date / time of the term period. UNIX formatted timestamp.\n    * @param end End date / time of the term period. UNIX formatted timestamp.\n    * @param thresholdFactorPPTTH The threshold represented as a part per ten thousand. 10000 = average. 11000 = 10% above average.\n    * @param location A string representation of the geographic area to be evaluated. Weather API defines these.\n    * @param num_averaged_years Ignores whatever is input and uses 10 years for the number of years to be averaged\n    * @param runtimeParams Not used but required by the WITEvaluator interface.\n    */\n    function evaluateWIT(uint WITID, uint start, uint end, uint thresholdFactorPPTTH, string location, uint num_averaged_years, string runtimeParams) payable public onlyContractOwner {\n        uint gasEstimate = 500000;\n        require(gasEstimate < address(this).balance);\n        require(end.sub(start) < 31618800); //number of seconds in a year\n        require(100 < thresholdFactorPPTTH);\n        require(thresholdFactorPPTTH < 100000);\n        string memory avgedYearsStartEnd = strConcat(\"10\", \"&\", uint2str(start), \"&\", uint2str(end));\n        oraclize_query(\"computation\", [precipScript, uint2str(WITID), avgedYearsStartEnd, uint2str(thresholdFactorPPTTH), location], gasEstimate);\n        sentNOAAPrecipAggregateOraclizeComputation(precipScript, WITID, avgedYearsStartEnd, thresholdFactorPPTTH, location);\n    }\n\n\n    /**\n    * @dev Callback function that oraclize uses to return the results of the weather API call.\n    * @param myid Something from oraclize related to verification that we don't currently use.\n    * @param result The result of the oraclize call in the form \"http-response-status-code&wit-id&outcome&average-precpitation&term-precipitation&absolute-threshold\"\n    */\n    function __callback(bytes32 myid, string result) public {\n        require(msg.sender == oraclize_cbAddress());\n        emit gotNOAAPrecipAggregateCallback(\"http-response-status-code&wit-id&outcome&average-precpitation&term-precipitation&absolute-threshold\", result, gasleft());\n        var sliceResult = result.toSlice();\n        var status = sliceResult.split(\"&\".toSlice());\n        if (!strings.equals(status, \"200\".toSlice())) { return; }\n        uint WITID =  parseInt(sliceResult.split(\"&\".toSlice()).toString());\n        string memory outcome = sliceResult.split(\"&\".toSlice()).toString();\n        CallbackableWIT(the_owner).evaluatorCallback(WITID, outcome);\n    }\n\n\n    /**\n    * @dev We set an OAR when using ganache + bridge.\n    */\n    function setLocalOAR() public onlyContractOwner {\n        //This is only needed when using a local deployment on bridge.\n        OAR = OraclizeAddrResolverI(0x6f485C8BF6fc43eA212E93BBF8ce046C7f1cb475);\n    }\n\n\n    /**\n    * @dev Allows contract owner to update the docker image and python script in IPFS.\n    * @param scriptHash IPFS multihash of the docker image + python script archive.\n    */\n    function updateIPFSMultihash(string scriptHash) public onlyContractOwner {\n        precipScript = scriptHash;\n    }\n\n\n    /**\n    * @dev Get the name and description of this WIT evaluator.\n    */\n    function getNameAndDescription() public pure returns(string name, string description) {\n        return(\"NOAA Precipitation Aggregate WIT Evaluator\", \"This contract makes a call to the NOAA aggregate endpoint and evaluates a WIT based on the result.\");\n    }\n\n\n    /**\n    * @dev Fallback function.\n    */\n    function () external payable {}\n\n}",
  "sourcePath": "/Users/benandre/cropcrop/contracts/NOAAPrecipAggregate.sol",
  "compiler": {
    "name": "solc",
    "version": "0.4.24+commit.e67f0147.Emscripten.clang"
  },
  "schemaVersion": "2.0.1",
  "updatedAt": "2018-11-07T18:58:41.337Z"
}