{
  "contractName": "NOAAPrecipAggregate",
  "abi": [
    {
      "constant": false,
      "inputs": [],
      "name": "renounceOwnership",
      "outputs": [],
      "payable": false,
      "stateMutability": "nonpayable",
      "type": "function"
    },
    {
      "constant": true,
      "inputs": [],
      "name": "owner",
      "outputs": [
        {
          "name": "",
          "type": "address"
        }
      ],
      "payable": false,
      "stateMutability": "view",
      "type": "function"
    },
    {
      "constant": false,
      "inputs": [
        {
          "name": "_newOwner",
          "type": "address"
        }
      ],
      "name": "transferOwnership",
      "outputs": [],
      "payable": false,
      "stateMutability": "nonpayable",
      "type": "function"
    },
    {
      "payable": true,
      "stateMutability": "payable",
      "type": "fallback"
    },
    {
      "anonymous": false,
      "inputs": [
        {
          "indexed": false,
          "name": "key",
          "type": "string"
        },
        {
          "indexed": false,
          "name": "result",
          "type": "string"
        },
        {
          "indexed": false,
          "name": "remainingGas",
          "type": "uint256"
        }
      ],
      "name": "gotNOAAPrecipAggregateCallback",
      "type": "event"
    },
    {
      "anonymous": false,
      "inputs": [
        {
          "indexed": false,
          "name": "precipScript",
          "type": "string"
        },
        {
          "indexed": false,
          "name": "WITID",
          "type": "uint256"
        },
        {
          "indexed": false,
          "name": "avgedYearsStartEnd",
          "type": "string"
        },
        {
          "indexed": false,
          "name": "thresholdFactorPPTTH",
          "type": "uint256"
        },
        {
          "indexed": false,
          "name": "area",
          "type": "bytes32"
        }
      ],
      "name": "sentNOAAPrecipAggregateOraclizeComputation",
      "type": "event"
    },
    {
      "anonymous": false,
      "inputs": [
        {
          "indexed": true,
          "name": "previousOwner",
          "type": "address"
        }
      ],
      "name": "OwnershipRenounced",
      "type": "event"
    },
    {
      "anonymous": false,
      "inputs": [
        {
          "indexed": true,
          "name": "previousOwner",
          "type": "address"
        },
        {
          "indexed": true,
          "name": "newOwner",
          "type": "address"
        }
      ],
      "name": "OwnershipTransferred",
      "type": "event"
    },
    {
      "anonymous": false,
      "inputs": [
        {
          "indexed": false,
          "name": "",
          "type": "string"
        }
      ],
      "name": "debug",
      "type": "event"
    },
    {
      "constant": false,
      "inputs": [
        {
          "name": "WITID",
          "type": "uint256"
        },
        {
          "name": "start",
          "type": "uint256"
        },
        {
          "name": "end",
          "type": "uint256"
        },
        {
          "name": "thresholdFactorPPTTH",
          "type": "uint256"
        },
        {
          "name": "area",
          "type": "bytes32"
        },
        {
          "name": "num_averaged_years",
          "type": "uint256"
        },
        {
          "name": "runtimeParams",
          "type": "string"
        }
      ],
      "name": "evaluateWIT",
      "outputs": [],
      "payable": true,
      "stateMutability": "payable",
      "type": "function"
    },
    {
      "constant": false,
      "inputs": [
        {
          "name": "myid",
          "type": "bytes32"
        },
        {
          "name": "result",
          "type": "string"
        }
      ],
      "name": "__callback",
      "outputs": [],
      "payable": false,
      "stateMutability": "nonpayable",
      "type": "function"
    },
    {
      "constant": false,
      "inputs": [
        {
          "name": "myid",
          "type": "bytes32"
        },
        {
          "name": "result",
          "type": "string"
        },
        {
          "name": "proof",
          "type": "bytes"
        }
      ],
      "name": "__callback",
      "outputs": [],
      "payable": false,
      "stateMutability": "nonpayable",
      "type": "function"
    },
    {
      "constant": false,
      "inputs": [],
      "name": "setLocalOAR",
      "outputs": [],
      "payable": false,
      "stateMutability": "nonpayable",
      "type": "function"
    },
    {
      "constant": false,
      "inputs": [
        {
          "name": "scriptHash",
          "type": "string"
        }
      ],
      "name": "updateIPFSMultihash",
      "outputs": [],
      "payable": false,
      "stateMutability": "nonpayable",
      "type": "function"
    },
    {
      "constant": true,
      "inputs": [],
      "name": "getNameAndDescription",
      "outputs": [
        {
          "name": "name",
          "type": "string"
        },
        {
          "name": "description",
          "type": "string"
        }
      ],
      "payable": false,
      "stateMutability": "pure",
      "type": "function"
    }
  ],
  "bytecode": "0x6080604052606060405190810160405280602e81526020017f516d524e51684b5254685943516533384c79636a3764544e564346513762466e81526020017f70516446384e787146396a5069340000000000000000000000000000000000008152506006908051906020019062000078929190620000c0565b5033600560006101000a81548173ffffffffffffffffffffffffffffffffffffffff021916908373ffffffffffffffffffffffffffffffffffffffff1602179055506200016f565b828054600181600116156101000203166002900490600052602060002090601f016020900481019282601f106200010357805160ff191683800117855562000134565b8280016001018555821562000134579182015b828111156200013357825182559160200191906001019062000116565b5b50905062000143919062000147565b5090565b6200016c91905b80821115620001685760008160009055506001016200014e565b5090565b90565b6134e4806200017f6000396000f300608060405260043610610099576000357c0100000000000000000000000000000000000000000000000000000000900463ffffffff16806327dc297e1461009b5780632eb91c4d1461011257806338bbfa5014610129578063715018a6146101e65780638ab54581146101fd5780638da5cb5b14610266578063990199e2146102bd578063ee52d28714610359578063f2fde38b14610455575b005b3480156100a757600080fd5b506101106004803603810190808035600019169060200190929190803590602001908201803590602001908080601f0160208091040260200160405190810160405280939291908181526020018383808284378201915050505050509192919290505050610498565b005b34801561011e57600080fd5b506101276108c6565b005b34801561013557600080fd5b506101e46004803603810190808035600019169060200190929190803590602001908201803590602001908080601f0160208091040260200160405190810160405280939291908181526020018383808284378201915050505050509192919290803590602001908201803590602001908080601f0160208091040260200160405190810160405280939291908181526020018383808284378201915050505050509192919290505050610978565b005b3480156101f257600080fd5b506101fb61097d565b005b34801561020957600080fd5b50610264600480360381019080803590602001908201803590602001908080601f0160208091040260200160405190810160405280939291908181526020018383808284378201915050505050509192919290505050610a82565b005b34801561027257600080fd5b5061027b610af8565b604051808273ffffffffffffffffffffffffffffffffffffffff1673ffffffffffffffffffffffffffffffffffffffff16815260200191505060405180910390f35b61035760048036038101908080359060200190929190803590602001909291908035906020019092919080359060200190929190803560001916906020019092919080359060200190929190803590602001908201803590602001908080601f0160208091040260200160405190810160405280939291908181526020018383808284378201915050505050509192919290505050610b1e565b005b34801561036557600080fd5b5061036e610f1b565b604051808060200180602001838103835285818151815260200191508051906020019080838360005b838110156103b2578082015181840152602081019050610397565b50505050905090810190601f1680156103df5780820380516001836020036101000a031916815260200191505b50838103825284818151815260200191508051906020019080838360005b838110156104185780820151818401526020810190506103fd565b50505050905090810190601f1680156104455780820380516001836020036101000a031916815260200191505b5094505050505060405180910390f35b34801561046157600080fd5b50610496600480360381019080803573ffffffffffffffffffffffffffffffffffffffff16906020019092919050505061102c565b005b6104a06133f9565b6104a86133f9565b600060606104b4611094565b73ffffffffffffffffffffffffffffffffffffffff163373ffffffffffffffffffffffffffffffffffffffff161415156104ed57600080fd5b7f565fae302b57150ce424225759a2bb174e54a85ccc09f53f2bb928d19f3eca74855a604051808060200180602001848152602001838103835260638152602001807f687474702d726573706f6e73652d7374617475732d636f6465267769742d696481526020017f266f7574636f6d6526617665726167652d707265637069746174696f6e26746581526020017f726d2d70726563697069746174696f6e266162736f6c7574652d74687265736881526020017f6f6c640000000000000000000000000000000000000000000000000000000000815250608001838103825285818151815260200191508051906020019080838360005b838110156106005780820151818401526020810190506105e5565b50505050905090810190601f16801561062d5780820380516001836020036101000a031916815260200191505b5094505050505060405180910390a1610645856113f2565b93506106976106886040805190810160405280600181526020017f26000000000000000000000000000000000000000000000000000000000000008152506113f2565b8561142090919063ffffffff16565b92506106e0836106db6040805190810160405280600381526020017f32303000000000000000000000000000000000000000000000000000000000008152506113f2565b61143a565b15156106eb576108be565b61074b6107466107416107326040805190810160405280600181526020017f26000000000000000000000000000000000000000000000000000000000000008152506113f2565b8761142090919063ffffffff16565b611450565b6114b2565b91506107a56107a06107916040805190810160405280600181526020017f26000000000000000000000000000000000000000000000000000000000000008152506113f2565b8661142090919063ffffffff16565b611450565b9050600560009054906101000a900473ffffffffffffffffffffffffffffffffffffffff1673ffffffffffffffffffffffffffffffffffffffff1663dbef1a2983836040518363ffffffff167c01000000000000000000000000000000000000000000000000000000000281526004018083815260200180602001828103825283818151815260200191508051906020019080838360005b8381101561085857808201518184015260208101905061083d565b50505050905090810190601f1680156108855780820380516001836020036101000a031916815260200191505b509350505050600060405180830381600087803b1580156108a557600080fd5b505af11580156108b9573d6000803e3d6000fd5b505050505b505050505050565b600560009054906101000a900473ffffffffffffffffffffffffffffffffffffffff1673ffffffffffffffffffffffffffffffffffffffff163373ffffffffffffffffffffffffffffffffffffffff1614151561092257600080fd5b736f485c8bf6fc43ea212e93bbf8ce046c7f1cb4756000806101000a81548173ffffffffffffffffffffffffffffffffffffffff021916908373ffffffffffffffffffffffffffffffffffffffff160217905550565b505050565b600560009054906101000a900473ffffffffffffffffffffffffffffffffffffffff1673ffffffffffffffffffffffffffffffffffffffff163373ffffffffffffffffffffffffffffffffffffffff161415156109d957600080fd5b600560009054906101000a900473ffffffffffffffffffffffffffffffffffffffff1673ffffffffffffffffffffffffffffffffffffffff167ff8df31144d9c2f0f6b59d69b8b98abd5459d07f2742c4df920b25aae33c6482060405160405180910390a26000600560006101000a81548173ffffffffffffffffffffffffffffffffffffffff021916908373ffffffffffffffffffffffffffffffffffffffff160217905550565b600560009054906101000a900473ffffffffffffffffffffffffffffffffffffffff1673ffffffffffffffffffffffffffffffffffffffff163373ffffffffffffffffffffffffffffffffffffffff16141515610ade57600080fd5b8060069080519060200190610af4929190613413565b5050565b600560009054906101000a900473ffffffffffffffffffffffffffffffffffffffff1681565b60006060600560009054906101000a900473ffffffffffffffffffffffffffffffffffffffff1673ffffffffffffffffffffffffffffffffffffffff163373ffffffffffffffffffffffffffffffffffffffff16141515610b7e57600080fd5b6207a12091503073ffffffffffffffffffffffffffffffffffffffff163182101515610ba957600080fd5b6301e276f0610bc189896114c690919063ffffffff16565b101515610bcd57600080fd5b856064101515610bdc57600080fd5b620186a086101515610bed57600080fd5b610ca96040805190810160405280600281526020017f31300000000000000000000000000000000000000000000000000000000000008152506040805190810160405280600181526020017f2600000000000000000000000000000000000000000000000000000000000000815250610c658b6114df565b6040805190810160405280600181526020017f2600000000000000000000000000000000000000000000000000000000000000815250610ca48c6114df565b611636565b9050610dc86040805190810160405280600b81526020017f636f6d7075746174696f6e00000000000000000000000000000000000000000081525060a06040519081016040528060068054600181600116156101000203166002900480601f016020809104026020016040519081016040528092919081815260200182805460018160011615610100020316600290048015610d865780601f10610d5b57610100808354040283529160200191610d86565b820191906000526020600020905b815481529060010190602001808311610d6957829003601f168201915b50505050508152602001610d998d6114df565b8152602001848152602001610dad8a6114df565b8152602001610dbf89600190046114df565b81525084611a4b565b507f7a7fa8913dd9fa8873a7b6a1ac9d935dbab5ed80c70fa740601138293e25acf660068a8389896040518080602001868152602001806020018581526020018460001916600019168152602001838103835288818154600181600116156101000203166002900481526020019150805460018160011615610100020316600290048015610e975780601f10610e6c57610100808354040283529160200191610e97565b820191906000526020600020905b815481529060010190602001808311610e7a57829003601f168201915b5050838103825286818151815260200191508051906020019080838360005b83811015610ed1578082015181840152602081019050610eb6565b50505050905090810190601f168015610efe5780820380516001836020036101000a031916815260200191505b5097505050505050505060405180910390a1505050505050505050565b606080606060405190810160405280602a81526020017f4e4f41412050726563697069746174696f6e204167677265676174652057495481526020017f204576616c7561746f720000000000000000000000000000000000000000000081525060a060405190810160405280606281526020017f5468697320636f6e7472616374206d616b657320612063616c6c20746f20746881526020017f65204e4f41412061676772656761746520656e64706f696e7420616e6420657681526020017f616c7561746573206120574954206261736564206f6e2074686520726573756c81526020017f742e000000000000000000000000000000000000000000000000000000000000815250915091509091565b600560009054906101000a900473ffffffffffffffffffffffffffffffffffffffff1673ffffffffffffffffffffffffffffffffffffffff163373ffffffffffffffffffffffffffffffffffffffff1614151561108857600080fd5b61109181611e23565b50565b6000806000809054906101000a900473ffffffffffffffffffffffffffffffffffffffff1673ffffffffffffffffffffffffffffffffffffffff161480611104575060006111026000809054906101000a900473ffffffffffffffffffffffffffffffffffffffff16611f1f565b145b15611115576111136000611f2a565b505b6000809054906101000a900473ffffffffffffffffffffffffffffffffffffffff1673ffffffffffffffffffffffffffffffffffffffff166338cc48316040518163ffffffff167c0100000000000000000000000000000000000000000000000000000000028152600401602060405180830381600087803b15801561119a57600080fd5b505af11580156111ae573d6000803e3d6000fd5b505050506040513d60208110156111c457600080fd5b810190808051906020019092919050505073ffffffffffffffffffffffffffffffffffffffff16600160009054906101000a900473ffffffffffffffffffffffffffffffffffffffff1673ffffffffffffffffffffffffffffffffffffffff1614151561132c576000809054906101000a900473ffffffffffffffffffffffffffffffffffffffff1673ffffffffffffffffffffffffffffffffffffffff166338cc48316040518163ffffffff167c0100000000000000000000000000000000000000000000000000000000028152600401602060405180830381600087803b1580156112b057600080fd5b505af11580156112c4573d6000803e3d6000fd5b505050506040513d60208110156112da57600080fd5b8101908080519060200190929190505050600160006101000a81548173ffffffffffffffffffffffffffffffffffffffff021916908373ffffffffffffffffffffffffffffffffffffffff1602179055505b600160009054906101000a900473ffffffffffffffffffffffffffffffffffffffff1673ffffffffffffffffffffffffffffffffffffffff1663c281d19e6040518163ffffffff167c0100000000000000000000000000000000000000000000000000000000028152600401602060405180830381600087803b1580156113b257600080fd5b505af11580156113c6573d6000803e3d6000fd5b505050506040513d60208110156113dc57600080fd5b8101908080519060200190929190505050905090565b6113fa6133f9565b600060208301905060408051908101604052808451815260200182815250915050919050565b6114286133f9565b611433838383611f3b565b5092915050565b6000806114478484611fd9565b14905092915050565b606080600083600001516040519080825280601f01601f19166020018201604052801561148c5781602001602082028038833980820191505090505b5091506020820190506114a88185602001518660000151612093565b8192505050919050565b60006114bf8260006120de565b9050919050565b60008282111515156114d457fe5b818303905092915050565b6060600080606060008086141561152d576040805190810160405280600181526020017f3000000000000000000000000000000000000000000000000000000000000000815250945061162d565b8593505b600084141515611557578280600101935050600a8481151561154f57fe5b049350611531565b826040519080825280601f01601f19166020018201604052801561158a5781602001602082028038833980820191505090505b5091506001830390505b60008614151561162957600a868115156115aa57fe5b066030017f0100000000000000000000000000000000000000000000000000000000000000028282806001900393508151811015156115e557fe5b9060200101907effffffffffffffffffffffffffffffffffffffffffffffffffffffffffffff1916908160001a905350600a8681151561162157fe5b049550611594565b8194505b50505050919050565b6060806060806060806060806000808e98508d97508c96508b95508a94508451865188518a518c51010101016040519080825280601f01601f1916602001820160405280156116945781602001602082028038833980820191505090505b50935083925060009150600090505b88518110156117565788818151811015156116ba57fe5b9060200101517f010000000000000000000000000000000000000000000000000000000000000090047f010000000000000000000000000000000000000000000000000000000000000002838380600101945081518110151561171957fe5b9060200101907effffffffffffffffffffffffffffffffffffffffffffffffffffffffffffff1916908160001a90535080806001019150506116a3565b600090505b875181101561180e57878181518110151561177257fe5b9060200101517f010000000000000000000000000000000000000000000000000000000000000090047f01000000000000000000000000000000000000000000000000000000000000000283838060010194508151811015156117d157fe5b9060200101907effffffffffffffffffffffffffffffffffffffffffffffffffffffffffffff1916908160001a905350808060010191505061175b565b600090505b86518110156118c657868181518110151561182a57fe5b9060200101517f010000000000000000000000000000000000000000000000000000000000000090047f010000000000000000000000000000000000000000000000000000000000000002838380600101945081518110151561188957fe5b9060200101907effffffffffffffffffffffffffffffffffffffffffffffffffffffffffffff1916908160001a9053508080600101915050611813565b600090505b855181101561197e5785818151811015156118e257fe5b9060200101517f010000000000000000000000000000000000000000000000000000000000000090047f010000000000000000000000000000000000000000000000000000000000000002838380600101945081518110151561194157fe5b9060200101907effffffffffffffffffffffffffffffffffffffffffffffffffffffffffffff1916908160001a90535080806001019150506118cb565b600090505b8451811015611a3657848181518110151561199a57fe5b9060200101517f010000000000000000000000000000000000000000000000000000000000000090047f01000000000000000000000000000000000000000000000000000000000000000283838060010194508151811015156119f957fe5b9060200101907effffffffffffffffffffffffffffffffffffffffffffffffffffffffffffff1916908160001a9053508080600101915050611983565b82995050505050505050505095945050505050565b6000606060008060009054906101000a900473ffffffffffffffffffffffffffffffffffffffff1673ffffffffffffffffffffffffffffffffffffffff161480611abe57506000611abc6000809054906101000a900473ffffffffffffffffffffffffffffffffffffffff16611f1f565b145b15611acf57611acd6000611f2a565b505b6000809054906101000a900473ffffffffffffffffffffffffffffffffffffffff1673ffffffffffffffffffffffffffffffffffffffff166338cc48316040518163ffffffff167c0100000000000000000000000000000000000000000000000000000000028152600401602060405180830381600087803b158015611b5457600080fd5b505af1158015611b68573d6000803e3d6000fd5b505050506040513d6020811015611b7e57600080fd5b810190808051906020019092919050505073ffffffffffffffffffffffffffffffffffffffff16600160009054906101000a900473ffffffffffffffffffffffffffffffffffffffff1673ffffffffffffffffffffffffffffffffffffffff16141515611ce6576000809054906101000a900473ffffffffffffffffffffffffffffffffffffffff1673ffffffffffffffffffffffffffffffffffffffff166338cc48316040518163ffffffff167c0100000000000000000000000000000000000000000000000000000000028152600401602060405180830381600087803b158015611c6a57600080fd5b505af1158015611c7e573d6000803e3d6000fd5b505050506040513d6020811015611c9457600080fd5b8101908080519060200190929190505050600160006101000a81548173ffffffffffffffffffffffffffffffffffffffff021916908373ffffffffffffffffffffffffffffffffffffffff1602179055505b6005604051908082528060200260200182016040528015611d1b57816020015b6060815260200190600190039081611d065790505b509050836000600581101515611d2d57fe5b6020020151816000815181101515611d4157fe5b90602001906020020181905250836001600581101515611d5d57fe5b6020020151816001815181101515611d7157fe5b90602001906020020181905250836002600581101515611d8d57fe5b6020020151816002815181101515611da157fe5b90602001906020020181905250836003600581101515611dbd57fe5b6020020151816003815181101515611dd157fe5b90602001906020020181905250836004600581101515611ded57fe5b6020020151816004815181101515611e0157fe5b90602001906020020181905250611e198582856123d2565b9150509392505050565b600073ffffffffffffffffffffffffffffffffffffffff168173ffffffffffffffffffffffffffffffffffffffff1614151515611e5f57600080fd5b8073ffffffffffffffffffffffffffffffffffffffff16600560009054906101000a900473ffffffffffffffffffffffffffffffffffffffff1673ffffffffffffffffffffffffffffffffffffffff167f8be0079c531659141344cd1fd0a4f28419497f9722a3daafe3b4186f6b6457e060405160405180910390a380600560006101000a81548173ffffffffffffffffffffffffffffffffffffffff021916908373ffffffffffffffffffffffffffffffffffffffff16021790555050565b6000813b9050919050565b6000611f34612990565b9050919050565b611f436133f9565b6000611f618560000151866020015186600001518760200151612e1f565b90508460200151836020018181525050846020015181038360000181815250508460000151856020015101811415611fa3576000856000018181525050611fce565b8360000151836000015101856000018181510391508181525050836000015181018560200181815250505b829150509392505050565b60008060008060008060008060008a6000015197508a600001518a60000151101561200657896000015197505b8a60200151965089602001519550600094505b87851015612077578651935085519250828414151561206057600185896020030160080260020a0319915081831682851603905060008114151561205f57809850612085565b5b602087019650602086019550602085019450612019565b89600001518b600001510398505b505050505050505092915050565b60005b6020821015156120bb5782518452602084019350602083019250602082039150612096565b6001826020036101000a0390508019835116818551168181178652505050505050565b6000606060008060008693506000925060009150600090505b83518110156123b35760307f010000000000000000000000000000000000000000000000000000000000000002848281518110151561213257fe5b9060200101517f010000000000000000000000000000000000000000000000000000000000000090047f0100000000000000000000000000000000000000000000000000000000000000027effffffffffffffffffffffffffffffffffffffffffffffffffffffffffffff19161015801561224a575060397f01000000000000000000000000000000000000000000000000000000000000000284828151811015156121da57fe5b9060200101517f010000000000000000000000000000000000000000000000000000000000000090047f0100000000000000000000000000000000000000000000000000000000000000027effffffffffffffffffffffffffffffffffffffffffffffffffffffffffffff191611155b156122fb57811561226d576000861415612263576123b3565b8580600190039650505b600a830292506030848281518110151561228357fe5b9060200101517f010000000000000000000000000000000000000000000000000000000000000090047f0100000000000000000000000000000000000000000000000000000000000000027f0100000000000000000000000000000000000000000000000000000000000000900403830192506123a6565b602e7f010000000000000000000000000000000000000000000000000000000000000002848281518110151561232d57fe5b9060200101517f010000000000000000000000000000000000000000000000000000000000000090047f0100000000000000000000000000000000000000000000000000000000000000027effffffffffffffffffffffffffffffffffffffffffffffffffffffffffffff191614156123a557600191505b5b80806001019150506120f7565b60008611156123c55785600a0a830292505b8294505050505092915050565b600080606060008060009054906101000a900473ffffffffffffffffffffffffffffffffffffffff1673ffffffffffffffffffffffffffffffffffffffff161480612446575060006124446000809054906101000a900473ffffffffffffffffffffffffffffffffffffffff16611f1f565b145b15612457576124556000611f2a565b505b6000809054906101000a900473ffffffffffffffffffffffffffffffffffffffff1673ffffffffffffffffffffffffffffffffffffffff166338cc48316040518163ffffffff167c0100000000000000000000000000000000000000000000000000000000028152600401602060405180830381600087803b1580156124dc57600080fd5b505af11580156124f0573d6000803e3d6000fd5b505050506040513d602081101561250657600080fd5b810190808051906020019092919050505073ffffffffffffffffffffffffffffffffffffffff16600160009054906101000a900473ffffffffffffffffffffffffffffffffffffffff1673ffffffffffffffffffffffffffffffffffffffff1614151561266e576000809054906101000a900473ffffffffffffffffffffffffffffffffffffffff1673ffffffffffffffffffffffffffffffffffffffff166338cc48316040518163ffffffff167c0100000000000000000000000000000000000000000000000000000000028152600401602060405180830381600087803b1580156125f257600080fd5b505af1158015612606573d6000803e3d6000fd5b505050506040513d602081101561261c57600080fd5b8101908080519060200190929190505050600160006101000a81548173ffffffffffffffffffffffffffffffffffffffff021916908373ffffffffffffffffffffffffffffffffffffffff1602179055505b600160009054906101000a900473ffffffffffffffffffffffffffffffffffffffff1673ffffffffffffffffffffffffffffffffffffffff16632ef3accc87866040518363ffffffff167c01000000000000000000000000000000000000000000000000000000000281526004018080602001838152602001828103825284818151815260200191508051906020019080838360005b8381101561271f578082015181840152602081019050612704565b50505050905090810190601f16801561274c5780820380516001836020036101000a031916815260200191505b509350505050602060405180830381600087803b15801561276c57600080fd5b505af1158015612780573d6000803e3d6000fd5b505050506040513d602081101561279657600080fd5b81019080805190602001909291905050509150833a02670de0b6b3a7640000018211156127c95760006001029250612987565b6127d285612f05565b9050600160009054906101000a900473ffffffffffffffffffffffffffffffffffffffff1673ffffffffffffffffffffffffffffffffffffffff1663c55c1cb68360008985896040518663ffffffff167c0100000000000000000000000000000000000000000000000000000000028152600401808581526020018060200180602001848152602001838103835286818151815260200191508051906020019080838360005b83811015612893578082015181840152602081019050612878565b50505050905090810190601f1680156128c05780820380516001836020036101000a031916815260200191505b50838103825285818151815260200191508051906020019080838360005b838110156128f95780820151818401526020810190506128de565b50505050905090810190601f1680156129265780820380516001836020036101000a031916815260200191505b5096505050505050506020604051808303818588803b15801561294857600080fd5b505af115801561295c573d6000803e3d6000fd5b50505050506040513d602081101561297357600080fd5b810190808051906020019092919050505092505b50509392505050565b6000806129b0731d3b2638a7cc9f2cb3d298a3da7a90b67e5506ed611f1f565b1115612a5157731d3b2638a7cc9f2cb3d298a3da7a90b67e5506ed6000806101000a81548173ffffffffffffffffffffffffffffffffffffffff021916908373ffffffffffffffffffffffffffffffffffffffff160217905550612a486040805190810160405280600b81526020017f6574685f6d61696e6e65740000000000000000000000000000000000000000008152506133df565b60019050612e1c565b6000612a7073c03a2615d5efaf5f49f60b7bb6583eaec212fdf1611f1f565b1115612b115773c03a2615d5efaf5f49f60b7bb6583eaec212fdf16000806101000a81548173ffffffffffffffffffffffffffffffffffffffff021916908373ffffffffffffffffffffffffffffffffffffffff160217905550612b086040805190810160405280600c81526020017f6574685f726f707374656e3300000000000000000000000000000000000000008152506133df565b60019050612e1c565b6000612b3073b7a07bcf2ba2f2703b24c0691b5278999c59ac7e611f1f565b1115612bd15773b7a07bcf2ba2f2703b24c0691b5278999c59ac7e6000806101000a81548173ffffffffffffffffffffffffffffffffffffffff021916908373ffffffffffffffffffffffffffffffffffffffff160217905550612bc86040805190810160405280600981526020017f6574685f6b6f76616e00000000000000000000000000000000000000000000008152506133df565b60019050612e1c565b6000612bf073146500cfd35b22e4a392fe0adc06de1a1368ed48611f1f565b1115612c915773146500cfd35b22e4a392fe0adc06de1a1368ed486000806101000a81548173ffffffffffffffffffffffffffffffffffffffff021916908373ffffffffffffffffffffffffffffffffffffffff160217905550612c886040805190810160405280600b81526020017f6574685f72696e6b6562790000000000000000000000000000000000000000008152506133df565b60019050612e1c565b6000612cb0736f485c8bf6fc43ea212e93bbf8ce046c7f1cb475611f1f565b1115612d1357736f485c8bf6fc43ea212e93bbf8ce046c7f1cb4756000806101000a81548173ffffffffffffffffffffffffffffffffffffffff021916908373ffffffffffffffffffffffffffffffffffffffff16021790555060019050612e1c565b6000612d327320e12a1f859b3feae5fb2a0a32c18f5a65555bbf611f1f565b1115612d95577320e12a1f859b3feae5fb2a0a32c18f5a65555bbf6000806101000a81548173ffffffffffffffffffffffffffffffffffffffff021916908373ffffffffffffffffffffffffffffffffffffffff16021790555060019050612e1c565b6000612db47351efaf4c8b3c9afbd5ab9f4bbc82784ab6ef8faa611f1f565b1115612e17577351efaf4c8b3c9afbd5ab9f4bbc82784ab6ef8faa6000806101000a81548173ffffffffffffffffffffffffffffffffffffffff021916908373ffffffffffffffffffffffffffffffffffffffff16021790555060019050612e1c565b600090505b90565b60008060008060008060008060008b97508c8b111515612eef5760208b111515612ea95760018b60200360080260020a03196001029550858a511694508a8d8d010393508588511692505b84600019168360001916141515612ea1578388101515612e8e578c8c019850612ef5565b8780600101985050858851169250612e6a565b879850612ef5565b8a8a209150600096505b8a8d0387111515612eee578a88209050806000191682600019161415612edb57879850612ef5565b6001880197508680600101975050612eb3565b5b8c8c0198505b5050505050505050949350505050565b606060008060606000806000606060008060008b5199506000985089604051908082528060200260200182016040528015612f5457816020015b6060815260200190600190039081612f3f5790505b509750600096505b89871015612fed578b87815181101515612f7257fe5b906020019060200201518888815181101515612f8a57fe5b906020019060200201819052506003601760018a8a815181101515612fab57fe5b906020019060200201515103811515612fc057fe5b048989815181101515612fcf57fe5b90602001906020020151510101890198508680600101975050612f5c565b6000955060808a019450600160ff1689019850886040519080825280601f01601f1916602001820160405280156130335781602001602082028038833980820191505090505b5093505b85600160ff1611156130e157847f0100000000000000000000000000000000000000000000000000000000000000028660018110151561307357fe5b1a7f01000000000000000000000000000000000000000000000000000000000000000284878151811015156130a457fe5b9060200101907effffffffffffffffffffffffffffffffffffffffffffffffffffffffffffff1916908160001a9053508580600101965050613037565b600096505b898710156133cd57605f7f010000000000000000000000000000000000000000000000000000000000000002848781518110151561312057fe5b9060200101907effffffffffffffffffffffffffffffffffffffffffffffffffffffffffffff1916908160001a9053508580600101965050600092505b878781518110151561316b57fe5b906020019060200201515183101561335657600060178481151561318b57fe5b0614156132935760188389898151811015156131a357fe5b90602001906020020151510310156131d5578288888151811015156131c457fe5b9060200190602002015151036131d8565b60175b91506040820191508590505b808603600160ff16111561329257817f01000000000000000000000000000000000000000000000000000000000000000281870360018110151561322457fe5b1a7f010000000000000000000000000000000000000000000000000000000000000002848781518110151561325557fe5b9060200101907effffffffffffffffffffffffffffffffffffffffffffffffffffffffffffff1916908160001a90535085806001019650506131e4565b5b87878151811015156132a157fe5b90602001906020020151838151811015156132b857fe5b9060200101517f010000000000000000000000000000000000000000000000000000000000000090047f010000000000000000000000000000000000000000000000000000000000000002848781518110151561331157fe5b9060200101907effffffffffffffffffffffffffffffffffffffffffffffffffffffffffffff1916908160001a9053508580600101965050828060010193505061315d565b60ff7f010000000000000000000000000000000000000000000000000000000000000002848781518110151561338857fe5b9060200101907effffffffffffffffffffffffffffffffffffffffffffffffffffffffffffff1916908160001a905350858060010196505086806001019750506130e6565b839a5050505050505050505050919050565b80600290805190602001906133f5929190613413565b5050565b604080519081016040528060008152602001600081525090565b828054600181600116156101000203166002900490600052602060002090601f016020900481019282601f1061345457805160ff1916838001178555613482565b82800160010185558215613482579182015b82811115613481578251825591602001919060010190613466565b5b50905061348f9190613493565b5090565b6134b591905b808211156134b1576000816000905550600101613499565b5090565b905600a165627a7a723058206a8e2240e076d1ca8934ebbd9f7861b8d08cc7bdeb0f465fca90864e9e27cc5d0029",
  "source": "pragma solidity ^0.4.18;\nimport \"./usingOraclize.sol\";\nimport \"./WITEvaluator.sol\";\nimport \"./Ownable.sol\";\nimport \"./CallbackableWIT.sol\";\nimport \"./strings.sol\";\nimport './SafeMath.sol';\n\n\ncontract NOAAPrecipAggregate is usingOraclize, WITEvaluator, Ownable {\n    using SafeMath for uint;\n    using strings for *;\n\n    string precipScript = \"QmRNQhKRThYCQe38Lycj7dTNVCFQ7bFnpQdF8NxqF9jPi4\";\n\n    event gotNOAAPrecipAggregateCallback(string key, string result, uint remainingGas);\n    event sentNOAAPrecipAggregateOraclizeComputation(string precipScript, uint WITID, string avgedYearsStartEnd, uint thresholdFactorPPTTH, bytes32 area);\n\n    /**\n    * @dev \n    * @param WITID The ID of the WIT being evaluated. Needed for the callback.\n    * @param start Start date / time of the term period. UNIX formatted timestamp.\n    * @param end End date / time of the term period. UNIX formatted timestamp.\n    * @param thresholdFactorPPTTH The threshold represented as a part per ten thousand. 10000 = average. 11000 = 10% above average.\n    * @param area A string representation of the geographic area to be evaluated. Weather API defines these.\n    * @param num_averaged_years Ignores whatever is input and uses 10 years for the number of years to be averaged\n    * @param runtimeParams Not used but required by the WITEvaluator interface.\n    */\n    function evaluateWIT(uint WITID, uint start, uint end, uint thresholdFactorPPTTH, bytes32 area, uint num_averaged_years, string runtimeParams) payable public onlyOwner {\n        uint gasEstimate = 500000;\n        require(gasEstimate < this.balance);\n        require(end.sub(start) < 31618800); //number of seconds in a year\n        require(100 < thresholdFactorPPTTH);\n        require(thresholdFactorPPTTH < 100000);\n        string memory avgedYearsStartEnd = strConcat(\"10\", \"&\", uint2str(start), \"&\", uint2str(end));\n        oraclize_query(\"computation\", [precipScript, uint2str(WITID), avgedYearsStartEnd, uint2str(thresholdFactorPPTTH), uint2str(uint(area))], gasEstimate);\n        sentNOAAPrecipAggregateOraclizeComputation(precipScript, WITID, avgedYearsStartEnd, thresholdFactorPPTTH, area);\n    }\n\n\n    /**\n    * @dev Callback function that oraclize uses to return the results of the weather API call.\n    * @param myid Something from oraclize related to verification that we don't currently use.\n    * @param result The result of the oraclize call in the form \"http-response-status-code&wit-id&outcome&average-precpitation&term-precipitation&absolute-threshold\"\n    */\n    function __callback(bytes32 myid, string result) {\n        require(msg.sender == oraclize_cbAddress());\n        gotNOAAPrecipAggregateCallback(\"http-response-status-code&wit-id&outcome&average-precpitation&term-precipitation&absolute-threshold\", result, msg.gas);\n        var sliceResult = result.toSlice();\n        var status = sliceResult.split(\"&\".toSlice());\n        if (!strings.equals(status, \"200\".toSlice())) { return; }\n        uint WITID =  parseInt(sliceResult.split(\"&\".toSlice()).toString());\n        string memory outcome = sliceResult.split(\"&\".toSlice()).toString();\n        CallbackableWIT(owner).evaluatorCallback(WITID, outcome);\n    }\n\n\n    /**\n    * @dev We set an OAR when using ganache + bridge.\n    */\n    function setLocalOAR() public onlyOwner {\n        //This is only needed when using a local deployment on bridge.\n        OAR = OraclizeAddrResolverI(0x6f485C8BF6fc43eA212E93BBF8ce046C7f1cb475);\n    }\n\n\n    /**\n    * @dev Allows contract owner to update the docker image and python script in IPFS.\n    * @param scriptHash IPFS multihash of the docker image + python script archive.\n    */\n    function updateIPFSMultihash(string scriptHash) public onlyOwner {\n        precipScript = scriptHash;\n    }\n\n\n    /**\n    * @dev Get the name and description of this WIT evaluator.\n    */\n    function getNameAndDescription() public pure returns(string name, string description) {\n        return(\"NOAA Precipitation Aggregate WIT Evaluator\", \"This contract makes a call to the NOAA aggregate endpoint and evaluates a WIT based on the result.\");\n    }\n\n\n    /**\n    * @dev Fallback function.\n    */\n    function () external payable {}\n\n}",
  "sourcePath": "/Users/benandre/cropcrop/contracts/NOAAPrecipAggregate.sol",
  "compiler": {
    "name": "solc",
    "version": "0.4.24+commit.e67f0147.Emscripten.clang"
  },
  "schemaVersion": "2.0.1",
  "updatedAt": "2018-07-26T13:32:08.010Z"
}