{
  "contractName": "NOAAPrecipAggregate",
  "abi": [
    {
      "constant": false,
      "inputs": [
        {
          "name": "myid",
          "type": "bytes32"
        },
        {
          "name": "result",
          "type": "string"
        }
      ],
      "name": "__callback",
      "outputs": [],
      "payable": false,
      "stateMutability": "nonpayable",
      "type": "function"
    },
    {
      "constant": false,
      "inputs": [
        {
          "name": "myid",
          "type": "bytes32"
        },
        {
          "name": "result",
          "type": "string"
        },
        {
          "name": "proof",
          "type": "bytes"
        }
      ],
      "name": "__callback",
      "outputs": [],
      "payable": false,
      "stateMutability": "nonpayable",
      "type": "function"
    },
    {
      "constant": false,
      "inputs": [
        {
          "name": "scriptHash",
          "type": "bytes"
        }
      ],
      "name": "initialize",
      "outputs": [],
      "payable": false,
      "stateMutability": "nonpayable",
      "type": "function"
    },
    {
      "constant": true,
      "inputs": [],
      "name": "owner",
      "outputs": [
        {
          "name": "",
          "type": "address"
        }
      ],
      "payable": false,
      "stateMutability": "view",
      "type": "function"
    },
    {
      "constant": false,
      "inputs": [
        {
          "name": "WITID",
          "type": "uint256"
        },
        {
          "name": "start",
          "type": "uint256"
        },
        {
          "name": "end",
          "type": "uint256"
        },
        {
          "name": "thresholdFactorPPM",
          "type": "uint256"
        },
        {
          "name": "area",
          "type": "bytes32"
        },
        {
          "name": "num_averaged_years",
          "type": "uint256"
        },
        {
          "name": "runtimeParams",
          "type": "string"
        }
      ],
      "name": "evaluateWIT",
      "outputs": [],
      "payable": false,
      "stateMutability": "nonpayable",
      "type": "function"
    },
    {
      "constant": true,
      "inputs": [],
      "name": "getNameAndDescription",
      "outputs": [
        {
          "name": "name",
          "type": "string"
        },
        {
          "name": "description",
          "type": "string"
        }
      ],
      "payable": false,
      "stateMutability": "pure",
      "type": "function"
    },
    {
      "constant": false,
      "inputs": [
        {
          "name": "newOwner",
          "type": "address"
        }
      ],
      "name": "transferOwnership",
      "outputs": [],
      "payable": false,
      "stateMutability": "nonpayable",
      "type": "function"
    },
    {
      "inputs": [],
      "payable": false,
      "stateMutability": "nonpayable",
      "type": "constructor"
    },
    {
      "anonymous": false,
      "inputs": [
        {
          "indexed": false,
          "name": "key",
          "type": "string"
        },
        {
          "indexed": false,
          "name": "result",
          "type": "string"
        }
      ],
      "name": "gotNOAAPrecipAggregateCallback",
      "type": "event"
    },
    {
      "anonymous": false,
      "inputs": [
        {
          "indexed": false,
          "name": "precipScript",
          "type": "bytes"
        },
        {
          "indexed": false,
          "name": "WITID",
          "type": "uint256"
        },
        {
          "indexed": false,
          "name": "timescale",
          "type": "uint256"
        },
        {
          "indexed": false,
          "name": "area",
          "type": "bytes32"
        },
        {
          "indexed": false,
          "name": "month",
          "type": "uint256"
        },
        {
          "indexed": false,
          "name": "term_year",
          "type": "uint256"
        },
        {
          "indexed": false,
          "name": "average_basis",
          "type": "uint256"
        }
      ],
      "name": "sendingNOAAPrecipOraclizeComputation",
      "type": "event"
    },
    {
      "anonymous": false,
      "inputs": [
        {
          "indexed": true,
          "name": "previousOwner",
          "type": "address"
        },
        {
          "indexed": true,
          "name": "newOwner",
          "type": "address"
        }
      ],
      "name": "OwnershipTransferred",
      "type": "event"
    }
  ],
  "bytecode": "0x6060604052341561000f57600080fd5b33600560006101000a81548173ffffffffffffffffffffffffffffffffffffffff021916908373ffffffffffffffffffffffffffffffffffffffff160217905550736f485c8bf6fc43ea212e93bbf8ce046c7f1cb4756000806101000a81548173ffffffffffffffffffffffffffffffffffffffff021916908373ffffffffffffffffffffffffffffffffffffffff1602179055506132a1806100b36000396000f300606060405260043610610083576000357c0100000000000000000000000000000000000000000000000000000000900463ffffffff16806327dc297e1461008857806338bbfa50146100f2578063439fab911461019f5780638da5cb5b146101fc578063990199e214610251578063ee52d287146102e8578063f2fde38b146103e2575b600080fd5b341561009357600080fd5b6100f060048080356000191690602001909190803590602001908201803590602001908080601f0160208091040260200160405190810160405280939291908181526020018383808284378201915050505050509190505061041b565b005b34156100fd57600080fd5b61019d60048080356000191690602001909190803590602001908201803590602001908080601f0160208091040260200160405190810160405280939291908181526020018383808284378201915050505050509190803590602001908201803590602001908080601f01602080910402602001604051908101604052809392919081815260200183838082843782019150505050505091905050610842565b005b34156101aa57600080fd5b6101fa600480803590602001908201803590602001908080601f01602080910402602001604051908101604052809392919081815260200183838082843782019150505050505091905050610847565b005b341561020757600080fd5b61020f6108bd565b604051808273ffffffffffffffffffffffffffffffffffffffff1673ffffffffffffffffffffffffffffffffffffffff16815260200191505060405180910390f35b341561025c57600080fd5b6102e660048080359060200190919080359060200190919080359060200190919080359060200190919080356000191690602001909190803590602001909190803590602001908201803590602001908080601f016020809104026020016040519081016040528093929190818152602001838380828437820191505050505050919050506108e3565b005b34156102f357600080fd5b6102fb610b7d565b604051808060200180602001838103835285818151815260200191508051906020019080838360005b8381101561033f578082015181840152602081019050610324565b50505050905090810190601f16801561036c5780820380516001836020036101000a031916815260200191505b50838103825284818151815260200191508051906020019080838360005b838110156103a557808201518184015260208101905061038a565b50505050905090810190601f1680156103d25780820380516001836020036101000a031916815260200191505b5094505050505060405180910390f35b34156103ed57600080fd5b610419600480803573ffffffffffffffffffffffffffffffffffffffff16906020019091905050610c9b565b005b6104236130c6565b61042b6130c6565b60006104356130e0565b61043d610df3565b73ffffffffffffffffffffffffffffffffffffffff163373ffffffffffffffffffffffffffffffffffffffff1614151561047657600080fd5b7f26956f1c9af36b4c4e60afbeb89a799742a9c6eea4960c8a5a509647f2414dbd85604051808060200180602001838103835260638152602001807f687474702d726573706f6e73652d7374617475732d636f6465267769742d696481526020017f266f7574636f6d6526617665726167652d707265637069746174696f6e26746581526020017f726d2d70726563697069746174696f6e266162736f6c7574652d74687265736881526020017f6f6c640000000000000000000000000000000000000000000000000000000000815250608001838103825284818151815260200191508051906020019080838360005b83811015610582578082015181840152602081019050610567565b50505050905090810190601f1680156105af5780820380516001836020036101000a031916815260200191505b50935050505060405180910390a16105c685611109565b93506106186106096040805190810160405280600181526020017f2600000000000000000000000000000000000000000000000000000000000000815250611109565b8561113790919063ffffffff16565b92506106618361065c6040805190810160405280600381526020017f3230300000000000000000000000000000000000000000000000000000000000815250611109565b611151565b151561066c5761083a565b6106cc6106c76106c26106b36040805190810160405280600181526020017f2600000000000000000000000000000000000000000000000000000000000000815250611109565b8761113790919063ffffffff16565b611167565b6111c5565b91506107266107216107126040805190810160405280600181526020017f2600000000000000000000000000000000000000000000000000000000000000815250611109565b8661113790919063ffffffff16565b611167565b9050600560009054906101000a900473ffffffffffffffffffffffffffffffffffffffff1673ffffffffffffffffffffffffffffffffffffffff1663dbef1a2983836040518363ffffffff167c01000000000000000000000000000000000000000000000000000000000281526004018083815260200180602001828103825283818151815260200191508051906020019080838360005b838110156107d95780820151818401526020810190506107be565b50505050905090810190601f1680156108065780820380516001836020036101000a031916815260200191505b509350505050600060405180830381600087803b151561082557600080fd5b6102c65a03f1151561083657600080fd5b5050505b505050505050565b505050565b600560009054906101000a900473ffffffffffffffffffffffffffffffffffffffff1673ffffffffffffffffffffffffffffffffffffffff163373ffffffffffffffffffffffffffffffffffffffff161415156108a357600080fd5b80600690805190602001906108b99291906130f4565b5050565b600560009054906101000a900473ffffffffffffffffffffffffffffffffffffffff1681565b6108eb613174565b600560009054906101000a900473ffffffffffffffffffffffffffffffffffffffff1673ffffffffffffffffffffffffffffffffffffffff163373ffffffffffffffffffffffffffffffffffffffff1614151561094757600080fd5b3073ffffffffffffffffffffffffffffffffffffffff163161099d6040805190810160405280600b81526020017f636f6d7075746174696f6e0000000000000000000000000000000000000000008152506111d9565b1115156109a957600080fd5b6301e276f06109c1878961156190919063ffffffff16565b1015156109cd57600080fd5b8460011015156109dc57600080fd5b622dc6c0851015156109ed57600080fd5b6109f881604061157a565b610a01816115c0565b610a1488826115ce90919063ffffffff16565b610a28600a826115ce90919063ffffffff16565b610a3b87826115ce90919063ffffffff16565b610a4e86826115ce90919063ffffffff16565b610a6185826115ce90919063ffffffff16565b610a788460019004826115ce90919063ffffffff16565b610a81816115de565b610b726040805190810160405280600b81526020017f636f6d7075746174696f6e000000000000000000000000000000000000000000815250604080519081016040528060068054600181600116156101000203166002900480601f016020809104026020016040519081016040528092919081815260200182805460018160011615610100020316600290048015610b5b5780601f10610b3057610100808354040283529160200191610b5b565b820191906000526020600020905b815481529060010190602001808311610b3e57829003601f168201915b5050505050815260200184600001518152506115ec565b505050505050505050565b610b856130e0565b610b8d6130e0565b606060405190810160405280602a81526020017f4e4f41412050726563697069746174696f6e204167677265676174652057495481526020017f204576616c7561746f720000000000000000000000000000000000000000000081525060a060405190810160405280606281526020017f5468697320636f6e7472616374206d616b657320612063616c6c20746f20746881526020017f65204e4f41412061676772656761746520656e64706f696e7420616e6420657681526020017f616c7561746573206120574954206261736564206f6e2074686520726573756c81526020017f742e000000000000000000000000000000000000000000000000000000000000815250915091509091565b600560009054906101000a900473ffffffffffffffffffffffffffffffffffffffff1673ffffffffffffffffffffffffffffffffffffffff163373ffffffffffffffffffffffffffffffffffffffff16141515610cf757600080fd5b600073ffffffffffffffffffffffffffffffffffffffff168173ffffffffffffffffffffffffffffffffffffffff1614151515610d3357600080fd5b8073ffffffffffffffffffffffffffffffffffffffff16600560009054906101000a900473ffffffffffffffffffffffffffffffffffffffff1673ffffffffffffffffffffffffffffffffffffffff167f8be0079c531659141344cd1fd0a4f28419497f9722a3daafe3b4186f6b6457e060405160405180910390a380600560006101000a81548173ffffffffffffffffffffffffffffffffffffffff021916908373ffffffffffffffffffffffffffffffffffffffff16021790555050565b6000806000809054906101000a900473ffffffffffffffffffffffffffffffffffffffff1673ffffffffffffffffffffffffffffffffffffffff161480610e6357506000610e616000809054906101000a900473ffffffffffffffffffffffffffffffffffffffff16611918565b145b15610e7457610e726000611923565b505b6000809054906101000a900473ffffffffffffffffffffffffffffffffffffffff1673ffffffffffffffffffffffffffffffffffffffff166338cc48316000604051602001526040518163ffffffff167c0100000000000000000000000000000000000000000000000000000000028152600401602060405180830381600087803b1515610f0157600080fd5b6102c65a03f11515610f1257600080fd5b5050506040518051905073ffffffffffffffffffffffffffffffffffffffff16600160009054906101000a900473ffffffffffffffffffffffffffffffffffffffff1673ffffffffffffffffffffffffffffffffffffffff1614151561105b576000809054906101000a900473ffffffffffffffffffffffffffffffffffffffff1673ffffffffffffffffffffffffffffffffffffffff166338cc48316000604051602001526040518163ffffffff167c0100000000000000000000000000000000000000000000000000000000028152600401602060405180830381600087803b1515610fff57600080fd5b6102c65a03f1151561101057600080fd5b50505060405180519050600160006101000a81548173ffffffffffffffffffffffffffffffffffffffff021916908373ffffffffffffffffffffffffffffffffffffffff1602179055505b600160009054906101000a900473ffffffffffffffffffffffffffffffffffffffff1673ffffffffffffffffffffffffffffffffffffffff1663c281d19e6000604051602001526040518163ffffffff167c0100000000000000000000000000000000000000000000000000000000028152600401602060405180830381600087803b15156110e957600080fd5b6102c65a03f115156110fa57600080fd5b50505060405180519050905090565b6111116130c6565b600060208301905060408051908101604052808451815260200182815250915050919050565b61113f6130c6565b61114a838383611934565b5092915050565b60008061115e84846119d2565b14905092915050565b61116f6130e0565b6111776130e0565b6000836000015160405180591061118b5750595b9080825280601f01601f191660200182016040525091506020820190506111bb8185602001518660000151611a8c565b8192505050919050565b60006111d2826000611ad7565b9050919050565b6000806000809054906101000a900473ffffffffffffffffffffffffffffffffffffffff1673ffffffffffffffffffffffffffffffffffffffff161480611249575060006112476000809054906101000a900473ffffffffffffffffffffffffffffffffffffffff16611918565b145b1561125a576112586000611923565b505b6000809054906101000a900473ffffffffffffffffffffffffffffffffffffffff1673ffffffffffffffffffffffffffffffffffffffff166338cc48316000604051602001526040518163ffffffff167c0100000000000000000000000000000000000000000000000000000000028152600401602060405180830381600087803b15156112e757600080fd5b6102c65a03f115156112f857600080fd5b5050506040518051905073ffffffffffffffffffffffffffffffffffffffff16600160009054906101000a900473ffffffffffffffffffffffffffffffffffffffff1673ffffffffffffffffffffffffffffffffffffffff16141515611441576000809054906101000a900473ffffffffffffffffffffffffffffffffffffffff1673ffffffffffffffffffffffffffffffffffffffff166338cc48316000604051602001526040518163ffffffff167c0100000000000000000000000000000000000000000000000000000000028152600401602060405180830381600087803b15156113e557600080fd5b6102c65a03f115156113f657600080fd5b50505060405180519050600160006101000a81548173ffffffffffffffffffffffffffffffffffffffff021916908373ffffffffffffffffffffffffffffffffffffffff1602179055505b600160009054906101000a900473ffffffffffffffffffffffffffffffffffffffff1673ffffffffffffffffffffffffffffffffffffffff1663524f3889836000604051602001526040518263ffffffff167c01000000000000000000000000000000000000000000000000000000000281526004018080602001828103825283818151815260200191508051906020019080838360005b838110156114f45780820151818401526020810190506114d9565b50505050905090810190601f1680156115215780820380516001836020036101000a031916815260200191505b5092505050602060405180830381600087803b151561153f57600080fd5b6102c65a03f1151561155057600080fd5b505050604051805190509050919050565b600082821115151561156f57fe5b818303905092915050565b600060208281151561158857fe5b061415156115a55760208181151561159c57fe5b06602003810190505b80826020018181525050604051808352818101604052505050565b6115cb816004611dd1565b50565b6115da82600083611df5565b5050565b6115e9816007611dd1565b50565b60006115f6613194565b60008060009054906101000a900473ffffffffffffffffffffffffffffffffffffffff1673ffffffffffffffffffffffffffffffffffffffff161480611665575060006116636000809054906101000a900473ffffffffffffffffffffffffffffffffffffffff16611918565b145b15611676576116746000611923565b505b6000809054906101000a900473ffffffffffffffffffffffffffffffffffffffff1673ffffffffffffffffffffffffffffffffffffffff166338cc48316000604051602001526040518163ffffffff167c0100000000000000000000000000000000000000000000000000000000028152600401602060405180830381600087803b151561170357600080fd5b6102c65a03f1151561171457600080fd5b5050506040518051905073ffffffffffffffffffffffffffffffffffffffff16600160009054906101000a900473ffffffffffffffffffffffffffffffffffffffff1673ffffffffffffffffffffffffffffffffffffffff1614151561185d576000809054906101000a900473ffffffffffffffffffffffffffffffffffffffff1673ffffffffffffffffffffffffffffffffffffffff166338cc48316000604051602001526040518163ffffffff167c0100000000000000000000000000000000000000000000000000000000028152600401602060405180830381600087803b151561180157600080fd5b6102c65a03f1151561181257600080fd5b50505060405180519050600160006101000a81548173ffffffffffffffffffffffffffffffffffffffff021916908373ffffffffffffffffffffffffffffffffffffffff1602179055505b600260405180591061186c5750595b9080825280602002602001820160405280156118a257816020015b61188f6131a8565b8152602001906001900390816118875790505b5090508260006002811015156118b457fe5b60200201518160008151811015156118c857fe5b906020019060200201819052508260016002811015156118e457fe5b60200201518160018151811015156118f857fe5b9060200190602002018190525061190f8482611f4e565b91505092915050565b6000813b9050919050565b600061192d6124a4565b9050919050565b61193c6130c6565b600061195a8560000151866020015186600001518760200151612933565b9050846020015183602001818152505084602001518103836000018181525050846000015185602001510181141561199c5760008560000181815250506119c7565b8360000151836000015101856000018181510391508181525050836000015181018560200181815250505b829150509392505050565b60008060008060008060008060008a6000015197508a600001518a6000015110156119ff57896000015197505b8a60200151965089602001519550600094505b87851015611a705786519350855192508284141515611a5957600185896020030160080260020a03199150818316828516039050600081141515611a5857809850611a7e565b5b602087019650602086019550602085019450611a12565b89600001518b600001510398505b505050505050505092915050565b60005b602082101515611ab45782518452602084019350602083019250602082039150611a8f565b6001826020036101000a0390508019835116818551168181178652505050505050565b6000611ae16131bc565b60008060008693506000925060009150600090505b8351811015611db25760307f0100000000000000000000000000000000000000000000000000000000000000028482815181101515611b3157fe5b9060200101517f010000000000000000000000000000000000000000000000000000000000000090047f0100000000000000000000000000000000000000000000000000000000000000027effffffffffffffffffffffffffffffffffffffffffffffffffffffffffffff191610158015611c49575060397f0100000000000000000000000000000000000000000000000000000000000000028482815181101515611bd957fe5b9060200101517f010000000000000000000000000000000000000000000000000000000000000090047f0100000000000000000000000000000000000000000000000000000000000000027effffffffffffffffffffffffffffffffffffffffffffffffffffffffffffff191611155b15611cfa578115611c6c576000861415611c6257611db2565b8580600190039650505b600a8302925060308482815181101515611c8257fe5b9060200101517f010000000000000000000000000000000000000000000000000000000000000090047f0100000000000000000000000000000000000000000000000000000000000000027f010000000000000000000000000000000000000000000000000000000000000090040383019250611da5565b602e7f0100000000000000000000000000000000000000000000000000000000000000028482815181101515611d2c57fe5b9060200101517f010000000000000000000000000000000000000000000000000000000000000090047f0100000000000000000000000000000000000000000000000000000000000000027effffffffffffffffffffffffffffffffffffffffffffffffffffffffffffff19161415611da457600191505b5b8080600101915050611af6565b6000861115611dc45785600a0a830292505b8294505050505092915050565b611df1601f611de1836005612a19565b1783612a2990919063ffffffff16565b5050565b601781111515611e2657611e2181611e0e846005612a19565b60ff161784612a2990919063ffffffff16565b611f49565b60ff81111515611e6c57611e506018611e40846005612a19565b1784612a2990919063ffffffff16565b611e6681600185612a699092919063ffffffff16565b50611f48565b61ffff81111515611eb357611e976019611e87846005612a19565b1784612a2990919063ffffffff16565b611ead81600285612a699092919063ffffffff16565b50611f47565b63ffffffff81111515611efc57611ee0601a611ed0846005612a19565b1784612a2990919063ffffffff16565b611ef681600485612a699092919063ffffffff16565b50611f46565b67ffffffffffffffff81111515611f4557611f2d601b611f1d846005612a19565b1784612a2990919063ffffffff16565b611f4381600885612a699092919063ffffffff16565b505b5b5b5b5b505050565b600080611f596131bc565b60008060009054906101000a900473ffffffffffffffffffffffffffffffffffffffff1673ffffffffffffffffffffffffffffffffffffffff161480611fc857506000611fc66000809054906101000a900473ffffffffffffffffffffffffffffffffffffffff16611918565b145b15611fd957611fd76000611923565b505b6000809054906101000a900473ffffffffffffffffffffffffffffffffffffffff1673ffffffffffffffffffffffffffffffffffffffff166338cc48316000604051602001526040518163ffffffff167c0100000000000000000000000000000000000000000000000000000000028152600401602060405180830381600087803b151561206657600080fd5b6102c65a03f1151561207757600080fd5b5050506040518051905073ffffffffffffffffffffffffffffffffffffffff16600160009054906101000a900473ffffffffffffffffffffffffffffffffffffffff1673ffffffffffffffffffffffffffffffffffffffff161415156121c0576000809054906101000a900473ffffffffffffffffffffffffffffffffffffffff1673ffffffffffffffffffffffffffffffffffffffff166338cc48316000604051602001526040518163ffffffff167c0100000000000000000000000000000000000000000000000000000000028152600401602060405180830381600087803b151561216457600080fd5b6102c65a03f1151561217557600080fd5b50505060405180519050600160006101000a81548173ffffffffffffffffffffffffffffffffffffffff021916908373ffffffffffffffffffffffffffffffffffffffff1602179055505b600160009054906101000a900473ffffffffffffffffffffffffffffffffffffffff1673ffffffffffffffffffffffffffffffffffffffff1663524f3889866000604051602001526040518263ffffffff167c01000000000000000000000000000000000000000000000000000000000281526004018080602001828103825283818151815260200191508051906020019080838360005b83811015612273578082015181840152602081019050612258565b50505050905090810190601f1680156122a05780820380516001836020036101000a031916815260200191505b5092505050602060405180830381600087803b15156122be57600080fd5b6102c65a03f115156122cf57600080fd5b50505060405180519050915062030d403a02670de0b6b3a7640000018211156122fe576000600102925061249c565b61230784612ad0565b9050600160009054906101000a900473ffffffffffffffffffffffffffffffffffffffff1673ffffffffffffffffffffffffffffffffffffffff166383eed3d583600088856000604051602001526040518563ffffffff167c0100000000000000000000000000000000000000000000000000000000028152600401808481526020018060200180602001838103835285818151815260200191508051906020019080838360005b838110156123ca5780820151818401526020810190506123af565b50505050905090810190601f1680156123f75780820380516001836020036101000a031916815260200191505b50838103825284818151815260200191508051906020019080838360005b83811015612430578082015181840152602081019050612415565b50505050905090810190601f16801561245d5780820380516001836020036101000a031916815260200191505b50955050505050506020604051808303818588803b151561247d57600080fd5b6125ee5a03f1151561248e57600080fd5b505050506040518051905092505b505092915050565b6000806124c4731d3b2638a7cc9f2cb3d298a3da7a90b67e5506ed611918565b111561256557731d3b2638a7cc9f2cb3d298a3da7a90b67e5506ed6000806101000a81548173ffffffffffffffffffffffffffffffffffffffff021916908373ffffffffffffffffffffffffffffffffffffffff16021790555061255c6040805190810160405280600b81526020017f6574685f6d61696e6e6574000000000000000000000000000000000000000000815250612fbb565b60019050612930565b600061258473c03a2615d5efaf5f49f60b7bb6583eaec212fdf1611918565b11156126255773c03a2615d5efaf5f49f60b7bb6583eaec212fdf16000806101000a81548173ffffffffffffffffffffffffffffffffffffffff021916908373ffffffffffffffffffffffffffffffffffffffff16021790555061261c6040805190810160405280600c81526020017f6574685f726f707374656e330000000000000000000000000000000000000000815250612fbb565b60019050612930565b600061264473b7a07bcf2ba2f2703b24c0691b5278999c59ac7e611918565b11156126e55773b7a07bcf2ba2f2703b24c0691b5278999c59ac7e6000806101000a81548173ffffffffffffffffffffffffffffffffffffffff021916908373ffffffffffffffffffffffffffffffffffffffff1602179055506126dc6040805190810160405280600981526020017f6574685f6b6f76616e0000000000000000000000000000000000000000000000815250612fbb565b60019050612930565b600061270473146500cfd35b22e4a392fe0adc06de1a1368ed48611918565b11156127a55773146500cfd35b22e4a392fe0adc06de1a1368ed486000806101000a81548173ffffffffffffffffffffffffffffffffffffffff021916908373ffffffffffffffffffffffffffffffffffffffff16021790555061279c6040805190810160405280600b81526020017f6574685f72696e6b656279000000000000000000000000000000000000000000815250612fbb565b60019050612930565b60006127c4736f485c8bf6fc43ea212e93bbf8ce046c7f1cb475611918565b111561282757736f485c8bf6fc43ea212e93bbf8ce046c7f1cb4756000806101000a81548173ffffffffffffffffffffffffffffffffffffffff021916908373ffffffffffffffffffffffffffffffffffffffff16021790555060019050612930565b60006128467320e12a1f859b3feae5fb2a0a32c18f5a65555bbf611918565b11156128a9577320e12a1f859b3feae5fb2a0a32c18f5a65555bbf6000806101000a81548173ffffffffffffffffffffffffffffffffffffffff021916908373ffffffffffffffffffffffffffffffffffffffff16021790555060019050612930565b60006128c87351efaf4c8b3c9afbd5ab9f4bbc82784ab6ef8faa611918565b111561292b577351efaf4c8b3c9afbd5ab9f4bbc82784ab6ef8faa6000806101000a81548173ffffffffffffffffffffffffffffffffffffffff021916908373ffffffffffffffffffffffffffffffffffffffff16021790555060019050612930565b600090505b90565b60008060008060008060008060008b97508c8b111515612a035760208b1115156129bd5760018b60200360080260020a03196001029550858a511694508a8d8d010393508588511692505b846000191683600019161415156129b55783881015156129a2578c8c019850612a09565b878060010198505085885116925061297e565b879850612a09565b8a8a209150600096505b8a8d0387111515612a02578a882090508060001916826000191614156129ef57879850612a09565b60018801975086806001019750506129c7565b5b8c8c0198505b5050505050505050949350505050565b60008160020a8302905092915050565b81602001516001836000015151011115612a4f57612a4e826002846020015102612fd5565b5b815180516020818301018381536001820183525050505050565b612a71613174565b6000846020015185600001515184011115612aa157612aa0856002612a9a886020015187612ffe565b02612fd5565b5b6001836101000a0390508451805184818301018684198251161781528582018352505050849150509392505050565b612ad86131bc565b600080612ae3613194565b6000806000612af06131bc565b60008060008b5199506000985089604051805910612b0b5750595b908082528060200260200182016040528015612b4157816020015b612b2e6131a8565b815260200190600190039081612b265790505b509750600096505b89871015612bda578b87815181101515612b5f57fe5b906020019060200201518888815181101515612b7757fe5b906020019060200201819052506003601760018a8a815181101515612b9857fe5b906020019060200201515103811515612bad57fe5b048989815181101515612bbc57fe5b90602001906020020151510101890198508680600101975050612b49565b6000955060808a019450600160ff168901985088604051805910612bfb5750595b9080825280601f01601f191660200182016040525093505b85600160ff161115612cbd57847f01000000000000000000000000000000000000000000000000000000000000000286600181101515612c4f57fe5b1a7f0100000000000000000000000000000000000000000000000000000000000000028487815181101515612c8057fe5b9060200101907effffffffffffffffffffffffffffffffffffffffffffffffffffffffffffff1916908160001a9053508580600101965050612c13565b600096505b89871015612fa957605f7f0100000000000000000000000000000000000000000000000000000000000000028487815181101515612cfc57fe5b9060200101907effffffffffffffffffffffffffffffffffffffffffffffffffffffffffffff1916908160001a9053508580600101965050600092505b8787815181101515612d4757fe5b9060200190602002015151831015612f32576000601784811515612d6757fe5b061415612e6f576018838989815181101515612d7f57fe5b9060200190602002015151031015612db157828888815181101515612da057fe5b906020019060200201515103612db4565b60175b91506040820191508590505b808603600160ff161115612e6e57817f010000000000000000000000000000000000000000000000000000000000000002818703600181101515612e0057fe5b1a7f0100000000000000000000000000000000000000000000000000000000000000028487815181101515612e3157fe5b9060200101907effffffffffffffffffffffffffffffffffffffffffffffffffffffffffffff1916908160001a9053508580600101965050612dc0565b5b8787815181101515612e7d57fe5b9060200190602002015183815181101515612e9457fe5b9060200101517f010000000000000000000000000000000000000000000000000000000000000090047f0100000000000000000000000000000000000000000000000000000000000000028487815181101515612eed57fe5b9060200101907effffffffffffffffffffffffffffffffffffffffffffffffffffffffffffff1916908160001a90535085806001019650508280600101935050612d39565b60ff7f0100000000000000000000000000000000000000000000000000000000000000028487815181101515612f6457fe5b9060200101907effffffffffffffffffffffffffffffffffffffffffffffffffffffffffffff1916908160001a90535085806001019650508680600101975050612cc2565b839a5050505050505050505050919050565b8060029080519060200190612fd19291906131d0565b5050565b612fdd6131bc565b82600001519050612fee838361157a565b612ff8838261301a565b50505050565b60008183111561301057829050613014565b8190505b92915050565b613022613174565b60008060008086602001518760000151518751011115613058576130578760026130518a602001518a51612ffe565b02612fd5565b5b8551915086518051602081830101955087518101825260208801945050505b60208210151561309c5782518452602084019350602083019250602082039150613077565b6001826020036101000a039050801983511681855116818117865250508694505050505092915050565b604080519081016040528060008152602001600081525090565b602060405190810160405280600081525090565b828054600181600116156101000203166002900490600052602060002090601f016020900481019282601f1061313557805160ff1916838001178555613163565b82800160010185558215613163579182015b82811115613162578251825591602001919060010190613147565b5b5090506131709190613250565b5090565b60408051908101604052806131876131a8565b8152602001600081525090565b602060405190810160405280600081525090565b602060405190810160405280600081525090565b602060405190810160405280600081525090565b828054600181600116156101000203166002900490600052602060002090601f016020900481019282601f1061321157805160ff191683800117855561323f565b8280016001018555821561323f579182015b8281111561323e578251825591602001919060010190613223565b5b50905061324c9190613250565b5090565b61327291905b8082111561326e576000816000905550600101613256565b5090565b905600a165627a7a72305820ba4b9499005e6752bb541dd075f8a64b5dd4be554bad1b243761041aa81adfc90029",
  "source": "pragma solidity ^0.4.18;\nimport \"installed_contracts/oraclize-api/contracts/usingOraclize.sol\";\nimport \"./CBOR.sol\";\nimport \"./WITEvaluator.sol\";\nimport \"./Ownable.sol\";\nimport \"./callbackableWIT.sol\";\nimport \"./strings.sol\";\nimport 'zeppelin-solidity/contracts/math/SafeMath.sol';\n\n\n\ncontract NOAAPrecipAggregate is usingOraclize, WITEvaluator, Ownable {\n    using SafeMath for uint;\n    using CBOR for Buffer.buffer;\n    using strings for *;\n\n\n    bytes precipScript;\n    event gotNOAAPrecipAggregateCallback(string key, string result);\n    event sendingNOAAPrecipOraclizeComputation(bytes precipScript, uint WITID, uint timescale, bytes32 area, uint month, uint term_year, uint average_basis);\n\n\n    /*\n    Assumes \"num_averaged_years\" to be 10.  start and end must be = within 12 months of each other.\n    */\n\n    function evaluateWIT(uint WITID, uint start, uint end, uint thresholdFactorPPM, bytes32 area, uint num_averaged_years, string runtimeParams) public onlyContractOwner {\n        require(oraclize_getPrice(\"computation\") > this.balance);\n        require(start.sub(end) < 31618800); //number of seconds in a year\n        require(1 < thresholdFactorPPM);\n        require(thresholdFactorPPM < 3000000);\n\n        Buffer.buffer memory cborArgs;\n        Buffer.init(cborArgs, 64);\n        cborArgs.startArray();\n        cborArgs.encodeUInt(WITID);\n        cborArgs.encodeUInt(10); //Just do 10 years for this release. Don't want to make front end have to validate this yet.\n        cborArgs.encodeUInt(start);\n        cborArgs.encodeUInt(end);\n        cborArgs.encodeUInt(thresholdFactorPPM);\n        cborArgs.encodeUInt(uint(area));\n        cborArgs.endSequence();\n\n        oraclize_query(\"computation\", [precipScript, cborArgs.buf]);\n    }\n\n\n    function __callback(bytes32 myid, string result) {\n        require(msg.sender == oraclize_cbAddress());\n\n        gotNOAAPrecipAggregateCallback(\"http-response-status-code&wit-id&outcome&average-precpitation&term-precipitation&absolute-threshold\", result);\n\n        var sliceResult = result.toSlice();\n        var status = sliceResult.split(\"&\".toSlice());\n        if (!strings.equals(status, \"200\".toSlice())){\n            return;\n        }\n\n        uint WITID =  parseInt(sliceResult.split(\"&\".toSlice()).toString());\n        var outcome = sliceResult.split(\"&\".toSlice()).toString();\n\n        callbackableWIT(owner).evaluatorCallback(WITID, outcome); \n\n    }\n\n\n    function NOAAPrecipAggregate() public {\n        OAR = OraclizeAddrResolverI(0x6f485C8BF6fc43eA212E93BBF8ce046C7f1cb475);\n    }\n\n\n    function initialize(bytes scriptHash) public onlyContractOwner {\n        precipScript = scriptHash;\n\n    }\n\n\n    function getNameAndDescription() public pure returns(string name, string description) {\n        return(\"NOAA Precipitation Aggregate WIT Evaluator\", \"This contract makes a call to the NOAA aggregate endpoint and evaluates a WIT based on the result.\");\n    }\n\n}",
  "sourcePath": "/Users/benandre/cropcrop/contracts/NOAAPrecipAggregate.sol",
  "compiler": {
    "name": "solc",
    "version": "0.4.18+commit.9cf6e910.Emscripten.clang"
  },
  "schemaVersion": "1.0.1",
  "updatedAt": "2018-04-26T20:25:12.106Z"
}