{
  "contractName": "NOAANCDCRainfall",
  "abi": [
    {
      "constant": false,
      "inputs": [
        {
          "name": "myid",
          "type": "bytes32"
        },
        {
          "name": "result",
          "type": "string"
        }
      ],
      "name": "__callback",
      "outputs": [],
      "payable": false,
      "stateMutability": "nonpayable",
      "type": "function"
    },
    {
      "constant": false,
      "inputs": [
        {
          "name": "myid",
          "type": "bytes32"
        },
        {
          "name": "result",
          "type": "string"
        },
        {
          "name": "proof",
          "type": "bytes"
        }
      ],
      "name": "__callback",
      "outputs": [],
      "payable": false,
      "stateMutability": "nonpayable",
      "type": "function"
    },
    {
      "constant": false,
      "inputs": [],
      "name": "testQuery",
      "outputs": [],
      "payable": false,
      "stateMutability": "nonpayable",
      "type": "function"
    },
    {
      "inputs": [],
      "payable": false,
      "stateMutability": "nonpayable",
      "type": "constructor"
    },
    {
      "anonymous": false,
      "inputs": [
        {
          "indexed": false,
          "name": "message",
          "type": "string"
        }
      ],
      "name": "newOraclizeQuery",
      "type": "event"
    },
    {
      "anonymous": false,
      "inputs": [
        {
          "indexed": false,
          "name": "debug",
          "type": "string"
        }
      ],
      "name": "debug",
      "type": "event"
    }
  ],
  "bytecode": "0x6060604052606060405190810160405280602981526020017f68747470733a2f2f7777772e6e6364632e6e6f61612e676f762f63646f2d776581526020017f622f6170692f76322f0000000000000000000000000000000000000000000000815250600590805190602001906200007892919062000187565b50606060405190810160405280602e81526020017f516d644b4b333139566568613833683641596751716878395952734a394d4a4581526020017f377933336f4358795a344d71484500000000000000000000000000000000000081525060069080519060200190620000ed92919062000187565b5060e06040519081016040528060ba815260200162000fda60ba9139600790805190602001906200012092919062000187565b5034156200012d57600080fd5b736f485c8bf6fc43ea212e93bbf8ce046c7f1cb4756000806101000a81548173ffffffffffffffffffffffffffffffffffffffff021916908373ffffffffffffffffffffffffffffffffffffffff16021790555062000236565b828054600181600116156101000203166002900490600052602060002090601f016020900481019282601f10620001ca57805160ff1916838001178555620001fb565b82800160010185558215620001fb579182015b82811115620001fa578251825591602001919060010190620001dd565b5b5090506200020a91906200020e565b5090565b6200023391905b808211156200022f57600081600090555060010162000215565b5090565b90565b610d9480620002466000396000f300606060405260043610610057576000357c0100000000000000000000000000000000000000000000000000000000900463ffffffff16806327dc297e1461005c57806338bbfa50146100c6578063bb418bf914610173575b600080fd5b341561006757600080fd5b6100c460048080356000191690602001909190803590602001908201803590602001908080601f01602080910402602001604051908101604052809392919081815260200183838082843782019150505050505091905050610188565b005b34156100d157600080fd5b61017160048080356000191690602001909190803590602001908201803590602001908080601f0160208091040260200160405190810160405280939291908181526020018383808284378201915050505050509190803590602001908201803590602001908080601f01602080910402602001604051908101604052809392919081815260200183838082843782019150505050505091905050610228565b005b341561017e57600080fd5b61018661022d565b005b7f2f50fbfa89e10026c273a59cb3202a86c6c09a4116d874b4ad412c42d9042468816040518080602001828103825283818151815260200191508051906020019080838360005b838110156101ea5780820151818401526020810190506101cf565b50505050905090810190601f1680156102175780820380516001836020036101000a031916815260200191505b509250505060405180910390a15050565b505050565b6102c86040805190810160405280600381526020017f55524c0000000000000000000000000000000000000000000000000000000000815250606060405190810160405280603a81526020017f6a736f6e28687474703a2f2f6170692e66697865722e696f2f6c61746573743f81526020017f73796d626f6c733d5553442c474250292e72617465732e4742500000000000008152506102cb565b50565b60008060008060009054906101000a900473ffffffffffffffffffffffffffffffffffffffff1673ffffffffffffffffffffffffffffffffffffffff16148061033d5750600061033b6000809054906101000a900473ffffffffffffffffffffffffffffffffffffffff1661080d565b145b1561034e5761034c6000610818565b505b6000809054906101000a900473ffffffffffffffffffffffffffffffffffffffff1673ffffffffffffffffffffffffffffffffffffffff166338cc48316000604051602001526040518163ffffffff167c0100000000000000000000000000000000000000000000000000000000028152600401602060405180830381600087803b15156103db57600080fd5b6102c65a03f115156103ec57600080fd5b5050506040518051905073ffffffffffffffffffffffffffffffffffffffff16600160009054906101000a900473ffffffffffffffffffffffffffffffffffffffff1673ffffffffffffffffffffffffffffffffffffffff16141515610535576000809054906101000a900473ffffffffffffffffffffffffffffffffffffffff1673ffffffffffffffffffffffffffffffffffffffff166338cc48316000604051602001526040518163ffffffff167c0100000000000000000000000000000000000000000000000000000000028152600401602060405180830381600087803b15156104d957600080fd5b6102c65a03f115156104ea57600080fd5b50505060405180519050600160006101000a81548173ffffffffffffffffffffffffffffffffffffffff021916908373ffffffffffffffffffffffffffffffffffffffff1602179055505b600160009054906101000a900473ffffffffffffffffffffffffffffffffffffffff1673ffffffffffffffffffffffffffffffffffffffff1663524f3889856000604051602001526040518263ffffffff167c01000000000000000000000000000000000000000000000000000000000281526004018080602001828103825283818151815260200191508051906020019080838360005b838110156105e85780820151818401526020810190506105cd565b50505050905090810190601f1680156106155780820380516001836020036101000a031916815260200191505b5092505050602060405180830381600087803b151561063357600080fd5b6102c65a03f1151561064457600080fd5b50505060405180519050905062030d403a02670de0b6b3a7640000018111156106735760006001029150610806565b600160009054906101000a900473ffffffffffffffffffffffffffffffffffffffff1673ffffffffffffffffffffffffffffffffffffffff1663adf59f9982600087876000604051602001526040518563ffffffff167c0100000000000000000000000000000000000000000000000000000000028152600401808481526020018060200180602001838103835285818151815260200191508051906020019080838360005b83811015610734578082015181840152602081019050610719565b50505050905090810190601f1680156107615780820380516001836020036101000a031916815260200191505b50838103825284818151815260200191508051906020019080838360005b8381101561079a57808201518184015260208101905061077f565b50505050905090810190601f1680156107c75780820380516001836020036101000a031916815260200191505b50955050505050506020604051808303818588803b15156107e757600080fd5b6125ee5a03f115156107f857600080fd5b505050506040518051905091505b5092915050565b6000813b9050919050565b600080610838731d3b2638a7cc9f2cb3d298a3da7a90b67e5506ed61080d565b11156108d957731d3b2638a7cc9f2cb3d298a3da7a90b67e5506ed6000806101000a81548173ffffffffffffffffffffffffffffffffffffffff021916908373ffffffffffffffffffffffffffffffffffffffff1602179055506108d06040805190810160405280600b81526020017f6574685f6d61696e6e6574000000000000000000000000000000000000000000815250610ca9565b60019050610ca4565b60006108f873c03a2615d5efaf5f49f60b7bb6583eaec212fdf161080d565b11156109995773c03a2615d5efaf5f49f60b7bb6583eaec212fdf16000806101000a81548173ffffffffffffffffffffffffffffffffffffffff021916908373ffffffffffffffffffffffffffffffffffffffff1602179055506109906040805190810160405280600c81526020017f6574685f726f707374656e330000000000000000000000000000000000000000815250610ca9565b60019050610ca4565b60006109b873b7a07bcf2ba2f2703b24c0691b5278999c59ac7e61080d565b1115610a595773b7a07bcf2ba2f2703b24c0691b5278999c59ac7e6000806101000a81548173ffffffffffffffffffffffffffffffffffffffff021916908373ffffffffffffffffffffffffffffffffffffffff160217905550610a506040805190810160405280600981526020017f6574685f6b6f76616e0000000000000000000000000000000000000000000000815250610ca9565b60019050610ca4565b6000610a7873146500cfd35b22e4a392fe0adc06de1a1368ed4861080d565b1115610b195773146500cfd35b22e4a392fe0adc06de1a1368ed486000806101000a81548173ffffffffffffffffffffffffffffffffffffffff021916908373ffffffffffffffffffffffffffffffffffffffff160217905550610b106040805190810160405280600b81526020017f6574685f72696e6b656279000000000000000000000000000000000000000000815250610ca9565b60019050610ca4565b6000610b38736f485c8bf6fc43ea212e93bbf8ce046c7f1cb47561080d565b1115610b9b57736f485c8bf6fc43ea212e93bbf8ce046c7f1cb4756000806101000a81548173ffffffffffffffffffffffffffffffffffffffff021916908373ffffffffffffffffffffffffffffffffffffffff16021790555060019050610ca4565b6000610bba7320e12a1f859b3feae5fb2a0a32c18f5a65555bbf61080d565b1115610c1d577320e12a1f859b3feae5fb2a0a32c18f5a65555bbf6000806101000a81548173ffffffffffffffffffffffffffffffffffffffff021916908373ffffffffffffffffffffffffffffffffffffffff16021790555060019050610ca4565b6000610c3c7351efaf4c8b3c9afbd5ab9f4bbc82784ab6ef8faa61080d565b1115610c9f577351efaf4c8b3c9afbd5ab9f4bbc82784ab6ef8faa6000806101000a81548173ffffffffffffffffffffffffffffffffffffffff021916908373ffffffffffffffffffffffffffffffffffffffff16021790555060019050610ca4565b600090505b919050565b8060029080519060200190610cbf929190610cc3565b5050565b828054600181600116156101000203166002900490600052602060002090601f016020900481019282601f10610d0457805160ff1916838001178555610d32565b82800160010185558215610d32579182015b82811115610d31578251825591602001919060010190610d16565b5b509050610d3f9190610d43565b5090565b610d6591905b80821115610d61576000816000905550600101610d49565b5090565b905600a165627a7a7230582088c48b6c09b55ef5eacaee940a38b4a26abe4dd192a9e4da468133976c016bd000297b2768656164657273273a207b27746f6b656e273a205b646563727970745d20424b36784d2b6b64573367476665714c59636b38687945764c7a536c2f3942786c6134736637307a7446306132386b5178304a324361704d43396d56597061446235454c767873366f77754d706473454f494541394f7338367644684341375238656b49526f484d6a627858466451644563544c38767079516850415033485a376955574d4673364652357a616569734947574647756f3d7d7d",
  "source": "pragma solidity ^0.4.18;\nimport \"./usingOraclize.sol\";\nimport \"./urlRequests.sol\";\n\ncontract NOAANCDCRainfall is usingOraclize {\n\n    string baseURL = \"https://www.ncdc.noaa.gov/cdo-web/api/v2/\";\n    string requestsIPFSHash = \"QmdKK319Veha83h6AYgQqhx9YRsJ9MJE7y33oCXyZ4MqHE\";\n    string headers = \"{'headers': {'token': [decrypt] BK6xM+kdW3gGfeqLYck8hyEvLzSl/9Bxla4sf70ztF0a28kQx0J2CapMC9mVYpaDb5ELvxs6owuMpdsEOIEA9Os86vDhCA7R8ekIRoHMjbxXFdQdEcTL8vpyQhPAP3HZ7iUWMFs6FR5zaeisIGWFGuo=}}\";\n\n    event newOraclizeQuery(string message);\n\n    event debug(string debug);\n\n    function NOAARequest(string _query, string _url) private {\n        if (oraclize_getPrice(\"computation\") > this.balance) {\n            newOraclizeQuery(\"Oraclize query was NOT sent, please add some ETH to cover for the query fee\");\n        } else {\n            newOraclizeQuery(\"Oraclize query was sent, standing by for the answer...\");\n\n            oraclize_query(\"computation\",\n                [_query,\n                \"GET\",\n                _url,\n                headers]\n            );\n        }\n    }\n\n//    function query() {\n  //  \tNOAARequest(\"json(\" + );\n    //}\n\n\n    function testQuery() {\n        oraclize_query(\"URL\", \"json(http://api.fixer.io/latest?symbols=USD,GBP).rates.GBP\");\n    }\n\n    function __callback(bytes32 myid, string result) {\n//        if (msg.sender != oraclize_cbAddress()) throw;\n        debug(result);\n    }\n\n    function NOAANCDCRainfall() {\n\n        OAR = OraclizeAddrResolverI(0x6f485C8BF6fc43eA212E93BBF8ce046C7f1cb475);    }\n\n\n}",
  "sourcePath": "/Users/benandre/cropcrop/contracts/NOAANCDCRainfall.sol",
  "compiler": {
    "name": "solc",
    "version": "0.4.18+commit.9cf6e910.Emscripten.clang"
  },
  "schemaVersion": "1.0.1",
  "updatedAt": "2018-03-04T00:38:58.164Z"
}