{
  "contractName": "NOAAPrecipAggregate",
  "abi": [
    {
      "constant": false,
      "inputs": [
        {
          "name": "myid",
          "type": "bytes32"
        },
        {
          "name": "result",
          "type": "string"
        }
      ],
      "name": "__callback",
      "outputs": [],
      "payable": false,
      "stateMutability": "nonpayable",
      "type": "function"
    },
    {
      "constant": false,
      "inputs": [
        {
          "name": "myid",
          "type": "bytes32"
        },
        {
          "name": "result",
          "type": "string"
        },
        {
          "name": "proof",
          "type": "bytes"
        }
      ],
      "name": "__callback",
      "outputs": [],
      "payable": false,
      "stateMutability": "nonpayable",
      "type": "function"
    },
    {
      "constant": false,
      "inputs": [
        {
          "name": "scriptHash",
          "type": "string"
        }
      ],
      "name": "updateIPFSMultihash",
      "outputs": [],
      "payable": false,
      "stateMutability": "nonpayable",
      "type": "function"
    },
    {
      "constant": true,
      "inputs": [],
      "name": "owner",
      "outputs": [
        {
          "name": "",
          "type": "address"
        }
      ],
      "payable": false,
      "stateMutability": "view",
      "type": "function"
    },
    {
      "constant": false,
      "inputs": [
        {
          "name": "WITID",
          "type": "uint256"
        },
        {
          "name": "start",
          "type": "uint256"
        },
        {
          "name": "end",
          "type": "uint256"
        },
        {
          "name": "thresholdFactorPPM",
          "type": "uint256"
        },
        {
          "name": "area",
          "type": "bytes32"
        },
        {
          "name": "num_averaged_years",
          "type": "uint256"
        },
        {
          "name": "runtimeParams",
          "type": "string"
        }
      ],
      "name": "evaluateWIT",
      "outputs": [],
      "payable": true,
      "stateMutability": "payable",
      "type": "function"
    },
    {
      "constant": true,
      "inputs": [],
      "name": "getNameAndDescription",
      "outputs": [
        {
          "name": "name",
          "type": "string"
        },
        {
          "name": "description",
          "type": "string"
        }
      ],
      "payable": false,
      "stateMutability": "pure",
      "type": "function"
    },
    {
      "constant": false,
      "inputs": [
        {
          "name": "newOwner",
          "type": "address"
        }
      ],
      "name": "transferOwnership",
      "outputs": [],
      "payable": false,
      "stateMutability": "nonpayable",
      "type": "function"
    },
    {
      "inputs": [],
      "payable": false,
      "stateMutability": "nonpayable",
      "type": "constructor"
    },
    {
      "payable": true,
      "stateMutability": "payable",
      "type": "fallback"
    },
    {
      "anonymous": false,
      "inputs": [
        {
          "indexed": false,
          "name": "key",
          "type": "string"
        },
        {
          "indexed": false,
          "name": "result",
          "type": "string"
        }
      ],
      "name": "gotNOAAPrecipAggregateCallback",
      "type": "event"
    },
    {
      "anonymous": false,
      "inputs": [
        {
          "indexed": false,
          "name": "precipScript",
          "type": "bytes"
        },
        {
          "indexed": false,
          "name": "WITID",
          "type": "uint256"
        },
        {
          "indexed": false,
          "name": "timescale",
          "type": "uint256"
        },
        {
          "indexed": false,
          "name": "area",
          "type": "bytes32"
        },
        {
          "indexed": false,
          "name": "month",
          "type": "uint256"
        },
        {
          "indexed": false,
          "name": "term_year",
          "type": "uint256"
        },
        {
          "indexed": false,
          "name": "average_basis",
          "type": "uint256"
        }
      ],
      "name": "sendingNOAAPrecipOraclizeComputation",
      "type": "event"
    },
    {
      "anonymous": false,
      "inputs": [
        {
          "indexed": true,
          "name": "previousOwner",
          "type": "address"
        },
        {
          "indexed": true,
          "name": "newOwner",
          "type": "address"
        }
      ],
      "name": "OwnershipTransferred",
      "type": "event"
    },
    {
      "anonymous": false,
      "inputs": [
        {
          "indexed": false,
          "name": "",
          "type": "string"
        }
      ],
      "name": "debug",
      "type": "event"
    }
  ],
  "bytecode": "0x6060604052606060405190810160405280602e81526020017f516d524e51684b5254685943516533384c79636a3764544e564346513762466e81526020017f70516446384e787146396a506934000000000000000000000000000000000000815250600690805190602001906200007892919062000120565b5034156200008557600080fd5b33600560006101000a81548173ffffffffffffffffffffffffffffffffffffffff021916908373ffffffffffffffffffffffffffffffffffffffff160217905550736f485c8bf6fc43ea212e93bbf8ce046c7f1cb4756000806101000a81548173ffffffffffffffffffffffffffffffffffffffff021916908373ffffffffffffffffffffffffffffffffffffffff160217905550620001cf565b828054600181600116156101000203166002900490600052602060002090601f016020900481019282601f106200016357805160ff191683800117855562000194565b8280016001018555821562000194579182015b828111156200019357825182559160200191906001019062000176565b5b509050620001a39190620001a7565b5090565b620001cc91905b80821115620001c8576000816000905550600101620001ae565b5090565b90565b61314880620001df6000396000f300606060405260043610610083576000357c0100000000000000000000000000000000000000000000000000000000900463ffffffff16806327dc297e1461008557806338bbfa50146100ef5780638ab545811461019c5780638da5cb5b146101f9578063990199e21461024e578063ee52d287146102da578063f2fde38b146103d4575b005b341561009057600080fd5b6100ed60048080356000191690602001909190803590602001908201803590602001908080601f0160208091040260200160405190810160405280939291908181526020018383808284378201915050505050509190505061040d565b005b34156100fa57600080fd5b61019a60048080356000191690602001909190803590602001908201803590602001908080601f0160208091040260200160405190810160405280939291908181526020018383808284378201915050505050509190803590602001908201803590602001908080601f01602080910402602001604051908101604052809392919081815260200183838082843782019150505050505091905050610834565b005b34156101a757600080fd5b6101f7600480803590602001908201803590602001908080601f01602080910402602001604051908101604052809392919081815260200183838082843782019150505050505091905050610839565b005b341561020457600080fd5b61020c6108af565b604051808273ffffffffffffffffffffffffffffffffffffffff1673ffffffffffffffffffffffffffffffffffffffff16815260200191505060405180910390f35b6102d860048080359060200190919080359060200190919080359060200190919080359060200190919080356000191690602001909190803590602001909190803590602001908201803590602001908080601f016020809104026020016040519081016040528093929190818152602001838380828437820191505050505050919050506108d5565b005b34156102e557600080fd5b6102ed610b91565b604051808060200180602001838103835285818151815260200191508051906020019080838360005b83811015610331578082015181840152602081019050610316565b50505050905090810190601f16801561035e5780820380516001836020036101000a031916815260200191505b50838103825284818151815260200191508051906020019080838360005b8381101561039757808201518184015260208101905061037c565b50505050905090810190601f1680156103c45780820380516001836020036101000a031916815260200191505b5094505050505060405180910390f35b34156103df57600080fd5b61040b600480803573ffffffffffffffffffffffffffffffffffffffff16906020019091905050610caf565b005b610415612fe5565b61041d612fe5565b6000610427612fff565b61042f610e07565b73ffffffffffffffffffffffffffffffffffffffff163373ffffffffffffffffffffffffffffffffffffffff1614151561046857600080fd5b7f26956f1c9af36b4c4e60afbeb89a799742a9c6eea4960c8a5a509647f2414dbd85604051808060200180602001838103835260638152602001807f687474702d726573706f6e73652d7374617475732d636f6465267769742d696481526020017f266f7574636f6d6526617665726167652d707265637069746174696f6e26746581526020017f726d2d70726563697069746174696f6e266162736f6c7574652d74687265736881526020017f6f6c640000000000000000000000000000000000000000000000000000000000815250608001838103825284818151815260200191508051906020019080838360005b83811015610574578082015181840152602081019050610559565b50505050905090810190601f1680156105a15780820380516001836020036101000a031916815260200191505b50935050505060405180910390a16105b88561111d565b935061060a6105fb6040805190810160405280600181526020017f260000000000000000000000000000000000000000000000000000000000000081525061111d565b8561114b90919063ffffffff16565b92506106538361064e6040805190810160405280600381526020017f323030000000000000000000000000000000000000000000000000000000000081525061111d565b611165565b151561065e5761082c565b6106be6106b96106b46106a56040805190810160405280600181526020017f260000000000000000000000000000000000000000000000000000000000000081525061111d565b8761114b90919063ffffffff16565b61117b565b6111d9565b91506107186107136107046040805190810160405280600181526020017f260000000000000000000000000000000000000000000000000000000000000081525061111d565b8661114b90919063ffffffff16565b61117b565b9050600560009054906101000a900473ffffffffffffffffffffffffffffffffffffffff1673ffffffffffffffffffffffffffffffffffffffff1663dbef1a2983836040518363ffffffff167c01000000000000000000000000000000000000000000000000000000000281526004018083815260200180602001828103825283818151815260200191508051906020019080838360005b838110156107cb5780820151818401526020810190506107b0565b50505050905090810190601f1680156107f85780820380516001836020036101000a031916815260200191505b509350505050600060405180830381600087803b151561081757600080fd5b6102c65a03f1151561082857600080fd5b5050505b505050505050565b505050565b600560009054906101000a900473ffffffffffffffffffffffffffffffffffffffff1673ffffffffffffffffffffffffffffffffffffffff163373ffffffffffffffffffffffffffffffffffffffff1614151561089557600080fd5b80600690805190602001906108ab929190613013565b5050565b600560009054906101000a900473ffffffffffffffffffffffffffffffffffffffff1681565b60006108df612fff565b600560009054906101000a900473ffffffffffffffffffffffffffffffffffffffff1673ffffffffffffffffffffffffffffffffffffffff163373ffffffffffffffffffffffffffffffffffffffff1614151561093b57600080fd5b6207a12091503073ffffffffffffffffffffffffffffffffffffffff16318210151561096657600080fd5b6301e276f061097e89896111ed90919063ffffffff16565b10151561098a57600080fd5b85600110151561099957600080fd5b622dc6c0861015156109aa57600080fd5b610a666040805190810160405280600281526020017f31300000000000000000000000000000000000000000000000000000000000008152506040805190810160405280600181526020017f2600000000000000000000000000000000000000000000000000000000000000815250610a228b611206565b6040805190810160405280600181526020017f2600000000000000000000000000000000000000000000000000000000000000815250610a618c611206565b611358565b9050610b856040805190810160405280600b81526020017f636f6d7075746174696f6e00000000000000000000000000000000000000000081525060a06040519081016040528060068054600181600116156101000203166002900480601f016020809104026020016040519081016040528092919081815260200182805460018160011615610100020316600290048015610b435780601f10610b1857610100808354040283529160200191610b43565b820191906000526020600020905b815481529060010190602001808311610b2657829003601f168201915b50505050508152602001610b568d611206565b8152602001848152602001610b6a8a611206565b8152602001610b7c8960019004611206565b81525084611790565b50505050505050505050565b610b99612fff565b610ba1612fff565b606060405190810160405280602a81526020017f4e4f41412050726563697069746174696f6e204167677265676174652057495481526020017f204576616c7561746f720000000000000000000000000000000000000000000081525060a060405190810160405280606281526020017f5468697320636f6e7472616374206d616b657320612063616c6c20746f20746881526020017f65204e4f41412061676772656761746520656e64706f696e7420616e6420657681526020017f616c7561746573206120574954206261736564206f6e2074686520726573756c81526020017f742e000000000000000000000000000000000000000000000000000000000000815250915091509091565b600560009054906101000a900473ffffffffffffffffffffffffffffffffffffffff1673ffffffffffffffffffffffffffffffffffffffff163373ffffffffffffffffffffffffffffffffffffffff16141515610d0b57600080fd5b600073ffffffffffffffffffffffffffffffffffffffff168173ffffffffffffffffffffffffffffffffffffffff1614151515610d4757600080fd5b8073ffffffffffffffffffffffffffffffffffffffff16600560009054906101000a900473ffffffffffffffffffffffffffffffffffffffff1673ffffffffffffffffffffffffffffffffffffffff167f8be0079c531659141344cd1fd0a4f28419497f9722a3daafe3b4186f6b6457e060405160405180910390a380600560006101000a81548173ffffffffffffffffffffffffffffffffffffffff021916908373ffffffffffffffffffffffffffffffffffffffff16021790555050565b6000806000809054906101000a900473ffffffffffffffffffffffffffffffffffffffff1673ffffffffffffffffffffffffffffffffffffffff161480610e7757506000610e756000809054906101000a900473ffffffffffffffffffffffffffffffffffffffff16611b4e565b145b15610e8857610e866000611b59565b505b6000809054906101000a900473ffffffffffffffffffffffffffffffffffffffff1673ffffffffffffffffffffffffffffffffffffffff166338cc48316000604051602001526040518163ffffffff167c0100000000000000000000000000000000000000000000000000000000028152600401602060405180830381600087803b1515610f1557600080fd5b6102c65a03f11515610f2657600080fd5b5050506040518051905073ffffffffffffffffffffffffffffffffffffffff16600160009054906101000a900473ffffffffffffffffffffffffffffffffffffffff1673ffffffffffffffffffffffffffffffffffffffff1614151561106f576000809054906101000a900473ffffffffffffffffffffffffffffffffffffffff1673ffffffffffffffffffffffffffffffffffffffff166338cc48316000604051602001526040518163ffffffff167c0100000000000000000000000000000000000000000000000000000000028152600401602060405180830381600087803b151561101357600080fd5b6102c65a03f1151561102457600080fd5b50505060405180519050600160006101000a81548173ffffffffffffffffffffffffffffffffffffffff021916908373ffffffffffffffffffffffffffffffffffffffff1602179055505b600160009054906101000a900473ffffffffffffffffffffffffffffffffffffffff1673ffffffffffffffffffffffffffffffffffffffff1663c281d19e6000604051602001526040518163ffffffff167c0100000000000000000000000000000000000000000000000000000000028152600401602060405180830381600087803b15156110fd57600080fd5b6102c65a03f1151561110e57600080fd5b50505060405180519050905090565b611125612fe5565b600060208301905060408051908101604052808451815260200182815250915050919050565b611153612fe5565b61115e838383611b6a565b5092915050565b6000806111728484611c08565b14905092915050565b611183612fff565b61118b612fff565b6000836000015160405180591061119f5750595b9080825280601f01601f191660200182016040525091506020820190506111cf8185602001518660000151611cc2565b8192505050919050565b60006111e6826000611d0d565b9050919050565b60008282111515156111fb57fe5b818303905092915050565b61120e612fff565b600080611219613093565b600080861415611260576040805190810160405280600181526020017f3000000000000000000000000000000000000000000000000000000000000000815250945061134f565b8593505b60008414151561128a578280600101935050600a8481151561128257fe5b049350611264565b826040518059106112985750595b9080825280601f01601f191660200182016040525091506001830390505b60008614151561134b57600a868115156112cc57fe5b066030017f01000000000000000000000000000000000000000000000000000000000000000282828060019003935081518110151561130757fe5b9060200101907effffffffffffffffffffffffffffffffffffffffffffffffffffffffffffff1916908160001a905350600a8681151561134357fe5b0495506112b6565b8194505b50505050919050565b611360612fff565b611368613093565b611370613093565b611378613093565b611380613093565b611388613093565b611390612fff565b611398613093565b6000808e98508d97508c96508b95508a94508451865188518a518c51010101016040518059106113c55750595b9080825280601f01601f1916602001820160405250935083925060009150600090505b885181101561149b5788818151811015156113ff57fe5b9060200101517f010000000000000000000000000000000000000000000000000000000000000090047f010000000000000000000000000000000000000000000000000000000000000002838380600101945081518110151561145e57fe5b9060200101907effffffffffffffffffffffffffffffffffffffffffffffffffffffffffffff1916908160001a90535080806001019150506113e8565b600090505b87518110156115535787818151811015156114b757fe5b9060200101517f010000000000000000000000000000000000000000000000000000000000000090047f010000000000000000000000000000000000000000000000000000000000000002838380600101945081518110151561151657fe5b9060200101907effffffffffffffffffffffffffffffffffffffffffffffffffffffffffffff1916908160001a90535080806001019150506114a0565b600090505b865181101561160b57868181518110151561156f57fe5b9060200101517f010000000000000000000000000000000000000000000000000000000000000090047f01000000000000000000000000000000000000000000000000000000000000000283838060010194508151811015156115ce57fe5b9060200101907effffffffffffffffffffffffffffffffffffffffffffffffffffffffffffff1916908160001a9053508080600101915050611558565b600090505b85518110156116c357858181518110151561162757fe5b9060200101517f010000000000000000000000000000000000000000000000000000000000000090047f010000000000000000000000000000000000000000000000000000000000000002838380600101945081518110151561168657fe5b9060200101907effffffffffffffffffffffffffffffffffffffffffffffffffffffffffffff1916908160001a9053508080600101915050611610565b600090505b845181101561177b5784818151811015156116df57fe5b9060200101517f010000000000000000000000000000000000000000000000000000000000000090047f010000000000000000000000000000000000000000000000000000000000000002838380600101945081518110151561173e57fe5b9060200101907effffffffffffffffffffffffffffffffffffffffffffffffffffffffffffff1916908160001a90535080806001019150506116c8565b82995050505050505050505095945050505050565b600061179a6130a7565b60008060009054906101000a900473ffffffffffffffffffffffffffffffffffffffff1673ffffffffffffffffffffffffffffffffffffffff161480611809575060006118076000809054906101000a900473ffffffffffffffffffffffffffffffffffffffff16611b4e565b145b1561181a576118186000611b59565b505b6000809054906101000a900473ffffffffffffffffffffffffffffffffffffffff1673ffffffffffffffffffffffffffffffffffffffff166338cc48316000604051602001526040518163ffffffff167c0100000000000000000000000000000000000000000000000000000000028152600401602060405180830381600087803b15156118a757600080fd5b6102c65a03f115156118b857600080fd5b5050506040518051905073ffffffffffffffffffffffffffffffffffffffff16600160009054906101000a900473ffffffffffffffffffffffffffffffffffffffff1673ffffffffffffffffffffffffffffffffffffffff16141515611a01576000809054906101000a900473ffffffffffffffffffffffffffffffffffffffff1673ffffffffffffffffffffffffffffffffffffffff166338cc48316000604051602001526040518163ffffffff167c0100000000000000000000000000000000000000000000000000000000028152600401602060405180830381600087803b15156119a557600080fd5b6102c65a03f115156119b657600080fd5b50505060405180519050600160006101000a81548173ffffffffffffffffffffffffffffffffffffffff021916908373ffffffffffffffffffffffffffffffffffffffff1602179055505b6005604051805910611a105750595b908082528060200260200182016040528015611a4657816020015b611a336130bb565b815260200190600190039081611a2b5790505b509050836000600581101515611a5857fe5b6020020151816000815181101515611a6c57fe5b90602001906020020181905250836001600581101515611a8857fe5b6020020151816001815181101515611a9c57fe5b90602001906020020181905250836002600581101515611ab857fe5b6020020151816002815181101515611acc57fe5b90602001906020020181905250836003600581101515611ae857fe5b6020020151816003815181101515611afc57fe5b90602001906020020181905250836004600581101515611b1857fe5b6020020151816004815181101515611b2c57fe5b90602001906020020181905250611b44858285612007565b9150509392505050565b6000813b9050919050565b6000611b6361256b565b9050919050565b611b72612fe5565b6000611b9085600001518660200151866000015187602001516129fa565b90508460200151836020018181525050846020015181038360000181815250508460000151856020015101811415611bd2576000856000018181525050611bfd565b8360000151836000015101856000018181510391508181525050836000015181018560200181815250505b829150509392505050565b60008060008060008060008060008a6000015197508a600001518a600001511015611c3557896000015197505b8a60200151965089602001519550600094505b87851015611ca65786519350855192508284141515611c8f57600185896020030160080260020a03199150818316828516039050600081141515611c8e57809850611cb4565b5b602087019650602086019550602085019450611c48565b89600001518b600001510398505b505050505050505092915050565b60005b602082101515611cea5782518452602084019350602083019250602082039150611cc5565b6001826020036101000a0390508019835116818551168181178652505050505050565b6000611d17613093565b60008060008693506000925060009150600090505b8351811015611fe85760307f0100000000000000000000000000000000000000000000000000000000000000028482815181101515611d6757fe5b9060200101517f010000000000000000000000000000000000000000000000000000000000000090047f0100000000000000000000000000000000000000000000000000000000000000027effffffffffffffffffffffffffffffffffffffffffffffffffffffffffffff191610158015611e7f575060397f0100000000000000000000000000000000000000000000000000000000000000028482815181101515611e0f57fe5b9060200101517f010000000000000000000000000000000000000000000000000000000000000090047f0100000000000000000000000000000000000000000000000000000000000000027effffffffffffffffffffffffffffffffffffffffffffffffffffffffffffff191611155b15611f30578115611ea2576000861415611e9857611fe8565b8580600190039650505b600a8302925060308482815181101515611eb857fe5b9060200101517f010000000000000000000000000000000000000000000000000000000000000090047f0100000000000000000000000000000000000000000000000000000000000000027f010000000000000000000000000000000000000000000000000000000000000090040383019250611fdb565b602e7f0100000000000000000000000000000000000000000000000000000000000000028482815181101515611f6257fe5b9060200101517f010000000000000000000000000000000000000000000000000000000000000090047f0100000000000000000000000000000000000000000000000000000000000000027effffffffffffffffffffffffffffffffffffffffffffffffffffffffffffff19161415611fda57600191505b5b8080600101915050611d2c565b6000861115611ffa5785600a0a830292505b8294505050505092915050565b600080612012613093565b60008060009054906101000a900473ffffffffffffffffffffffffffffffffffffffff1673ffffffffffffffffffffffffffffffffffffffff1614806120815750600061207f6000809054906101000a900473ffffffffffffffffffffffffffffffffffffffff16611b4e565b145b15612092576120906000611b59565b505b6000809054906101000a900473ffffffffffffffffffffffffffffffffffffffff1673ffffffffffffffffffffffffffffffffffffffff166338cc48316000604051602001526040518163ffffffff167c0100000000000000000000000000000000000000000000000000000000028152600401602060405180830381600087803b151561211f57600080fd5b6102c65a03f1151561213057600080fd5b5050506040518051905073ffffffffffffffffffffffffffffffffffffffff16600160009054906101000a900473ffffffffffffffffffffffffffffffffffffffff1673ffffffffffffffffffffffffffffffffffffffff16141515612279576000809054906101000a900473ffffffffffffffffffffffffffffffffffffffff1673ffffffffffffffffffffffffffffffffffffffff166338cc48316000604051602001526040518163ffffffff167c0100000000000000000000000000000000000000000000000000000000028152600401602060405180830381600087803b151561221d57600080fd5b6102c65a03f1151561222e57600080fd5b50505060405180519050600160006101000a81548173ffffffffffffffffffffffffffffffffffffffff021916908373ffffffffffffffffffffffffffffffffffffffff1602179055505b600160009054906101000a900473ffffffffffffffffffffffffffffffffffffffff1673ffffffffffffffffffffffffffffffffffffffff16632ef3accc87866000604051602001526040518363ffffffff167c01000000000000000000000000000000000000000000000000000000000281526004018080602001838152602001828103825284818151815260200191508051906020019080838360005b83811015612333578082015181840152602081019050612318565b50505050905090810190601f1680156123605780820380516001836020036101000a031916815260200191505b509350505050602060405180830381600087803b151561237f57600080fd5b6102c65a03f1151561239057600080fd5b505050604051805190509150833a02670de0b6b3a7640000018211156123bc5760006001029250612562565b6123c585612ae0565b9050600160009054906101000a900473ffffffffffffffffffffffffffffffffffffffff1673ffffffffffffffffffffffffffffffffffffffff1663c55c1cb68360008985896000604051602001526040518663ffffffff167c0100000000000000000000000000000000000000000000000000000000028152600401808581526020018060200180602001848152602001838103835286818151815260200191508051906020019080838360005b8381101561248f578082015181840152602081019050612474565b50505050905090810190601f1680156124bc5780820380516001836020036101000a031916815260200191505b50838103825285818151815260200191508051906020019080838360005b838110156124f55780820151818401526020810190506124da565b50505050905090810190601f1680156125225780820380516001836020036101000a031916815260200191505b5096505050505050506020604051808303818588803b151561254357600080fd5b6125ee5a03f1151561255457600080fd5b505050506040518051905092505b50509392505050565b60008061258b731d3b2638a7cc9f2cb3d298a3da7a90b67e5506ed611b4e565b111561262c57731d3b2638a7cc9f2cb3d298a3da7a90b67e5506ed6000806101000a81548173ffffffffffffffffffffffffffffffffffffffff021916908373ffffffffffffffffffffffffffffffffffffffff1602179055506126236040805190810160405280600b81526020017f6574685f6d61696e6e6574000000000000000000000000000000000000000000815250612fcb565b600190506129f7565b600061264b73c03a2615d5efaf5f49f60b7bb6583eaec212fdf1611b4e565b11156126ec5773c03a2615d5efaf5f49f60b7bb6583eaec212fdf16000806101000a81548173ffffffffffffffffffffffffffffffffffffffff021916908373ffffffffffffffffffffffffffffffffffffffff1602179055506126e36040805190810160405280600c81526020017f6574685f726f707374656e330000000000000000000000000000000000000000815250612fcb565b600190506129f7565b600061270b73b7a07bcf2ba2f2703b24c0691b5278999c59ac7e611b4e565b11156127ac5773b7a07bcf2ba2f2703b24c0691b5278999c59ac7e6000806101000a81548173ffffffffffffffffffffffffffffffffffffffff021916908373ffffffffffffffffffffffffffffffffffffffff1602179055506127a36040805190810160405280600981526020017f6574685f6b6f76616e0000000000000000000000000000000000000000000000815250612fcb565b600190506129f7565b60006127cb73146500cfd35b22e4a392fe0adc06de1a1368ed48611b4e565b111561286c5773146500cfd35b22e4a392fe0adc06de1a1368ed486000806101000a81548173ffffffffffffffffffffffffffffffffffffffff021916908373ffffffffffffffffffffffffffffffffffffffff1602179055506128636040805190810160405280600b81526020017f6574685f72696e6b656279000000000000000000000000000000000000000000815250612fcb565b600190506129f7565b600061288b736f485c8bf6fc43ea212e93bbf8ce046c7f1cb475611b4e565b11156128ee57736f485c8bf6fc43ea212e93bbf8ce046c7f1cb4756000806101000a81548173ffffffffffffffffffffffffffffffffffffffff021916908373ffffffffffffffffffffffffffffffffffffffff160217905550600190506129f7565b600061290d7320e12a1f859b3feae5fb2a0a32c18f5a65555bbf611b4e565b1115612970577320e12a1f859b3feae5fb2a0a32c18f5a65555bbf6000806101000a81548173ffffffffffffffffffffffffffffffffffffffff021916908373ffffffffffffffffffffffffffffffffffffffff160217905550600190506129f7565b600061298f7351efaf4c8b3c9afbd5ab9f4bbc82784ab6ef8faa611b4e565b11156129f2577351efaf4c8b3c9afbd5ab9f4bbc82784ab6ef8faa6000806101000a81548173ffffffffffffffffffffffffffffffffffffffff021916908373ffffffffffffffffffffffffffffffffffffffff160217905550600190506129f7565b600090505b90565b60008060008060008060008060008b97508c8b111515612aca5760208b111515612a845760018b60200360080260020a03196001029550858a511694508a8d8d010393508588511692505b84600019168360001916141515612a7c578388101515612a69578c8c019850612ad0565b8780600101985050858851169250612a45565b879850612ad0565b8a8a209150600096505b8a8d0387111515612ac9578a88209050806000191682600019161415612ab657879850612ad0565b6001880197508680600101975050612a8e565b5b8c8c0198505b5050505050505050949350505050565b612ae8613093565b600080612af36130cf565b6000806000612b00613093565b60008060008b5199506000985089604051805910612b1b5750595b908082528060200260200182016040528015612b5157816020015b612b3e6130e3565b815260200190600190039081612b365790505b509750600096505b89871015612bea578b87815181101515612b6f57fe5b906020019060200201518888815181101515612b8757fe5b906020019060200201819052506003601760018a8a815181101515612ba857fe5b906020019060200201515103811515612bbd57fe5b048989815181101515612bcc57fe5b90602001906020020151510101890198508680600101975050612b59565b6000955060808a019450600160ff168901985088604051805910612c0b5750595b9080825280601f01601f191660200182016040525093505b85600160ff161115612ccd57847f01000000000000000000000000000000000000000000000000000000000000000286600181101515612c5f57fe5b1a7f0100000000000000000000000000000000000000000000000000000000000000028487815181101515612c9057fe5b9060200101907effffffffffffffffffffffffffffffffffffffffffffffffffffffffffffff1916908160001a9053508580600101965050612c23565b600096505b89871015612fb957605f7f0100000000000000000000000000000000000000000000000000000000000000028487815181101515612d0c57fe5b9060200101907effffffffffffffffffffffffffffffffffffffffffffffffffffffffffffff1916908160001a9053508580600101965050600092505b8787815181101515612d5757fe5b9060200190602002015151831015612f42576000601784811515612d7757fe5b061415612e7f576018838989815181101515612d8f57fe5b9060200190602002015151031015612dc157828888815181101515612db057fe5b906020019060200201515103612dc4565b60175b91506040820191508590505b808603600160ff161115612e7e57817f010000000000000000000000000000000000000000000000000000000000000002818703600181101515612e1057fe5b1a7f0100000000000000000000000000000000000000000000000000000000000000028487815181101515612e4157fe5b9060200101907effffffffffffffffffffffffffffffffffffffffffffffffffffffffffffff1916908160001a9053508580600101965050612dd0565b5b8787815181101515612e8d57fe5b9060200190602002015183815181101515612ea457fe5b9060200101517f010000000000000000000000000000000000000000000000000000000000000090047f0100000000000000000000000000000000000000000000000000000000000000028487815181101515612efd57fe5b9060200101907effffffffffffffffffffffffffffffffffffffffffffffffffffffffffffff1916908160001a90535085806001019650508280600101935050612d49565b60ff7f0100000000000000000000000000000000000000000000000000000000000000028487815181101515612f7457fe5b9060200101907effffffffffffffffffffffffffffffffffffffffffffffffffffffffffffff1916908160001a90535085806001019650508680600101975050612cd2565b839a5050505050505050505050919050565b8060029080519060200190612fe1929190613013565b5050565b604080519081016040528060008152602001600081525090565b602060405190810160405280600081525090565b828054600181600116156101000203166002900490600052602060002090601f016020900481019282601f1061305457805160ff1916838001178555613082565b82800160010185558215613082579182015b82811115613081578251825591602001919060010190613066565b5b50905061308f91906130f7565b5090565b602060405190810160405280600081525090565b602060405190810160405280600081525090565b602060405190810160405280600081525090565b602060405190810160405280600081525090565b602060405190810160405280600081525090565b61311991905b808211156131155760008160009055506001016130fd565b5090565b905600a165627a7a72305820a60ff7e5cb05189c9775ebc3ea845bc6059e7eadceab58db2118ae2398950a980029",
  "source": "pragma solidity ^0.4.18;\nimport \"installed_contracts/oraclize-api/contracts/usingOraclize.sol\";\nimport \"./CBOR.sol\";\nimport \"./WITEvaluator.sol\";\nimport \"./Ownable.sol\";\nimport \"./CallbackableWIT.sol\";\nimport \"./strings.sol\";\nimport 'zeppelin-solidity/contracts/math/SafeMath.sol';\n\n\ncontract NOAAPrecipAggregate is usingOraclize, WITEvaluator, Ownable {\n    using SafeMath for uint;\n    using CBOR for Buffer.buffer;\n    using strings for *;\n    string precipScript = \"QmRNQhKRThYCQe38Lycj7dTNVCFQ7bFnpQdF8NxqF9jPi4\";\n    event gotNOAAPrecipAggregateCallback(string key, string result);\n    event sendingNOAAPrecipOraclizeComputation(bytes precipScript, uint WITID, uint timescale, bytes32 area, uint month, uint term_year, uint average_basis);\n\n\n    /*\n    Assumes \"num_averaged_years\" to be 10.  start and end must be = within 12 months of each other.\n    */\n    function evaluateWIT(uint WITID, uint start, uint end, uint thresholdFactorPPM, bytes32 area, uint num_averaged_years, string runtimeParams) payable public onlyContractOwner {\n        uint gasEstimate = 500000;\n        require(gasEstimate < this.balance);\n        require(end.sub(start) < 31618800); //number of seconds in a year\n        require(1 < thresholdFactorPPM);\n        require(thresholdFactorPPM < 3000000);\n        string memory avgedyearsStartEnd = strConcat(\"10\", \"&\", uint2str(start), \"&\", uint2str(end));\n        oraclize_query(\"computation\", [precipScript, uint2str(WITID), avgedyearsStartEnd, uint2str(thresholdFactorPPM), uint2str(uint(area))], gasEstimate);\n    }\n\n\n    function __callback(bytes32 myid, string result) {\n        require(msg.sender == oraclize_cbAddress());\n        gotNOAAPrecipAggregateCallback(\"http-response-status-code&wit-id&outcome&average-precpitation&term-precipitation&absolute-threshold\", result);\n        var sliceResult = result.toSlice();\n        var status = sliceResult.split(\"&\".toSlice());\n        if (!strings.equals(status, \"200\".toSlice())) { return; }\n        uint WITID =  parseInt(sliceResult.split(\"&\".toSlice()).toString());\n        string memory outcome = sliceResult.split(\"&\".toSlice()).toString();\n        CallbackableWIT(owner).evaluatorCallback(WITID, outcome);\n    }\n\n\n    function NOAAPrecipAggregate() public {\n        OAR = OraclizeAddrResolverI(0x6f485C8BF6fc43eA212E93BBF8ce046C7f1cb475);\n    }\n\n\n    function updateIPFSMultihash(string scriptHash) public onlyContractOwner {\n        precipScript = scriptHash;\n    }\n\n    function getNameAndDescription() public pure returns(string name, string description) {\n        return(\"NOAA Precipitation Aggregate WIT Evaluator\", \"This contract makes a call to the NOAA aggregate endpoint and evaluates a WIT based on the result.\");\n    }\n\n    function () external payable {\n    }\n\n}",
  "sourcePath": "/Users/benandre/cropcrop/contracts/NOAAPrecipAggregate.sol",
  "compiler": {
    "name": "solc",
    "version": "0.4.18+commit.9cf6e910.Emscripten.clang"
  },
  "schemaVersion": "1.0.1",
  "updatedAt": "2018-04-30T18:03:50.331Z"
}