{
  "contractName": "NOAAPrecipAggregate",
  "abi": [
    {
      "constant": true,
      "inputs": [],
      "name": "the_owner",
      "outputs": [
        {
          "name": "",
          "type": "address"
        }
      ],
      "payable": false,
      "stateMutability": "view",
      "type": "function"
    },
    {
      "constant": false,
      "inputs": [
        {
          "name": "newOwner",
          "type": "address"
        }
      ],
      "name": "transferOwnership",
      "outputs": [],
      "payable": false,
      "stateMutability": "nonpayable",
      "type": "function"
    },
    {
      "payable": true,
      "stateMutability": "payable",
      "type": "fallback"
    },
    {
      "anonymous": false,
      "inputs": [
        {
          "indexed": false,
          "name": "key",
          "type": "string"
        },
        {
          "indexed": false,
          "name": "result",
          "type": "string"
        },
        {
          "indexed": false,
          "name": "remainingGas",
          "type": "uint256"
        }
      ],
      "name": "gotNOAAPrecipAggregateCallback",
      "type": "event"
    },
    {
      "anonymous": false,
      "inputs": [
        {
          "indexed": false,
          "name": "precipScript",
          "type": "string"
        },
        {
          "indexed": false,
          "name": "WITID",
          "type": "uint256"
        },
        {
          "indexed": false,
          "name": "avgedYearsStartEnd",
          "type": "string"
        },
        {
          "indexed": false,
          "name": "thresholdFactorPPTTH",
          "type": "uint256"
        },
        {
          "indexed": false,
          "name": "location",
          "type": "string"
        }
      ],
      "name": "sentNOAAPrecipAggregateOraclizeComputation",
      "type": "event"
    },
    {
      "anonymous": false,
      "inputs": [
        {
          "indexed": true,
          "name": "previousOwner",
          "type": "address"
        },
        {
          "indexed": true,
          "name": "newOwner",
          "type": "address"
        }
      ],
      "name": "OwnershipTransferred",
      "type": "event"
    },
    {
      "constant": false,
      "inputs": [
        {
          "name": "WITID",
          "type": "uint256"
        },
        {
          "name": "start",
          "type": "uint256"
        },
        {
          "name": "end",
          "type": "uint256"
        },
        {
          "name": "thresholdFactorPPTTH",
          "type": "uint256"
        },
        {
          "name": "location",
          "type": "string"
        },
        {
          "name": "num_averaged_years",
          "type": "uint256"
        },
        {
          "name": "runtimeParams",
          "type": "string"
        }
      ],
      "name": "evaluateWIT",
      "outputs": [],
      "payable": true,
      "stateMutability": "payable",
      "type": "function"
    },
    {
      "constant": false,
      "inputs": [
        {
          "name": "myid",
          "type": "bytes32"
        },
        {
          "name": "result",
          "type": "string"
        }
      ],
      "name": "__callback",
      "outputs": [],
      "payable": false,
      "stateMutability": "nonpayable",
      "type": "function"
    },
    {
      "constant": false,
      "inputs": [
        {
          "name": "myid",
          "type": "bytes32"
        },
        {
          "name": "result",
          "type": "string"
        },
        {
          "name": "proof",
          "type": "bytes"
        }
      ],
      "name": "__callback",
      "outputs": [],
      "payable": false,
      "stateMutability": "nonpayable",
      "type": "function"
    },
    {
      "constant": false,
      "inputs": [],
      "name": "setLocalOAR",
      "outputs": [],
      "payable": false,
      "stateMutability": "nonpayable",
      "type": "function"
    },
    {
      "constant": false,
      "inputs": [
        {
          "name": "scriptHash",
          "type": "string"
        }
      ],
      "name": "updateIPFSMultihash",
      "outputs": [],
      "payable": false,
      "stateMutability": "nonpayable",
      "type": "function"
    },
    {
      "constant": true,
      "inputs": [],
      "name": "getNameAndDescription",
      "outputs": [
        {
          "name": "name",
          "type": "string"
        },
        {
          "name": "description",
          "type": "string"
        }
      ],
      "payable": false,
      "stateMutability": "pure",
      "type": "function"
    }
  ],
  "bytecode": "0x6080604052606060405190810160405280602e81526020017f516d524e51684b5254685943516533384c79636a3764544e564346513762466e81526020017f70516446384e787146396a5069340000000000000000000000000000000000008152506006908051906020019062000078929190620000c0565b5033600560006101000a81548173ffffffffffffffffffffffffffffffffffffffff021916908373ffffffffffffffffffffffffffffffffffffffff1602179055506200016f565b828054600181600116156101000203166002900490600052602060002090601f016020900481019282601f106200010357805160ff191683800117855562000134565b8280016001018555821562000134579182015b828111156200013357825182559160200191906001019062000116565b5b50905062000143919062000147565b5090565b6200016c91905b80821115620001685760008160009055506001016200014e565b5090565b90565b612aae806200017f6000396000f30060806040526004361061008e576000357c0100000000000000000000000000000000000000000000000000000000900463ffffffff16806327dc297e146100905780632eb91c4d1461010757806338bbfa501461011e5780638ab54581146101db578063aa012ec914610244578063cb23e45214610318578063ee52d2871461036f578063f2fde38b1461046b575b005b34801561009c57600080fd5b506101056004803603810190808035600019169060200190929190803590602001908201803590602001908080601f01602080910402602001604051908101604052809392919081815260200183838082843782019150505050505091929192905050506104ae565b005b34801561011357600080fd5b5061011c610642565b005b34801561012a57600080fd5b506101d96004803603810190808035600019169060200190929190803590602001908201803590602001908080601f0160208091040260200160405190810160405280939291908181526020018383808284378201915050505050509192919290803590602001908201803590602001908080601f01602080910402602001604051908101604052809392919081815260200183838082843782019150505050505091929192905050506106f4565b005b3480156101e757600080fd5b50610242600480360381019080803590602001908201803590602001908080601f01602080910402602001604051908101604052809392919081815260200183838082843782019150505050505091929192905050506106f9565b005b61031660048036038101908080359060200190929190803590602001909291908035906020019092919080359060200190929190803590602001908201803590602001908080601f016020809104026020016040519081016040528093929190818152602001838380828437820191505050505050919291929080359060200190929190803590602001908201803590602001908080601f016020809104026020016040519081016040528093929190818152602001838380828437820191505050505050919291929050505061076f565b005b34801561032457600080fd5b5061032d610bbd565b604051808273ffffffffffffffffffffffffffffffffffffffff1673ffffffffffffffffffffffffffffffffffffffff16815260200191505060405180910390f35b34801561037b57600080fd5b50610384610be3565b604051808060200180602001838103835285818151815260200191508051906020019080838360005b838110156103c85780820151818401526020810190506103ad565b50505050905090810190601f1680156103f55780820380516001836020036101000a031916815260200191505b50838103825284818151815260200191508051906020019080838360005b8381101561042e578082015181840152602081019050610413565b50505050905090810190601f16801561045b5780820380516001836020036101000a031916815260200191505b5094505050505060405180910390f35b34801561047757600080fd5b506104ac600480360381019080803573ffffffffffffffffffffffffffffffffffffffff169060200190929190505050610cf4565b005b6104b6610e4c565b73ffffffffffffffffffffffffffffffffffffffff163373ffffffffffffffffffffffffffffffffffffffff161415156104ef57600080fd5b7f565fae302b57150ce424225759a2bb174e54a85ccc09f53f2bb928d19f3eca74815a604051808060200180602001848152602001838103835260638152602001807f687474702d726573706f6e73652d7374617475732d636f6465267769742d696481526020017f266f7574636f6d6526617665726167652d707265637069746174696f6e26746581526020017f726d2d70726563697069746174696f6e266162736f6c7574652d74687265736881526020017f6f6c640000000000000000000000000000000000000000000000000000000000815250608001838103825285818151815260200191508051906020019080838360005b838110156106025780820151818401526020810190506105e7565b50505050905090810190601f16801561062f5780820380516001836020036101000a031916815260200191505b5094505050505060405180910390a15050565b600560009054906101000a900473ffffffffffffffffffffffffffffffffffffffff1673ffffffffffffffffffffffffffffffffffffffff163373ffffffffffffffffffffffffffffffffffffffff1614151561069e57600080fd5b736f485c8bf6fc43ea212e93bbf8ce046c7f1cb4756000806101000a81548173ffffffffffffffffffffffffffffffffffffffff021916908373ffffffffffffffffffffffffffffffffffffffff160217905550565b505050565b600560009054906101000a900473ffffffffffffffffffffffffffffffffffffffff1673ffffffffffffffffffffffffffffffffffffffff163373ffffffffffffffffffffffffffffffffffffffff1614151561075557600080fd5b806006908051906020019061076b9291906129c3565b5050565b60006060600560009054906101000a900473ffffffffffffffffffffffffffffffffffffffff1673ffffffffffffffffffffffffffffffffffffffff163373ffffffffffffffffffffffffffffffffffffffff161415156107cf57600080fd5b6207a12091503073ffffffffffffffffffffffffffffffffffffffff1631821015156107fa57600080fd5b6301e276f061081289896111aa90919063ffffffff16565b10151561081e57600080fd5b85606410151561082d57600080fd5b620186a08610151561083e57600080fd5b6108fa6040805190810160405280600281526020017f31300000000000000000000000000000000000000000000000000000000000008152506040805190810160405280600181526020017f26000000000000000000000000000000000000000000000000000000000000008152506108b68b6111cb565b6040805190810160405280600181526020017f26000000000000000000000000000000000000000000000000000000000000008152506108f58c6111cb565b611322565b9050610a0d6040805190810160405280600b81526020017f636f6d7075746174696f6e00000000000000000000000000000000000000000081525060a06040519081016040528060068054600181600116156101000203166002900480601f0160208091040260200160405190810160405280929190818152602001828054600181600116156101000203166002900480156109d75780601f106109ac576101008083540402835291602001916109d7565b820191906000526020600020905b8154815290600101906020018083116109ba57829003601f168201915b505050505081526020016109ea8d6111cb565b81526020018481526020016109fe8a6111cb565b81526020018881525084611737565b507fe2527f63162f71161621da8d9d8609aea319367e2cd40a2413cb01b81c3090d760068a83898960405180806020018681526020018060200185815260200180602001848103845289818154600181600116156101000203166002900481526020019150805460018160011615610100020316600290048015610ad25780601f10610aa757610100808354040283529160200191610ad2565b820191906000526020600020905b815481529060010190602001808311610ab557829003601f168201915b5050848103835287818151815260200191508051906020019080838360005b83811015610b0c578082015181840152602081019050610af1565b50505050905090810190601f168015610b395780820380516001836020036101000a031916815260200191505b50848103825285818151815260200191508051906020019080838360005b83811015610b72578082015181840152602081019050610b57565b50505050905090810190601f168015610b9f5780820380516001836020036101000a031916815260200191505b509850505050505050505060405180910390a1505050505050505050565b600560009054906101000a900473ffffffffffffffffffffffffffffffffffffffff1681565b606080606060405190810160405280602a81526020017f4e4f41412050726563697069746174696f6e204167677265676174652057495481526020017f204576616c7561746f720000000000000000000000000000000000000000000081525060a060405190810160405280606281526020017f5468697320636f6e7472616374206d616b657320612063616c6c20746f20746881526020017f65204e4f41412061676772656761746520656e64706f696e7420616e6420657681526020017f616c7561746573206120574954206261736564206f6e2074686520726573756c81526020017f742e000000000000000000000000000000000000000000000000000000000000815250915091509091565b600560009054906101000a900473ffffffffffffffffffffffffffffffffffffffff1673ffffffffffffffffffffffffffffffffffffffff163373ffffffffffffffffffffffffffffffffffffffff16141515610d5057600080fd5b600073ffffffffffffffffffffffffffffffffffffffff168173ffffffffffffffffffffffffffffffffffffffff1614151515610d8c57600080fd5b8073ffffffffffffffffffffffffffffffffffffffff16600560009054906101000a900473ffffffffffffffffffffffffffffffffffffffff1673ffffffffffffffffffffffffffffffffffffffff167f8be0079c531659141344cd1fd0a4f28419497f9722a3daafe3b4186f6b6457e060405160405180910390a380600560006101000a81548173ffffffffffffffffffffffffffffffffffffffff021916908373ffffffffffffffffffffffffffffffffffffffff16021790555050565b6000806000809054906101000a900473ffffffffffffffffffffffffffffffffffffffff1673ffffffffffffffffffffffffffffffffffffffff161480610ebc57506000610eba6000809054906101000a900473ffffffffffffffffffffffffffffffffffffffff16611b0f565b145b15610ecd57610ecb6000611b1a565b505b6000809054906101000a900473ffffffffffffffffffffffffffffffffffffffff1673ffffffffffffffffffffffffffffffffffffffff166338cc48316040518163ffffffff167c0100000000000000000000000000000000000000000000000000000000028152600401602060405180830381600087803b158015610f5257600080fd5b505af1158015610f66573d6000803e3d6000fd5b505050506040513d6020811015610f7c57600080fd5b810190808051906020019092919050505073ffffffffffffffffffffffffffffffffffffffff16600160009054906101000a900473ffffffffffffffffffffffffffffffffffffffff1673ffffffffffffffffffffffffffffffffffffffff161415156110e4576000809054906101000a900473ffffffffffffffffffffffffffffffffffffffff1673ffffffffffffffffffffffffffffffffffffffff166338cc48316040518163ffffffff167c0100000000000000000000000000000000000000000000000000000000028152600401602060405180830381600087803b15801561106857600080fd5b505af115801561107c573d6000803e3d6000fd5b505050506040513d602081101561109257600080fd5b8101908080519060200190929190505050600160006101000a81548173ffffffffffffffffffffffffffffffffffffffff021916908373ffffffffffffffffffffffffffffffffffffffff1602179055505b600160009054906101000a900473ffffffffffffffffffffffffffffffffffffffff1673ffffffffffffffffffffffffffffffffffffffff1663c281d19e6040518163ffffffff167c0100000000000000000000000000000000000000000000000000000000028152600401602060405180830381600087803b15801561116a57600080fd5b505af115801561117e573d6000803e3d6000fd5b505050506040513d602081101561119457600080fd5b8101908080519060200190929190505050905090565b6000808383111515156111bc57600080fd5b82840390508091505092915050565b60606000806060600080861415611219576040805190810160405280600181526020017f30000000000000000000000000000000000000000000000000000000000000008152509450611319565b8593505b600084141515611243578280600101935050600a8481151561123b57fe5b04935061121d565b826040519080825280601f01601f1916602001820160405280156112765781602001602082028038833980820191505090505b5091506001830390505b60008614151561131557600a8681151561129657fe5b066030017f0100000000000000000000000000000000000000000000000000000000000000028282806001900393508151811015156112d157fe5b9060200101907effffffffffffffffffffffffffffffffffffffffffffffffffffffffffffff1916908160001a905350600a8681151561130d57fe5b049550611280565b8194505b50505050919050565b6060806060806060806060806000808e98508d97508c96508b95508a94508451865188518a518c51010101016040519080825280601f01601f1916602001820160405280156113805781602001602082028038833980820191505090505b50935083925060009150600090505b88518110156114425788818151811015156113a657fe5b9060200101517f010000000000000000000000000000000000000000000000000000000000000090047f010000000000000000000000000000000000000000000000000000000000000002838380600101945081518110151561140557fe5b9060200101907effffffffffffffffffffffffffffffffffffffffffffffffffffffffffffff1916908160001a905350808060010191505061138f565b600090505b87518110156114fa57878181518110151561145e57fe5b9060200101517f010000000000000000000000000000000000000000000000000000000000000090047f01000000000000000000000000000000000000000000000000000000000000000283838060010194508151811015156114bd57fe5b9060200101907effffffffffffffffffffffffffffffffffffffffffffffffffffffffffffff1916908160001a9053508080600101915050611447565b600090505b86518110156115b257868181518110151561151657fe5b9060200101517f010000000000000000000000000000000000000000000000000000000000000090047f010000000000000000000000000000000000000000000000000000000000000002838380600101945081518110151561157557fe5b9060200101907effffffffffffffffffffffffffffffffffffffffffffffffffffffffffffff1916908160001a90535080806001019150506114ff565b600090505b855181101561166a5785818151811015156115ce57fe5b9060200101517f010000000000000000000000000000000000000000000000000000000000000090047f010000000000000000000000000000000000000000000000000000000000000002838380600101945081518110151561162d57fe5b9060200101907effffffffffffffffffffffffffffffffffffffffffffffffffffffffffffff1916908160001a90535080806001019150506115b7565b600090505b845181101561172257848181518110151561168657fe5b9060200101517f010000000000000000000000000000000000000000000000000000000000000090047f01000000000000000000000000000000000000000000000000000000000000000283838060010194508151811015156116e557fe5b9060200101907effffffffffffffffffffffffffffffffffffffffffffffffffffffffffffff1916908160001a905350808060010191505061166f565b82995050505050505050505095945050505050565b6000606060008060009054906101000a900473ffffffffffffffffffffffffffffffffffffffff1673ffffffffffffffffffffffffffffffffffffffff1614806117aa575060006117a86000809054906101000a900473ffffffffffffffffffffffffffffffffffffffff16611b0f565b145b156117bb576117b96000611b1a565b505b6000809054906101000a900473ffffffffffffffffffffffffffffffffffffffff1673ffffffffffffffffffffffffffffffffffffffff166338cc48316040518163ffffffff167c0100000000000000000000000000000000000000000000000000000000028152600401602060405180830381600087803b15801561184057600080fd5b505af1158015611854573d6000803e3d6000fd5b505050506040513d602081101561186a57600080fd5b810190808051906020019092919050505073ffffffffffffffffffffffffffffffffffffffff16600160009054906101000a900473ffffffffffffffffffffffffffffffffffffffff1673ffffffffffffffffffffffffffffffffffffffff161415156119d2576000809054906101000a900473ffffffffffffffffffffffffffffffffffffffff1673ffffffffffffffffffffffffffffffffffffffff166338cc48316040518163ffffffff167c0100000000000000000000000000000000000000000000000000000000028152600401602060405180830381600087803b15801561195657600080fd5b505af115801561196a573d6000803e3d6000fd5b505050506040513d602081101561198057600080fd5b8101908080519060200190929190505050600160006101000a81548173ffffffffffffffffffffffffffffffffffffffff021916908373ffffffffffffffffffffffffffffffffffffffff1602179055505b6005604051908082528060200260200182016040528015611a0757816020015b60608152602001906001900390816119f25790505b509050836000600581101515611a1957fe5b6020020151816000815181101515611a2d57fe5b90602001906020020181905250836001600581101515611a4957fe5b6020020151816001815181101515611a5d57fe5b90602001906020020181905250836002600581101515611a7957fe5b6020020151816002815181101515611a8d57fe5b90602001906020020181905250836003600581101515611aa957fe5b6020020151816003815181101515611abd57fe5b90602001906020020181905250836004600581101515611ad957fe5b6020020151816004815181101515611aed57fe5b90602001906020020181905250611b05858285611b2b565b9150509392505050565b6000813b9050919050565b6000611b246120e9565b9050919050565b600080606060008060009054906101000a900473ffffffffffffffffffffffffffffffffffffffff1673ffffffffffffffffffffffffffffffffffffffff161480611b9f57506000611b9d6000809054906101000a900473ffffffffffffffffffffffffffffffffffffffff16611b0f565b145b15611bb057611bae6000611b1a565b505b6000809054906101000a900473ffffffffffffffffffffffffffffffffffffffff1673ffffffffffffffffffffffffffffffffffffffff166338cc48316040518163ffffffff167c0100000000000000000000000000000000000000000000000000000000028152600401602060405180830381600087803b158015611c3557600080fd5b505af1158015611c49573d6000803e3d6000fd5b505050506040513d6020811015611c5f57600080fd5b810190808051906020019092919050505073ffffffffffffffffffffffffffffffffffffffff16600160009054906101000a900473ffffffffffffffffffffffffffffffffffffffff1673ffffffffffffffffffffffffffffffffffffffff16141515611dc7576000809054906101000a900473ffffffffffffffffffffffffffffffffffffffff1673ffffffffffffffffffffffffffffffffffffffff166338cc48316040518163ffffffff167c0100000000000000000000000000000000000000000000000000000000028152600401602060405180830381600087803b158015611d4b57600080fd5b505af1158015611d5f573d6000803e3d6000fd5b505050506040513d6020811015611d7557600080fd5b8101908080519060200190929190505050600160006101000a81548173ffffffffffffffffffffffffffffffffffffffff021916908373ffffffffffffffffffffffffffffffffffffffff1602179055505b600160009054906101000a900473ffffffffffffffffffffffffffffffffffffffff1673ffffffffffffffffffffffffffffffffffffffff16632ef3accc87866040518363ffffffff167c01000000000000000000000000000000000000000000000000000000000281526004018080602001838152602001828103825284818151815260200191508051906020019080838360005b83811015611e78578082015181840152602081019050611e5d565b50505050905090810190601f168015611ea55780820380516001836020036101000a031916815260200191505b509350505050602060405180830381600087803b158015611ec557600080fd5b505af1158015611ed9573d6000803e3d6000fd5b505050506040513d6020811015611eef57600080fd5b81019080805190602001909291905050509150833a02670de0b6b3a764000001821115611f2257600060010292506120e0565b611f2b85612578565b9050600160009054906101000a900473ffffffffffffffffffffffffffffffffffffffff1673ffffffffffffffffffffffffffffffffffffffff1663c55c1cb68360008985896040518663ffffffff167c0100000000000000000000000000000000000000000000000000000000028152600401808581526020018060200180602001848152602001838103835286818151815260200191508051906020019080838360005b83811015611fec578082015181840152602081019050611fd1565b50505050905090810190601f1680156120195780820380516001836020036101000a031916815260200191505b50838103825285818151815260200191508051906020019080838360005b83811015612052578082015181840152602081019050612037565b50505050905090810190601f16801561207f5780820380516001836020036101000a031916815260200191505b5096505050505050506020604051808303818588803b1580156120a157600080fd5b505af11580156120b5573d6000803e3d6000fd5b50505050506040513d60208110156120cc57600080fd5b810190808051906020019092919050505092505b50509392505050565b600080612109731d3b2638a7cc9f2cb3d298a3da7a90b67e5506ed611b0f565b11156121aa57731d3b2638a7cc9f2cb3d298a3da7a90b67e5506ed6000806101000a81548173ffffffffffffffffffffffffffffffffffffffff021916908373ffffffffffffffffffffffffffffffffffffffff1602179055506121a16040805190810160405280600b81526020017f6574685f6d61696e6e65740000000000000000000000000000000000000000008152506125fd565b60019050612575565b60006121c973c03a2615d5efaf5f49f60b7bb6583eaec212fdf1611b0f565b111561226a5773c03a2615d5efaf5f49f60b7bb6583eaec212fdf16000806101000a81548173ffffffffffffffffffffffffffffffffffffffff021916908373ffffffffffffffffffffffffffffffffffffffff1602179055506122616040805190810160405280600c81526020017f6574685f726f707374656e3300000000000000000000000000000000000000008152506125fd565b60019050612575565b600061228973b7a07bcf2ba2f2703b24c0691b5278999c59ac7e611b0f565b111561232a5773b7a07bcf2ba2f2703b24c0691b5278999c59ac7e6000806101000a81548173ffffffffffffffffffffffffffffffffffffffff021916908373ffffffffffffffffffffffffffffffffffffffff1602179055506123216040805190810160405280600981526020017f6574685f6b6f76616e00000000000000000000000000000000000000000000008152506125fd565b60019050612575565b600061234973146500cfd35b22e4a392fe0adc06de1a1368ed48611b0f565b11156123ea5773146500cfd35b22e4a392fe0adc06de1a1368ed486000806101000a81548173ffffffffffffffffffffffffffffffffffffffff021916908373ffffffffffffffffffffffffffffffffffffffff1602179055506123e16040805190810160405280600b81526020017f6574685f72696e6b6562790000000000000000000000000000000000000000008152506125fd565b60019050612575565b6000612409736f485c8bf6fc43ea212e93bbf8ce046c7f1cb475611b0f565b111561246c57736f485c8bf6fc43ea212e93bbf8ce046c7f1cb4756000806101000a81548173ffffffffffffffffffffffffffffffffffffffff021916908373ffffffffffffffffffffffffffffffffffffffff16021790555060019050612575565b600061248b7320e12a1f859b3feae5fb2a0a32c18f5a65555bbf611b0f565b11156124ee577320e12a1f859b3feae5fb2a0a32c18f5a65555bbf6000806101000a81548173ffffffffffffffffffffffffffffffffffffffff021916908373ffffffffffffffffffffffffffffffffffffffff16021790555060019050612575565b600061250d7351efaf4c8b3c9afbd5ab9f4bbc82784ab6ef8faa611b0f565b1115612570577351efaf4c8b3c9afbd5ab9f4bbc82784ab6ef8faa6000806101000a81548173ffffffffffffffffffffffffffffffffffffffff021916908373ffffffffffffffffffffffffffffffffffffffff16021790555060019050612575565b600090505b90565b6060612582612a43565b600061258c612617565b61259882610400612623565b6125a182612673565b600090505b83518110156125e6576125d984828151811015156125c057fe5b906020019060200201518361268190919063ffffffff16565b80806001019150506125a6565b6125ef826126a6565b816000015192505050919050565b80600290805190602001906126139291906129c3565b5050565b60405180590338823950565b6000819050600060208281151561263657fe5b061415156126535760208181151561264a57fe5b06602003810190505b808360200181815250506040518084526000815281810160405250505050565b61267e8160046126b4565b50565b61268e82600383516126d8565b6126a1818361283190919063ffffffff16565b505050565b6126b18160076126b4565b50565b6126d4601f60058360ff169060020a0217836128dd90919063ffffffff16565b5050565b601781111515612709576127048160058460ff169060020a0260ff1617846128dd90919063ffffffff16565b61282c565b60ff8111151561274f57612733601860058460ff169060020a0217846128dd90919063ffffffff16565b6127498160018561291d9092919063ffffffff16565b5061282b565b61ffff811115156127965761277a601960058460ff169060020a0217846128dd90919063ffffffff16565b6127908160028561291d9092919063ffffffff16565b5061282a565b63ffffffff811115156127df576127c3601a60058460ff169060020a0217846128dd90919063ffffffff16565b6127d98160048561291d9092919063ffffffff16565b50612829565b67ffffffffffffffff8111151561282857612810601b60058460ff169060020a0217846128dd90919063ffffffff16565b6128268160088561291d9092919063ffffffff16565b505b5b5b5b5b505050565b612839612a43565b6000806000808660200151876000015151875101111561286f5761286e8760026128688a602001518a51612984565b026129a0565b5b8551915086518051602081830101955087518101825260208801945050505b6020821015156128b3578251845260208401935060208301925060208203915061288e565b6001826020036101000a039050801983511681855116818117865250508694505050505092915050565b81602001516001836000015151011115612903576129028260028460200151026129a0565b5b815180516020818301018381536001820183525050505050565b612925612a43565b60008460200151856000015151840111156129555761295485600261294e886020015187612984565b026129a0565b5b6001836101000a0390508451805184818301018684198251161781528582018352505050849150509392505050565b6000818311156129965782905061299a565b8190505b92915050565b6060826000015190506129b38383612623565b6129bd8382612831565b50505050565b828054600181600116156101000203166002900490600052602060002090601f016020900481019282601f10612a0457805160ff1916838001178555612a32565b82800160010185558215612a32579182015b82811115612a31578251825591602001919060010190612a16565b5b509050612a3f9190612a5d565b5090565b604080519081016040528060608152602001600081525090565b612a7f91905b80821115612a7b576000816000905550600101612a63565b5090565b905600a165627a7a723058206f9d5dd7b541b327346d3f58b3cea7c33b5d54fbe5ed5e885c16babf19645dfc0029",
  "source": "pragma solidity 0.4.24;\nimport \"./oraclizeAPI_0.5.sol\";\nimport \"./WITEvaluator.sol\";\nimport \"./Ownable.sol\";\nimport \"./CallbackableWIT.sol\";\nimport \"./strings.sol\";\nimport './SafeMath.sol';\n\n\ncontract NOAAPrecipAggregate is usingOraclize, WITEvaluator, Ownable {\n    using SafeMath for uint;\n    using strings for *;\n\n    string precipScript = \"QmRNQhKRThYCQe38Lycj7dTNVCFQ7bFnpQdF8NxqF9jPi4\";\n\n    event gotNOAAPrecipAggregateCallback(string key, string result, uint remainingGas);\n    event sentNOAAPrecipAggregateOraclizeComputation(string precipScript, uint WITID, string avgedYearsStartEnd, uint thresholdFactorPPTTH, string location);\n\n    /**\n    * @dev \n    * @param WITID The ID of the WIT being evaluated. Needed for the callback.\n    * @param start Start date / time of the term period. UNIX formatted timestamp.\n    * @param end End date / time of the term period. UNIX formatted timestamp.\n    * @param thresholdFactorPPTTH The threshold represented as a part per ten thousand. 10000 = average. 11000 = 10% above average.\n    * @param location A string representation of the geographic area to be evaluated. Weather API defines these.\n    * @param num_averaged_years Ignores whatever is input and uses 10 years for the number of years to be averaged\n    * @param runtimeParams Not used but required by the WITEvaluator interface.\n    */\n    function evaluateWIT(uint WITID, uint start, uint end, uint thresholdFactorPPTTH, string location, uint num_averaged_years, string runtimeParams) payable public onlyContractOwner {\n        uint gasEstimate = 500000;\n        require(gasEstimate < address(this).balance);\n        require(end.sub(start) < 31618800); //number of seconds in a year\n        require(100 < thresholdFactorPPTTH);\n        require(thresholdFactorPPTTH < 100000);\n        string memory avgedYearsStartEnd = strConcat(\"10\", \"&\", uint2str(start), \"&\", uint2str(end));\n        oraclize_query(\"computation\", [precipScript, uint2str(WITID), avgedYearsStartEnd, uint2str(thresholdFactorPPTTH), location], gasEstimate);\n        sentNOAAPrecipAggregateOraclizeComputation(precipScript, WITID, avgedYearsStartEnd, thresholdFactorPPTTH, location);\n    }\n\n\n    /**\n    * @dev Callback function that oraclize uses to return the results of the weather API call.\n    * @param myid Something from oraclize related to verification that we don't currently use.\n    * @param result The result of the oraclize call in the form \"http-response-status-code&wit-id&outcome&average-precpitation&term-precipitation&absolute-threshold\"\n    */\n    function __callback(bytes32 myid, string result) {\n        require(msg.sender == oraclize_cbAddress());\n        emit gotNOAAPrecipAggregateCallback(\"http-response-status-code&wit-id&outcome&average-precpitation&term-precipitation&absolute-threshold\", result, msg.gas);\n      //  var sliceResult = result.toSlice();\n   //     var status = sliceResult.split(\"&\".toSlice());\n     //   if (!strings.equals(status, \"200\".toSlice())) { return; }\n       // uint WITID =  parseInt(sliceResult.split(\"&\".toSlice()).toString());\n     //   string memory outcome = sliceResult.split(\"&\".toSlice()).toString();\n      //  CallbackableWIT(the_owner).evaluatorCallback(WITID, outcome);\n    }\n\n\n    /**\n    * @dev We set an OAR when using ganache + bridge.\n    */\n    function setLocalOAR() public onlyContractOwner {\n        //This is only needed when using a local deployment on bridge.\n        OAR = OraclizeAddrResolverI(0x6f485C8BF6fc43eA212E93BBF8ce046C7f1cb475);\n    }\n\n\n    /**\n    * @dev Allows contract owner to update the docker image and python script in IPFS.\n    * @param scriptHash IPFS multihash of the docker image + python script archive.\n    */\n    function updateIPFSMultihash(string scriptHash) public onlyContractOwner {\n        precipScript = scriptHash;\n    }\n\n\n    /**\n    * @dev Get the name and description of this WIT evaluator.\n    */\n    function getNameAndDescription() public pure returns(string name, string description) {\n        return(\"NOAA Precipitation Aggregate WIT Evaluator\", \"This contract makes a call to the NOAA aggregate endpoint and evaluates a WIT based on the result.\");\n    }\n\n\n    /**\n    * @dev Fallback function.\n    */\n    function () external payable {}\n\n}",
  "sourcePath": "/Users/benandre/cropcrop/contracts/NOAAPrecipAggregate.sol",
  "compiler": {
    "name": "solc",
    "version": "0.4.24+commit.e67f0147.Emscripten.clang"
  },
  "schemaVersion": "2.0.1",
  "updatedAt": "2018-11-05T21:48:04.920Z"
}