{
  "contractName": "NOAANCDCRainfall",
  "abi": [
    {
      "constant": false,
      "inputs": [],
      "name": "Request",
      "outputs": [],
      "payable": false,
      "stateMutability": "nonpayable",
      "type": "function"
    },
    {
      "constant": false,
      "inputs": [
        {
          "name": "myid",
          "type": "bytes32"
        },
        {
          "name": "result",
          "type": "string"
        }
      ],
      "name": "__callback",
      "outputs": [],
      "payable": false,
      "stateMutability": "nonpayable",
      "type": "function"
    },
    {
      "constant": false,
      "inputs": [
        {
          "name": "myid",
          "type": "bytes32"
        },
        {
          "name": "result",
          "type": "string"
        },
        {
          "name": "proof",
          "type": "bytes"
        }
      ],
      "name": "__callback",
      "outputs": [],
      "payable": false,
      "stateMutability": "nonpayable",
      "type": "function"
    },
    {
      "constant": false,
      "inputs": [],
      "name": "testQuery",
      "outputs": [],
      "payable": false,
      "stateMutability": "nonpayable",
      "type": "function"
    },
    {
      "constant": false,
      "inputs": [],
      "name": "getResult",
      "outputs": [
        {
          "name": "",
          "type": "string"
        },
        {
          "name": "",
          "type": "address"
        },
        {
          "name": "",
          "type": "address"
        }
      ],
      "payable": false,
      "stateMutability": "nonpayable",
      "type": "function"
    },
    {
      "inputs": [],
      "payable": false,
      "stateMutability": "nonpayable",
      "type": "constructor"
    },
    {
      "anonymous": false,
      "inputs": [
        {
          "indexed": false,
          "name": "message",
          "type": "string"
        }
      ],
      "name": "newOraclizeQuery",
      "type": "event"
    },
    {
      "anonymous": false,
      "inputs": [
        {
          "indexed": false,
          "name": "sender",
          "type": "address"
        },
        {
          "indexed": false,
          "name": "cbaddress",
          "type": "address"
        },
        {
          "indexed": false,
          "name": "result",
          "type": "string"
        }
      ],
      "name": "debug",
      "type": "event"
    }
  ],
  "bytecode": "0x6060604052606060405190810160405280603d81526020017f68747470733a2f2f7777772e6e6364632e6e6f61612e676f762f63646f2d776581526020017f622f6170692f76322f646174613f6461746173657469643d4748434e440000008152506005908051906020019062000078929190620001d5565b50606060405190810160405280602e81526020017f516d644b4b333139566568613833683641596751716878395952734a394d4a4581526020017f377933336f4358795a344d71484500000000000000000000000000000000000081525060069080519060200190620000ed929190620001d5565b5060e06040519081016040528060ba815260200162002c4160ba91396007908051906020019062000120929190620001d5565b506040805190810160405280600781526020017f6e6f742073657400000000000000000000000000000000000000000000000000815250600890805190602001906200016e929190620001d5565b5034156200017b57600080fd5b736f485c8bf6fc43ea212e93bbf8ce046c7f1cb4756000806101000a81548173ffffffffffffffffffffffffffffffffffffffff021916908373ffffffffffffffffffffffffffffffffffffffff16021790555062000284565b828054600181600116156101000203166002900490600052602060002090601f016020900481019282601f106200021857805160ff191683800117855562000249565b8280016001018555821562000249579182015b82811115620002485782518255916020019190600101906200022b565b5b5090506200025891906200025c565b5090565b6200028191905b808211156200027d57600081600090555060010162000263565b5090565b90565b6129ad80620002946000396000f30060606040526004361061006d576000357c0100000000000000000000000000000000000000000000000000000000900463ffffffff168063044748431461007257806327dc297e1461008757806338bbfa50146100f1578063bb418bf91461019e578063de292789146101b3575b600080fd5b341561007d57600080fd5b6100856102a7565b005b341561009257600080fd5b6100ef60048080356000191690602001909190803590602001908201803590602001908080601f016020809104026020016040519081016040528093929190818152602001838380828437820191505050505050919050506103b7565b005b34156100fc57600080fd5b61019c60048080356000191690602001909190803590602001908201803590602001908080601f0160208091040260200160405190810160405280939291908181526020018383808284378201915050505050509190803590602001908201803590602001908080601f01602080910402602001604051908101604052809392919081815260200183838082843782019150505050505091905050610566565b005b34156101a957600080fd5b6101b161056b565b005b34156101be57600080fd5b6101c661062f565b60405180806020018473ffffffffffffffffffffffffffffffffffffffff1673ffffffffffffffffffffffffffffffffffffffff1681526020018373ffffffffffffffffffffffffffffffffffffffff1673ffffffffffffffffffffffffffffffffffffffff168152602001828103825285818151815260200191508051906020019080838360005b8381101561026a57808201518184015260208101905061024f565b50505050905090810190601f1680156102975780820380516001836020036101000a031916815260200191505b5094505050505060405180910390f35b6103b5606060405190810160405280603481526020017f6a736f6e28516d644b4b3331395665686138336836415967517168783959527381526020017f4a394d4a45377933336f4358795a344d7148452900000000000000000000000081525060a060405190810160405280606a81526020017f68747470733a2f2f7777772e6e6364632e6e6f61612e676f762f63646f2d776581526020017f622f6170692f76322f646174613f6461746173657469643d5052454349505f4881526020017f4c59267374617274646174653d313937302d31302d303326656e64646174653d81526020017f313937312d30392d303300000000000000000000000000000000000000000000815250610729565b565b80600890805190602001906103cd929190612864565b5033600960006101000a81548173ffffffffffffffffffffffffffffffffffffffff021916908373ffffffffffffffffffffffffffffffffffffffff160217905550610417610a01565b600a60006101000a81548173ffffffffffffffffffffffffffffffffffffffff021916908373ffffffffffffffffffffffffffffffffffffffff1602179055507f23d2f9c5ab9fb0306759368fbc5c5fa16196d090d8de4c364a00157aa1fe394e33610481610a01565b83604051808473ffffffffffffffffffffffffffffffffffffffff1673ffffffffffffffffffffffffffffffffffffffff1681526020018373ffffffffffffffffffffffffffffffffffffffff1673ffffffffffffffffffffffffffffffffffffffff16815260200180602001828103825283818151815260200191508051906020019080838360005b8381101561052657808201518184015260208101905061050b565b50505050905090810190601f1680156105535780820380516001836020036101000a031916815260200191505b5094505050505060405180910390a15050565b505050565b61062c6040805190810160405280600381526020017f55524c0000000000000000000000000000000000000000000000000000000000815250608060405190810160405280604481526020017f6a736f6e2868747470733a2f2f7777772e746865726f636b74726164696e672e81526020017f636f6d2f6170692f7469636b65722f425443455552292e726573756c742e302e81526020017f6c61737400000000000000000000000000000000000000000000000000000000815250610d17565b50565b6106376128e4565b6000806008600960009054906101000a900473ffffffffffffffffffffffffffffffffffffffff16600a60009054906101000a900473ffffffffffffffffffffffffffffffffffffffff16828054600181600116156101000203166002900480601f0160208091040260200160405190810160405280929190818152602001828054600181600116156101000203166002900480156107175780601f106106ec57610100808354040283529160200191610717565b820191906000526020600020905b8154815290600101906020018083116106fa57829003601f168201915b50505050509250925092509250909192565b3073ffffffffffffffffffffffffffffffffffffffff163161077f6040805190810160405280600b81526020017f636f6d7075746174696f6e000000000000000000000000000000000000000000815250611259565b111561083e577f46cb989ef9cef13e930e3b7f286225a086e716a90d63e0b7da85d310a9db0c9a60405180806020018281038252604b8152602001807f4f7261636c697a6520717565727920776173204e4f542073656e742c20706c6581526020017f6173652061646420736f6d652045544820746f20636f76657220666f7220746881526020017f652071756572792066656500000000000000000000000000000000000000000081525060600191505060405180910390a16109fd565b7f46cb989ef9cef13e930e3b7f286225a086e716a90d63e0b7da85d310a9db0c9a6040518080602001828103825260368152602001807f4f7261636c697a65207175657279207761732073656e742c207374616e64696e81526020017f6720627920666f722074686520616e737765722e2e2e0000000000000000000081525060400191505060405180910390a16109fb6040805190810160405280600b81526020017f636f6d7075746174696f6e0000000000000000000000000000000000000000008152506080604051908101604052808581526020016040805190810160405280600381526020017f4745540000000000000000000000000000000000000000000000000000000000815250815260200184815260200160078054600181600116156101000203166002900480601f0160208091040260200160405190810160405280929190818152602001828054600181600116156101000203166002900480156109ee5780601f106109c3576101008083540402835291602001916109ee565b820191906000526020600020905b8154815290600101906020018083116109d157829003601f168201915b50505050508152506115e1565b505b5050565b6000806000809054906101000a900473ffffffffffffffffffffffffffffffffffffffff1673ffffffffffffffffffffffffffffffffffffffff161480610a7157506000610a6f6000809054906101000a900473ffffffffffffffffffffffffffffffffffffffff1661196d565b145b15610a8257610a806000611978565b505b6000809054906101000a900473ffffffffffffffffffffffffffffffffffffffff1673ffffffffffffffffffffffffffffffffffffffff166338cc48316000604051602001526040518163ffffffff167c0100000000000000000000000000000000000000000000000000000000028152600401602060405180830381600087803b1515610b0f57600080fd5b6102c65a03f11515610b2057600080fd5b5050506040518051905073ffffffffffffffffffffffffffffffffffffffff16600160009054906101000a900473ffffffffffffffffffffffffffffffffffffffff1673ffffffffffffffffffffffffffffffffffffffff16141515610c69576000809054906101000a900473ffffffffffffffffffffffffffffffffffffffff1673ffffffffffffffffffffffffffffffffffffffff166338cc48316000604051602001526040518163ffffffff167c0100000000000000000000000000000000000000000000000000000000028152600401602060405180830381600087803b1515610c0d57600080fd5b6102c65a03f11515610c1e57600080fd5b50505060405180519050600160006101000a81548173ffffffffffffffffffffffffffffffffffffffff021916908373ffffffffffffffffffffffffffffffffffffffff1602179055505b600160009054906101000a900473ffffffffffffffffffffffffffffffffffffffff1673ffffffffffffffffffffffffffffffffffffffff1663c281d19e6000604051602001526040518163ffffffff167c0100000000000000000000000000000000000000000000000000000000028152600401602060405180830381600087803b1515610cf757600080fd5b6102c65a03f11515610d0857600080fd5b50505060405180519050905090565b60008060008060009054906101000a900473ffffffffffffffffffffffffffffffffffffffff1673ffffffffffffffffffffffffffffffffffffffff161480610d8957506000610d876000809054906101000a900473ffffffffffffffffffffffffffffffffffffffff1661196d565b145b15610d9a57610d986000611978565b505b6000809054906101000a900473ffffffffffffffffffffffffffffffffffffffff1673ffffffffffffffffffffffffffffffffffffffff166338cc48316000604051602001526040518163ffffffff167c0100000000000000000000000000000000000000000000000000000000028152600401602060405180830381600087803b1515610e2757600080fd5b6102c65a03f11515610e3857600080fd5b5050506040518051905073ffffffffffffffffffffffffffffffffffffffff16600160009054906101000a900473ffffffffffffffffffffffffffffffffffffffff1673ffffffffffffffffffffffffffffffffffffffff16141515610f81576000809054906101000a900473ffffffffffffffffffffffffffffffffffffffff1673ffffffffffffffffffffffffffffffffffffffff166338cc48316000604051602001526040518163ffffffff167c0100000000000000000000000000000000000000000000000000000000028152600401602060405180830381600087803b1515610f2557600080fd5b6102c65a03f11515610f3657600080fd5b50505060405180519050600160006101000a81548173ffffffffffffffffffffffffffffffffffffffff021916908373ffffffffffffffffffffffffffffffffffffffff1602179055505b600160009054906101000a900473ffffffffffffffffffffffffffffffffffffffff1673ffffffffffffffffffffffffffffffffffffffff1663524f3889856000604051602001526040518263ffffffff167c01000000000000000000000000000000000000000000000000000000000281526004018080602001828103825283818151815260200191508051906020019080838360005b83811015611034578082015181840152602081019050611019565b50505050905090810190601f1680156110615780820380516001836020036101000a031916815260200191505b5092505050602060405180830381600087803b151561107f57600080fd5b6102c65a03f1151561109057600080fd5b50505060405180519050905062030d403a02670de0b6b3a7640000018111156110bf5760006001029150611252565b600160009054906101000a900473ffffffffffffffffffffffffffffffffffffffff1673ffffffffffffffffffffffffffffffffffffffff1663adf59f9982600087876000604051602001526040518563ffffffff167c0100000000000000000000000000000000000000000000000000000000028152600401808481526020018060200180602001838103835285818151815260200191508051906020019080838360005b83811015611180578082015181840152602081019050611165565b50505050905090810190601f1680156111ad5780820380516001836020036101000a031916815260200191505b50838103825284818151815260200191508051906020019080838360005b838110156111e65780820151818401526020810190506111cb565b50505050905090810190601f1680156112135780820380516001836020036101000a031916815260200191505b50955050505050506020604051808303818588803b151561123357600080fd5b6125ee5a03f1151561124457600080fd5b505050506040518051905091505b5092915050565b6000806000809054906101000a900473ffffffffffffffffffffffffffffffffffffffff1673ffffffffffffffffffffffffffffffffffffffff1614806112c9575060006112c76000809054906101000a900473ffffffffffffffffffffffffffffffffffffffff1661196d565b145b156112da576112d86000611978565b505b6000809054906101000a900473ffffffffffffffffffffffffffffffffffffffff1673ffffffffffffffffffffffffffffffffffffffff166338cc48316000604051602001526040518163ffffffff167c0100000000000000000000000000000000000000000000000000000000028152600401602060405180830381600087803b151561136757600080fd5b6102c65a03f1151561137857600080fd5b5050506040518051905073ffffffffffffffffffffffffffffffffffffffff16600160009054906101000a900473ffffffffffffffffffffffffffffffffffffffff1673ffffffffffffffffffffffffffffffffffffffff161415156114c1576000809054906101000a900473ffffffffffffffffffffffffffffffffffffffff1673ffffffffffffffffffffffffffffffffffffffff166338cc48316000604051602001526040518163ffffffff167c0100000000000000000000000000000000000000000000000000000000028152600401602060405180830381600087803b151561146557600080fd5b6102c65a03f1151561147657600080fd5b50505060405180519050600160006101000a81548173ffffffffffffffffffffffffffffffffffffffff021916908373ffffffffffffffffffffffffffffffffffffffff1602179055505b600160009054906101000a900473ffffffffffffffffffffffffffffffffffffffff1673ffffffffffffffffffffffffffffffffffffffff1663524f3889836000604051602001526040518263ffffffff167c01000000000000000000000000000000000000000000000000000000000281526004018080602001828103825283818151815260200191508051906020019080838360005b83811015611574578082015181840152602081019050611559565b50505050905090810190601f1680156115a15780820380516001836020036101000a031916815260200191505b5092505050602060405180830381600087803b15156115bf57600080fd5b6102c65a03f115156115d057600080fd5b505050604051805190509050919050565b60006115eb6128f8565b60008060009054906101000a900473ffffffffffffffffffffffffffffffffffffffff1673ffffffffffffffffffffffffffffffffffffffff16148061165a575060006116586000809054906101000a900473ffffffffffffffffffffffffffffffffffffffff1661196d565b145b1561166b576116696000611978565b505b6000809054906101000a900473ffffffffffffffffffffffffffffffffffffffff1673ffffffffffffffffffffffffffffffffffffffff166338cc48316000604051602001526040518163ffffffff167c0100000000000000000000000000000000000000000000000000000000028152600401602060405180830381600087803b15156116f857600080fd5b6102c65a03f1151561170957600080fd5b5050506040518051905073ffffffffffffffffffffffffffffffffffffffff16600160009054906101000a900473ffffffffffffffffffffffffffffffffffffffff1673ffffffffffffffffffffffffffffffffffffffff16141515611852576000809054906101000a900473ffffffffffffffffffffffffffffffffffffffff1673ffffffffffffffffffffffffffffffffffffffff166338cc48316000604051602001526040518163ffffffff167c0100000000000000000000000000000000000000000000000000000000028152600401602060405180830381600087803b15156117f657600080fd5b6102c65a03f1151561180757600080fd5b50505060405180519050600160006101000a81548173ffffffffffffffffffffffffffffffffffffffff021916908373ffffffffffffffffffffffffffffffffffffffff1602179055505b60046040518059106118615750595b90808252806020026020018201604052801561189757816020015b61188461290c565b81526020019060019003908161187c5790505b5090508260006004811015156118a957fe5b60200201518160008151811015156118bd57fe5b906020019060200201819052508260016004811015156118d957fe5b60200201518160018151811015156118ed57fe5b9060200190602002018190525082600260048110151561190957fe5b602002015181600281518110151561191d57fe5b9060200190602002018190525082600360048110151561193957fe5b602002015181600381518110151561194d57fe5b906020019060200201819052506119648482611e09565b91505092915050565b6000813b9050919050565b600080611998731d3b2638a7cc9f2cb3d298a3da7a90b67e5506ed61196d565b1115611a3957731d3b2638a7cc9f2cb3d298a3da7a90b67e5506ed6000806101000a81548173ffffffffffffffffffffffffffffffffffffffff021916908373ffffffffffffffffffffffffffffffffffffffff160217905550611a306040805190810160405280600b81526020017f6574685f6d61696e6e657400000000000000000000000000000000000000000081525061235f565b60019050611e04565b6000611a5873c03a2615d5efaf5f49f60b7bb6583eaec212fdf161196d565b1115611af95773c03a2615d5efaf5f49f60b7bb6583eaec212fdf16000806101000a81548173ffffffffffffffffffffffffffffffffffffffff021916908373ffffffffffffffffffffffffffffffffffffffff160217905550611af06040805190810160405280600c81526020017f6574685f726f707374656e33000000000000000000000000000000000000000081525061235f565b60019050611e04565b6000611b1873b7a07bcf2ba2f2703b24c0691b5278999c59ac7e61196d565b1115611bb95773b7a07bcf2ba2f2703b24c0691b5278999c59ac7e6000806101000a81548173ffffffffffffffffffffffffffffffffffffffff021916908373ffffffffffffffffffffffffffffffffffffffff160217905550611bb06040805190810160405280600981526020017f6574685f6b6f76616e000000000000000000000000000000000000000000000081525061235f565b60019050611e04565b6000611bd873146500cfd35b22e4a392fe0adc06de1a1368ed4861196d565b1115611c795773146500cfd35b22e4a392fe0adc06de1a1368ed486000806101000a81548173ffffffffffffffffffffffffffffffffffffffff021916908373ffffffffffffffffffffffffffffffffffffffff160217905550611c706040805190810160405280600b81526020017f6574685f72696e6b65627900000000000000000000000000000000000000000081525061235f565b60019050611e04565b6000611c98736f485c8bf6fc43ea212e93bbf8ce046c7f1cb47561196d565b1115611cfb57736f485c8bf6fc43ea212e93bbf8ce046c7f1cb4756000806101000a81548173ffffffffffffffffffffffffffffffffffffffff021916908373ffffffffffffffffffffffffffffffffffffffff16021790555060019050611e04565b6000611d1a7320e12a1f859b3feae5fb2a0a32c18f5a65555bbf61196d565b1115611d7d577320e12a1f859b3feae5fb2a0a32c18f5a65555bbf6000806101000a81548173ffffffffffffffffffffffffffffffffffffffff021916908373ffffffffffffffffffffffffffffffffffffffff16021790555060019050611e04565b6000611d9c7351efaf4c8b3c9afbd5ab9f4bbc82784ab6ef8faa61196d565b1115611dff577351efaf4c8b3c9afbd5ab9f4bbc82784ab6ef8faa6000806101000a81548173ffffffffffffffffffffffffffffffffffffffff021916908373ffffffffffffffffffffffffffffffffffffffff16021790555060019050611e04565b600090505b919050565b600080611e14612920565b60008060009054906101000a900473ffffffffffffffffffffffffffffffffffffffff1673ffffffffffffffffffffffffffffffffffffffff161480611e8357506000611e816000809054906101000a900473ffffffffffffffffffffffffffffffffffffffff1661196d565b145b15611e9457611e926000611978565b505b6000809054906101000a900473ffffffffffffffffffffffffffffffffffffffff1673ffffffffffffffffffffffffffffffffffffffff166338cc48316000604051602001526040518163ffffffff167c0100000000000000000000000000000000000000000000000000000000028152600401602060405180830381600087803b1515611f2157600080fd5b6102c65a03f11515611f3257600080fd5b5050506040518051905073ffffffffffffffffffffffffffffffffffffffff16600160009054906101000a900473ffffffffffffffffffffffffffffffffffffffff1673ffffffffffffffffffffffffffffffffffffffff1614151561207b576000809054906101000a900473ffffffffffffffffffffffffffffffffffffffff1673ffffffffffffffffffffffffffffffffffffffff166338cc48316000604051602001526040518163ffffffff167c0100000000000000000000000000000000000000000000000000000000028152600401602060405180830381600087803b151561201f57600080fd5b6102c65a03f1151561203057600080fd5b50505060405180519050600160006101000a81548173ffffffffffffffffffffffffffffffffffffffff021916908373ffffffffffffffffffffffffffffffffffffffff1602179055505b600160009054906101000a900473ffffffffffffffffffffffffffffffffffffffff1673ffffffffffffffffffffffffffffffffffffffff1663524f3889866000604051602001526040518263ffffffff167c01000000000000000000000000000000000000000000000000000000000281526004018080602001828103825283818151815260200191508051906020019080838360005b8381101561212e578082015181840152602081019050612113565b50505050905090810190601f16801561215b5780820380516001836020036101000a031916815260200191505b5092505050602060405180830381600087803b151561217957600080fd5b6102c65a03f1151561218a57600080fd5b50505060405180519050915062030d403a02670de0b6b3a7640000018211156121b95760006001029250612357565b6121c284612379565b9050600160009054906101000a900473ffffffffffffffffffffffffffffffffffffffff1673ffffffffffffffffffffffffffffffffffffffff166383eed3d583600088856000604051602001526040518563ffffffff167c0100000000000000000000000000000000000000000000000000000000028152600401808481526020018060200180602001838103835285818151815260200191508051906020019080838360005b8381101561228557808201518184015260208101905061226a565b50505050905090810190601f1680156122b25780820380516001836020036101000a031916815260200191505b50838103825284818151815260200191508051906020019080838360005b838110156122eb5780820151818401526020810190506122d0565b50505050905090810190601f1680156123185780820380516001836020036101000a031916815260200191505b50955050505050506020604051808303818588803b151561233857600080fd5b6125ee5a03f1151561234957600080fd5b505050506040518051905092505b505092915050565b8060029080519060200190612375929190612864565b5050565b612381612920565b60008061238c612934565b6000806000612399612920565b60008060008b51995060009850896040518059106123b45750595b9080825280602002602001820160405280156123ea57816020015b6123d7612948565b8152602001906001900390816123cf5790505b509750600096505b89871015612483578b8781518110151561240857fe5b90602001906020020151888881518110151561242057fe5b906020019060200201819052506003601760018a8a81518110151561244157fe5b90602001906020020151510381151561245657fe5b04898981518110151561246557fe5b906020019060200201515101018901985086806001019750506123f2565b6000955060808a019450600160ff1689019850886040518059106124a45750595b9080825280601f01601f191660200182016040525093505b85600160ff16111561256657847f010000000000000000000000000000000000000000000000000000000000000002866001811015156124f857fe5b1a7f010000000000000000000000000000000000000000000000000000000000000002848781518110151561252957fe5b9060200101907effffffffffffffffffffffffffffffffffffffffffffffffffffffffffffff1916908160001a90535085806001019650506124bc565b600096505b8987101561285257605f7f01000000000000000000000000000000000000000000000000000000000000000284878151811015156125a557fe5b9060200101907effffffffffffffffffffffffffffffffffffffffffffffffffffffffffffff1916908160001a9053508580600101965050600092505b87878151811015156125f057fe5b90602001906020020151518310156127db57600060178481151561261057fe5b06141561271857601883898981518110151561262857fe5b906020019060200201515103101561265a5782888881518110151561264957fe5b90602001906020020151510361265d565b60175b91506040820191508590505b808603600160ff16111561271757817f0100000000000000000000000000000000000000000000000000000000000000028187036001811015156126a957fe5b1a7f01000000000000000000000000000000000000000000000000000000000000000284878151811015156126da57fe5b9060200101907effffffffffffffffffffffffffffffffffffffffffffffffffffffffffffff1916908160001a9053508580600101965050612669565b5b878781518110151561272657fe5b906020019060200201518381518110151561273d57fe5b9060200101517f010000000000000000000000000000000000000000000000000000000000000090047f010000000000000000000000000000000000000000000000000000000000000002848781518110151561279657fe5b9060200101907effffffffffffffffffffffffffffffffffffffffffffffffffffffffffffff1916908160001a905350858060010196505082806001019350506125e2565b60ff7f010000000000000000000000000000000000000000000000000000000000000002848781518110151561280d57fe5b9060200101907effffffffffffffffffffffffffffffffffffffffffffffffffffffffffffff1916908160001a9053508580600101965050868060010197505061256b565b839a5050505050505050505050919050565b828054600181600116156101000203166002900490600052602060002090601f016020900481019282601f106128a557805160ff19168380011785556128d3565b828001600101855582156128d3579182015b828111156128d25782518255916020019190600101906128b7565b5b5090506128e0919061295c565b5090565b602060405190810160405280600081525090565b602060405190810160405280600081525090565b602060405190810160405280600081525090565b602060405190810160405280600081525090565b602060405190810160405280600081525090565b602060405190810160405280600081525090565b61297e91905b8082111561297a576000816000905550600101612962565b5090565b905600a165627a7a7230582044add7a6e2fff1f84ab99b26baf30fa3f9cf8755fdf26ad6153921d5db36c71f00297b2768656164657273273a207b27746f6b656e273a205b646563727970745d20424b36784d2b6b64573367476665714c59636b38687945764c7a536c2f3942786c6134736637307a7446306132386b5178304a324361704d43396d56597061446235454c767873366f77754d706473454f494541394f7338367644684341375238656b49526f484d6a627858466451644563544c38767079516850415033485a376955574d4673364652357a616569734947574647756f3d7d7d",
  "source": "pragma solidity ^0.4.18;\nimport \"./usingOraclize.sol\";\nimport \"./urlRequests.sol\";\n\ncontract NOAANCDCRainfall is usingOraclize {\n\n    string baseURL = \"https://www.ncdc.noaa.gov/cdo-web/api/v2/data?datasetid=GHCND\";\n    string requestsIPFSHash = \"QmdKK319Veha83h6AYgQqhx9YRsJ9MJE7y33oCXyZ4MqHE\";\n    string headers = \"{'headers': {'token': [decrypt] BK6xM+kdW3gGfeqLYck8hyEvLzSl/9Bxla4sf70ztF0a28kQx0J2CapMC9mVYpaDb5ELvxs6owuMpdsEOIEA9Os86vDhCA7R8ekIRoHMjbxXFdQdEcTL8vpyQhPAP3HZ7iUWMFs6FR5zaeisIGWFGuo=}}\";\n\n    string testResult = \"not set\";\n    address sender;\n    address cbaddress;\n\n\n\n    function getResult() public returns (string, address, address) {\n    \treturn (testResult, sender, cbaddress);\n    }\n\n    event newOraclizeQuery(string message);\n\n    event debug(address sender, address cbaddress, string result);\n\n    function NOAARequest(string _query, string _url) private {\n        if (oraclize_getPrice(\"computation\") > this.balance) {\n            newOraclizeQuery(\"Oraclize query was NOT sent, please add some ETH to cover for the query fee\");\n        } else {\n            newOraclizeQuery(\"Oraclize query was sent, standing by for the answer...\");\n\n            oraclize_query(\"computation\",\n                [_query,\n                \"GET\",\n                _url,\n                headers]\n            );\n        }\n    }\n\n\n    function Request() {\n    \t//NOAARequest(\"json(\" + requestsIPFSHash + \")\", baseURL + \"&startdate=1970-10-03&enddate=1971-09-03\");\n    \tNOAARequest(\"json(QmdKK319Veha83h6AYgQqhx9YRsJ9MJE7y33oCXyZ4MqHE)\", \"https://www.ncdc.noaa.gov/cdo-web/api/v2/data?datasetid=PRECIP_HLY&startdate=1970-10-03&enddate=1971-09-03\");\n    }\n\n\n    function testQuery() {\n        oraclize_query(\"URL\", \"json(https://www.therocktrading.com/api/ticker/BTCEUR).result.0.last\");\n    }\n\n    function __callback(bytes32 myid, string result) {\n       // require(msg.sender == oraclize_cbAddress());\n        testResult = result;\n        sender = msg.sender;\n        cbaddress = oraclize_cbAddress();\n        debug(msg.sender, oraclize_cbAddress(), result);\n    }\n\n    function NOAANCDCRainfall() {\n\nOAR = OraclizeAddrResolverI(0x6f485C8BF6fc43eA212E93BBF8ce046C7f1cb475);\n}\n}",
  "sourcePath": "/Users/benandre/cropcrop/contracts/NOAANCDCRainfall.sol",
  "compiler": {
    "name": "solc",
    "version": "0.4.18+commit.9cf6e910.Emscripten.clang"
  },
  "schemaVersion": "1.0.1",
  "updatedAt": "2018-04-03T03:13:48.594Z"
}