{
  "contractName": "NOAAPrecipAggregate",
  "abi": [
    {
      "constant": true,
      "inputs": [],
      "name": "owner",
      "outputs": [
        {
          "name": "",
          "type": "address"
        }
      ],
      "payable": false,
      "stateMutability": "view",
      "type": "function"
    },
    {
      "constant": false,
      "inputs": [
        {
          "name": "newOwner",
          "type": "address"
        }
      ],
      "name": "transferOwnership",
      "outputs": [],
      "payable": false,
      "stateMutability": "nonpayable",
      "type": "function"
    },
    {
      "payable": true,
      "stateMutability": "payable",
      "type": "fallback"
    },
    {
      "anonymous": false,
      "inputs": [
        {
          "indexed": false,
          "name": "key",
          "type": "string"
        },
        {
          "indexed": false,
          "name": "result",
          "type": "string"
        },
        {
          "indexed": false,
          "name": "remainingGas",
          "type": "uint256"
        }
      ],
      "name": "gotNOAAPrecipAggregateCallback",
      "type": "event"
    },
    {
      "anonymous": false,
      "inputs": [
        {
          "indexed": false,
          "name": "precipScript",
          "type": "string"
        },
        {
          "indexed": false,
          "name": "WITID",
          "type": "uint256"
        },
        {
          "indexed": false,
          "name": "avgedYearsStartEnd",
          "type": "string"
        },
        {
          "indexed": false,
          "name": "thresholdFactorPPTTH",
          "type": "uint256"
        },
        {
          "indexed": false,
          "name": "area",
          "type": "bytes32"
        }
      ],
      "name": "sentNOAAPrecipAggregateOraclizeComputation",
      "type": "event"
    },
    {
      "anonymous": false,
      "inputs": [
        {
          "indexed": true,
          "name": "previousOwner",
          "type": "address"
        },
        {
          "indexed": true,
          "name": "newOwner",
          "type": "address"
        }
      ],
      "name": "OwnershipTransferred",
      "type": "event"
    },
    {
      "anonymous": false,
      "inputs": [
        {
          "indexed": false,
          "name": "",
          "type": "string"
        }
      ],
      "name": "debug",
      "type": "event"
    },
    {
      "constant": false,
      "inputs": [
        {
          "name": "WITID",
          "type": "uint256"
        },
        {
          "name": "start",
          "type": "uint256"
        },
        {
          "name": "end",
          "type": "uint256"
        },
        {
          "name": "thresholdFactorPPTTH",
          "type": "uint256"
        },
        {
          "name": "area",
          "type": "bytes32"
        },
        {
          "name": "num_averaged_years",
          "type": "uint256"
        },
        {
          "name": "runtimeParams",
          "type": "string"
        }
      ],
      "name": "evaluateWIT",
      "outputs": [],
      "payable": true,
      "stateMutability": "payable",
      "type": "function"
    },
    {
      "constant": false,
      "inputs": [
        {
          "name": "myid",
          "type": "bytes32"
        },
        {
          "name": "result",
          "type": "string"
        }
      ],
      "name": "__callback",
      "outputs": [],
      "payable": false,
      "stateMutability": "nonpayable",
      "type": "function"
    },
    {
      "constant": false,
      "inputs": [
        {
          "name": "myid",
          "type": "bytes32"
        },
        {
          "name": "result",
          "type": "string"
        },
        {
          "name": "proof",
          "type": "bytes"
        }
      ],
      "name": "__callback",
      "outputs": [],
      "payable": false,
      "stateMutability": "nonpayable",
      "type": "function"
    },
    {
      "constant": false,
      "inputs": [],
      "name": "setLocalOAR",
      "outputs": [],
      "payable": false,
      "stateMutability": "nonpayable",
      "type": "function"
    },
    {
      "constant": false,
      "inputs": [
        {
          "name": "scriptHash",
          "type": "string"
        }
      ],
      "name": "updateIPFSMultihash",
      "outputs": [],
      "payable": false,
      "stateMutability": "nonpayable",
      "type": "function"
    },
    {
      "constant": true,
      "inputs": [],
      "name": "getNameAndDescription",
      "outputs": [
        {
          "name": "name",
          "type": "string"
        },
        {
          "name": "description",
          "type": "string"
        }
      ],
      "payable": false,
      "stateMutability": "pure",
      "type": "function"
    }
  ],
  "bytecode": "0x6080604052606060405190810160405280602e81526020017f516d524e51684b5254685943516533384c79636a3764544e564346513762466e81526020017f70516446384e787146396a5069340000000000000000000000000000000000008152506006908051906020019062000078929190620000c0565b5033600560006101000a81548173ffffffffffffffffffffffffffffffffffffffff021916908373ffffffffffffffffffffffffffffffffffffffff1602179055506200016f565b828054600181600116156101000203166002900490600052602060002090601f016020900481019282601f106200010357805160ff191683800117855562000134565b8280016001018555821562000134579182015b828111156200013357825182559160200191906001019062000116565b5b50905062000143919062000147565b5090565b6200016c91905b80821115620001685760008160009055506001016200014e565b5090565b90565b6133b9806200017f6000396000f30060806040526004361061008e576000357c0100000000000000000000000000000000000000000000000000000000900463ffffffff16806327dc297e146100905780632eb91c4d1461010757806338bbfa501461011e5780638ab54581146101db5780638da5cb5b14610244578063990199e21461029b578063ee52d28714610337578063f2fde38b14610433575b005b34801561009c57600080fd5b506101056004803603810190808035600019169060200190929190803590602001908201803590602001908080601f0160208091040260200160405190810160405280939291908181526020018383808284378201915050505050509192919290505050610476565b005b34801561011357600080fd5b5061011c6108a4565b005b34801561012a57600080fd5b506101d96004803603810190808035600019169060200190929190803590602001908201803590602001908080601f0160208091040260200160405190810160405280939291908181526020018383808284378201915050505050509192919290803590602001908201803590602001908080601f0160208091040260200160405190810160405280939291908181526020018383808284378201915050505050509192919290505050610956565b005b3480156101e757600080fd5b50610242600480360381019080803590602001908201803590602001908080601f016020809104026020016040519081016040528093929190818152602001838380828437820191505050505050919291929050505061095b565b005b34801561025057600080fd5b506102596109d1565b604051808273ffffffffffffffffffffffffffffffffffffffff1673ffffffffffffffffffffffffffffffffffffffff16815260200191505060405180910390f35b61033560048036038101908080359060200190929190803590602001909291908035906020019092919080359060200190929190803560001916906020019092919080359060200190929190803590602001908201803590602001908080601f01602080910402602001604051908101604052809392919081815260200183838082843782019150505050505091929192905050506109f7565b005b34801561034357600080fd5b5061034c610df4565b604051808060200180602001838103835285818151815260200191508051906020019080838360005b83811015610390578082015181840152602081019050610375565b50505050905090810190601f1680156103bd5780820380516001836020036101000a031916815260200191505b50838103825284818151815260200191508051906020019080838360005b838110156103f65780820151818401526020810190506103db565b50505050905090810190601f1680156104235780820380516001836020036101000a031916815260200191505b5094505050505060405180910390f35b34801561043f57600080fd5b50610474600480360381019080803573ffffffffffffffffffffffffffffffffffffffff169060200190929190505050610f05565b005b61047e6132ce565b6104866132ce565b6000606061049261105d565b73ffffffffffffffffffffffffffffffffffffffff163373ffffffffffffffffffffffffffffffffffffffff161415156104cb57600080fd5b7f565fae302b57150ce424225759a2bb174e54a85ccc09f53f2bb928d19f3eca74855a604051808060200180602001848152602001838103835260638152602001807f687474702d726573706f6e73652d7374617475732d636f6465267769742d696481526020017f266f7574636f6d6526617665726167652d707265637069746174696f6e26746581526020017f726d2d70726563697069746174696f6e266162736f6c7574652d74687265736881526020017f6f6c640000000000000000000000000000000000000000000000000000000000815250608001838103825285818151815260200191508051906020019080838360005b838110156105de5780820151818401526020810190506105c3565b50505050905090810190601f16801561060b5780820380516001836020036101000a031916815260200191505b5094505050505060405180910390a1610623856113bb565b93506106756106666040805190810160405280600181526020017f26000000000000000000000000000000000000000000000000000000000000008152506113bb565b856113e990919063ffffffff16565b92506106be836106b96040805190810160405280600381526020017f32303000000000000000000000000000000000000000000000000000000000008152506113bb565b611403565b15156106c95761089c565b61072961072461071f6107106040805190810160405280600181526020017f26000000000000000000000000000000000000000000000000000000000000008152506113bb565b876113e990919063ffffffff16565b611419565b61147b565b915061078361077e61076f6040805190810160405280600181526020017f26000000000000000000000000000000000000000000000000000000000000008152506113bb565b866113e990919063ffffffff16565b611419565b9050600560009054906101000a900473ffffffffffffffffffffffffffffffffffffffff1673ffffffffffffffffffffffffffffffffffffffff1663dbef1a2983836040518363ffffffff167c01000000000000000000000000000000000000000000000000000000000281526004018083815260200180602001828103825283818151815260200191508051906020019080838360005b8381101561083657808201518184015260208101905061081b565b50505050905090810190601f1680156108635780820380516001836020036101000a031916815260200191505b509350505050600060405180830381600087803b15801561088357600080fd5b505af1158015610897573d6000803e3d6000fd5b505050505b505050505050565b600560009054906101000a900473ffffffffffffffffffffffffffffffffffffffff1673ffffffffffffffffffffffffffffffffffffffff163373ffffffffffffffffffffffffffffffffffffffff1614151561090057600080fd5b736f485c8bf6fc43ea212e93bbf8ce046c7f1cb4756000806101000a81548173ffffffffffffffffffffffffffffffffffffffff021916908373ffffffffffffffffffffffffffffffffffffffff160217905550565b505050565b600560009054906101000a900473ffffffffffffffffffffffffffffffffffffffff1673ffffffffffffffffffffffffffffffffffffffff163373ffffffffffffffffffffffffffffffffffffffff161415156109b757600080fd5b80600690805190602001906109cd9291906132e8565b5050565b600560009054906101000a900473ffffffffffffffffffffffffffffffffffffffff1681565b60006060600560009054906101000a900473ffffffffffffffffffffffffffffffffffffffff1673ffffffffffffffffffffffffffffffffffffffff163373ffffffffffffffffffffffffffffffffffffffff16141515610a5757600080fd5b6207a12091503073ffffffffffffffffffffffffffffffffffffffff163182101515610a8257600080fd5b6301e276f0610a9a898961148f90919063ffffffff16565b101515610aa657600080fd5b856064101515610ab557600080fd5b620186a086101515610ac657600080fd5b610b826040805190810160405280600281526020017f31300000000000000000000000000000000000000000000000000000000000008152506040805190810160405280600181526020017f2600000000000000000000000000000000000000000000000000000000000000815250610b3e8b6114b0565b6040805190810160405280600181526020017f2600000000000000000000000000000000000000000000000000000000000000815250610b7d8c6114b0565b611607565b9050610ca16040805190810160405280600b81526020017f636f6d7075746174696f6e00000000000000000000000000000000000000000081525060a06040519081016040528060068054600181600116156101000203166002900480601f016020809104026020016040519081016040528092919081815260200182805460018160011615610100020316600290048015610c5f5780601f10610c3457610100808354040283529160200191610c5f565b820191906000526020600020905b815481529060010190602001808311610c4257829003601f168201915b50505050508152602001610c728d6114b0565b8152602001848152602001610c868a6114b0565b8152602001610c9889600190046114b0565b81525084611a1c565b507f7a7fa8913dd9fa8873a7b6a1ac9d935dbab5ed80c70fa740601138293e25acf660068a8389896040518080602001868152602001806020018581526020018460001916600019168152602001838103835288818154600181600116156101000203166002900481526020019150805460018160011615610100020316600290048015610d705780601f10610d4557610100808354040283529160200191610d70565b820191906000526020600020905b815481529060010190602001808311610d5357829003601f168201915b5050838103825286818151815260200191508051906020019080838360005b83811015610daa578082015181840152602081019050610d8f565b50505050905090810190601f168015610dd75780820380516001836020036101000a031916815260200191505b5097505050505050505060405180910390a1505050505050505050565b606080606060405190810160405280602a81526020017f4e4f41412050726563697069746174696f6e204167677265676174652057495481526020017f204576616c7561746f720000000000000000000000000000000000000000000081525060a060405190810160405280606281526020017f5468697320636f6e7472616374206d616b657320612063616c6c20746f20746881526020017f65204e4f41412061676772656761746520656e64706f696e7420616e6420657681526020017f616c7561746573206120574954206261736564206f6e2074686520726573756c81526020017f742e000000000000000000000000000000000000000000000000000000000000815250915091509091565b600560009054906101000a900473ffffffffffffffffffffffffffffffffffffffff1673ffffffffffffffffffffffffffffffffffffffff163373ffffffffffffffffffffffffffffffffffffffff16141515610f6157600080fd5b600073ffffffffffffffffffffffffffffffffffffffff168173ffffffffffffffffffffffffffffffffffffffff1614151515610f9d57600080fd5b8073ffffffffffffffffffffffffffffffffffffffff16600560009054906101000a900473ffffffffffffffffffffffffffffffffffffffff1673ffffffffffffffffffffffffffffffffffffffff167f8be0079c531659141344cd1fd0a4f28419497f9722a3daafe3b4186f6b6457e060405160405180910390a380600560006101000a81548173ffffffffffffffffffffffffffffffffffffffff021916908373ffffffffffffffffffffffffffffffffffffffff16021790555050565b6000806000809054906101000a900473ffffffffffffffffffffffffffffffffffffffff1673ffffffffffffffffffffffffffffffffffffffff1614806110cd575060006110cb6000809054906101000a900473ffffffffffffffffffffffffffffffffffffffff16611df4565b145b156110de576110dc6000611dff565b505b6000809054906101000a900473ffffffffffffffffffffffffffffffffffffffff1673ffffffffffffffffffffffffffffffffffffffff166338cc48316040518163ffffffff167c0100000000000000000000000000000000000000000000000000000000028152600401602060405180830381600087803b15801561116357600080fd5b505af1158015611177573d6000803e3d6000fd5b505050506040513d602081101561118d57600080fd5b810190808051906020019092919050505073ffffffffffffffffffffffffffffffffffffffff16600160009054906101000a900473ffffffffffffffffffffffffffffffffffffffff1673ffffffffffffffffffffffffffffffffffffffff161415156112f5576000809054906101000a900473ffffffffffffffffffffffffffffffffffffffff1673ffffffffffffffffffffffffffffffffffffffff166338cc48316040518163ffffffff167c0100000000000000000000000000000000000000000000000000000000028152600401602060405180830381600087803b15801561127957600080fd5b505af115801561128d573d6000803e3d6000fd5b505050506040513d60208110156112a357600080fd5b8101908080519060200190929190505050600160006101000a81548173ffffffffffffffffffffffffffffffffffffffff021916908373ffffffffffffffffffffffffffffffffffffffff1602179055505b600160009054906101000a900473ffffffffffffffffffffffffffffffffffffffff1673ffffffffffffffffffffffffffffffffffffffff1663c281d19e6040518163ffffffff167c0100000000000000000000000000000000000000000000000000000000028152600401602060405180830381600087803b15801561137b57600080fd5b505af115801561138f573d6000803e3d6000fd5b505050506040513d60208110156113a557600080fd5b8101908080519060200190929190505050905090565b6113c36132ce565b600060208301905060408051908101604052808451815260200182815250915050919050565b6113f16132ce565b6113fc838383611e10565b5092915050565b6000806114108484611eae565b14905092915050565b606080600083600001516040519080825280601f01601f1916602001820160405280156114555781602001602082028038833980820191505090505b5091506020820190506114718185602001518660000151611f68565b8192505050919050565b6000611488826000611fb3565b9050919050565b6000808383111515156114a157600080fd5b82840390508091505092915050565b606060008060606000808614156114fe576040805190810160405280600181526020017f300000000000000000000000000000000000000000000000000000000000000081525094506115fe565b8593505b600084141515611528578280600101935050600a8481151561152057fe5b049350611502565b826040519080825280601f01601f19166020018201604052801561155b5781602001602082028038833980820191505090505b5091506001830390505b6000861415156115fa57600a8681151561157b57fe5b066030017f0100000000000000000000000000000000000000000000000000000000000000028282806001900393508151811015156115b657fe5b9060200101907effffffffffffffffffffffffffffffffffffffffffffffffffffffffffffff1916908160001a905350600a868115156115f257fe5b049550611565565b8194505b50505050919050565b6060806060806060806060806000808e98508d97508c96508b95508a94508451865188518a518c51010101016040519080825280601f01601f1916602001820160405280156116655781602001602082028038833980820191505090505b50935083925060009150600090505b885181101561172757888181518110151561168b57fe5b9060200101517f010000000000000000000000000000000000000000000000000000000000000090047f01000000000000000000000000000000000000000000000000000000000000000283838060010194508151811015156116ea57fe5b9060200101907effffffffffffffffffffffffffffffffffffffffffffffffffffffffffffff1916908160001a9053508080600101915050611674565b600090505b87518110156117df57878181518110151561174357fe5b9060200101517f010000000000000000000000000000000000000000000000000000000000000090047f01000000000000000000000000000000000000000000000000000000000000000283838060010194508151811015156117a257fe5b9060200101907effffffffffffffffffffffffffffffffffffffffffffffffffffffffffffff1916908160001a905350808060010191505061172c565b600090505b86518110156118975786818151811015156117fb57fe5b9060200101517f010000000000000000000000000000000000000000000000000000000000000090047f010000000000000000000000000000000000000000000000000000000000000002838380600101945081518110151561185a57fe5b9060200101907effffffffffffffffffffffffffffffffffffffffffffffffffffffffffffff1916908160001a90535080806001019150506117e4565b600090505b855181101561194f5785818151811015156118b357fe5b9060200101517f010000000000000000000000000000000000000000000000000000000000000090047f010000000000000000000000000000000000000000000000000000000000000002838380600101945081518110151561191257fe5b9060200101907effffffffffffffffffffffffffffffffffffffffffffffffffffffffffffff1916908160001a905350808060010191505061189c565b600090505b8451811015611a0757848181518110151561196b57fe5b9060200101517f010000000000000000000000000000000000000000000000000000000000000090047f01000000000000000000000000000000000000000000000000000000000000000283838060010194508151811015156119ca57fe5b9060200101907effffffffffffffffffffffffffffffffffffffffffffffffffffffffffffff1916908160001a9053508080600101915050611954565b82995050505050505050505095945050505050565b6000606060008060009054906101000a900473ffffffffffffffffffffffffffffffffffffffff1673ffffffffffffffffffffffffffffffffffffffff161480611a8f57506000611a8d6000809054906101000a900473ffffffffffffffffffffffffffffffffffffffff16611df4565b145b15611aa057611a9e6000611dff565b505b6000809054906101000a900473ffffffffffffffffffffffffffffffffffffffff1673ffffffffffffffffffffffffffffffffffffffff166338cc48316040518163ffffffff167c0100000000000000000000000000000000000000000000000000000000028152600401602060405180830381600087803b158015611b2557600080fd5b505af1158015611b39573d6000803e3d6000fd5b505050506040513d6020811015611b4f57600080fd5b810190808051906020019092919050505073ffffffffffffffffffffffffffffffffffffffff16600160009054906101000a900473ffffffffffffffffffffffffffffffffffffffff1673ffffffffffffffffffffffffffffffffffffffff16141515611cb7576000809054906101000a900473ffffffffffffffffffffffffffffffffffffffff1673ffffffffffffffffffffffffffffffffffffffff166338cc48316040518163ffffffff167c0100000000000000000000000000000000000000000000000000000000028152600401602060405180830381600087803b158015611c3b57600080fd5b505af1158015611c4f573d6000803e3d6000fd5b505050506040513d6020811015611c6557600080fd5b8101908080519060200190929190505050600160006101000a81548173ffffffffffffffffffffffffffffffffffffffff021916908373ffffffffffffffffffffffffffffffffffffffff1602179055505b6005604051908082528060200260200182016040528015611cec57816020015b6060815260200190600190039081611cd75790505b509050836000600581101515611cfe57fe5b6020020151816000815181101515611d1257fe5b90602001906020020181905250836001600581101515611d2e57fe5b6020020151816001815181101515611d4257fe5b90602001906020020181905250836002600581101515611d5e57fe5b6020020151816002815181101515611d7257fe5b90602001906020020181905250836003600581101515611d8e57fe5b6020020151816003815181101515611da257fe5b90602001906020020181905250836004600581101515611dbe57fe5b6020020151816004815181101515611dd257fe5b90602001906020020181905250611dea8582856122a7565b9150509392505050565b6000813b9050919050565b6000611e09612865565b9050919050565b611e186132ce565b6000611e368560000151866020015186600001518760200151612cf4565b90508460200151836020018181525050846020015181038360000181815250508460000151856020015101811415611e78576000856000018181525050611ea3565b8360000151836000015101856000018181510391508181525050836000015181018560200181815250505b829150509392505050565b60008060008060008060008060008a6000015197508a600001518a600001511015611edb57896000015197505b8a60200151965089602001519550600094505b87851015611f4c5786519350855192508284141515611f3557600185896020030160080260020a03199150818316828516039050600081141515611f3457809850611f5a565b5b602087019650602086019550602085019450611eee565b89600001518b600001510398505b505050505050505092915050565b60005b602082101515611f905782518452602084019350602083019250602082039150611f6b565b6001826020036101000a0390508019835116818551168181178652505050505050565b6000606060008060008693506000925060009150600090505b83518110156122885760307f010000000000000000000000000000000000000000000000000000000000000002848281518110151561200757fe5b9060200101517f010000000000000000000000000000000000000000000000000000000000000090047f0100000000000000000000000000000000000000000000000000000000000000027effffffffffffffffffffffffffffffffffffffffffffffffffffffffffffff19161015801561211f575060397f01000000000000000000000000000000000000000000000000000000000000000284828151811015156120af57fe5b9060200101517f010000000000000000000000000000000000000000000000000000000000000090047f0100000000000000000000000000000000000000000000000000000000000000027effffffffffffffffffffffffffffffffffffffffffffffffffffffffffffff191611155b156121d057811561214257600086141561213857612288565b8580600190039650505b600a830292506030848281518110151561215857fe5b9060200101517f010000000000000000000000000000000000000000000000000000000000000090047f0100000000000000000000000000000000000000000000000000000000000000027f01000000000000000000000000000000000000000000000000000000000000009004038301925061227b565b602e7f010000000000000000000000000000000000000000000000000000000000000002848281518110151561220257fe5b9060200101517f010000000000000000000000000000000000000000000000000000000000000090047f0100000000000000000000000000000000000000000000000000000000000000027effffffffffffffffffffffffffffffffffffffffffffffffffffffffffffff1916141561227a57600191505b5b8080600101915050611fcc565b600086111561229a5785600a0a830292505b8294505050505092915050565b600080606060008060009054906101000a900473ffffffffffffffffffffffffffffffffffffffff1673ffffffffffffffffffffffffffffffffffffffff16148061231b575060006123196000809054906101000a900473ffffffffffffffffffffffffffffffffffffffff16611df4565b145b1561232c5761232a6000611dff565b505b6000809054906101000a900473ffffffffffffffffffffffffffffffffffffffff1673ffffffffffffffffffffffffffffffffffffffff166338cc48316040518163ffffffff167c0100000000000000000000000000000000000000000000000000000000028152600401602060405180830381600087803b1580156123b157600080fd5b505af11580156123c5573d6000803e3d6000fd5b505050506040513d60208110156123db57600080fd5b810190808051906020019092919050505073ffffffffffffffffffffffffffffffffffffffff16600160009054906101000a900473ffffffffffffffffffffffffffffffffffffffff1673ffffffffffffffffffffffffffffffffffffffff16141515612543576000809054906101000a900473ffffffffffffffffffffffffffffffffffffffff1673ffffffffffffffffffffffffffffffffffffffff166338cc48316040518163ffffffff167c0100000000000000000000000000000000000000000000000000000000028152600401602060405180830381600087803b1580156124c757600080fd5b505af11580156124db573d6000803e3d6000fd5b505050506040513d60208110156124f157600080fd5b8101908080519060200190929190505050600160006101000a81548173ffffffffffffffffffffffffffffffffffffffff021916908373ffffffffffffffffffffffffffffffffffffffff1602179055505b600160009054906101000a900473ffffffffffffffffffffffffffffffffffffffff1673ffffffffffffffffffffffffffffffffffffffff16632ef3accc87866040518363ffffffff167c01000000000000000000000000000000000000000000000000000000000281526004018080602001838152602001828103825284818151815260200191508051906020019080838360005b838110156125f45780820151818401526020810190506125d9565b50505050905090810190601f1680156126215780820380516001836020036101000a031916815260200191505b509350505050602060405180830381600087803b15801561264157600080fd5b505af1158015612655573d6000803e3d6000fd5b505050506040513d602081101561266b57600080fd5b81019080805190602001909291905050509150833a02670de0b6b3a76400000182111561269e576000600102925061285c565b6126a785612dda565b9050600160009054906101000a900473ffffffffffffffffffffffffffffffffffffffff1673ffffffffffffffffffffffffffffffffffffffff1663c55c1cb68360008985896040518663ffffffff167c0100000000000000000000000000000000000000000000000000000000028152600401808581526020018060200180602001848152602001838103835286818151815260200191508051906020019080838360005b8381101561276857808201518184015260208101905061274d565b50505050905090810190601f1680156127955780820380516001836020036101000a031916815260200191505b50838103825285818151815260200191508051906020019080838360005b838110156127ce5780820151818401526020810190506127b3565b50505050905090810190601f1680156127fb5780820380516001836020036101000a031916815260200191505b5096505050505050506020604051808303818588803b15801561281d57600080fd5b505af1158015612831573d6000803e3d6000fd5b50505050506040513d602081101561284857600080fd5b810190808051906020019092919050505092505b50509392505050565b600080612885731d3b2638a7cc9f2cb3d298a3da7a90b67e5506ed611df4565b111561292657731d3b2638a7cc9f2cb3d298a3da7a90b67e5506ed6000806101000a81548173ffffffffffffffffffffffffffffffffffffffff021916908373ffffffffffffffffffffffffffffffffffffffff16021790555061291d6040805190810160405280600b81526020017f6574685f6d61696e6e65740000000000000000000000000000000000000000008152506132b4565b60019050612cf1565b600061294573c03a2615d5efaf5f49f60b7bb6583eaec212fdf1611df4565b11156129e65773c03a2615d5efaf5f49f60b7bb6583eaec212fdf16000806101000a81548173ffffffffffffffffffffffffffffffffffffffff021916908373ffffffffffffffffffffffffffffffffffffffff1602179055506129dd6040805190810160405280600c81526020017f6574685f726f707374656e3300000000000000000000000000000000000000008152506132b4565b60019050612cf1565b6000612a0573b7a07bcf2ba2f2703b24c0691b5278999c59ac7e611df4565b1115612aa65773b7a07bcf2ba2f2703b24c0691b5278999c59ac7e6000806101000a81548173ffffffffffffffffffffffffffffffffffffffff021916908373ffffffffffffffffffffffffffffffffffffffff160217905550612a9d6040805190810160405280600981526020017f6574685f6b6f76616e00000000000000000000000000000000000000000000008152506132b4565b60019050612cf1565b6000612ac573146500cfd35b22e4a392fe0adc06de1a1368ed48611df4565b1115612b665773146500cfd35b22e4a392fe0adc06de1a1368ed486000806101000a81548173ffffffffffffffffffffffffffffffffffffffff021916908373ffffffffffffffffffffffffffffffffffffffff160217905550612b5d6040805190810160405280600b81526020017f6574685f72696e6b6562790000000000000000000000000000000000000000008152506132b4565b60019050612cf1565b6000612b85736f485c8bf6fc43ea212e93bbf8ce046c7f1cb475611df4565b1115612be857736f485c8bf6fc43ea212e93bbf8ce046c7f1cb4756000806101000a81548173ffffffffffffffffffffffffffffffffffffffff021916908373ffffffffffffffffffffffffffffffffffffffff16021790555060019050612cf1565b6000612c077320e12a1f859b3feae5fb2a0a32c18f5a65555bbf611df4565b1115612c6a577320e12a1f859b3feae5fb2a0a32c18f5a65555bbf6000806101000a81548173ffffffffffffffffffffffffffffffffffffffff021916908373ffffffffffffffffffffffffffffffffffffffff16021790555060019050612cf1565b6000612c897351efaf4c8b3c9afbd5ab9f4bbc82784ab6ef8faa611df4565b1115612cec577351efaf4c8b3c9afbd5ab9f4bbc82784ab6ef8faa6000806101000a81548173ffffffffffffffffffffffffffffffffffffffff021916908373ffffffffffffffffffffffffffffffffffffffff16021790555060019050612cf1565b600090505b90565b60008060008060008060008060008b97508c8b111515612dc45760208b111515612d7e5760018b60200360080260020a03196001029550858a511694508a8d8d010393508588511692505b84600019168360001916141515612d76578388101515612d63578c8c019850612dca565b8780600101985050858851169250612d3f565b879850612dca565b8a8a209150600096505b8a8d0387111515612dc3578a88209050806000191682600019161415612db057879850612dca565b6001880197508680600101975050612d88565b5b8c8c0198505b5050505050505050949350505050565b606060008060606000806000606060008060008b5199506000985089604051908082528060200260200182016040528015612e2957816020015b6060815260200190600190039081612e145790505b509750600096505b89871015612ec2578b87815181101515612e4757fe5b906020019060200201518888815181101515612e5f57fe5b906020019060200201819052506003601760018a8a815181101515612e8057fe5b906020019060200201515103811515612e9557fe5b048989815181101515612ea457fe5b90602001906020020151510101890198508680600101975050612e31565b6000955060808a019450600160ff1689019850886040519080825280601f01601f191660200182016040528015612f085781602001602082028038833980820191505090505b5093505b85600160ff161115612fb657847f01000000000000000000000000000000000000000000000000000000000000000286600181101515612f4857fe5b1a7f0100000000000000000000000000000000000000000000000000000000000000028487815181101515612f7957fe5b9060200101907effffffffffffffffffffffffffffffffffffffffffffffffffffffffffffff1916908160001a9053508580600101965050612f0c565b600096505b898710156132a257605f7f0100000000000000000000000000000000000000000000000000000000000000028487815181101515612ff557fe5b9060200101907effffffffffffffffffffffffffffffffffffffffffffffffffffffffffffff1916908160001a9053508580600101965050600092505b878781518110151561304057fe5b906020019060200201515183101561322b57600060178481151561306057fe5b06141561316857601883898981518110151561307857fe5b90602001906020020151510310156130aa5782888881518110151561309957fe5b9060200190602002015151036130ad565b60175b91506040820191508590505b808603600160ff16111561316757817f0100000000000000000000000000000000000000000000000000000000000000028187036001811015156130f957fe5b1a7f010000000000000000000000000000000000000000000000000000000000000002848781518110151561312a57fe5b9060200101907effffffffffffffffffffffffffffffffffffffffffffffffffffffffffffff1916908160001a90535085806001019650506130b9565b5b878781518110151561317657fe5b906020019060200201518381518110151561318d57fe5b9060200101517f010000000000000000000000000000000000000000000000000000000000000090047f01000000000000000000000000000000000000000000000000000000000000000284878151811015156131e657fe5b9060200101907effffffffffffffffffffffffffffffffffffffffffffffffffffffffffffff1916908160001a90535085806001019650508280600101935050613032565b60ff7f010000000000000000000000000000000000000000000000000000000000000002848781518110151561325d57fe5b9060200101907effffffffffffffffffffffffffffffffffffffffffffffffffffffffffffff1916908160001a90535085806001019650508680600101975050612fbb565b839a5050505050505050505050919050565b80600290805190602001906132ca9291906132e8565b5050565b604080519081016040528060008152602001600081525090565b828054600181600116156101000203166002900490600052602060002090601f016020900481019282601f1061332957805160ff1916838001178555613357565b82800160010185558215613357579182015b8281111561335657825182559160200191906001019061333b565b5b5090506133649190613368565b5090565b61338a91905b8082111561338657600081600090555060010161336e565b5090565b905600a165627a7a723058204827e9facaa3558df3366143a1100536cfa5c911fe2a6aa97ee3ef4ea55014f80029",
  "source": "pragma solidity 0.4.24;\nimport \"./usingOraclize.sol\";\nimport \"./WITEvaluator.sol\";\nimport \"./Ownable.sol\";\nimport \"./CallbackableWIT.sol\";\nimport \"./strings.sol\";\nimport './SafeMath.sol';\n\n\ncontract NOAAPrecipAggregate is usingOraclize, WITEvaluator, Ownable {\n    using SafeMath for uint;\n    using strings for *;\n\n    string precipScript = \"QmRNQhKRThYCQe38Lycj7dTNVCFQ7bFnpQdF8NxqF9jPi4\";\n\n    event gotNOAAPrecipAggregateCallback(string key, string result, uint remainingGas);\n    event sentNOAAPrecipAggregateOraclizeComputation(string precipScript, uint WITID, string avgedYearsStartEnd, uint thresholdFactorPPTTH, bytes32 area);\n\n    /**\n    * @dev \n    * @param WITID The ID of the WIT being evaluated. Needed for the callback.\n    * @param start Start date / time of the term period. UNIX formatted timestamp.\n    * @param end End date / time of the term period. UNIX formatted timestamp.\n    * @param thresholdFactorPPTTH The threshold represented as a part per ten thousand. 10000 = average. 11000 = 10% above average.\n    * @param area A string representation of the geographic area to be evaluated. Weather API defines these.\n    * @param num_averaged_years Ignores whatever is input and uses 10 years for the number of years to be averaged\n    * @param runtimeParams Not used but required by the WITEvaluator interface.\n    */\n    function evaluateWIT(uint WITID, uint start, uint end, uint thresholdFactorPPTTH, bytes32 area, uint num_averaged_years, string runtimeParams) payable public onlyContractOwner {\n        uint gasEstimate = 500000;\n        require(gasEstimate < this.balance);\n        require(end.sub(start) < 31618800); //number of seconds in a year\n        require(100 < thresholdFactorPPTTH);\n        require(thresholdFactorPPTTH < 100000);\n        string memory avgedYearsStartEnd = strConcat(\"10\", \"&\", uint2str(start), \"&\", uint2str(end));\n        oraclize_query(\"computation\", [precipScript, uint2str(WITID), avgedYearsStartEnd, uint2str(thresholdFactorPPTTH), uint2str(uint(area))], gasEstimate);\n        sentNOAAPrecipAggregateOraclizeComputation(precipScript, WITID, avgedYearsStartEnd, thresholdFactorPPTTH, area);\n    }\n\n\n    /**\n    * @dev Callback function that oraclize uses to return the results of the weather API call.\n    * @param myid Something from oraclize related to verification that we don't currently use.\n    * @param result The result of the oraclize call in the form \"http-response-status-code&wit-id&outcome&average-precpitation&term-precipitation&absolute-threshold\"\n    */\n    function __callback(bytes32 myid, string result) {\n        require(msg.sender == oraclize_cbAddress());\n        gotNOAAPrecipAggregateCallback(\"http-response-status-code&wit-id&outcome&average-precpitation&term-precipitation&absolute-threshold\", result, msg.gas);\n        var sliceResult = result.toSlice();\n        var status = sliceResult.split(\"&\".toSlice());\n        if (!strings.equals(status, \"200\".toSlice())) { return; }\n        uint WITID =  parseInt(sliceResult.split(\"&\".toSlice()).toString());\n        string memory outcome = sliceResult.split(\"&\".toSlice()).toString();\n        CallbackableWIT(owner).evaluatorCallback(WITID, outcome);\n    }\n\n\n    /**\n    * @dev We set an OAR when using ganache + bridge.\n    */\n    function setLocalOAR() public onlyContractOwner {\n        //This is only needed when using a local deployment on bridge.\n        OAR = OraclizeAddrResolverI(0x6f485C8BF6fc43eA212E93BBF8ce046C7f1cb475);\n    }\n\n\n    /**\n    * @dev Allows contract owner to update the docker image and python script in IPFS.\n    * @param scriptHash IPFS multihash of the docker image + python script archive.\n    */\n    function updateIPFSMultihash(string scriptHash) public onlyContractOwner {\n        precipScript = scriptHash;\n    }\n\n\n    /**\n    * @dev Get the name and description of this WIT evaluator.\n    */\n    function getNameAndDescription() public pure returns(string name, string description) {\n        return(\"NOAA Precipitation Aggregate WIT Evaluator\", \"This contract makes a call to the NOAA aggregate endpoint and evaluates a WIT based on the result.\");\n    }\n\n\n    /**\n    * @dev Fallback function.\n    */\n    function () external payable {}\n\n}",
  "sourcePath": "/Users/benandre/cropcrop/contracts/NOAAPrecipAggregate.sol",
  "compiler": {
    "name": "solc",
    "version": "0.4.24+commit.e67f0147.Emscripten.clang"
  },
  "schemaVersion": "2.0.1",
  "updatedAt": "2018-10-06T17:25:25.093Z"
}