{
  "contractName": "StringLib",
  "abi": [
    {
      "constant": true,
      "inputs": [
        {
          "name": "v",
          "type": "uint256"
        }
      ],
      "name": "uintToBytes",
      "outputs": [
        {
          "name": "ret",
          "type": "bytes32"
        }
      ],
      "payable": false,
      "stateMutability": "view",
      "type": "function"
    },
    {
      "constant": true,
      "inputs": [
        {
          "name": "v",
          "type": "bytes32"
        }
      ],
      "name": "bytesToUInt",
      "outputs": [
        {
          "name": "ret",
          "type": "uint256"
        }
      ],
      "payable": false,
      "stateMutability": "view",
      "type": "function"
    }
  ],
  "bytecode": "0x610242610030600b82828239805160001a6073146000811461002057610022565bfe5b5030600052607381538281f3007300000000000000000000000000000000000000003014608060405260043610610063576000357c0100000000000000000000000000000000000000000000000000000000900463ffffffff16806381a33a6f1461006857806394e8767d146100a0575b600080fd5b61008a60048036038101908080356000191690602001909291905050506100dc565b6040518082815260200191505060405180910390f35b6100be6004803603810190808035906020019092919050505061016d565b60405180826000191660001916815260200191505060405180910390f35b600080600080600102846000191614156100f557600080fd5b600090505b60208110156101635760ff81601f0360080260020a856001900481151561011d57fe5b04169150600082141561012f57610163565b603082108061013e5750603982115b1561014857600080fd5b600a83029250603082038301925080806001019150506100fa565b8292505050919050565b60008082141561019f577f3000000000000000000000000000000000000000000000000000000000000000905061020e565b5b600082111561020d5761010081600190048115156101ba57fe5b0460010290507f01000000000000000000000000000000000000000000000000000000000000006030600a848115156101ef57fe5b06010260010281179050600a8281151561020557fe5b0491506101a0565b5b8090509190505600a165627a7a72305820b0ff16f6f7440837505cf55e78b3a06f9afcea04498ba1b185f3bf30c81d44f60029",
  "source": "pragma solidity ^0.4.18;\n\n// String Utils v0.1\n\n/// @title String Utils - String utility functions\n/// @author Piper Merriam - <pipermerriam@gmail.com>\nlibrary StringLib {\n    /// @dev Converts an unsigned integert to its string representation.\n    /// @param v The number to be converted.\n    function uintToBytes(uint v) constant returns (bytes32 ret) {\n        if (v == 0) {\n            ret = '0';\n        }\n        else {\n            while (v > 0) {\n                ret = bytes32(uint(ret) / (2 ** 8));\n                ret |= bytes32(((v % 10) + 48) * 2 ** (8 * 31));\n                v /= 10;\n            }\n        }\n        return ret;\n    }\n\n    /// @dev Converts a numeric string to it's unsigned integer representation.\n    /// @param v The string to be converted.\n    function bytesToUInt(bytes32 v) constant returns (uint ret) {\n        if (v == 0x0) {\n            throw;\n        }\n\n        uint digit;\n\n        for (uint i = 0; i < 32; i++) {\n            digit = uint((uint(v) / (2 ** (8 * (31 - i)))) & 0xff);\n            if (digit == 0) {\n                break;\n            }\n            else if (digit < 48 || digit > 57) {\n                throw;\n            }\n            ret *= 10;\n            ret += (digit - 48);\n        }\n        return ret;\n    }\n}\n\n\n/// @title String Utils - String utility functions\n/// @author Piper Merriam - <pipermerriam@gmail.com>\nlibrary StringUtils {\n    /// @dev Converts an unsigned integert to its string representation.\n    /// @param v The number to be converted.\n    function uintToBytes(uint v) constant returns (bytes32 ret) {\n            return StringLib.uintToBytes(v);\n    }\n\n    /// @dev Converts a numeric string to it's unsigned integer representation.\n    /// @param v The string to be converted.\n    function bytesToUInt(bytes32 v) constant returns (uint ret) {\n            return StringLib.bytesToUInt(v);\n    }\n}",
  "sourcePath": "/Users/benandre/cropcrop/contracts/StringLib.sol",
  "compiler": {
    "name": "solc",
    "version": "0.4.24+commit.e67f0147.Emscripten.clang"
  },
  "schemaVersion": "2.0.1",
  "updatedAt": "2018-07-26T13:32:08.014Z"
}