{
  "contractName": "UrlRequestsComputation",
  "abi": [
    {
      "constant": false,
      "inputs": [],
      "name": "requestPut",
      "outputs": [],
      "payable": true,
      "stateMutability": "payable",
      "type": "function"
    },
    {
      "constant": false,
      "inputs": [
        {
          "name": "myid",
          "type": "bytes32"
        },
        {
          "name": "result",
          "type": "string"
        }
      ],
      "name": "__callback",
      "outputs": [],
      "payable": false,
      "stateMutability": "nonpayable",
      "type": "function"
    },
    {
      "constant": false,
      "inputs": [
        {
          "name": "myid",
          "type": "bytes32"
        },
        {
          "name": "result",
          "type": "string"
        },
        {
          "name": "proof",
          "type": "bytes"
        }
      ],
      "name": "__callback",
      "outputs": [],
      "payable": false,
      "stateMutability": "nonpayable",
      "type": "function"
    },
    {
      "constant": false,
      "inputs": [],
      "name": "requestCustomHeaders",
      "outputs": [],
      "payable": true,
      "stateMutability": "payable",
      "type": "function"
    },
    {
      "constant": false,
      "inputs": [],
      "name": "requestPost",
      "outputs": [],
      "payable": true,
      "stateMutability": "payable",
      "type": "function"
    },
    {
      "constant": false,
      "inputs": [],
      "name": "requestBasicAuth",
      "outputs": [],
      "payable": true,
      "stateMutability": "payable",
      "type": "function"
    },
    {
      "constant": false,
      "inputs": [
        {
          "name": "_query",
          "type": "string"
        },
        {
          "name": "_method",
          "type": "string"
        },
        {
          "name": "_url",
          "type": "string"
        },
        {
          "name": "_kwargs",
          "type": "string"
        }
      ],
      "name": "request",
      "outputs": [],
      "payable": true,
      "stateMutability": "payable",
      "type": "function"
    },
    {
      "constant": false,
      "inputs": [],
      "name": "requestCookies",
      "outputs": [],
      "payable": true,
      "stateMutability": "payable",
      "type": "function"
    },
    {
      "inputs": [],
      "payable": true,
      "stateMutability": "payable",
      "type": "constructor"
    },
    {
      "anonymous": false,
      "inputs": [
        {
          "indexed": false,
          "name": "description",
          "type": "string"
        }
      ],
      "name": "newOraclizeQuery",
      "type": "event"
    },
    {
      "anonymous": false,
      "inputs": [
        {
          "indexed": false,
          "name": "result",
          "type": "string"
        }
      ],
      "name": "emitResult",
      "type": "event"
    }
  ],
  "bytecode": "0x60606040526200006b60017f01000000000000000000000000000000000000000000000000000000000000000260107f01000000000000000000000000000000000000000000000000000000000000000217620000716401000000000262002676176401000000009004565b62000a5f565b60008060009054906101000a900473ffffffffffffffffffffffffffffffffffffffff1673ffffffffffffffffffffffffffffffffffffffff161480620000f757506000620000f56000809054906101000a900473ffffffffffffffffffffffffffffffffffffffff16620003f86401000000000262001676176401000000009004565b145b156200011f576200011d6000620004036401000000000262001681176401000000009004565b505b6000809054906101000a900473ffffffffffffffffffffffffffffffffffffffff1673ffffffffffffffffffffffffffffffffffffffff166338cc48316000604051602001526040518163ffffffff167c0100000000000000000000000000000000000000000000000000000000028152600401602060405180830381600087803b1515620001ad57600080fd5b6102c65a03f11515620001bf57600080fd5b5050506040518051905073ffffffffffffffffffffffffffffffffffffffff16600160009054906101000a900473ffffffffffffffffffffffffffffffffffffffff1673ffffffffffffffffffffffffffffffffffffffff161415156200030b576000809054906101000a900473ffffffffffffffffffffffffffffffffffffffff1673ffffffffffffffffffffffffffffffffffffffff166338cc48316000604051602001526040518163ffffffff167c0100000000000000000000000000000000000000000000000000000000028152600401602060405180830381600087803b1515620002ae57600080fd5b6102c65a03f11515620002c057600080fd5b50505060405180519050600160006101000a81548173ffffffffffffffffffffffffffffffffffffffff021916908373ffffffffffffffffffffffffffffffffffffffff1602179055505b600160009054906101000a900473ffffffffffffffffffffffffffffffffffffffff1673ffffffffffffffffffffffffffffffffffffffff1663688dcfd7826040518263ffffffff167c010000000000000000000000000000000000000000000000000000000002815260040180827effffffffffffffffffffffffffffffffffffffffffffffffffffffffffffff19167effffffffffffffffffffffffffffffffffffffffffffffffffffffffffffff19168152602001915050600060405180830381600087803b1515620003e057600080fd5b6102c65a03f11515620003f257600080fd5b50505050565b6000813b9050919050565b60008062000439731d3b2638a7cc9f2cb3d298a3da7a90b67e5506ed620003f86401000000000262001676176401000000009004565b1115620004f257731d3b2638a7cc9f2cb3d298a3da7a90b67e5506ed6000806101000a81548173ffffffffffffffffffffffffffffffffffffffff021916908373ffffffffffffffffffffffffffffffffffffffff160217905550620004e86040805190810160405280600b81526020017f6574685f6d61696e6e6574000000000000000000000000000000000000000000815250620009946401000000000262002068176401000000009004565b600190506200098f565b60006200052773c03a2615d5efaf5f49f60b7bb6583eaec212fdf1620003f86401000000000262001676176401000000009004565b1115620005e05773c03a2615d5efaf5f49f60b7bb6583eaec212fdf16000806101000a81548173ffffffffffffffffffffffffffffffffffffffff021916908373ffffffffffffffffffffffffffffffffffffffff160217905550620005d66040805190810160405280600c81526020017f6574685f726f707374656e330000000000000000000000000000000000000000815250620009946401000000000262002068176401000000009004565b600190506200098f565b60006200061573b7a07bcf2ba2f2703b24c0691b5278999c59ac7e620003f86401000000000262001676176401000000009004565b1115620006ce5773b7a07bcf2ba2f2703b24c0691b5278999c59ac7e6000806101000a81548173ffffffffffffffffffffffffffffffffffffffff021916908373ffffffffffffffffffffffffffffffffffffffff160217905550620006c46040805190810160405280600981526020017f6574685f6b6f76616e0000000000000000000000000000000000000000000000815250620009946401000000000262002068176401000000009004565b600190506200098f565b60006200070373146500cfd35b22e4a392fe0adc06de1a1368ed48620003f86401000000000262001676176401000000009004565b1115620007bc5773146500cfd35b22e4a392fe0adc06de1a1368ed486000806101000a81548173ffffffffffffffffffffffffffffffffffffffff021916908373ffffffffffffffffffffffffffffffffffffffff160217905550620007b26040805190810160405280600b81526020017f6574685f72696e6b656279000000000000000000000000000000000000000000815250620009946401000000000262002068176401000000009004565b600190506200098f565b6000620007f1736f485c8bf6fc43ea212e93bbf8ce046c7f1cb475620003f86401000000000262001676176401000000009004565b11156200085657736f485c8bf6fc43ea212e93bbf8ce046c7f1cb4756000806101000a81548173ffffffffffffffffffffffffffffffffffffffff021916908373ffffffffffffffffffffffffffffffffffffffff160217905550600190506200098f565b60006200088b7320e12a1f859b3feae5fb2a0a32c18f5a65555bbf620003f86401000000000262001676176401000000009004565b1115620008f0577320e12a1f859b3feae5fb2a0a32c18f5a65555bbf6000806101000a81548173ffffffffffffffffffffffffffffffffffffffff021916908373ffffffffffffffffffffffffffffffffffffffff160217905550600190506200098f565b6000620009257351efaf4c8b3c9afbd5ab9f4bbc82784ab6ef8faa620003f86401000000000262001676176401000000009004565b11156200098a577351efaf4c8b3c9afbd5ab9f4bbc82784ab6ef8faa6000806101000a81548173ffffffffffffffffffffffffffffffffffffffff021916908373ffffffffffffffffffffffffffffffffffffffff160217905550600190506200098f565b600090505b919050565b8060029080519060200190620009ac929190620009b0565b5050565b828054600181600116156101000203166002900490600052602060002090601f016020900481019282601f10620009f357805160ff191683800117855562000a24565b8280016001018555821562000a24579182015b8281111562000a2357825182559160200191906001019062000a06565b5b50905062000a33919062000a37565b5090565b62000a5c91905b8082111562000a5857600081600090555060010162000a3e565b5090565b90565b6129f48062000a6f6000396000f30060606040526004361061008e576000357c0100000000000000000000000000000000000000000000000000000000900463ffffffff16806318bdfdf41461009357806327dc297e1461009d57806338bbfa501461010757806366c7a1d6146101b457806386eb72ce146101be578063996e83d6146101c8578063cb300785146101d2578063de6e1da5146102ed575b600080fd5b61009b6102f7565b005b34156100a857600080fd5b61010560048080356000191690602001909190803590602001908201803590602001908080601f01602080910402602001604051908101604052809392919081815260200183838082843782019150505050505091905050610427565b005b341561011257600080fd5b6101b260048080356000191690602001909190803590602001908201803590602001908080601f0160208091040260200160405190810160405280939291908181526020018383808284378201915050505050509190803590602001908201803590602001908080601f01602080910402602001604051908101604052809392919081815260200183838082843782019150505050505091905050610508565b005b6101bc61050d565b005b6101c661063d565b005b6101d0610794565b005b6102eb600480803590602001908201803590602001908080601f0160208091040260200160405190810160405280939291908181526020018383808284378201915050505050509190803590602001908201803590602001908080601f0160208091040260200160405190810160405280939291908181526020018383808284378201915050505050509190803590602001908201803590602001908080601f0160208091040260200160405190810160405280939291908181526020018383808284378201915050505050509190803590602001908201803590602001908080601f01602080910402602001604051908101604052809392919081815260200183838082843782019150505050505091905050610911565b005b6102f5610b1c565b005b610425606060405190810160405280602e81526020017f516d644b4b333139566568613833683641596751716878395952734a394d4a4581526020017f377933336f4358795a344d7148450000000000000000000000000000000000008152506040805190810160405280600381526020017f50555400000000000000000000000000000000000000000000000000000000008152506040805190810160405280601b81526020017f687474703a2f2f6874747062696e2e6f72672f616e797468696e670000000000815250606060405190810160405280602181526020017f7b276a736f6e27203a207b2774657374696e67273a27697420776f726b73277d81526020017f7d00000000000000000000000000000000000000000000000000000000000000815250610911565b565b61042f610c4c565b73ffffffffffffffffffffffffffffffffffffffff163373ffffffffffffffffffffffffffffffffffffffff1614151561046857600080fd5b7fef4f2c0cbfaab152373f0c7ccb66d681c6e00bc747b9b029154733eecf52db1f816040518080602001828103825283818151815260200191508051906020019080838360005b838110156104ca5780820151818401526020810190506104af565b50505050905090810190601f1680156104f75780820380516001836020036101000a031916815260200191505b509250505060405180910390a15050565b505050565b61063b606060405190810160405280603c81526020017f6a736f6e28516d644b4b3331395665686138336836415967517168783959527381526020017f4a394d4a45377933336f4358795a344d714845292e68656164657273000000008152506040805190810160405280600381526020017f47455400000000000000000000000000000000000000000000000000000000008152506040805190810160405280601a81526020017f687474703a2f2f6874747062696e2e6f72672f68656164657273000000000000815250606060405190810160405280602581526020017f7b2768656164657273273a207b27636f6e74656e742d74797065273a20276a7381526020017f6f6e277d7d000000000000000000000000000000000000000000000000000000815250610911565b565b610792606060405190810160405280602e81526020017f516d644b4b333139566568613833683641596751716878395952734a394d4a4581526020017f377933336f4358795a344d7148450000000000000000000000000000000000008152506040805190810160405280600481526020017f504f535400000000000000000000000000000000000000000000000000000000815250606060405190810160405280602281526020017f68747470733a2f2f6170692e706f7374636f6465732e696f2f706f7374636f6481526020017f6573000000000000000000000000000000000000000000000000000000000000815250606060405190810160405280602681526020017f7b226a736f6e223a207b22706f7374636f64657322203a205b224f583439203581526020017f4e55225d7d7d0000000000000000000000000000000000000000000000000000815250610911565b565b61090f606060405190810160405280602e81526020017f516d644b4b333139566568613833683641596751716878395952734a394d4a4581526020017f377933336f4358795a344d7148450000000000000000000000000000000000008152506040805190810160405280600381526020017f4745540000000000000000000000000000000000000000000000000000000000815250606060405190810160405280602f81526020017f687474703a2f2f6874747062696e2e6f72672f62617369632d617574682f6d7981526020017f757365722f736563726574706173730000000000000000000000000000000000815250608060405190810160405280604681526020017f7b2761757468273a2028276d7975736572272c2773656372657470617373272981526020017f2c202768656164657273273a207b27636f6e74656e742d74797065273a20276a81526020017f736f6e277d7d0000000000000000000000000000000000000000000000000000815250610911565b565b3073ffffffffffffffffffffffffffffffffffffffff16316109676040805190810160405280600b81526020017f636f6d7075746174696f6e000000000000000000000000000000000000000000815250610f62565b1115610a26577f46cb989ef9cef13e930e3b7f286225a086e716a90d63e0b7da85d310a9db0c9a60405180806020018281038252604b8152602001807f4f7261636c697a6520717565727920776173204e4f542073656e742c20706c6581526020017f6173652061646420736f6d652045544820746f20636f76657220666f7220746881526020017f652071756572792066656500000000000000000000000000000000000000000081525060600191505060405180910390a1610b16565b7f46cb989ef9cef13e930e3b7f286225a086e716a90d63e0b7da85d310a9db0c9a6040518080602001828103825260368152602001807f4f7261636c697a65207175657279207761732073656e742c207374616e64696e81526020017f6720627920666f722074686520616e737765722e2e2e0000000000000000000081525060400191505060405180910390a1610b146040805190810160405280600b81526020017f636f6d7075746174696f6e000000000000000000000000000000000000000000815250608060405190810160405280878152602001868152602001858152602001848152506112ea565b505b50505050565b610c4a606060405190810160405280602e81526020017f516d644b4b333139566568613833683641596751716878395952734a394d4a4581526020017f377933336f4358795a344d7148450000000000000000000000000000000000008152506040805190810160405280600381526020017f47455400000000000000000000000000000000000000000000000000000000008152506040805190810160405280601a81526020017f687474703a2f2f6874747062696e2e6f72672f636f6f6b696573000000000000815250606060405190810160405280603d81526020017f7b27636f6f6b69657327203a207b2774686973636f6f6b6965273a2773686f7581526020017f6c6420626520736176656420616e642076697369626c65203a29277d7d000000815250610911565b565b6000806000809054906101000a900473ffffffffffffffffffffffffffffffffffffffff1673ffffffffffffffffffffffffffffffffffffffff161480610cbc57506000610cba6000809054906101000a900473ffffffffffffffffffffffffffffffffffffffff16611676565b145b15610ccd57610ccb6000611681565b505b6000809054906101000a900473ffffffffffffffffffffffffffffffffffffffff1673ffffffffffffffffffffffffffffffffffffffff166338cc48316000604051602001526040518163ffffffff167c0100000000000000000000000000000000000000000000000000000000028152600401602060405180830381600087803b1515610d5a57600080fd5b6102c65a03f11515610d6b57600080fd5b5050506040518051905073ffffffffffffffffffffffffffffffffffffffff16600160009054906101000a900473ffffffffffffffffffffffffffffffffffffffff1673ffffffffffffffffffffffffffffffffffffffff16141515610eb4576000809054906101000a900473ffffffffffffffffffffffffffffffffffffffff1673ffffffffffffffffffffffffffffffffffffffff166338cc48316000604051602001526040518163ffffffff167c0100000000000000000000000000000000000000000000000000000000028152600401602060405180830381600087803b1515610e5857600080fd5b6102c65a03f11515610e6957600080fd5b50505060405180519050600160006101000a81548173ffffffffffffffffffffffffffffffffffffffff021916908373ffffffffffffffffffffffffffffffffffffffff1602179055505b600160009054906101000a900473ffffffffffffffffffffffffffffffffffffffff1673ffffffffffffffffffffffffffffffffffffffff1663c281d19e6000604051602001526040518163ffffffff167c0100000000000000000000000000000000000000000000000000000000028152600401602060405180830381600087803b1515610f4257600080fd5b6102c65a03f11515610f5357600080fd5b50505060405180519050905090565b6000806000809054906101000a900473ffffffffffffffffffffffffffffffffffffffff1673ffffffffffffffffffffffffffffffffffffffff161480610fd257506000610fd06000809054906101000a900473ffffffffffffffffffffffffffffffffffffffff16611676565b145b15610fe357610fe16000611681565b505b6000809054906101000a900473ffffffffffffffffffffffffffffffffffffffff1673ffffffffffffffffffffffffffffffffffffffff166338cc48316000604051602001526040518163ffffffff167c0100000000000000000000000000000000000000000000000000000000028152600401602060405180830381600087803b151561107057600080fd5b6102c65a03f1151561108157600080fd5b5050506040518051905073ffffffffffffffffffffffffffffffffffffffff16600160009054906101000a900473ffffffffffffffffffffffffffffffffffffffff1673ffffffffffffffffffffffffffffffffffffffff161415156111ca576000809054906101000a900473ffffffffffffffffffffffffffffffffffffffff1673ffffffffffffffffffffffffffffffffffffffff166338cc48316000604051602001526040518163ffffffff167c0100000000000000000000000000000000000000000000000000000000028152600401602060405180830381600087803b151561116e57600080fd5b6102c65a03f1151561117f57600080fd5b50505060405180519050600160006101000a81548173ffffffffffffffffffffffffffffffffffffffff021916908373ffffffffffffffffffffffffffffffffffffffff1602179055505b600160009054906101000a900473ffffffffffffffffffffffffffffffffffffffff1673ffffffffffffffffffffffffffffffffffffffff1663524f3889836000604051602001526040518263ffffffff167c01000000000000000000000000000000000000000000000000000000000281526004018080602001828103825283818151815260200191508051906020019080838360005b8381101561127d578082015181840152602081019050611262565b50505050905090810190601f1680156112aa5780820380516001836020036101000a031916815260200191505b5092505050602060405180830381600087803b15156112c857600080fd5b6102c65a03f115156112d957600080fd5b505050604051805190509050919050565b60006112f461256d565b60008060009054906101000a900473ffffffffffffffffffffffffffffffffffffffff1673ffffffffffffffffffffffffffffffffffffffff161480611363575060006113616000809054906101000a900473ffffffffffffffffffffffffffffffffffffffff16611676565b145b15611374576113726000611681565b505b6000809054906101000a900473ffffffffffffffffffffffffffffffffffffffff1673ffffffffffffffffffffffffffffffffffffffff166338cc48316000604051602001526040518163ffffffff167c0100000000000000000000000000000000000000000000000000000000028152600401602060405180830381600087803b151561140157600080fd5b6102c65a03f1151561141257600080fd5b5050506040518051905073ffffffffffffffffffffffffffffffffffffffff16600160009054906101000a900473ffffffffffffffffffffffffffffffffffffffff1673ffffffffffffffffffffffffffffffffffffffff1614151561155b576000809054906101000a900473ffffffffffffffffffffffffffffffffffffffff1673ffffffffffffffffffffffffffffffffffffffff166338cc48316000604051602001526040518163ffffffff167c0100000000000000000000000000000000000000000000000000000000028152600401602060405180830381600087803b15156114ff57600080fd5b6102c65a03f1151561151057600080fd5b50505060405180519050600160006101000a81548173ffffffffffffffffffffffffffffffffffffffff021916908373ffffffffffffffffffffffffffffffffffffffff1602179055505b600460405180591061156a5750595b9080825280602002602001820160405280156115a057816020015b61158d612581565b8152602001906001900390816115855790505b5090508260006004811015156115b257fe5b60200201518160008151811015156115c657fe5b906020019060200201819052508260016004811015156115e257fe5b60200201518160018151811015156115f657fe5b9060200190602002018190525082600260048110151561161257fe5b602002015181600281518110151561162657fe5b9060200190602002018190525082600360048110151561164257fe5b602002015181600381518110151561165657fe5b9060200190602002018190525061166d8482611b12565b91505092915050565b6000813b9050919050565b6000806116a1731d3b2638a7cc9f2cb3d298a3da7a90b67e5506ed611676565b111561174257731d3b2638a7cc9f2cb3d298a3da7a90b67e5506ed6000806101000a81548173ffffffffffffffffffffffffffffffffffffffff021916908373ffffffffffffffffffffffffffffffffffffffff1602179055506117396040805190810160405280600b81526020017f6574685f6d61696e6e6574000000000000000000000000000000000000000000815250612068565b60019050611b0d565b600061176173c03a2615d5efaf5f49f60b7bb6583eaec212fdf1611676565b11156118025773c03a2615d5efaf5f49f60b7bb6583eaec212fdf16000806101000a81548173ffffffffffffffffffffffffffffffffffffffff021916908373ffffffffffffffffffffffffffffffffffffffff1602179055506117f96040805190810160405280600c81526020017f6574685f726f707374656e330000000000000000000000000000000000000000815250612068565b60019050611b0d565b600061182173b7a07bcf2ba2f2703b24c0691b5278999c59ac7e611676565b11156118c25773b7a07bcf2ba2f2703b24c0691b5278999c59ac7e6000806101000a81548173ffffffffffffffffffffffffffffffffffffffff021916908373ffffffffffffffffffffffffffffffffffffffff1602179055506118b96040805190810160405280600981526020017f6574685f6b6f76616e0000000000000000000000000000000000000000000000815250612068565b60019050611b0d565b60006118e173146500cfd35b22e4a392fe0adc06de1a1368ed48611676565b11156119825773146500cfd35b22e4a392fe0adc06de1a1368ed486000806101000a81548173ffffffffffffffffffffffffffffffffffffffff021916908373ffffffffffffffffffffffffffffffffffffffff1602179055506119796040805190810160405280600b81526020017f6574685f72696e6b656279000000000000000000000000000000000000000000815250612068565b60019050611b0d565b60006119a1736f485c8bf6fc43ea212e93bbf8ce046c7f1cb475611676565b1115611a0457736f485c8bf6fc43ea212e93bbf8ce046c7f1cb4756000806101000a81548173ffffffffffffffffffffffffffffffffffffffff021916908373ffffffffffffffffffffffffffffffffffffffff16021790555060019050611b0d565b6000611a237320e12a1f859b3feae5fb2a0a32c18f5a65555bbf611676565b1115611a86577320e12a1f859b3feae5fb2a0a32c18f5a65555bbf6000806101000a81548173ffffffffffffffffffffffffffffffffffffffff021916908373ffffffffffffffffffffffffffffffffffffffff16021790555060019050611b0d565b6000611aa57351efaf4c8b3c9afbd5ab9f4bbc82784ab6ef8faa611676565b1115611b08577351efaf4c8b3c9afbd5ab9f4bbc82784ab6ef8faa6000806101000a81548173ffffffffffffffffffffffffffffffffffffffff021916908373ffffffffffffffffffffffffffffffffffffffff16021790555060019050611b0d565b600090505b919050565b600080611b1d612595565b60008060009054906101000a900473ffffffffffffffffffffffffffffffffffffffff1673ffffffffffffffffffffffffffffffffffffffff161480611b8c57506000611b8a6000809054906101000a900473ffffffffffffffffffffffffffffffffffffffff16611676565b145b15611b9d57611b9b6000611681565b505b6000809054906101000a900473ffffffffffffffffffffffffffffffffffffffff1673ffffffffffffffffffffffffffffffffffffffff166338cc48316000604051602001526040518163ffffffff167c0100000000000000000000000000000000000000000000000000000000028152600401602060405180830381600087803b1515611c2a57600080fd5b6102c65a03f11515611c3b57600080fd5b5050506040518051905073ffffffffffffffffffffffffffffffffffffffff16600160009054906101000a900473ffffffffffffffffffffffffffffffffffffffff1673ffffffffffffffffffffffffffffffffffffffff16141515611d84576000809054906101000a900473ffffffffffffffffffffffffffffffffffffffff1673ffffffffffffffffffffffffffffffffffffffff166338cc48316000604051602001526040518163ffffffff167c0100000000000000000000000000000000000000000000000000000000028152600401602060405180830381600087803b1515611d2857600080fd5b6102c65a03f11515611d3957600080fd5b50505060405180519050600160006101000a81548173ffffffffffffffffffffffffffffffffffffffff021916908373ffffffffffffffffffffffffffffffffffffffff1602179055505b600160009054906101000a900473ffffffffffffffffffffffffffffffffffffffff1673ffffffffffffffffffffffffffffffffffffffff1663524f3889866000604051602001526040518263ffffffff167c01000000000000000000000000000000000000000000000000000000000281526004018080602001828103825283818151815260200191508051906020019080838360005b83811015611e37578082015181840152602081019050611e1c565b50505050905090810190601f168015611e645780820380516001836020036101000a031916815260200191505b5092505050602060405180830381600087803b1515611e8257600080fd5b6102c65a03f11515611e9357600080fd5b50505060405180519050915062030d403a02670de0b6b3a764000001821115611ec25760006001029250612060565b611ecb84612082565b9050600160009054906101000a900473ffffffffffffffffffffffffffffffffffffffff1673ffffffffffffffffffffffffffffffffffffffff166383eed3d583600088856000604051602001526040518563ffffffff167c0100000000000000000000000000000000000000000000000000000000028152600401808481526020018060200180602001838103835285818151815260200191508051906020019080838360005b83811015611f8e578082015181840152602081019050611f73565b50505050905090810190601f168015611fbb5780820380516001836020036101000a031916815260200191505b50838103825284818151815260200191508051906020019080838360005b83811015611ff4578082015181840152602081019050611fd9565b50505050905090810190601f1680156120215780820380516001836020036101000a031916815260200191505b50955050505050506020604051808303818588803b151561204157600080fd5b6125ee5a03f1151561205257600080fd5b505050506040518051905092505b505092915050565b806002908051906020019061207e9291906125a9565b5050565b61208a612595565b600080612095612629565b60008060006120a2612595565b60008060008b51995060009850896040518059106120bd5750595b9080825280602002602001820160405280156120f357816020015b6120e061263d565b8152602001906001900390816120d85790505b509750600096505b8987101561218c578b8781518110151561211157fe5b90602001906020020151888881518110151561212957fe5b906020019060200201819052506003601760018a8a81518110151561214a57fe5b90602001906020020151510381151561215f57fe5b04898981518110151561216e57fe5b906020019060200201515101018901985086806001019750506120fb565b6000955060808a019450600160ff1689019850886040518059106121ad5750595b9080825280601f01601f191660200182016040525093505b85600160ff16111561226f57847f0100000000000000000000000000000000000000000000000000000000000000028660018110151561220157fe5b1a7f010000000000000000000000000000000000000000000000000000000000000002848781518110151561223257fe5b9060200101907effffffffffffffffffffffffffffffffffffffffffffffffffffffffffffff1916908160001a90535085806001019650506121c5565b600096505b8987101561255b57605f7f01000000000000000000000000000000000000000000000000000000000000000284878151811015156122ae57fe5b9060200101907effffffffffffffffffffffffffffffffffffffffffffffffffffffffffffff1916908160001a9053508580600101965050600092505b87878151811015156122f957fe5b90602001906020020151518310156124e457600060178481151561231957fe5b06141561242157601883898981518110151561233157fe5b90602001906020020151510310156123635782888881518110151561235257fe5b906020019060200201515103612366565b60175b91506040820191508590505b808603600160ff16111561242057817f0100000000000000000000000000000000000000000000000000000000000000028187036001811015156123b257fe5b1a7f01000000000000000000000000000000000000000000000000000000000000000284878151811015156123e357fe5b9060200101907effffffffffffffffffffffffffffffffffffffffffffffffffffffffffffff1916908160001a9053508580600101965050612372565b5b878781518110151561242f57fe5b906020019060200201518381518110151561244657fe5b9060200101517f010000000000000000000000000000000000000000000000000000000000000090047f010000000000000000000000000000000000000000000000000000000000000002848781518110151561249f57fe5b9060200101907effffffffffffffffffffffffffffffffffffffffffffffffffffffffffffff1916908160001a905350858060010196505082806001019350506122eb565b60ff7f010000000000000000000000000000000000000000000000000000000000000002848781518110151561251657fe5b9060200101907effffffffffffffffffffffffffffffffffffffffffffffffffffffffffffff1916908160001a90535085806001019650508680600101975050612274565b839a5050505050505050505050919050565b602060405190810160405280600081525090565b602060405190810160405280600081525090565b602060405190810160405280600081525090565b828054600181600116156101000203166002900490600052602060002090601f016020900481019282601f106125ea57805160ff1916838001178555612618565b82800160010185558215612618579182015b828111156126175782518255916020019190600101906125fc565b5b5090506126259190612651565b5090565b602060405190810160405280600081525090565b602060405190810160405280600081525090565b61267391905b8082111561266f576000816000905550600101612657565b5090565b90565b60008060009054906101000a900473ffffffffffffffffffffffffffffffffffffffff1673ffffffffffffffffffffffffffffffffffffffff1614806126e5575060006126e36000809054906101000a900473ffffffffffffffffffffffffffffffffffffffff16611676565b145b156126f6576126f46000611681565b505b6000809054906101000a900473ffffffffffffffffffffffffffffffffffffffff1673ffffffffffffffffffffffffffffffffffffffff166338cc48316000604051602001526040518163ffffffff167c0100000000000000000000000000000000000000000000000000000000028152600401602060405180830381600087803b151561278357600080fd5b6102c65a03f1151561279457600080fd5b5050506040518051905073ffffffffffffffffffffffffffffffffffffffff16600160009054906101000a900473ffffffffffffffffffffffffffffffffffffffff1673ffffffffffffffffffffffffffffffffffffffff161415156128dd576000809054906101000a900473ffffffffffffffffffffffffffffffffffffffff1673ffffffffffffffffffffffffffffffffffffffff166338cc48316000604051602001526040518163ffffffff167c0100000000000000000000000000000000000000000000000000000000028152600401602060405180830381600087803b151561288157600080fd5b6102c65a03f1151561289257600080fd5b50505060405180519050600160006101000a81548173ffffffffffffffffffffffffffffffffffffffff021916908373ffffffffffffffffffffffffffffffffffffffff1602179055505b600160009054906101000a900473ffffffffffffffffffffffffffffffffffffffff1673ffffffffffffffffffffffffffffffffffffffff1663688dcfd7826040518263ffffffff167c010000000000000000000000000000000000000000000000000000000002815260040180827effffffffffffffffffffffffffffffffffffffffffffffffffffffffffffff19167effffffffffffffffffffffffffffffffffffffffffffffffffffffffffffff19168152602001915050600060405180830381600087803b15156129b157600080fd5b6102c65a03f115156129c257600080fd5b505050505600a165627a7a7230582008262056f7dd26b3be0aa9e4c63e77427aa4953697197b0dc1d9733752231d720029",
  "source": "/*\n    Utilizies computation datasource\n\n    Provides a fully featured HTTP library by way of the Python requests module,\n    allowing custom headers, auth etc... to be used as kwargs. Refer to\n    http://docs.python-requests.org/en/latest/api/ for full feature list\n*/\n\npragma solidity ^0.4.0;\n\nimport \"./usingOraclize.sol\";\n\ncontract UrlRequestsComputation is usingOraclize {\n\n    event newOraclizeQuery(string description);\n    event emitResult(string result);\n\n    function UrlRequestsComputation() payable {\n        oraclize_setProof(proofType_TLSNotary | proofStorage_IPFS);\n    }\n\n    function __callback(bytes32 myid, string result) {\n        if (msg.sender != oraclize_cbAddress()) throw;\n\n        emitResult(result);\n    }\n\n    function request(string _query, string _method, string _url, string _kwargs) payable {\n        if (oraclize_getPrice(\"computation\") > this.balance) {\n            newOraclizeQuery(\"Oraclize query was NOT sent, please add some ETH to cover for the query fee\");\n        } else {\n            newOraclizeQuery(\"Oraclize query was sent, standing by for the answer...\");\n\n            oraclize_query(\"computation\",\n                [_query,\n                _method,\n                _url,\n                _kwargs]\n            );\n        }\n    }\n\n    // sends a custom content-type in header and returns the header used as result\n    // wrap first arguement of computation ds with helper needed, such as json in this case\n    function requestCustomHeaders() payable {\n        request(\"json(QmdKK319Veha83h6AYgQqhx9YRsJ9MJE7y33oCXyZ4MqHE).headers\",\n                \"GET\",\n                \"http://httpbin.org/headers\",\n                \"{'headers': {'content-type': 'json'}}\"\n                );\n    }\n\n    function requestBasicAuth() payable {\n        request(\"QmdKK319Veha83h6AYgQqhx9YRsJ9MJE7y33oCXyZ4MqHE\",\n                \"GET\",\n                \"http://httpbin.org/basic-auth/myuser/secretpass\",\n                \"{'auth': ('myuser','secretpass'), 'headers': {'content-type': 'json'}}\"\n                );\n    }\n\n    function requestPost() payable {\n        request(\"QmdKK319Veha83h6AYgQqhx9YRsJ9MJE7y33oCXyZ4MqHE\",\n                \"POST\",\n                \"https://api.postcodes.io/postcodes\",\n                '{\"json\": {\"postcodes\" : [\"OX49 5NU\"]}}'\n                );\n    }\n\n    function requestPut() payable {\n        request(\"QmdKK319Veha83h6AYgQqhx9YRsJ9MJE7y33oCXyZ4MqHE\",\n                \"PUT\",\n                \"http://httpbin.org/anything\",\n                \"{'json' : {'testing':'it works'}}\"\n                );\n    }\n\n    function requestCookies() payable {\n        request(\"QmdKK319Veha83h6AYgQqhx9YRsJ9MJE7y33oCXyZ4MqHE\",\n                \"GET\",\n                \"http://httpbin.org/cookies\",\n                \"{'cookies' : {'thiscookie':'should be saved and visible :)'}}\"\n                );\n    }\n}",
  "sourcePath": "/Users/benandre/cropcrop/contracts/urlRequests.sol",
  "compiler": {
    "name": "solc",
    "version": "0.4.18+commit.9cf6e910.Emscripten.clang"
  },
  "schemaVersion": "1.0.1",
  "updatedAt": "2018-03-29T08:52:18.075Z"
}