{
  "contractName": "WeatherImmunityToken",
  "abi": [
    {
      "constant": false,
      "inputs": [
        {
          "name": "_to",
          "type": "address"
        },
        {
          "name": "_tokenId",
          "type": "uint256"
        }
      ],
      "name": "approve",
      "outputs": [],
      "payable": false,
      "stateMutability": "nonpayable",
      "type": "function"
    },
    {
      "constant": false,
      "inputs": [
        {
          "name": "fee",
          "type": "uint256"
        }
      ],
      "name": "setSystemFee",
      "outputs": [],
      "payable": false,
      "stateMutability": "nonpayable",
      "type": "function"
    },
    {
      "constant": true,
      "inputs": [
        {
          "name": "weiContributing",
          "type": "uint256"
        },
        {
          "name": "weiAsking",
          "type": "uint256"
        }
      ],
      "name": "calculateFee",
      "outputs": [
        {
          "name": "",
          "type": "uint256"
        }
      ],
      "payable": false,
      "stateMutability": "view",
      "type": "function"
    },
    {
      "constant": false,
      "inputs": [
        {
          "name": "weiContributing",
          "type": "uint256"
        },
        {
          "name": "weiAsking",
          "type": "uint256"
        },
        {
          "name": "aboveOrBelow",
          "type": "bool"
        },
        {
          "name": "evaluator",
          "type": "address"
        },
        {
          "name": "threshold",
          "type": "string"
        },
        {
          "name": "location",
          "type": "string"
        },
        {
          "name": "start",
          "type": "uint256"
        },
        {
          "name": "end",
          "type": "uint256"
        },
        {
          "name": "makeStale",
          "type": "bool"
        }
      ],
      "name": "createWITProposal",
      "outputs": [],
      "payable": true,
      "stateMutability": "payable",
      "type": "function"
    },
    {
      "constant": true,
      "inputs": [
        {
          "name": "tokenID",
          "type": "uint256"
        }
      ],
      "name": "ownerOf",
      "outputs": [
        {
          "name": "",
          "type": "address"
        }
      ],
      "payable": false,
      "stateMutability": "view",
      "type": "function"
    },
    {
      "constant": true,
      "inputs": [
        {
          "name": "owner",
          "type": "address"
        }
      ],
      "name": "balanceOf",
      "outputs": [
        {
          "name": "",
          "type": "uint256"
        }
      ],
      "payable": false,
      "stateMutability": "view",
      "type": "function"
    },
    {
      "constant": false,
      "inputs": [
        {
          "name": "tokenID",
          "type": "uint256"
        }
      ],
      "name": "cancelAndRedeem",
      "outputs": [],
      "payable": false,
      "stateMutability": "nonpayable",
      "type": "function"
    },
    {
      "constant": true,
      "inputs": [],
      "name": "owner",
      "outputs": [
        {
          "name": "",
          "type": "address"
        }
      ],
      "payable": false,
      "stateMutability": "view",
      "type": "function"
    },
    {
      "constant": false,
      "inputs": [
        {
          "name": "_to",
          "type": "address"
        },
        {
          "name": "_tokenId",
          "type": "uint256"
        }
      ],
      "name": "transfer",
      "outputs": [],
      "payable": false,
      "stateMutability": "nonpayable",
      "type": "function"
    },
    {
      "constant": false,
      "inputs": [
        {
          "name": "_tokenId",
          "type": "uint256"
        }
      ],
      "name": "takeOwnership",
      "outputs": [],
      "payable": false,
      "stateMutability": "nonpayable",
      "type": "function"
    },
    {
      "constant": false,
      "inputs": [
        {
          "name": "proposalID",
          "type": "uint256"
        }
      ],
      "name": "createWITAcceptance",
      "outputs": [],
      "payable": true,
      "stateMutability": "payable",
      "type": "function"
    },
    {
      "constant": false,
      "inputs": [
        {
          "name": "tokenID",
          "type": "uint256"
        },
        {
          "name": "runtimeParams",
          "type": "string"
        }
      ],
      "name": "evaluate",
      "outputs": [],
      "payable": false,
      "stateMutability": "nonpayable",
      "type": "function"
    },
    {
      "constant": true,
      "inputs": [],
      "name": "systemFeePPM",
      "outputs": [
        {
          "name": "",
          "type": "uint256"
        }
      ],
      "payable": false,
      "stateMutability": "view",
      "type": "function"
    },
    {
      "constant": false,
      "inputs": [
        {
          "name": "newOwner",
          "type": "address"
        }
      ],
      "name": "transferOwnership",
      "outputs": [],
      "payable": false,
      "stateMutability": "nonpayable",
      "type": "function"
    },
    {
      "inputs": [
        {
          "name": "_arbolAddress",
          "type": "address"
        },
        {
          "name": "storageAddress",
          "type": "address"
        }
      ],
      "payable": false,
      "stateMutability": "nonpayable",
      "type": "constructor"
    },
    {
      "anonymous": false,
      "inputs": [
        {
          "indexed": true,
          "name": "WITID",
          "type": "uint256"
        },
        {
          "indexed": false,
          "name": "amount",
          "type": "uint256"
        },
        {
          "indexed": true,
          "name": "user",
          "type": "address"
        }
      ],
      "name": "Redemption",
      "type": "event"
    },
    {
      "anonymous": false,
      "inputs": [
        {
          "indexed": true,
          "name": "WITID",
          "type": "uint256"
        },
        {
          "indexed": true,
          "name": "aboveID",
          "type": "uint256"
        },
        {
          "indexed": true,
          "name": "belowID",
          "type": "uint256"
        }
      ],
      "name": "ProposalAccepted",
      "type": "event"
    },
    {
      "anonymous": false,
      "inputs": [
        {
          "indexed": true,
          "name": "WITID",
          "type": "uint256"
        },
        {
          "indexed": false,
          "name": "aboveID",
          "type": "uint256"
        },
        {
          "indexed": false,
          "name": "belowID",
          "type": "uint256"
        },
        {
          "indexed": true,
          "name": "weiContributing",
          "type": "uint256"
        },
        {
          "indexed": true,
          "name": "weiAsking",
          "type": "uint256"
        },
        {
          "indexed": false,
          "name": "evaluator",
          "type": "address"
        },
        {
          "indexed": false,
          "name": "threshold",
          "type": "string"
        },
        {
          "indexed": false,
          "name": "location",
          "type": "string"
        },
        {
          "indexed": false,
          "name": "start",
          "type": "uint256"
        },
        {
          "indexed": false,
          "name": "end",
          "type": "uint256"
        },
        {
          "indexed": false,
          "name": "makeStale",
          "type": "bool"
        }
      ],
      "name": "ProposalOffered",
      "type": "event"
    },
    {
      "anonymous": false,
      "inputs": [
        {
          "indexed": false,
          "name": "WITID",
          "type": "uint256"
        },
        {
          "indexed": false,
          "name": "evaluationResult",
          "type": "bytes32"
        }
      ],
      "name": "EvaluatorResponse",
      "type": "event"
    },
    {
      "anonymous": false,
      "inputs": [
        {
          "indexed": true,
          "name": "_from",
          "type": "address"
        },
        {
          "indexed": true,
          "name": "_to",
          "type": "address"
        },
        {
          "indexed": false,
          "name": "_tokenId",
          "type": "uint256"
        }
      ],
      "name": "Transfer",
      "type": "event"
    },
    {
      "anonymous": false,
      "inputs": [
        {
          "indexed": true,
          "name": "_owner",
          "type": "address"
        },
        {
          "indexed": true,
          "name": "_approved",
          "type": "address"
        },
        {
          "indexed": false,
          "name": "_tokenId",
          "type": "uint256"
        }
      ],
      "name": "Approval",
      "type": "event"
    },
    {
      "anonymous": false,
      "inputs": [
        {
          "indexed": true,
          "name": "previousOwner",
          "type": "address"
        },
        {
          "indexed": true,
          "name": "newOwner",
          "type": "address"
        }
      ],
      "name": "OwnershipTransferred",
      "type": "event"
    }
  ],
  "bytecode": "0x6060604052735aeda56215b167893e80b4fe645ba6d5bab767de600360006101000a81548173ffffffffffffffffffffffffffffffffffffffff021916908373ffffffffffffffffffffffffffffffffffffffff16021790555034156200006557600080fd5b60405160408062004ac383398101604052808051906020019091908051906020019091905050600081336000806101000a81548173ffffffffffffffffffffffffffffffffffffffff021916908373ffffffffffffffffffffffffffffffffffffffff16021790555080600160006101000a81548173ffffffffffffffffffffffffffffffffffffffff021916908373ffffffffffffffffffffffffffffffffffffffff1602179055505082600260006101000a81548173ffffffffffffffffffffffffffffffffffffffff021916908373ffffffffffffffffffffffffffffffffffffffff16021790555081600460006101000a81548173ffffffffffffffffffffffffffffffffffffffff021916908373ffffffffffffffffffffffffffffffffffffffff160217905550620f42409050600460009054906101000a900473ffffffffffffffffffffffffffffffffffffffff1673ffffffffffffffffffffffffffffffffffffffff16633562fd2060405180807f5749544944436f756e7465720000000000000000000000000000000000000000815250600c019050604051809103902060016040518363ffffffff167c010000000000000000000000000000000000000000000000000000000002815260040180836000191660001916815260200182815260200192505050600060405180830381600087803b15156200026f57600080fd5b6102c65a03f115156200028157600080fd5b50505050505061482c80620002976000396000f3006060604052600436106100d0576000357c0100000000000000000000000000000000000000000000000000000000900463ffffffff168063095ea7b3146100d557806314b0452b1461011757806334e731221461013a57806338492e061461017a5780636352211e1461026857806370a08231146102cb578063741d215b146103185780638da5cb5b1461033b578063a9059cbb14610390578063b2e6ceeb146103d2578063c931313c146103f5578063dd81afdd1461040d578063e2fc400714610473578063f2fde38b1461049c575b600080fd5b34156100e057600080fd5b610115600480803573ffffffffffffffffffffffffffffffffffffffff169060200190919080359060200190919050506104d5565b005b341561012257600080fd5b6101386004808035906020019091905050610620565b005b341561014557600080fd5b6101646004808035906020019091908035906020019091905050610695565b6040518082815260200191505060405180910390f35b6102666004808035906020019091908035906020019091908035151590602001909190803573ffffffffffffffffffffffffffffffffffffffff1690602001909190803590602001908201803590602001908080601f0160208091040260200160405190810160405280939291908181526020018383808284378201915050505050509190803590602001908201803590602001908080601f01602080910402602001604051908101604052809392919081815260200183838082843782019150505050505091908035906020019091908035906020019091908035151590602001909190505061073e565b005b341561027357600080fd5b6102896004808035906020019091905050610e86565b604051808273ffffffffffffffffffffffffffffffffffffffff1673ffffffffffffffffffffffffffffffffffffffff16815260200191505060405180910390f35b34156102d657600080fd5b610302600480803573ffffffffffffffffffffffffffffffffffffffff16906020019091905050610fc9565b6040518082815260200191505060405180910390f35b341561032357600080fd5b6103396004808035906020019091905050611106565b005b341561034657600080fd5b61034e61128a565b604051808273ffffffffffffffffffffffffffffffffffffffff1673ffffffffffffffffffffffffffffffffffffffff16815260200191505060405180910390f35b341561039b57600080fd5b6103d0600480803573ffffffffffffffffffffffffffffffffffffffff169060200190919080359060200190919050506112af565b005b34156103dd57600080fd5b6103f36004808035906020019091905050611302565b005b61040b600480803590602001909190505061132d565b005b341561041857600080fd5b610471600480803590602001909190803590602001908201803590602001908080601f01602080910402602001604051908101604052809392919081815260200183838082843782019150505050505091905050611992565b005b341561047e57600080fd5b610486611e30565b6040518082815260200191505060405180910390f35b34156104a757600080fd5b6104d3600480803573ffffffffffffffffffffffffffffffffffffffff16906020019091905050611e36565b005b6000813373ffffffffffffffffffffffffffffffffffffffff166104f882610e86565b73ffffffffffffffffffffffffffffffffffffffff1614151561051a57600080fd5b61052383610e86565b91508173ffffffffffffffffffffffffffffffffffffffff168473ffffffffffffffffffffffffffffffffffffffff161415151561056057600080fd5b600061056b84611f8b565b73ffffffffffffffffffffffffffffffffffffffff161415806105a5575060008473ffffffffffffffffffffffffffffffffffffffff1614155b1561061a576105b4838561208d565b8373ffffffffffffffffffffffffffffffffffffffff168273ffffffffffffffffffffffffffffffffffffffff167f8c5be1e5ebec7d5bd14f71427d1e84f3dd0314c0f7b2291e5b200ac8c7c3b925856040518082815260200191505060405180910390a35b50505050565b6000809054906101000a900473ffffffffffffffffffffffffffffffffffffffff1673ffffffffffffffffffffffffffffffffffffffff163373ffffffffffffffffffffffffffffffffffffffff1614151561067b57600080fd5b8060001115151561068b57600080fd5b8060058190555050565b6000806106ab83856121ae90919063ffffffff16565b9050828411156106e6576106df620f42406106d1600554846121cc90919063ffffffff16565b61220790919063ffffffff16565b9150610737565b828410156106f75760009150610737565b6107346002610726620f4240610718600554866121cc90919063ffffffff16565b61220790919063ffffffff16565b61220790919063ffffffff16565b91505b5092915050565b600080610749614787565b60008c11151561075857600080fd5b60008b11151561076757600080fd5b61077a8c8c6121ae90919063ffffffff16565b50854210151561078957600080fd5b848610151561079757600080fd5b8b341415156107a557600080fd5b6107af8c8c610695565b925060008314151561090557600260009054906101000a900473ffffffffffffffffffffffffffffffffffffffff1673ffffffffffffffffffffffffffffffffffffffff166323b872dd33600360009054906101000a900473ffffffffffffffffffffffffffffffffffffffff16866000604051602001526040518463ffffffff167c0100000000000000000000000000000000000000000000000000000000028152600401808473ffffffffffffffffffffffffffffffffffffffff1673ffffffffffffffffffffffffffffffffffffffff1681526020018373ffffffffffffffffffffffffffffffffffffffff1673ffffffffffffffffffffffffffffffffffffffff1681526020018281526020019350505050602060405180830381600087803b15156108de57600080fd5b6102c65a03f115156108ef57600080fd5b50505060405180519050151561090457600080fd5b5b61090d612222565b9150610919338361231a565b8915610bc557610160604051908101604052808381526020018d81526020018c8152602001838152602001600081526020018a73ffffffffffffffffffffffffffffffffffffffff168152602001896040518082805190602001908083835b60208310151561099d5780518252602082019150602081019050602083039250610978565b6001836020036101000a0380198251168184511680821785525050505050509050019150506040518091039020600019168152602001886040518082805190602001908083835b602083101515610a0957805182526020820191506020810190506020830392506109e4565b6001836020036101000a038019825116818451168082178552505050505050905001915050604051809103902060001916815260200187815260200186815260200185151581525090508a8c837f95465cf22bd406d2ce19e69c90c72d79fa2c6aa9a1e45a3fe8b9df8e0b0c285e8560008e8e8e8e8e8e604051808981526020018881526020018773ffffffffffffffffffffffffffffffffffffffff1673ffffffffffffffffffffffffffffffffffffffff168152602001806020018060200186815260200185815260200184151515158152602001838103835288818151815260200191508051906020019080838360005b83811015610b18578082015181840152602081019050610afd565b50505050905090810190601f168015610b455780820380516001836020036101000a031916815260200191505b50838103825287818151815260200191508051906020019080838360005b83811015610b7e578082015181840152602081019050610b63565b50505050905090810190601f168015610bab5780820380516001836020036101000a031916815260200191505b509a505050505050505050505060405180910390a4610e67565b610160604051908101604052808381526020018c81526020018d8152602001600081526020018381526020018a73ffffffffffffffffffffffffffffffffffffffff168152602001896040518082805190602001908083835b602083101515610c435780518252602082019150602081019050602083039250610c1e565b6001836020036101000a0380198251168184511680821785525050505050509050019150506040518091039020600019168152602001886040518082805190602001908083835b602083101515610caf5780518252602082019150602081019050602083039250610c8a565b6001836020036101000a038019825116818451168082178552505050505050905001915050604051809103902060001916815260200187815260200186815260200185151581525090508a8c837f95465cf22bd406d2ce19e69c90c72d79fa2c6aa9a1e45a3fe8b9df8e0b0c285e6000868e8e8e8e8e8e604051808981526020018881526020018773ffffffffffffffffffffffffffffffffffffffff1673ffffffffffffffffffffffffffffffffffffffff168152602001806020018060200186815260200185815260200184151515158152602001838103835288818151815260200191508051906020019080838360005b83811015610dbe578082015181840152602081019050610da3565b50505050905090810190601f168015610deb5780820380516001836020036101000a031916815260200191505b50838103825287818151815260200191508051906020019080838360005b83811015610e24578082015181840152602081019050610e09565b50505050905090810190601f168015610e515780820380516001836020036101000a031916815260200191505b509a505050505050505050505060405180910390a45b610e70816123b4565b610e78612f44565b505050505050505050505050565b600080600160009054906101000a900473ffffffffffffffffffffffffffffffffffffffff1673ffffffffffffffffffffffffffffffffffffffff16634c77e5ba8460405180807f4f776e65724f660000000000000000000000000000000000000000000000000081525060070182815260200191505060405180910390206000604051602001526040518263ffffffff167c0100000000000000000000000000000000000000000000000000000000028152600401808260001916600019168152602001915050602060405180830381600087803b1515610f6757600080fd5b6102c65a03f11515610f7857600080fd5b505050604051805190509050600073ffffffffffffffffffffffffffffffffffffffff168173ffffffffffffffffffffffffffffffffffffffff1614151515610fc057600080fd5b80915050919050565b6000600160009054906101000a900473ffffffffffffffffffffffffffffffffffffffff1673ffffffffffffffffffffffffffffffffffffffff1663bdc963d88360405180807f42616c616e63654f6600000000000000000000000000000000000000000000008152506009018273ffffffffffffffffffffffffffffffffffffffff1673ffffffffffffffffffffffffffffffffffffffff166c0100000000000000000000000002815260140191505060405180910390206000604051602001526040518263ffffffff167c0100000000000000000000000000000000000000000000000000000000028152600401808260001916600019168152602001915050602060405180830381600087803b15156110e457600080fd5b6102c65a03f115156110f557600080fd5b505050604051805190509050919050565b61110e614787565b600082611119614787565b60008061112584613049565b92503373ffffffffffffffffffffffffffffffffffffffff1661114b8460600151610e86565b73ffffffffffffffffffffffffffffffffffffffff161491503373ffffffffffffffffffffffffffffffffffffffff166111888460800151610e86565b73ffffffffffffffffffffffffffffffffffffffff1614905081806111aa5750805b15156111b557600080fd5b6111be87613049565b9550856040015194506000866060015114806111de575060008660800151145b15156111e957600080fd5b6111f287613c3c565b3373ffffffffffffffffffffffffffffffffffffffff166108fc869081150290604051600060405180830381858888f19350505050151561123257600080fd5b3373ffffffffffffffffffffffffffffffffffffffff16877f79af0603d6af952354516f9583d1640b4e036431911d556b8fd682f83ff43aaf876040518082815260200191505060405180910390a350505050505050565b6000809054906101000a900473ffffffffffffffffffffffffffffffffffffffff1681565b803373ffffffffffffffffffffffffffffffffffffffff166112d082610e86565b73ffffffffffffffffffffffffffffffffffffffff161415156112f257600080fd5b6112fd338484613d93565b505050565b61130c3382613edc565b151561131757600080fd5b61132a61132382610e86565b3383613d93565b50565b611335614787565b600080600073ffffffffffffffffffffffffffffffffffffffff1661135985610e86565b73ffffffffffffffffffffffffffffffffffffffff161415151561137c57600080fd5b61138584613049565b925061139f600184600001516121ae90919063ffffffff16565b9150826101400151156113c057826101000151421015156113bf57600080fd5b5b6000836060015114156116a0578260200151341415156113df57600080fd5b6113f183602001518460400151610695565b905060008114151561154757600260009054906101000a900473ffffffffffffffffffffffffffffffffffffffff1673ffffffffffffffffffffffffffffffffffffffff166323b872dd33600360009054906101000a900473ffffffffffffffffffffffffffffffffffffffff16846000604051602001526040518463ffffffff167c0100000000000000000000000000000000000000000000000000000000028152600401808473ffffffffffffffffffffffffffffffffffffffff1673ffffffffffffffffffffffffffffffffffffffff1681526020018373ffffffffffffffffffffffffffffffffffffffff1673ffffffffffffffffffffffffffffffffffffffff1681526020018281526020019350505050602060405180830381600087803b151561152057600080fd5b6102c65a03f1151561153157600080fd5b50505060405180519050151561154657600080fd5b5b600460009054906101000a900473ffffffffffffffffffffffffffffffffffffffff1673ffffffffffffffffffffffffffffffffffffffff16633562fd20846000015160405180807f5749540000000000000000000000000000000000000000000000000000000000815250600301828152602001807f61626f76654944000000000000000000000000000000000000000000000000008152506007019150506040518091039020846040518363ffffffff167c010000000000000000000000000000000000000000000000000000000002815260040180836000191660001916815260200182815260200192505050600060405180830381600087803b151561165057600080fd5b6102c65a03f1151561166157600080fd5b50505082600001518284600001517f4e26d2058422e671478446da4522b7c1527f240c0b68519a064219769b062dce60405160405180910390a4611982565b600083608001511415156116b357600080fd5b8260400151341415156116c557600080fd5b6116d783604001518460200151610695565b905060008114151561182d57600260009054906101000a900473ffffffffffffffffffffffffffffffffffffffff1673ffffffffffffffffffffffffffffffffffffffff166323b872dd33600360009054906101000a900473ffffffffffffffffffffffffffffffffffffffff16846000604051602001526040518463ffffffff167c0100000000000000000000000000000000000000000000000000000000028152600401808473ffffffffffffffffffffffffffffffffffffffff1673ffffffffffffffffffffffffffffffffffffffff1681526020018373ffffffffffffffffffffffffffffffffffffffff1673ffffffffffffffffffffffffffffffffffffffff1681526020018281526020019350505050602060405180830381600087803b151561180657600080fd5b6102c65a03f1151561181757600080fd5b50505060405180519050151561182c57600080fd5b5b600460009054906101000a900473ffffffffffffffffffffffffffffffffffffffff1673ffffffffffffffffffffffffffffffffffffffff16633562fd20846000015160405180807f5749540000000000000000000000000000000000000000000000000000000000815250600301828152602001807f62656c6f774944000000000000000000000000000000000000000000000000008152506007019150506040518091039020846040518363ffffffff167c010000000000000000000000000000000000000000000000000000000002815260040180836000191660001916815260200182815260200192505050600060405180830381600087803b151561193657600080fd5b6102c65a03f1151561194757600080fd5b50505081836000015184600001517f4e26d2058422e671478446da4522b7c1527f240c0b68519a064219769b062dce60405160405180910390a45b61198c338361231a565b50505050565b61199a614787565b6000806000856119a8614787565b6000806119b484613049565b92503373ffffffffffffffffffffffffffffffffffffffff166119da8460600151610e86565b73ffffffffffffffffffffffffffffffffffffffff161491503373ffffffffffffffffffffffffffffffffffffffff16611a178460800151610e86565b73ffffffffffffffffffffffffffffffffffffffff161490508180611a395750805b1515611a4457600080fd5b611a4d8a613049565b975042886101200151101515611a6257600080fd5b6000886060015114151515611a7657600080fd5b6000886080015114151515611a8a57600080fd5b8760a0015196508673ffffffffffffffffffffffffffffffffffffffff1663fc8bbb538b8b8b61010001518c61012001518d60c001518e60e001516000604051602001526040518763ffffffff167c0100000000000000000000000000000000000000000000000000000000028152600401808781526020018060200186815260200185815260200184600019166000191681526020018360001916600019168152602001828103825287818151815260200191508051906020019080838360005b83811015611b67578082015181840152602081019050611b4c565b50505050905090810190601f168015611b945780820380516001836020036101000a031916815260200191505b50975050505050505050602060405180830381600087803b1515611bb757600080fd5b6102c65a03f11515611bc857600080fd5b5050506040518051905095507f1e122d1ab1d8bb9f390f2ca6523e6e09a57f96887bc3ed6859b2b4f90eb2fdb58a876040518083815260200182600019166000191681526020019250505060405180910390a1611c36886040015189602001516121ae90919063ffffffff16565b945060405180807f61626f7665000000000000000000000000000000000000000000000000000000815250600501905060405180910390206000191686600019161415611d2e57611c868a613c3c565b611c938860600151610e86565b73ffffffffffffffffffffffffffffffffffffffff168a7f79af0603d6af952354516f9583d1640b4e036431911d556b8fd682f83ff43aaf876040518082815260200191505060405180910390a3611cee8860600151610e86565b73ffffffffffffffffffffffffffffffffffffffff166108fc869081150290604051600060405180830381858888f193505050501515611d2d57600080fd5b5b60405180807f62656c6f77000000000000000000000000000000000000000000000000000000815250600501905060405180910390206000191686600019161415611e2457611d7c8a613c3c565b611d898860800151610e86565b73ffffffffffffffffffffffffffffffffffffffff168a7f79af0603d6af952354516f9583d1640b4e036431911d556b8fd682f83ff43aaf876040518082815260200191505060405180910390a3611de48860800151610e86565b73ffffffffffffffffffffffffffffffffffffffff166108fc869081150290604051600060405180830381858888f193505050501515611e2357600080fd5b5b50505050505050505050565b60055481565b6000809054906101000a900473ffffffffffffffffffffffffffffffffffffffff1673ffffffffffffffffffffffffffffffffffffffff163373ffffffffffffffffffffffffffffffffffffffff16141515611e9157600080fd5b600073ffffffffffffffffffffffffffffffffffffffff168173ffffffffffffffffffffffffffffffffffffffff1614151515611ecd57600080fd5b8073ffffffffffffffffffffffffffffffffffffffff166000809054906101000a900473ffffffffffffffffffffffffffffffffffffffff1673ffffffffffffffffffffffffffffffffffffffff167f8be0079c531659141344cd1fd0a4f28419497f9722a3daafe3b4186f6b6457e060405160405180910390a3806000806101000a81548173ffffffffffffffffffffffffffffffffffffffff021916908373ffffffffffffffffffffffffffffffffffffffff16021790555050565b6000600160009054906101000a900473ffffffffffffffffffffffffffffffffffffffff1673ffffffffffffffffffffffffffffffffffffffff16634c77e5ba8360405180807f417070726f766564466f72000000000000000000000000000000000000000000815250600b0182815260200191505060405180910390206000604051602001526040518263ffffffff167c0100000000000000000000000000000000000000000000000000000000028152600401808260001916600019168152602001915050602060405180830381600087803b151561206b57600080fd5b6102c65a03f1151561207c57600080fd5b505050604051805190509050919050565b600160009054906101000a900473ffffffffffffffffffffffffffffffffffffffff1673ffffffffffffffffffffffffffffffffffffffff16635a2bf25a8360405180807f417070726f766564466f72000000000000000000000000000000000000000000815250600b018281526020019150506040518091039020836040518363ffffffff167c01000000000000000000000000000000000000000000000000000000000281526004018083600019166000191681526020018273ffffffffffffffffffffffffffffffffffffffff1673ffffffffffffffffffffffffffffffffffffffff16815260200192505050600060405180830381600087803b151561219657600080fd5b6102c65a03f115156121a757600080fd5b5050505050565b60008082840190508381101515156121c257fe5b8091505092915050565b60008060008414156121e15760009150612200565b82840290508284828115156121f257fe5b041415156121fc57fe5b8091505b5092915050565b600080828481151561221557fe5b0490508091505092915050565b6000600460009054906101000a900473ffffffffffffffffffffffffffffffffffffffff1673ffffffffffffffffffffffffffffffffffffffff1663bdc963d860405180807f5749544944436f756e7465720000000000000000000000000000000000000000815250600c01905060405180910390206000604051602001526040518263ffffffff167c0100000000000000000000000000000000000000000000000000000000028152600401808260001916600019168152602001915050602060405180830381600087803b15156122fa57600080fd5b6102c65a03f1151561230b57600080fd5b50505060405180519050905090565b600073ffffffffffffffffffffffffffffffffffffffff168273ffffffffffffffffffffffffffffffffffffffff161415151561235657600080fd5b6123608282613f1d565b8173ffffffffffffffffffffffffffffffffffffffff1660007fddf252ad1be2c89b69c2b068fc378daa952ba7f163c4a11628f55a4df523b3ef836040518082815260200191505060405180910390a35050565b600460009054906101000a900473ffffffffffffffffffffffffffffffffffffffff1673ffffffffffffffffffffffffffffffffffffffff16633562fd20826000015160405180807f5749540000000000000000000000000000000000000000000000000000000000815250600301828152602001807f61626f7665457363726f77000000000000000000000000000000000000000000815250600b01915050604051809103902083602001516040518363ffffffff167c010000000000000000000000000000000000000000000000000000000002815260040180836000191660001916815260200182815260200192505050600060405180830381600087803b15156124c157600080fd5b6102c65a03f115156124d257600080fd5b505050600460009054906101000a900473ffffffffffffffffffffffffffffffffffffffff1673ffffffffffffffffffffffffffffffffffffffff16633562fd20826000015160405180807f5749540000000000000000000000000000000000000000000000000000000000815250600301828152602001807f62656c6f77457363726f77000000000000000000000000000000000000000000815250600b01915050604051809103902083604001516040518363ffffffff167c010000000000000000000000000000000000000000000000000000000002815260040180836000191660001916815260200182815260200192505050600060405180830381600087803b15156125e257600080fd5b6102c65a03f115156125f357600080fd5b505050600460009054906101000a900473ffffffffffffffffffffffffffffffffffffffff1673ffffffffffffffffffffffffffffffffffffffff16633562fd20826000015160405180807f5749540000000000000000000000000000000000000000000000000000000000815250600301828152602001807f61626f7665494400000000000000000000000000000000000000000000000000815250600701915050604051809103902083606001516040518363ffffffff167c010000000000000000000000000000000000000000000000000000000002815260040180836000191660001916815260200182815260200192505050600060405180830381600087803b151561270357600080fd5b6102c65a03f1151561271457600080fd5b505050600460009054906101000a900473ffffffffffffffffffffffffffffffffffffffff1673ffffffffffffffffffffffffffffffffffffffff16633562fd20826000015160405180807f5749540000000000000000000000000000000000000000000000000000000000815250600301828152602001807f62656c6f77494400000000000000000000000000000000000000000000000000815250600701915050604051809103902083608001516040518363ffffffff167c010000000000000000000000000000000000000000000000000000000002815260040180836000191660001916815260200182815260200192505050600060405180830381600087803b151561282457600080fd5b6102c65a03f1151561283557600080fd5b505050600460009054906101000a900473ffffffffffffffffffffffffffffffffffffffff1673ffffffffffffffffffffffffffffffffffffffff16635a2bf25a826000015160405180807f5749540000000000000000000000000000000000000000000000000000000000815250600301828152602001807f6576616c7561746f72000000000000000000000000000000000000000000000081525060090191505060405180910390208360a001516040518363ffffffff167c01000000000000000000000000000000000000000000000000000000000281526004018083600019166000191681526020018273ffffffffffffffffffffffffffffffffffffffff1673ffffffffffffffffffffffffffffffffffffffff16815260200192505050600060405180830381600087803b151561297157600080fd5b6102c65a03f1151561298257600080fd5b505050600460009054906101000a900473ffffffffffffffffffffffffffffffffffffffff1673ffffffffffffffffffffffffffffffffffffffff166325cf512d826000015160405180807f5749540000000000000000000000000000000000000000000000000000000000815250600301828152602001807f7468726573686f6c64000000000000000000000000000000000000000000000081525060090191505060405180910390208360c001516040518363ffffffff167c0100000000000000000000000000000000000000000000000000000000028152600401808360001916600019168152602001826000191660001916815260200192505050600060405180830381600087803b1515612a9a57600080fd5b6102c65a03f11515612aab57600080fd5b505050600460009054906101000a900473ffffffffffffffffffffffffffffffffffffffff1673ffffffffffffffffffffffffffffffffffffffff166325cf512d826000015160405180807f5749540000000000000000000000000000000000000000000000000000000000815250600301828152602001807f6c6f636174696f6e00000000000000000000000000000000000000000000000081525060080191505060405180910390208360e001516040518363ffffffff167c0100000000000000000000000000000000000000000000000000000000028152600401808360001916600019168152602001826000191660001916815260200192505050600060405180830381600087803b1515612bc357600080fd5b6102c65a03f11515612bd457600080fd5b505050600460009054906101000a900473ffffffffffffffffffffffffffffffffffffffff1673ffffffffffffffffffffffffffffffffffffffff16633562fd20826000015160405180807f5749540000000000000000000000000000000000000000000000000000000000815250600301828152602001807f737461727400000000000000000000000000000000000000000000000000000081525060050191505060405180910390208361010001516040518363ffffffff167c010000000000000000000000000000000000000000000000000000000002815260040180836000191660001916815260200182815260200192505050600060405180830381600087803b1515612ce557600080fd5b6102c65a03f11515612cf657600080fd5b505050600460009054906101000a900473ffffffffffffffffffffffffffffffffffffffff1673ffffffffffffffffffffffffffffffffffffffff16633562fd20826000015160405180807f5749540000000000000000000000000000000000000000000000000000000000815250600301828152602001807f656e64000000000000000000000000000000000000000000000000000000000081525060030191505060405180910390208361012001516040518363ffffffff167c010000000000000000000000000000000000000000000000000000000002815260040180836000191660001916815260200182815260200192505050600060405180830381600087803b1515612e0757600080fd5b6102c65a03f11515612e1857600080fd5b505050600460009054906101000a900473ffffffffffffffffffffffffffffffffffffffff1673ffffffffffffffffffffffffffffffffffffffff16633eba9ed2826000015160405180807f5749540000000000000000000000000000000000000000000000000000000000815250600301828152602001807f6d616b655374616c65000000000000000000000000000000000000000000000081525060090191505060405180910390208361014001516040518363ffffffff167c01000000000000000000000000000000000000000000000000000000000281526004018083600019166000191681526020018215151515815260200192505050600060405180830381600087803b1515612f2d57600080fd5b6102c65a03f11515612f3e57600080fd5b50505050565b600460009054906101000a900473ffffffffffffffffffffffffffffffffffffffff1673ffffffffffffffffffffffffffffffffffffffff16633562fd2060405180807f5749544944436f756e7465720000000000000000000000000000000000000000815250600c0190506040518091039020612fd36002612fc5612222565b6121ae90919063ffffffff16565b6040518363ffffffff167c010000000000000000000000000000000000000000000000000000000002815260040180836000191660001916815260200182815260200192505050600060405180830381600087803b151561303357600080fd5b6102c65a03f1151561304457600080fd5b505050565b613051614787565b600080600080600080600080600080600460009054906101000a900473ffffffffffffffffffffffffffffffffffffffff1673ffffffffffffffffffffffffffffffffffffffff1663bdc963d88d60405180807f5749540000000000000000000000000000000000000000000000000000000000815250600301828152602001807f61626f7665457363726f77000000000000000000000000000000000000000000815250600b0191505060405180910390206000604051602001526040518263ffffffff167c0100000000000000000000000000000000000000000000000000000000028152600401808260001916600019168152602001915050602060405180830381600087803b151561316657600080fd5b6102c65a03f1151561317757600080fd5b505050604051805190509950600460009054906101000a900473ffffffffffffffffffffffffffffffffffffffff1673ffffffffffffffffffffffffffffffffffffffff1663bdc963d88d60405180807f5749540000000000000000000000000000000000000000000000000000000000815250600301828152602001807f62656c6f77457363726f77000000000000000000000000000000000000000000815250600b0191505060405180910390206000604051602001526040518263ffffffff167c0100000000000000000000000000000000000000000000000000000000028152600401808260001916600019168152602001915050602060405180830381600087803b151561328957600080fd5b6102c65a03f1151561329a57600080fd5b505050604051805190509850600460009054906101000a900473ffffffffffffffffffffffffffffffffffffffff1673ffffffffffffffffffffffffffffffffffffffff1663bdc963d88d60405180807f5749540000000000000000000000000000000000000000000000000000000000815250600301828152602001807f61626f766549440000000000000000000000000000000000000000000000000081525060070191505060405180910390206000604051602001526040518263ffffffff167c0100000000000000000000000000000000000000000000000000000000028152600401808260001916600019168152602001915050602060405180830381600087803b15156133ac57600080fd5b6102c65a03f115156133bd57600080fd5b505050604051805190509750600460009054906101000a900473ffffffffffffffffffffffffffffffffffffffff1673ffffffffffffffffffffffffffffffffffffffff1663bdc963d88d60405180807f5749540000000000000000000000000000000000000000000000000000000000815250600301828152602001807f62656c6f7749440000000000000000000000000000000000000000000000000081525060070191505060405180910390206000604051602001526040518263ffffffff167c0100000000000000000000000000000000000000000000000000000000028152600401808260001916600019168152602001915050602060405180830381600087803b15156134cf57600080fd5b6102c65a03f115156134e057600080fd5b505050604051805190509650600460009054906101000a900473ffffffffffffffffffffffffffffffffffffffff1673ffffffffffffffffffffffffffffffffffffffff16634c77e5ba8d60405180807f5749540000000000000000000000000000000000000000000000000000000000815250600301828152602001807f6576616c7561746f72000000000000000000000000000000000000000000000081525060090191505060405180910390206000604051602001526040518263ffffffff167c0100000000000000000000000000000000000000000000000000000000028152600401808260001916600019168152602001915050602060405180830381600087803b15156135f257600080fd5b6102c65a03f1151561360357600080fd5b505050604051805190509550600460009054906101000a900473ffffffffffffffffffffffffffffffffffffffff1673ffffffffffffffffffffffffffffffffffffffff1663025ec81a8d60405180807f5749540000000000000000000000000000000000000000000000000000000000815250600301828152602001807f7468726573686f6c64000000000000000000000000000000000000000000000081525060090191505060405180910390206000604051602001526040518263ffffffff167c0100000000000000000000000000000000000000000000000000000000028152600401808260001916600019168152602001915050602060405180830381600087803b151561371557600080fd5b6102c65a03f1151561372657600080fd5b505050604051805190509450600460009054906101000a900473ffffffffffffffffffffffffffffffffffffffff1673ffffffffffffffffffffffffffffffffffffffff1663025ec81a8d60405180807f5749540000000000000000000000000000000000000000000000000000000000815250600301828152602001807f6c6f636174696f6e00000000000000000000000000000000000000000000000081525060080191505060405180910390206000604051602001526040518263ffffffff167c0100000000000000000000000000000000000000000000000000000000028152600401808260001916600019168152602001915050602060405180830381600087803b151561383857600080fd5b6102c65a03f1151561384957600080fd5b505050604051805190509350600460009054906101000a900473ffffffffffffffffffffffffffffffffffffffff1673ffffffffffffffffffffffffffffffffffffffff1663bdc963d88d60405180807f5749540000000000000000000000000000000000000000000000000000000000815250600301828152602001807f737461727400000000000000000000000000000000000000000000000000000081525060050191505060405180910390206000604051602001526040518263ffffffff167c0100000000000000000000000000000000000000000000000000000000028152600401808260001916600019168152602001915050602060405180830381600087803b151561395b57600080fd5b6102c65a03f1151561396c57600080fd5b505050604051805190509250600460009054906101000a900473ffffffffffffffffffffffffffffffffffffffff1673ffffffffffffffffffffffffffffffffffffffff1663bdc963d88d60405180807f5749540000000000000000000000000000000000000000000000000000000000815250600301828152602001807f656e64000000000000000000000000000000000000000000000000000000000081525060030191505060405180910390206000604051602001526040518263ffffffff167c0100000000000000000000000000000000000000000000000000000000028152600401808260001916600019168152602001915050602060405180830381600087803b1515613a7e57600080fd5b6102c65a03f11515613a8f57600080fd5b505050604051805190509150600460009054906101000a900473ffffffffffffffffffffffffffffffffffffffff1673ffffffffffffffffffffffffffffffffffffffff166317e7dd228d60405180807f5749540000000000000000000000000000000000000000000000000000000000815250600301828152602001807f6d616b655374616c65000000000000000000000000000000000000000000000081525060090191505060405180910390206000604051602001526040518263ffffffff167c0100000000000000000000000000000000000000000000000000000000028152600401808260001916600019168152602001915050602060405180830381600087803b1515613ba157600080fd5b6102c65a03f11515613bb257600080fd5b505050604051805190509050610160604051908101604052808d81526020018b81526020018a81526020018981526020018881526020018773ffffffffffffffffffffffffffffffffffffffff16815260200186600019168152602001856000191681526020018481526020018381526020018215158152509a5050505050505050505050919050565b613c44614787565b81613c4d614787565b600080613c5984613049565b92503373ffffffffffffffffffffffffffffffffffffffff16613c7f8460600151610e86565b73ffffffffffffffffffffffffffffffffffffffff161491503373ffffffffffffffffffffffffffffffffffffffff16613cbc8460800151610e86565b73ffffffffffffffffffffffffffffffffffffffff161490508180613cde5750805b1515613ce957600080fd5b613cf286613049565b9450613d0185608001516141a0565b613d0e85606001516141a0565b613d8b6101606040519081016040528088815260200160008152602001600081526020016000815260200160008152602001600073ffffffffffffffffffffffffffffffffffffffff16815260200160008019168152602001600080191681526020016000815260200160008152602001600015158152506123b4565b505050505050565b600073ffffffffffffffffffffffffffffffffffffffff168273ffffffffffffffffffffffffffffffffffffffff1614151515613dcf57600080fd5b613dd881610e86565b73ffffffffffffffffffffffffffffffffffffffff168273ffffffffffffffffffffffffffffffffffffffff1614151515613e1257600080fd5b8273ffffffffffffffffffffffffffffffffffffffff16613e3282610e86565b73ffffffffffffffffffffffffffffffffffffffff16141515613e5457600080fd5b613e5e8382614230565b613e6883826142d1565b613e728282613f1d565b8173ffffffffffffffffffffffffffffffffffffffff168373ffffffffffffffffffffffffffffffffffffffff167fddf252ad1be2c89b69c2b068fc378daa952ba7f163c4a11628f55a4df523b3ef836040518082815260200191505060405180910390a3505050565b60008273ffffffffffffffffffffffffffffffffffffffff16613efe83611f8b565b73ffffffffffffffffffffffffffffffffffffffff1614905092915050565b60008073ffffffffffffffffffffffffffffffffffffffff16613f3f83610e86565b73ffffffffffffffffffffffffffffffffffffffff16141515613f6157600080fd5b613f6b8284614555565b613f7483610fc9565b9050600160009054906101000a900473ffffffffffffffffffffffffffffffffffffffff1673ffffffffffffffffffffffffffffffffffffffff16633562fd208460405180807f42616c616e63654f6600000000000000000000000000000000000000000000008152506009018273ffffffffffffffffffffffffffffffffffffffff1673ffffffffffffffffffffffffffffffffffffffff166c0100000000000000000000000002815260140191505060405180910390206140416001856121ae90919063ffffffff16565b6040518363ffffffff167c010000000000000000000000000000000000000000000000000000000002815260040180836000191660001916815260200182815260200192505050600060405180830381600087803b15156140a157600080fd5b6102c65a03f115156140b257600080fd5b505050600160009054906101000a900473ffffffffffffffffffffffffffffffffffffffff1673ffffffffffffffffffffffffffffffffffffffff16633562fd2061410e6001614100614676565b6121ae90919063ffffffff16565b6040518263ffffffff167c010000000000000000000000000000000000000000000000000000000002815260040180807f546f74616c537570706c79000000000000000000000000000000000000000000815250602001828152602001915050600060405180830381600087803b151561418757600080fd5b6102c65a03f1151561419857600080fd5b505050505050565b60006141ab82611f8b565b73ffffffffffffffffffffffffffffffffffffffff161415156141d3576141d23382614230565b5b6141dd33826142d1565b60003373ffffffffffffffffffffffffffffffffffffffff167fddf252ad1be2c89b69c2b068fc378daa952ba7f163c4a11628f55a4df523b3ef836040518082815260200191505060405180910390a350565b8173ffffffffffffffffffffffffffffffffffffffff1661425082610e86565b73ffffffffffffffffffffffffffffffffffffffff1614151561427257600080fd5b61427d81600061208d565b60008273ffffffffffffffffffffffffffffffffffffffff167f8c5be1e5ebec7d5bd14f71427d1e84f3dd0314c0f7b2291e5b200ac8c7c3b925836040518082815260200191505060405180910390a35050565b60008273ffffffffffffffffffffffffffffffffffffffff166142f383610e86565b73ffffffffffffffffffffffffffffffffffffffff1614151561431557600080fd5b614320826000614555565b61432983610fc9565b9050600160009054906101000a900473ffffffffffffffffffffffffffffffffffffffff1673ffffffffffffffffffffffffffffffffffffffff16633562fd208460405180807f42616c616e63654f6600000000000000000000000000000000000000000000008152506009018273ffffffffffffffffffffffffffffffffffffffff1673ffffffffffffffffffffffffffffffffffffffff166c0100000000000000000000000002815260140191505060405180910390206143f660018561476e90919063ffffffff16565b6040518363ffffffff167c010000000000000000000000000000000000000000000000000000000002815260040180836000191660001916815260200182815260200192505050600060405180830381600087803b151561445657600080fd5b6102c65a03f1151561446757600080fd5b505050600160009054906101000a900473ffffffffffffffffffffffffffffffffffffffff1673ffffffffffffffffffffffffffffffffffffffff16633562fd206144c360016144b5614676565b61476e90919063ffffffff16565b6040518263ffffffff167c010000000000000000000000000000000000000000000000000000000002815260040180807f546f74616c537570706c79000000000000000000000000000000000000000000815250602001828152602001915050600060405180830381600087803b151561453c57600080fd5b6102c65a03f1151561454d57600080fd5b505050505050565b600160009054906101000a900473ffffffffffffffffffffffffffffffffffffffff1673ffffffffffffffffffffffffffffffffffffffff16635a2bf25a8360405180807f4f776e65724f66000000000000000000000000000000000000000000000000008152506007018281526020019150506040518091039020836040518363ffffffff167c01000000000000000000000000000000000000000000000000000000000281526004018083600019166000191681526020018273ffffffffffffffffffffffffffffffffffffffff1673ffffffffffffffffffffffffffffffffffffffff16815260200192505050600060405180830381600087803b151561465e57600080fd5b6102c65a03f1151561466f57600080fd5b5050505050565b6000600160009054906101000a900473ffffffffffffffffffffffffffffffffffffffff1673ffffffffffffffffffffffffffffffffffffffff1663bdc963d860405180807f546f74616c537570706c79000000000000000000000000000000000000000000815250600b01905060405180910390206000604051602001526040518263ffffffff167c0100000000000000000000000000000000000000000000000000000000028152600401808260001916600019168152602001915050602060405180830381600087803b151561474e57600080fd5b6102c65a03f1151561475f57600080fd5b50505060405180519050905090565b600082821115151561477c57fe5b818303905092915050565b610160604051908101604052806000815260200160008152602001600081526020016000815260200160008152602001600073ffffffffffffffffffffffffffffffffffffffff1681526020016000801916815260200160008019168152602001600081526020016000815260200160001515815250905600a165627a7a7230582040e60a7dd5c54c8beccacfedf99a292891f79d91d99e3a69f0e4ebb6e330125f0029",
  "source": "pragma solidity ^0.4.18;\n\nimport 'zeppelin-solidity/contracts/math/SafeMath.sol';\nimport './DecoupledERC721Token.sol';\nimport './Arbolcoin.sol';\nimport './EternalDonut.sol';\nimport './WITEvaluator.sol';\n\n/**\n * @title Weather Immunity Token for ARBOL and weather protection agreements.\n *\n * @dev If you hold this token you are eligible for a payout based on the outcome of the weather.\n * @dev WITs are a representation of a protection agreement between two parties.\n * @dev Various terms can be set by the \"proposer.\" The proposal is represented as one WIT.\n * @dev The proposal can be accepted. If it is accepted, a new WIT is created according to the terms specified in the first one.\n * @dev WITs can be transferred after they have been created. They are nonfungible ERC721 tokens.\n */\ncontract WeatherImmunityToken is Ownable, DecoupledERC721Token {\n  using SafeMath for uint;\n\n    // A struct which represents all the values in a WIT.\n    struct WIT {\n      uint WITID;\n      uint aboveEscrow;\n      uint belowEscrow;\n      uint aboveID;\n      uint belowID; \n      address evaluator;\n      bytes32 threshold;\n      bytes32 location;\n      uint start;\n      uint end;\n      bool makeStale;\n    }\n\n    // Arbolcoin smart contract (contains address). \n    Arbolcoin private arbol;\n\n    // ARBOL fees go to this wallet. TODO make this owner, or implement revenue token.\n    address private systemFeeWallet = 0x5AEDA56215b167893e80B4fE645BA6d5Bab767DE;\n\n    EternalDonut private storageContract;\n\n    // The ARBOL system fee in parts per million. (of wei.) 100% for now.\n    uint public systemFeePPM;\n\n    // These are to facilitate queries related to getting open proposals.\n    event Redemption(uint indexed WITID, uint amount, address indexed user);\n    event ProposalAccepted(uint indexed WITID, uint indexed aboveID, uint indexed belowID);\n    event ProposalOffered(uint indexed WITID, uint aboveID, uint belowID, uint indexed weiContributing,  uint indexed weiAsking, address evaluator, string threshold, string location, uint start, uint end, bool makeStale);\n\n\n   /**\n    * @dev Constructor which sets the Arbolcoin address.\n    * @param _arbolAddress The address of the Arbolcoin contract.\n   */    \n    function WeatherImmunityToken(address _arbolAddress, address storageAddress) DecoupledERC721Token(storageAddress) public {\n\n      arbol = Arbolcoin(_arbolAddress);\n      storageContract = EternalDonut(storageAddress);\n      uint systemFeePPM = 1000000;\n\n\n        storageContract.setUIntValue(keccak256(\"WITIDCounter\"), 1); //start at 1\n    }\n\n\n  /**\n  * @dev Guarantees msg.sender is owner of the given token\n  * @param _tokenId uint256 ID of the token to validate its ownership belongs to msg.sender\n  */\n  modifier onlyOwnerOfSubWITOf(uint256 _tokenId) {\n    WIT memory the_wit = getWIT(_tokenId);\n    bool is_above_owner = ownerOf(the_wit.aboveID) == msg.sender;\n    bool is_below_owner = ownerOf(the_wit.belowID) == msg.sender;\n    require(is_above_owner || is_below_owner);\n    _;\n  }\n\n\n\n   function getTokenCounter() private view returns (uint) {\n    return storageContract.getUIntValue(keccak256(\"WITIDCounter\"));\n   }\n\n   function incrementTokenCounter() private {\n     storageContract.setUIntValue(keccak256(\"WITIDCounter\"), getTokenCounter().add(2)); // Yes, 2.\n   }\n\n    function getWIT(uint tokenID) private returns (WIT) {\n    uint aboveEscrow = storageContract.getUIntValue(keccak256(\"WIT\", tokenID, \"aboveEscrow\"));\n    uint belowEscrow = storageContract.getUIntValue(keccak256(\"WIT\", tokenID, \"belowEscrow\"));\n    uint aboveID = storageContract.getUIntValue(keccak256(\"WIT\", tokenID, \"aboveID\"));\n    uint belowID = storageContract.getUIntValue(keccak256(\"WIT\", tokenID, \"belowID\"));    \n    address evaluator = storageContract.getAddressValue(keccak256(\"WIT\", tokenID, \"evaluator\"));\n    bytes32 threshold = storageContract.getBytes32Value(keccak256(\"WIT\", tokenID, \"threshold\"));\n    bytes32 location = storageContract.getBytes32Value(keccak256(\"WIT\", tokenID, \"location\"));\n    uint start = storageContract.getUIntValue(keccak256(\"WIT\", tokenID, \"start\"));\n    uint end = storageContract.getUIntValue(keccak256(\"WIT\", tokenID, \"end\"));\n    bool makeStale = storageContract.getBooleanValue(keccak256(\"WIT\", tokenID, \"makeStale\"));\n    return WIT(tokenID, aboveEscrow, belowEscrow, aboveID, belowID, evaluator, threshold, location, start, end, makeStale);\n        \n    }\n\n    function saveWIT(WIT the_wit) private {\n        storageContract.setUIntValue(keccak256(\"WIT\", the_wit.WITID, \"aboveEscrow\"), the_wit.aboveEscrow);\n        storageContract.setUIntValue(keccak256(\"WIT\", the_wit.WITID, \"belowEscrow\"), the_wit.belowEscrow);\n        storageContract.setUIntValue(keccak256(\"WIT\", the_wit.WITID, \"aboveID\"), the_wit.aboveID);\n        storageContract.setUIntValue(keccak256(\"WIT\", the_wit.WITID, \"belowID\"), the_wit.belowID);        \n        storageContract.setAddressValue(keccak256(\"WIT\", the_wit.WITID, \"evaluator\"), the_wit.evaluator);\n        storageContract.setBytes32Value(keccak256(\"WIT\", the_wit.WITID, \"threshold\"), the_wit.threshold);\n        storageContract.setBytes32Value(keccak256(\"WIT\", the_wit.WITID, \"location\"), the_wit.location);\n        storageContract.setUIntValue(keccak256(\"WIT\", the_wit.WITID, \"start\"), the_wit.start);\n        storageContract.setUIntValue(keccak256(\"WIT\", the_wit.WITID, \"end\"), the_wit.end);\n        storageContract.setBooleanValue(keccak256(\"WIT\", the_wit.WITID, \"makeStale\"), the_wit.makeStale);\n    }\n\n   /**\n    * @dev Create a WIT without a partner. (A proposal.)\n    * @param weiContributing Amount of wei user proposes to contribute\n    * @param weiAsking Amount of wei user proposes the partner contribute.\n    * @param evaluator The address of the contract that will evaluate the WIT (for example one that integrates with a specific weather API).\n    * @param threshold The threshold by which the payout will be determined.\n    * @param start The start date of the WIT.\n    * @param end The end date of the WIT.\n    * @param makeStale If set to true, the WIT will be taken off the open market after its start date passes. That is, no one will be able to accept it.\n    */\n    function createWITProposal(uint weiContributing, uint weiAsking, bool aboveOrBelow, address evaluator, string threshold, string location, uint start, uint end, bool makeStale) public payable {\n\n      require(weiContributing > 0);\n      require(weiAsking > 0);\n      weiAsking.add(weiContributing); // this expression will throw if the escrow amounts are too big.\n\n      require(now < start); // Don't let people create WITs that start in the past. Opens the door for abuse.\n      require(start < end);\n  \n      // Validate amount of wei sent.\n      require(msg.value == weiContributing);\n\n      // Calculate and take ARBOL fee.\n      uint fee = calculateFee(weiContributing, weiAsking);\n\n      if (fee != 0) {\n          require(arbol.transferFrom(msg.sender, systemFeeWallet, fee));\n          //TODO accept ether\n      }\n\n      uint ID = getTokenCounter();\n\n      _mint(msg.sender, ID);\n\n      WIT memory new_WIT;\n      if (aboveOrBelow) {\n        new_WIT = WIT(ID, weiContributing, weiAsking, ID, 0, evaluator, keccak256(threshold), keccak256(location), start, end, makeStale);\n        ProposalOffered(ID, ID, 0, weiContributing, weiAsking, evaluator, threshold, location, start, end, makeStale);\n      }\n      else {\n        new_WIT = WIT(ID, weiAsking, weiContributing, 0, ID, evaluator, keccak256(threshold), keccak256(location), start, end, makeStale);\n        ProposalOffered(ID, 0, ID, weiContributing, weiAsking, evaluator, threshold, location, start, end, makeStale);        \n      }\n\n      saveWIT(new_WIT);\n      incrementTokenCounter();\n    }\n\n\n    /**\n    * @dev Create a WIT and partner it to an existing WIT (accept a proposed protection agreement).\n    * @param proposalID The ID of the WIT to which the new WIT shall be partnered.\n    */\n    function createWITAcceptance(uint proposalID) public payable {\n\n      // Specified partner token must exist\n      require(ownerOf(proposalID) != address(0));\n  \n      WIT memory proposalWIT = getWIT(proposalID);\n\n      uint new_ID = proposalWIT.WITID.add(1);\n      uint fee;\n\n      if (proposalWIT.makeStale) {\n        require(now < proposalWIT.start);\n      }\n\n      // Figure out whether we are adding an \"above\" or \"below\" WIT receipt.\n      if (proposalWIT.aboveID == 0) {\n        // Validate the amount of wei sent.\n        require(msg.value == proposalWIT.aboveEscrow);\n\n        fee = calculateFee(proposalWIT.aboveEscrow, proposalWIT.belowEscrow);\n        if (fee != 0) {\n\n        // TODO accept fee in ether\n        require(arbol.transferFrom(msg.sender, systemFeeWallet, fee));\n        }\n        storageContract.setUIntValue(keccak256(\"WIT\", proposalWIT.WITID, \"aboveID\"), new_ID);        \n        ProposalAccepted(proposalWIT.WITID, new_ID, proposalWIT.WITID);\n\n      }\n      else {\n        require(proposalWIT.belowID == 0);\n\n        // Validate the amount of wei sent.\n        require(msg.value == proposalWIT.belowEscrow);\n  \n        fee = calculateFee(proposalWIT.belowEscrow, proposalWIT.aboveEscrow);\n        if (fee != 0) {\n\n          // TODO accept fee in ether\n          require(arbol.transferFrom(msg.sender, systemFeeWallet, fee));\n\n\n        }\n        storageContract.setUIntValue(keccak256(\"WIT\", proposalWIT.WITID, \"belowID\"), new_ID);     \n        ProposalAccepted(proposalWIT.WITID, proposalWIT.WITID, new_ID);\n\n\n      }\n\n      _mint(msg.sender, new_ID);\n\n    }\n\n    /**\n    * @dev Burns a specific token.  \n    * @param tokenID uint ID of the token being burned by the msg.sender\n    */\n    function burnWIT(uint tokenID) private onlyOwnerOfSubWITOf(tokenID) { // gets called in cancelAndRedeem and evaluate\n      WIT memory the_wit = getWIT(tokenID);\n      \n      _burn(the_wit.belowID);\n      _burn(the_wit.aboveID);\n\n      saveWIT(WIT(tokenID, 0, 0, 0, 0, 0, \"\", \"\", 0, 0, false));\n\n    }\n\n\n    /**\n    * @dev Calculates the fee in ARBOL associated with a WIT. Fees are paid by the seller, and are a percentage of the total escrowed ETH amount.\n    * @param weiContributing One half of the total escrowed ETH in a partnered WIT pair (an agreement).\n    * @param weiAsking The other half of the total escrowed ETH.\n    * @return the fee in ARBOL\n    */\n    function calculateFee(uint weiContributing, uint weiAsking) public constant returns (uint) {\n      uint totalEscrow = weiContributing.add(weiAsking);\n\n      if (weiContributing > weiAsking) {         // If user is contributing more than asking, they are the seller and they pay the fee.\n        return totalEscrow.mul(systemFeePPM).div(1000000);\n      } else if (weiContributing < weiAsking) {\n        return 0; // Buyer role pays no fee\n      } else {\n        return totalEscrow.mul(systemFeePPM).div(1000000).div(2);  // If this is a 50-50 thing, split the fee.\n      }\n    }\n\n\n    /**\n    * @dev Set the system fee to a new value. This doesn't affect existing WITs.\n    */ \n    function setSystemFee(uint fee) public \n    onlyContractOwner {\n      require(0 <= fee);\n      systemFeePPM = fee;\n    }\n\n\n    /**\n    * @dev Cancel an unpartnered WIT that you have created. Redeem the ETH escrowed therein.\n    * @param tokenID The ID of your token that you want to cancel.\n    TODO ARBOL redemption\n    */ \n    function cancelAndRedeem(uint tokenID) onlyOwnerOfSubWITOf(tokenID) public {\n      WIT memory the_wit = getWIT(tokenID);\n      uint redemptionAmount = the_wit.belowEscrow;\n      require((the_wit.aboveID == 0) || (the_wit.belowID == 0)); \n      burnWIT(tokenID);\n      msg.sender.transfer(redemptionAmount);\n      Redemption(tokenID, redemptionAmount, msg.sender);\n      \n    }\n\n    event EvaluatorResponse(uint WITID, bytes32 evaluationResult);\n\n    function evaluate(uint tokenID, string runtimeParams) onlyOwnerOfSubWITOf(tokenID) public {\n      WIT memory the_wit = getWIT(tokenID);\n      require(the_wit.end < now);\n      require(the_wit.aboveID != 0);\n      require(the_wit.belowID != 0);\n\n      WITEvaluator evaluator = WITEvaluator(the_wit.evaluator);\n      bytes32 outcome = evaluator.evaluateWIT(tokenID, runtimeParams, the_wit.start, the_wit.end, the_wit.threshold, the_wit.location);\n\n      EvaluatorResponse(tokenID, outcome);\n\n      uint totalEscrow = the_wit.aboveEscrow.add(the_wit.belowEscrow);\n\n      if (outcome == keccak256(\"above\")) { // use keccak because == doesn't work for strings.\n        burnWIT(tokenID);\n        Redemption(tokenID, totalEscrow, ownerOf(the_wit.aboveID));\n        ownerOf(the_wit.aboveID).transfer(totalEscrow);\n      }\n\n      if (outcome == keccak256(\"below\")) {\n        burnWIT(tokenID);\n        Redemption(tokenID, totalEscrow, ownerOf(the_wit.belowID));\n        ownerOf(the_wit.belowID).transfer(totalEscrow);\n      }\n\n\n    }\n\n\n   // function kill() onlyContractOwner public {\n      //\n //   }\n\n\n}",
  "sourcePath": "/Users/benandre/cropcrop/contracts/WeatherImmunityToken.sol",
  "compiler": {
    "name": "solc",
    "version": "0.4.18+commit.9cf6e910.Emscripten.clang"
  },
  "schemaVersion": "1.0.1",
  "updatedAt": "2018-04-03T03:13:49.017Z"
}