{
  "contractName": "WeatherImmunityToken",
  "abi": [
    {
      "constant": false,
      "inputs": [
        {
          "name": "_to",
          "type": "address"
        },
        {
          "name": "_tokenId",
          "type": "uint256"
        }
      ],
      "name": "approve",
      "outputs": [],
      "payable": false,
      "stateMutability": "nonpayable",
      "type": "function"
    },
    {
      "constant": false,
      "inputs": [
        {
          "name": "fee",
          "type": "uint256"
        }
      ],
      "name": "setSystemFee",
      "outputs": [],
      "payable": false,
      "stateMutability": "nonpayable",
      "type": "function"
    },
    {
      "constant": false,
      "inputs": [],
      "name": "totalSupply",
      "outputs": [
        {
          "name": "",
          "type": "uint256"
        }
      ],
      "payable": false,
      "stateMutability": "nonpayable",
      "type": "function"
    },
    {
      "constant": false,
      "inputs": [
        {
          "name": "newOwner",
          "type": "address"
        }
      ],
      "name": "transferOwnershipOfDependants",
      "outputs": [],
      "payable": false,
      "stateMutability": "nonpayable",
      "type": "function"
    },
    {
      "constant": true,
      "inputs": [
        {
          "name": "weiContributing",
          "type": "uint256"
        },
        {
          "name": "weiAsking",
          "type": "uint256"
        }
      ],
      "name": "calculateFee",
      "outputs": [
        {
          "name": "",
          "type": "uint256"
        }
      ],
      "payable": false,
      "stateMutability": "view",
      "type": "function"
    },
    {
      "constant": false,
      "inputs": [
        {
          "name": "dependant",
          "type": "address"
        }
      ],
      "name": "addDependant",
      "outputs": [],
      "payable": false,
      "stateMutability": "nonpayable",
      "type": "function"
    },
    {
      "constant": true,
      "inputs": [
        {
          "name": "tokenID",
          "type": "uint256"
        }
      ],
      "name": "ownerOf",
      "outputs": [
        {
          "name": "",
          "type": "address"
        }
      ],
      "payable": false,
      "stateMutability": "view",
      "type": "function"
    },
    {
      "constant": true,
      "inputs": [
        {
          "name": "owner",
          "type": "address"
        }
      ],
      "name": "balanceOf",
      "outputs": [
        {
          "name": "",
          "type": "uint256"
        }
      ],
      "payable": false,
      "stateMutability": "view",
      "type": "function"
    },
    {
      "constant": false,
      "inputs": [
        {
          "name": "tokenID",
          "type": "uint256"
        }
      ],
      "name": "cancelAndRedeem",
      "outputs": [],
      "payable": false,
      "stateMutability": "nonpayable",
      "type": "function"
    },
    {
      "constant": true,
      "inputs": [],
      "name": "owner",
      "outputs": [
        {
          "name": "",
          "type": "address"
        }
      ],
      "payable": false,
      "stateMutability": "view",
      "type": "function"
    },
    {
      "constant": false,
      "inputs": [
        {
          "name": "_to",
          "type": "address"
        },
        {
          "name": "_tokenId",
          "type": "uint256"
        }
      ],
      "name": "transfer",
      "outputs": [],
      "payable": false,
      "stateMutability": "nonpayable",
      "type": "function"
    },
    {
      "constant": false,
      "inputs": [
        {
          "name": "_tokenId",
          "type": "uint256"
        }
      ],
      "name": "takeOwnership",
      "outputs": [],
      "payable": false,
      "stateMutability": "nonpayable",
      "type": "function"
    },
    {
      "constant": false,
      "inputs": [
        {
          "name": "_arbolAddress",
          "type": "address"
        },
        {
          "name": "storageAddress",
          "type": "address"
        },
        {
          "name": "NOAAPrecipAggregate",
          "type": "address"
        }
      ],
      "name": "initialize",
      "outputs": [],
      "payable": false,
      "stateMutability": "nonpayable",
      "type": "function"
    },
    {
      "constant": false,
      "inputs": [
        {
          "name": "proposalID",
          "type": "uint256"
        }
      ],
      "name": "createWITAcceptance",
      "outputs": [],
      "payable": true,
      "stateMutability": "payable",
      "type": "function"
    },
    {
      "constant": false,
      "inputs": [
        {
          "name": "WITID",
          "type": "uint256"
        },
        {
          "name": "outcome",
          "type": "string"
        }
      ],
      "name": "evaluatorCallback",
      "outputs": [],
      "payable": false,
      "stateMutability": "nonpayable",
      "type": "function"
    },
    {
      "constant": false,
      "inputs": [
        {
          "name": "tokenID",
          "type": "uint256"
        },
        {
          "name": "runtimeParams",
          "type": "string"
        }
      ],
      "name": "evaluate",
      "outputs": [],
      "payable": false,
      "stateMutability": "nonpayable",
      "type": "function"
    },
    {
      "constant": true,
      "inputs": [],
      "name": "systemFeePPM",
      "outputs": [
        {
          "name": "",
          "type": "uint256"
        }
      ],
      "payable": false,
      "stateMutability": "view",
      "type": "function"
    },
    {
      "constant": false,
      "inputs": [
        {
          "name": "weiContributing",
          "type": "uint256"
        },
        {
          "name": "weiAsking",
          "type": "uint256"
        },
        {
          "name": "aboveOrBelow",
          "type": "bool"
        },
        {
          "name": "evaluator",
          "type": "address"
        },
        {
          "name": "thresholdPPM",
          "type": "uint256"
        },
        {
          "name": "location",
          "type": "bytes32"
        },
        {
          "name": "start",
          "type": "uint256"
        },
        {
          "name": "end",
          "type": "uint256"
        },
        {
          "name": "makeStale",
          "type": "bool"
        }
      ],
      "name": "createWITProposal",
      "outputs": [],
      "payable": true,
      "stateMutability": "payable",
      "type": "function"
    },
    {
      "constant": false,
      "inputs": [
        {
          "name": "newOwner",
          "type": "address"
        }
      ],
      "name": "transferOwnership",
      "outputs": [],
      "payable": false,
      "stateMutability": "nonpayable",
      "type": "function"
    },
    {
      "anonymous": false,
      "inputs": [
        {
          "indexed": true,
          "name": "WITID",
          "type": "uint256"
        },
        {
          "indexed": false,
          "name": "amount",
          "type": "uint256"
        },
        {
          "indexed": true,
          "name": "user",
          "type": "address"
        }
      ],
      "name": "Redemption",
      "type": "event"
    },
    {
      "anonymous": false,
      "inputs": [
        {
          "indexed": true,
          "name": "WITID",
          "type": "uint256"
        },
        {
          "indexed": true,
          "name": "aboveID",
          "type": "uint256"
        },
        {
          "indexed": true,
          "name": "belowID",
          "type": "uint256"
        }
      ],
      "name": "ProposalAccepted",
      "type": "event"
    },
    {
      "anonymous": false,
      "inputs": [
        {
          "indexed": true,
          "name": "WITID",
          "type": "uint256"
        },
        {
          "indexed": false,
          "name": "aboveID",
          "type": "uint256"
        },
        {
          "indexed": false,
          "name": "belowID",
          "type": "uint256"
        },
        {
          "indexed": true,
          "name": "weiContributing",
          "type": "uint256"
        },
        {
          "indexed": true,
          "name": "weiAsking",
          "type": "uint256"
        },
        {
          "indexed": false,
          "name": "evaluator",
          "type": "address"
        },
        {
          "indexed": false,
          "name": "thresholdPPM",
          "type": "uint256"
        },
        {
          "indexed": false,
          "name": "location",
          "type": "bytes32"
        },
        {
          "indexed": false,
          "name": "start",
          "type": "uint256"
        },
        {
          "indexed": false,
          "name": "end",
          "type": "uint256"
        },
        {
          "indexed": false,
          "name": "makeStale",
          "type": "bool"
        }
      ],
      "name": "ProposalOffered",
      "type": "event"
    },
    {
      "anonymous": false,
      "inputs": [
        {
          "indexed": false,
          "name": "WITID",
          "type": "uint256"
        },
        {
          "indexed": false,
          "name": "evaluationResult",
          "type": "string"
        }
      ],
      "name": "WITEvaluated",
      "type": "event"
    },
    {
      "anonymous": false,
      "inputs": [
        {
          "indexed": true,
          "name": "previousOwner",
          "type": "address"
        },
        {
          "indexed": true,
          "name": "newOwner",
          "type": "address"
        }
      ],
      "name": "OwnershipTransferred",
      "type": "event"
    },
    {
      "anonymous": false,
      "inputs": [
        {
          "indexed": false,
          "name": "one",
          "type": "uint256"
        }
      ],
      "name": "debug",
      "type": "event"
    },
    {
      "anonymous": false,
      "inputs": [
        {
          "indexed": true,
          "name": "_from",
          "type": "address"
        },
        {
          "indexed": true,
          "name": "_to",
          "type": "address"
        },
        {
          "indexed": false,
          "name": "_tokenId",
          "type": "uint256"
        }
      ],
      "name": "Transfer",
      "type": "event"
    },
    {
      "anonymous": false,
      "inputs": [
        {
          "indexed": true,
          "name": "_owner",
          "type": "address"
        },
        {
          "indexed": true,
          "name": "_approved",
          "type": "address"
        },
        {
          "indexed": false,
          "name": "_tokenId",
          "type": "uint256"
        }
      ],
      "name": "Approval",
      "type": "event"
    }
  ],
  "bytecode": "0x6060604052735aeda56215b167893e80b4fe645ba6d5bab767de600360006101000a81548173ffffffffffffffffffffffffffffffffffffffff021916908373ffffffffffffffffffffffffffffffffffffffff16021790555033600160006101000a81548173ffffffffffffffffffffffffffffffffffffffff021916908373ffffffffffffffffffffffffffffffffffffffff160217905550615814806100a96000396000f300606060405260043610610107576000357c0100000000000000000000000000000000000000000000000000000000900463ffffffff168063095ea7b31461010c57806314b0452b1461014e57806318160ddd14610171578063291cfe361461019a57806334e73122146101d35780633aee69a7146102135780636352211e1461024c57806370a08231146102af578063741d215b146102fc5780638da5cb5b1461031f578063a9059cbb14610374578063b2e6ceeb146103b6578063c0c53b8b146103d9578063c931313c14610450578063dbef1a2914610468578063dd81afdd146104ce578063e2fc400714610534578063eaa4d2d31461055d578063f2fde38b146105db575b600080fd5b341561011757600080fd5b61014c600480803573ffffffffffffffffffffffffffffffffffffffff16906020019091908035906020019091905050610614565b005b341561015957600080fd5b61016f600480803590602001909190505061075f565b005b341561017c57600080fd5b6101846107d5565b6040518082815260200191505060405180910390f35b34156101a557600080fd5b6101d1600480803573ffffffffffffffffffffffffffffffffffffffff169060200190919050506108cc565b005b34156101de57600080fd5b6101fd6004808035906020019091908035906020019091905050610be2565b6040518082815260200191505060405180910390f35b341561021e57600080fd5b61024a600480803573ffffffffffffffffffffffffffffffffffffffff16906020019091905050610c8b565b005b341561025757600080fd5b61026d6004808035906020019091905050611009565b604051808273ffffffffffffffffffffffffffffffffffffffff1673ffffffffffffffffffffffffffffffffffffffff16815260200191505060405180910390f35b34156102ba57600080fd5b6102e6600480803573ffffffffffffffffffffffffffffffffffffffff1690602001909190505061110f565b6040518082815260200191505060405180910390f35b341561030757600080fd5b61031d600480803590602001909190505061124b565b005b341561032a57600080fd5b6103326113cf565b604051808273ffffffffffffffffffffffffffffffffffffffff1673ffffffffffffffffffffffffffffffffffffffff16815260200191505060405180910390f35b341561037f57600080fd5b6103b4600480803573ffffffffffffffffffffffffffffffffffffffff169060200190919080359060200190919050506113f5565b005b34156103c157600080fd5b6103d76004808035906020019091905050611448565b005b34156103e457600080fd5b61044e600480803573ffffffffffffffffffffffffffffffffffffffff1690602001909190803573ffffffffffffffffffffffffffffffffffffffff1690602001909190803573ffffffffffffffffffffffffffffffffffffffff16906020019091905050611473565b005b6104666004808035906020019091905050611a8a565b005b341561047357600080fd5b6104cc600480803590602001909190803590602001908201803590602001908080601f016020809104026020016040519081016040528093929190818152602001838380828437820191505050505050919050506120ed565b005b34156104d957600080fd5b610532600480803590602001909190803590602001908201803590602001908080601f0160208091040260200160405190810160405280939291908181526020018383808284378201915050505050509190505061257a565b005b341561053f57600080fd5b61054761287a565b6040518082815260200191505060405180910390f35b6105d96004808035906020019091908035906020019091908035151590602001909190803573ffffffffffffffffffffffffffffffffffffffff16906020019091908035906020019091908035600019169060200190919080359060200190919080359060200190919080351515906020019091905050612880565b005b34156105e657600080fd5b610612600480803573ffffffffffffffffffffffffffffffffffffffff16906020019091905050612cc6565b005b6000813373ffffffffffffffffffffffffffffffffffffffff1661063782611009565b73ffffffffffffffffffffffffffffffffffffffff1614151561065957600080fd5b61066283611009565b91508173ffffffffffffffffffffffffffffffffffffffff168473ffffffffffffffffffffffffffffffffffffffff161415151561069f57600080fd5b60006106aa84612e1e565b73ffffffffffffffffffffffffffffffffffffffff161415806106e4575060008473ffffffffffffffffffffffffffffffffffffffff1614155b15610759576106f38385612f1f565b8373ffffffffffffffffffffffffffffffffffffffff168273ffffffffffffffffffffffffffffffffffffffff167f8c5be1e5ebec7d5bd14f71427d1e84f3dd0314c0f7b2291e5b200ac8c7c3b925856040518082815260200191505060405180910390a35b50505050565b600160009054906101000a900473ffffffffffffffffffffffffffffffffffffffff1673ffffffffffffffffffffffffffffffffffffffff163373ffffffffffffffffffffffffffffffffffffffff161415156107bb57600080fd5b806000111515156107cb57600080fd5b8060048190555050565b60008060009054906101000a900473ffffffffffffffffffffffffffffffffffffffff1673ffffffffffffffffffffffffffffffffffffffff1663bdc963d860405180807f546f74616c537570706c79000000000000000000000000000000000000000000815250600b01905060405180910390206000604051602001526040518263ffffffff167c0100000000000000000000000000000000000000000000000000000000028152600401808260001916600019168152602001915050602060405180830381600087803b15156108ac57600080fd5b6102c65a03f115156108bd57600080fd5b50505060405180519050905090565b600080600160009054906101000a900473ffffffffffffffffffffffffffffffffffffffff1673ffffffffffffffffffffffffffffffffffffffff163373ffffffffffffffffffffffffffffffffffffffff1614151561092b57600080fd5b6000809054906101000a900473ffffffffffffffffffffffffffffffffffffffff1673ffffffffffffffffffffffffffffffffffffffff1663bdc963d860405180807f446570656e64616e7473436f756e746572000000000000000000000000000000815250601101905060405180910390206000604051602001526040518263ffffffff167c0100000000000000000000000000000000000000000000000000000000028152600401808260001916600019168152602001915050602060405180830381600087803b1515610a0057600080fd5b6102c65a03f11515610a1157600080fd5b5050506040518051905091505b6000821115610bdd576000809054906101000a900473ffffffffffffffffffffffffffffffffffffffff1673ffffffffffffffffffffffffffffffffffffffff16634c77e5ba8360405180807f446570656e64616e747300000000000000000000000000000000000000000000815250600a0182815260200191505060405180910390206000604051602001526040518263ffffffff167c0100000000000000000000000000000000000000000000000000000000028152600401808260001916600019168152602001915050602060405180830381600087803b1515610b0457600080fd5b6102c65a03f11515610b1557600080fd5b5050506040518051905090508073ffffffffffffffffffffffffffffffffffffffff1663f2fde38b846040518263ffffffff167c0100000000000000000000000000000000000000000000000000000000028152600401808273ffffffffffffffffffffffffffffffffffffffff1673ffffffffffffffffffffffffffffffffffffffff168152602001915050600060405180830381600087803b1515610bbb57600080fd5b6102c65a03f11515610bcc57600080fd5b505050818060019003925050610a1e565b505050565b600080610bf8838561303f90919063ffffffff16565b905082841115610c3357610c2c620f4240610c1e6004548461305d90919063ffffffff16565b61309890919063ffffffff16565b9150610c84565b82841015610c445760009150610c84565b610c816002610c73620f4240610c656004548661305d90919063ffffffff16565b61309890919063ffffffff16565b61309890919063ffffffff16565b91505b5092915050565b6000600160009054906101000a900473ffffffffffffffffffffffffffffffffffffffff1673ffffffffffffffffffffffffffffffffffffffff163373ffffffffffffffffffffffffffffffffffffffff16141515610ce957600080fd5b6000809054906101000a900473ffffffffffffffffffffffffffffffffffffffff1673ffffffffffffffffffffffffffffffffffffffff1663bdc963d860405180807f446570656e64616e7473436f756e746572000000000000000000000000000000815250601101905060405180910390206000604051602001526040518263ffffffff167c0100000000000000000000000000000000000000000000000000000000028152600401808260001916600019168152602001915050602060405180830381600087803b1515610dbe57600080fd5b6102c65a03f11515610dcf57600080fd5b5050506040518051905090506000809054906101000a900473ffffffffffffffffffffffffffffffffffffffff1673ffffffffffffffffffffffffffffffffffffffff16635a2bf25a610e2c60018461303f90919063ffffffff16565b60405180807f446570656e64616e747300000000000000000000000000000000000000000000815250600a018281526020019150506040518091039020846040518363ffffffff167c01000000000000000000000000000000000000000000000000000000000281526004018083600019166000191681526020018273ffffffffffffffffffffffffffffffffffffffff1673ffffffffffffffffffffffffffffffffffffffff16815260200192505050600060405180830381600087803b1515610ef657600080fd5b6102c65a03f11515610f0757600080fd5b5050506000809054906101000a900473ffffffffffffffffffffffffffffffffffffffff1673ffffffffffffffffffffffffffffffffffffffff16633562fd2060405180807f446570656e64616e7473436f756e74657200000000000000000000000000000081525060110190506040518091039020610f9160018561303f90919063ffffffff16565b6040518363ffffffff167c010000000000000000000000000000000000000000000000000000000002815260040180836000191660001916815260200182815260200192505050600060405180830381600087803b1515610ff157600080fd5b6102c65a03f1151561100257600080fd5b5050505050565b6000806000809054906101000a900473ffffffffffffffffffffffffffffffffffffffff1673ffffffffffffffffffffffffffffffffffffffff16634c77e5ba8460405180807f4f776e65724f660000000000000000000000000000000000000000000000000081525060070182815260200191505060405180910390206000604051602001526040518263ffffffff167c0100000000000000000000000000000000000000000000000000000000028152600401808260001916600019168152602001915050602060405180830381600087803b15156110e957600080fd5b6102c65a03f115156110fa57600080fd5b50505060405180519050905080915050919050565b60008060009054906101000a900473ffffffffffffffffffffffffffffffffffffffff1673ffffffffffffffffffffffffffffffffffffffff1663bdc963d88360405180807f42616c616e63654f6600000000000000000000000000000000000000000000008152506009018273ffffffffffffffffffffffffffffffffffffffff1673ffffffffffffffffffffffffffffffffffffffff166c0100000000000000000000000002815260140191505060405180910390206000604051602001526040518263ffffffff167c0100000000000000000000000000000000000000000000000000000000028152600401808260001916600019168152602001915050602060405180830381600087803b151561122957600080fd5b6102c65a03f1151561123a57600080fd5b505050604051805190509050919050565b611253615769565b60008261125e615769565b60008061126a846130b3565b92503373ffffffffffffffffffffffffffffffffffffffff166112908460600151611009565b73ffffffffffffffffffffffffffffffffffffffff161491503373ffffffffffffffffffffffffffffffffffffffff166112cd8460800151611009565b73ffffffffffffffffffffffffffffffffffffffff1614905081806112ef5750805b15156112fa57600080fd5b611303876130b3565b955085604001519450600086606001511480611323575060008660800151145b151561132e57600080fd5b61133787613dc5565b3373ffffffffffffffffffffffffffffffffffffffff166108fc869081150290604051600060405180830381858888f19350505050151561137757600080fd5b3373ffffffffffffffffffffffffffffffffffffffff16877f79af0603d6af952354516f9583d1640b4e036431911d556b8fd682f83ff43aaf876040518082815260200191505060405180910390a350505050505050565b600160009054906101000a900473ffffffffffffffffffffffffffffffffffffffff1681565b803373ffffffffffffffffffffffffffffffffffffffff1661141682611009565b73ffffffffffffffffffffffffffffffffffffffff1614151561143857600080fd5b611443338484613f22565b505050565b611452338261406b565b151561145d57600080fd5b61147061146982611009565b3383613f22565b50565b600160009054906101000a900473ffffffffffffffffffffffffffffffffffffffff1673ffffffffffffffffffffffffffffffffffffffff163373ffffffffffffffffffffffffffffffffffffffff161415156114cf57600080fd5b60008060009054906101000a900473ffffffffffffffffffffffffffffffffffffffff1673ffffffffffffffffffffffffffffffffffffffff1663bdc963d860405180807f5749544944436f756e7465720000000000000000000000000000000000000000815250600c01905060405180910390206000604051602001526040518263ffffffff167c0100000000000000000000000000000000000000000000000000000000028152600401808260001916600019168152602001915050602060405180830381600087803b15156115a657600080fd5b6102c65a03f115156115b757600080fd5b505050604051805190501415156115cd57600080fd5b82600260006101000a81548173ffffffffffffffffffffffffffffffffffffffff021916908373ffffffffffffffffffffffffffffffffffffffff160217905550816000806101000a81548173ffffffffffffffffffffffffffffffffffffffff021916908373ffffffffffffffffffffffffffffffffffffffff160217905550620f42406004819055506000809054906101000a900473ffffffffffffffffffffffffffffffffffffffff1673ffffffffffffffffffffffffffffffffffffffff16633562fd2060405180807f5749544944436f756e7465720000000000000000000000000000000000000000815250600c019050604051809103902060016040518363ffffffff167c010000000000000000000000000000000000000000000000000000000002815260040180836000191660001916815260200182815260200192505050600060405180830381600087803b151561172d57600080fd5b6102c65a03f1151561173e57600080fd5b5050506000809054906101000a900473ffffffffffffffffffffffffffffffffffffffff1673ffffffffffffffffffffffffffffffffffffffff16635a2bf25a600160405180807f446570656e64616e747300000000000000000000000000000000000000000000815250600a0182815260200191505060405180910390206000809054906101000a900473ffffffffffffffffffffffffffffffffffffffff166040518363ffffffff167c01000000000000000000000000000000000000000000000000000000000281526004018083600019166000191681526020018273ffffffffffffffffffffffffffffffffffffffff1673ffffffffffffffffffffffffffffffffffffffff16815260200192505050600060405180830381600087803b151561186b57600080fd5b6102c65a03f1151561187c57600080fd5b5050506000809054906101000a900473ffffffffffffffffffffffffffffffffffffffff1673ffffffffffffffffffffffffffffffffffffffff16635a2bf25a600260405180807f446570656e64616e747300000000000000000000000000000000000000000000815250600a018281526020019150506040518091039020836040518363ffffffff167c01000000000000000000000000000000000000000000000000000000000281526004018083600019166000191681526020018273ffffffffffffffffffffffffffffffffffffffff1673ffffffffffffffffffffffffffffffffffffffff16815260200192505050600060405180830381600087803b151561198857600080fd5b6102c65a03f1151561199957600080fd5b5050506000809054906101000a900473ffffffffffffffffffffffffffffffffffffffff1673ffffffffffffffffffffffffffffffffffffffff16633562fd2060405180807f446570656e64616e7473436f756e7465720000000000000000000000000000008152506011019050604051809103902060026040518363ffffffff167c010000000000000000000000000000000000000000000000000000000002815260040180836000191660001916815260200182815260200192505050600060405180830381600087803b1515611a7157600080fd5b6102c65a03f11515611a8257600080fd5b505050505050565b611a92615769565b600080600073ffffffffffffffffffffffffffffffffffffffff16611ab685611009565b73ffffffffffffffffffffffffffffffffffffffff1614151515611ad957600080fd5b611ae2846130b3565b9250611afc6001846000015161303f90919063ffffffff16565b915082610140015115611b1d5782610100015142101515611b1c57600080fd5b5b600083606001511415611dfc57826020015134141515611b3c57600080fd5b611b4e83602001518460400151610be2565b9050600081141515611ca457600260009054906101000a900473ffffffffffffffffffffffffffffffffffffffff1673ffffffffffffffffffffffffffffffffffffffff166323b872dd33600360009054906101000a900473ffffffffffffffffffffffffffffffffffffffff16846000604051602001526040518463ffffffff167c0100000000000000000000000000000000000000000000000000000000028152600401808473ffffffffffffffffffffffffffffffffffffffff1673ffffffffffffffffffffffffffffffffffffffff1681526020018373ffffffffffffffffffffffffffffffffffffffff1673ffffffffffffffffffffffffffffffffffffffff1681526020018281526020019350505050602060405180830381600087803b1515611c7d57600080fd5b6102c65a03f11515611c8e57600080fd5b505050604051805190501515611ca357600080fd5b5b6000809054906101000a900473ffffffffffffffffffffffffffffffffffffffff1673ffffffffffffffffffffffffffffffffffffffff16633562fd20846000015160405180807f5749540000000000000000000000000000000000000000000000000000000000815250600301828152602001807f61626f76654944000000000000000000000000000000000000000000000000008152506007019150506040518091039020846040518363ffffffff167c010000000000000000000000000000000000000000000000000000000002815260040180836000191660001916815260200182815260200192505050600060405180830381600087803b1515611dac57600080fd5b6102c65a03f11515611dbd57600080fd5b50505082600001518284600001517f4e26d2058422e671478446da4522b7c1527f240c0b68519a064219769b062dce60405160405180910390a46120dd565b60008360800151141515611e0f57600080fd5b826040015134141515611e2157600080fd5b611e3383604001518460200151610be2565b9050600081141515611f8957600260009054906101000a900473ffffffffffffffffffffffffffffffffffffffff1673ffffffffffffffffffffffffffffffffffffffff166323b872dd33600360009054906101000a900473ffffffffffffffffffffffffffffffffffffffff16846000604051602001526040518463ffffffff167c0100000000000000000000000000000000000000000000000000000000028152600401808473ffffffffffffffffffffffffffffffffffffffff1673ffffffffffffffffffffffffffffffffffffffff1681526020018373ffffffffffffffffffffffffffffffffffffffff1673ffffffffffffffffffffffffffffffffffffffff1681526020018281526020019350505050602060405180830381600087803b1515611f6257600080fd5b6102c65a03f11515611f7357600080fd5b505050604051805190501515611f8857600080fd5b5b6000809054906101000a900473ffffffffffffffffffffffffffffffffffffffff1673ffffffffffffffffffffffffffffffffffffffff16633562fd20846000015160405180807f5749540000000000000000000000000000000000000000000000000000000000815250600301828152602001807f62656c6f774944000000000000000000000000000000000000000000000000008152506007019150506040518091039020846040518363ffffffff167c010000000000000000000000000000000000000000000000000000000002815260040180836000191660001916815260200182815260200192505050600060405180830381600087803b151561209157600080fd5b6102c65a03f115156120a257600080fd5b50505081836000015184600001517f4e26d2058422e671478446da4522b7c1527f240c0b68519a064219769b062dce60405160405180910390a45b6120e733836140ac565b50505050565b6120f5615769565b6000612100846130b3565b91508160a0015173ffffffffffffffffffffffffffffffffffffffff163373ffffffffffffffffffffffffffffffffffffffff1614151561214057600080fd5b816101600151151561215157600080fd5b61216c8260400151836020015161303f90919063ffffffff16565b905060405180807f61626f76650000000000000000000000000000000000000000000000000000008152506005019050604051809103902060001916836040518082805190602001908083835b6020831015156121de57805182526020820191506020810190506020830392506121b9565b6001836020036101000a038019825116818451168082178552505050505050905001915050604051809103902060001916141561236e5761221e84613dc5565b61222b8260600151611009565b73ffffffffffffffffffffffffffffffffffffffff16847f79af0603d6af952354516f9583d1640b4e036431911d556b8fd682f83ff43aaf836040518082815260200191505060405180910390a36122868260600151611009565b73ffffffffffffffffffffffffffffffffffffffff166108fc829081150290604051600060405180830381858888f1935050505015156122c557600080fd5b7f8f766f0b9683120324adcc86310c6d3570c7cccf19154f36aaf9834f3df4d71384846040518083815260200180602001828103825283818151815260200191508051906020019080838360005b8381101561232e578082015181840152602081019050612313565b50505050905090810190601f16801561235b5780820380516001836020036101000a031916815260200191505b50935050505060405180910390a1612574565b60405180807f62656c6f770000000000000000000000000000000000000000000000000000008152506005019050604051809103902060001916836040518082805190602001908083835b6020831015156123de57805182526020820191506020810190506020830392506123b9565b6001836020036101000a038019825116818451168082178552505050505050905001915050604051809103902060001916141561256e5761241e84613dc5565b61242b8260800151611009565b73ffffffffffffffffffffffffffffffffffffffff16847f79af0603d6af952354516f9583d1640b4e036431911d556b8fd682f83ff43aaf836040518082815260200191505060405180910390a36124868260800151611009565b73ffffffffffffffffffffffffffffffffffffffff166108fc829081150290604051600060405180830381858888f1935050505015156124c557600080fd5b7f8f766f0b9683120324adcc86310c6d3570c7cccf19154f36aaf9834f3df4d71384846040518083815260200180602001828103825283818151815260200191508051906020019080838360005b8381101561252e578082015181840152602081019050612513565b50505050905090810190601f16801561255b5780820380516001836020036101000a031916815260200191505b50935050505060405180910390a1612573565b600080fd5b5b50505050565b612582615769565b60008361258d615769565b600080612599846130b3565b92503373ffffffffffffffffffffffffffffffffffffffff166125bf8460600151611009565b73ffffffffffffffffffffffffffffffffffffffff161491503373ffffffffffffffffffffffffffffffffffffffff166125fc8460800151611009565b73ffffffffffffffffffffffffffffffffffffffff16149050818061261e5750805b151561262957600080fd5b612632886130b3565b95504286610120015110151561264757600080fd5b600086606001511415151561265b57600080fd5b600086608001511415151561266f57600080fd5b8560a0015194508473ffffffffffffffffffffffffffffffffffffffff1663990199e2898861010001518961012001518a60c001518b60e00151600a6040518763ffffffff167c010000000000000000000000000000000000000000000000000000000002815260040180878152602001868152602001858152602001848152602001836000191660001916815260200182815260200180602001828103825260008152602001602001975050505050505050600060405180830381600087803b151561273b57600080fd5b6102c65a03f1151561274c57600080fd5b5050506000809054906101000a900473ffffffffffffffffffffffffffffffffffffffff1673ffffffffffffffffffffffffffffffffffffffff16633eba9ed2876000015160405180807f5749540000000000000000000000000000000000000000000000000000000000815250600301828152602001807f6177616974696e674576616c756174696f6e0000000000000000000000000000815250601201915050604051809103902060016040518363ffffffff167c01000000000000000000000000000000000000000000000000000000000281526004018083600019166000191681526020018215151515815260200192505050600060405180830381600087803b151561285c57600080fd5b6102c65a03f1151561286d57600080fd5b5050505050505050505050565b60045481565b60008061288b615769565b60008c11151561289a57600080fd5b60008b1115156128a957600080fd5b6128bc8c8c61303f90919063ffffffff16565b5085421015156128cb57600080fd5b84861015156128d957600080fd5b8b341415156128e757600080fd5b6128f18c8c610be2565b9250600083141515612a4757600260009054906101000a900473ffffffffffffffffffffffffffffffffffffffff1673ffffffffffffffffffffffffffffffffffffffff166323b872dd33600360009054906101000a900473ffffffffffffffffffffffffffffffffffffffff16866000604051602001526040518463ffffffff167c0100000000000000000000000000000000000000000000000000000000028152600401808473ffffffffffffffffffffffffffffffffffffffff1673ffffffffffffffffffffffffffffffffffffffff1681526020018373ffffffffffffffffffffffffffffffffffffffff1673ffffffffffffffffffffffffffffffffffffffff1681526020018281526020019350505050602060405180830381600087803b1515612a2057600080fd5b6102c65a03f11515612a3157600080fd5b505050604051805190501515612a4657600080fd5b5b612a4f614146565b9150612a5b33836140ac565b8915612b8657610180604051908101604052808381526020018d81526020018c8152602001838152602001600081526020018a73ffffffffffffffffffffffffffffffffffffffff1681526020018981526020018860001916815260200187815260200186815260200185151581526020016000151581525090508a8c837f32a1e31199d17c85d6d4bc5532f14905535322fb657272a26e6fe7072785c3128560008e8e8e8e8e8e604051808981526020018881526020018773ffffffffffffffffffffffffffffffffffffffff1673ffffffffffffffffffffffffffffffffffffffff1681526020018681526020018560001916600019168152602001848152602001838152602001821515151581526020019850505050505050505060405180910390a4612ca7565b610180604051908101604052808381526020018c81526020018d8152602001600081526020018381526020018a73ffffffffffffffffffffffffffffffffffffffff1681526020018981526020018860001916815260200187815260200186815260200185151581526020016000151581525090508a8c837f32a1e31199d17c85d6d4bc5532f14905535322fb657272a26e6fe7072785c3126000868e8e8e8e8e8e604051808981526020018881526020018773ffffffffffffffffffffffffffffffffffffffff1673ffffffffffffffffffffffffffffffffffffffff1681526020018681526020018560001916600019168152602001848152602001838152602001821515151581526020019850505050505050505060405180910390a45b612cb08161423d565b612cb8614ee0565b505050505050505050505050565b600160009054906101000a900473ffffffffffffffffffffffffffffffffffffffff1673ffffffffffffffffffffffffffffffffffffffff163373ffffffffffffffffffffffffffffffffffffffff16141515612d2257600080fd5b600073ffffffffffffffffffffffffffffffffffffffff168173ffffffffffffffffffffffffffffffffffffffff1614151515612d5e57600080fd5b8073ffffffffffffffffffffffffffffffffffffffff16600160009054906101000a900473ffffffffffffffffffffffffffffffffffffffff1673ffffffffffffffffffffffffffffffffffffffff167f8be0079c531659141344cd1fd0a4f28419497f9722a3daafe3b4186f6b6457e060405160405180910390a380600160006101000a81548173ffffffffffffffffffffffffffffffffffffffff021916908373ffffffffffffffffffffffffffffffffffffffff16021790555050565b60008060009054906101000a900473ffffffffffffffffffffffffffffffffffffffff1673ffffffffffffffffffffffffffffffffffffffff16634c77e5ba8360405180807f417070726f766564466f72000000000000000000000000000000000000000000815250600b0182815260200191505060405180910390206000604051602001526040518263ffffffff167c0100000000000000000000000000000000000000000000000000000000028152600401808260001916600019168152602001915050602060405180830381600087803b1515612efd57600080fd5b6102c65a03f11515612f0e57600080fd5b505050604051805190509050919050565b6000809054906101000a900473ffffffffffffffffffffffffffffffffffffffff1673ffffffffffffffffffffffffffffffffffffffff16635a2bf25a8360405180807f417070726f766564466f72000000000000000000000000000000000000000000815250600b018281526020019150506040518091039020836040518363ffffffff167c01000000000000000000000000000000000000000000000000000000000281526004018083600019166000191681526020018273ffffffffffffffffffffffffffffffffffffffff1673ffffffffffffffffffffffffffffffffffffffff16815260200192505050600060405180830381600087803b151561302757600080fd5b6102c65a03f1151561303857600080fd5b5050505050565b600080828401905083811015151561305357fe5b8091505092915050565b60008060008414156130725760009150613091565b828402905082848281151561308357fe5b0414151561308d57fe5b8091505b5092915050565b60008082848115156130a657fe5b0490508091505092915050565b6130bb615769565b60008060008060008060008060008060008060009054906101000a900473ffffffffffffffffffffffffffffffffffffffff1673ffffffffffffffffffffffffffffffffffffffff1663bdc963d88e60405180807f5749540000000000000000000000000000000000000000000000000000000000815250600301828152602001807f61626f7665457363726f77000000000000000000000000000000000000000000815250600b0191505060405180910390206000604051602001526040518263ffffffff167c0100000000000000000000000000000000000000000000000000000000028152600401808260001916600019168152602001915050602060405180830381600087803b15156131d157600080fd5b6102c65a03f115156131e257600080fd5b505050604051805190509a506000809054906101000a900473ffffffffffffffffffffffffffffffffffffffff1673ffffffffffffffffffffffffffffffffffffffff1663bdc963d88e60405180807f5749540000000000000000000000000000000000000000000000000000000000815250600301828152602001807f62656c6f77457363726f77000000000000000000000000000000000000000000815250600b0191505060405180910390206000604051602001526040518263ffffffff167c0100000000000000000000000000000000000000000000000000000000028152600401808260001916600019168152602001915050602060405180830381600087803b15156132f357600080fd5b6102c65a03f1151561330457600080fd5b5050506040518051905099506000809054906101000a900473ffffffffffffffffffffffffffffffffffffffff1673ffffffffffffffffffffffffffffffffffffffff1663bdc963d88e60405180807f5749540000000000000000000000000000000000000000000000000000000000815250600301828152602001807f61626f766549440000000000000000000000000000000000000000000000000081525060070191505060405180910390206000604051602001526040518263ffffffff167c0100000000000000000000000000000000000000000000000000000000028152600401808260001916600019168152602001915050602060405180830381600087803b151561341557600080fd5b6102c65a03f1151561342657600080fd5b5050506040518051905098506000809054906101000a900473ffffffffffffffffffffffffffffffffffffffff1673ffffffffffffffffffffffffffffffffffffffff1663bdc963d88e60405180807f5749540000000000000000000000000000000000000000000000000000000000815250600301828152602001807f62656c6f7749440000000000000000000000000000000000000000000000000081525060070191505060405180910390206000604051602001526040518263ffffffff167c0100000000000000000000000000000000000000000000000000000000028152600401808260001916600019168152602001915050602060405180830381600087803b151561353757600080fd5b6102c65a03f1151561354857600080fd5b5050506040518051905097506000809054906101000a900473ffffffffffffffffffffffffffffffffffffffff1673ffffffffffffffffffffffffffffffffffffffff16634c77e5ba8e60405180807f5749540000000000000000000000000000000000000000000000000000000000815250600301828152602001807f6576616c7561746f72000000000000000000000000000000000000000000000081525060090191505060405180910390206000604051602001526040518263ffffffff167c0100000000000000000000000000000000000000000000000000000000028152600401808260001916600019168152602001915050602060405180830381600087803b151561365957600080fd5b6102c65a03f1151561366a57600080fd5b5050506040518051905096506000809054906101000a900473ffffffffffffffffffffffffffffffffffffffff1673ffffffffffffffffffffffffffffffffffffffff1663bdc963d88e60405180807f5749540000000000000000000000000000000000000000000000000000000000815250600301828152602001807f7468726573686f6c6450504d0000000000000000000000000000000000000000815250600c0191505060405180910390206000604051602001526040518263ffffffff167c0100000000000000000000000000000000000000000000000000000000028152600401808260001916600019168152602001915050602060405180830381600087803b151561377b57600080fd5b6102c65a03f1151561378c57600080fd5b5050506040518051905095506000809054906101000a900473ffffffffffffffffffffffffffffffffffffffff1673ffffffffffffffffffffffffffffffffffffffff1663025ec81a8e60405180807f5749540000000000000000000000000000000000000000000000000000000000815250600301828152602001807f6c6f636174696f6e00000000000000000000000000000000000000000000000081525060080191505060405180910390206000604051602001526040518263ffffffff167c0100000000000000000000000000000000000000000000000000000000028152600401808260001916600019168152602001915050602060405180830381600087803b151561389d57600080fd5b6102c65a03f115156138ae57600080fd5b5050506040518051905094506000809054906101000a900473ffffffffffffffffffffffffffffffffffffffff1673ffffffffffffffffffffffffffffffffffffffff1663bdc963d88e60405180807f5749540000000000000000000000000000000000000000000000000000000000815250600301828152602001807f737461727400000000000000000000000000000000000000000000000000000081525060050191505060405180910390206000604051602001526040518263ffffffff167c0100000000000000000000000000000000000000000000000000000000028152600401808260001916600019168152602001915050602060405180830381600087803b15156139bf57600080fd5b6102c65a03f115156139d057600080fd5b5050506040518051905093506000809054906101000a900473ffffffffffffffffffffffffffffffffffffffff1673ffffffffffffffffffffffffffffffffffffffff1663bdc963d88e60405180807f5749540000000000000000000000000000000000000000000000000000000000815250600301828152602001807f656e64000000000000000000000000000000000000000000000000000000000081525060030191505060405180910390206000604051602001526040518263ffffffff167c0100000000000000000000000000000000000000000000000000000000028152600401808260001916600019168152602001915050602060405180830381600087803b1515613ae157600080fd5b6102c65a03f11515613af257600080fd5b5050506040518051905092506000809054906101000a900473ffffffffffffffffffffffffffffffffffffffff1673ffffffffffffffffffffffffffffffffffffffff166317e7dd228e60405180807f5749540000000000000000000000000000000000000000000000000000000000815250600301828152602001807f6d616b655374616c65000000000000000000000000000000000000000000000081525060090191505060405180910390206000604051602001526040518263ffffffff167c0100000000000000000000000000000000000000000000000000000000028152600401808260001916600019168152602001915050602060405180830381600087803b1515613c0357600080fd5b6102c65a03f11515613c1457600080fd5b5050506040518051905091506000809054906101000a900473ffffffffffffffffffffffffffffffffffffffff1673ffffffffffffffffffffffffffffffffffffffff166317e7dd228e60405180807f5749540000000000000000000000000000000000000000000000000000000000815250600301828152602001807f6177616974696e674576616c756174696f6e000000000000000000000000000081525060120191505060405180910390206000604051602001526040518263ffffffff167c0100000000000000000000000000000000000000000000000000000000028152600401808260001916600019168152602001915050602060405180830381600087803b1515613d2557600080fd5b6102c65a03f11515613d3657600080fd5b505050604051805190509050610180604051908101604052808e81526020018c81526020018b81526020018a81526020018981526020018873ffffffffffffffffffffffffffffffffffffffff1681526020018781526020018660001916815260200185815260200184815260200183151581526020018215158152509b505050505050505050505050919050565b613dcd615769565b81613dd6615769565b600080613de2846130b3565b92503373ffffffffffffffffffffffffffffffffffffffff16613e088460600151611009565b73ffffffffffffffffffffffffffffffffffffffff161491503373ffffffffffffffffffffffffffffffffffffffff16613e458460800151611009565b73ffffffffffffffffffffffffffffffffffffffff161490508180613e675750805b1515613e7257600080fd5b613e7b866130b3565b9450613e8a8560800151614fe4565b613e978560600151614fe4565b613f1a6101806040519081016040528088815260200160008152602001600081526020016000815260200160008152602001600073ffffffffffffffffffffffffffffffffffffffff168152602001600081526020016000801916815260200160008152602001600081526020016000151581526020016000151581525061423d565b505050505050565b600073ffffffffffffffffffffffffffffffffffffffff168273ffffffffffffffffffffffffffffffffffffffff1614151515613f5e57600080fd5b613f6781611009565b73ffffffffffffffffffffffffffffffffffffffff168273ffffffffffffffffffffffffffffffffffffffff1614151515613fa157600080fd5b8273ffffffffffffffffffffffffffffffffffffffff16613fc182611009565b73ffffffffffffffffffffffffffffffffffffffff16141515613fe357600080fd5b613fed8382615074565b613ff78382615115565b6140018282615397565b8173ffffffffffffffffffffffffffffffffffffffff168373ffffffffffffffffffffffffffffffffffffffff167fddf252ad1be2c89b69c2b068fc378daa952ba7f163c4a11628f55a4df523b3ef836040518082815260200191505060405180910390a3505050565b60008273ffffffffffffffffffffffffffffffffffffffff1661408d83612e1e565b73ffffffffffffffffffffffffffffffffffffffff1614905092915050565b600073ffffffffffffffffffffffffffffffffffffffff168273ffffffffffffffffffffffffffffffffffffffff16141515156140e857600080fd5b6140f28282615397565b8173ffffffffffffffffffffffffffffffffffffffff1660007fddf252ad1be2c89b69c2b068fc378daa952ba7f163c4a11628f55a4df523b3ef836040518082815260200191505060405180910390a35050565b60008060009054906101000a900473ffffffffffffffffffffffffffffffffffffffff1673ffffffffffffffffffffffffffffffffffffffff1663bdc963d860405180807f5749544944436f756e7465720000000000000000000000000000000000000000815250600c01905060405180910390206000604051602001526040518263ffffffff167c0100000000000000000000000000000000000000000000000000000000028152600401808260001916600019168152602001915050602060405180830381600087803b151561421d57600080fd5b6102c65a03f1151561422e57600080fd5b50505060405180519050905090565b6000809054906101000a900473ffffffffffffffffffffffffffffffffffffffff1673ffffffffffffffffffffffffffffffffffffffff16633562fd20826000015160405180807f5749540000000000000000000000000000000000000000000000000000000000815250600301828152602001807f61626f7665457363726f77000000000000000000000000000000000000000000815250600b01915050604051809103902083602001516040518363ffffffff167c010000000000000000000000000000000000000000000000000000000002815260040180836000191660001916815260200182815260200192505050600060405180830381600087803b151561434957600080fd5b6102c65a03f1151561435a57600080fd5b5050506000809054906101000a900473ffffffffffffffffffffffffffffffffffffffff1673ffffffffffffffffffffffffffffffffffffffff16633562fd20826000015160405180807f5749540000000000000000000000000000000000000000000000000000000000815250600301828152602001807f62656c6f77457363726f77000000000000000000000000000000000000000000815250600b01915050604051809103902083604001516040518363ffffffff167c010000000000000000000000000000000000000000000000000000000002815260040180836000191660001916815260200182815260200192505050600060405180830381600087803b151561446957600080fd5b6102c65a03f1151561447a57600080fd5b5050506000809054906101000a900473ffffffffffffffffffffffffffffffffffffffff1673ffffffffffffffffffffffffffffffffffffffff16633562fd20826000015160405180807f5749540000000000000000000000000000000000000000000000000000000000815250600301828152602001807f61626f7665494400000000000000000000000000000000000000000000000000815250600701915050604051809103902083606001516040518363ffffffff167c010000000000000000000000000000000000000000000000000000000002815260040180836000191660001916815260200182815260200192505050600060405180830381600087803b151561458957600080fd5b6102c65a03f1151561459a57600080fd5b5050506000809054906101000a900473ffffffffffffffffffffffffffffffffffffffff1673ffffffffffffffffffffffffffffffffffffffff16633562fd20826000015160405180807f5749540000000000000000000000000000000000000000000000000000000000815250600301828152602001807f62656c6f77494400000000000000000000000000000000000000000000000000815250600701915050604051809103902083608001516040518363ffffffff167c010000000000000000000000000000000000000000000000000000000002815260040180836000191660001916815260200182815260200192505050600060405180830381600087803b15156146a957600080fd5b6102c65a03f115156146ba57600080fd5b5050506000809054906101000a900473ffffffffffffffffffffffffffffffffffffffff1673ffffffffffffffffffffffffffffffffffffffff16635a2bf25a826000015160405180807f5749540000000000000000000000000000000000000000000000000000000000815250600301828152602001807f6576616c7561746f72000000000000000000000000000000000000000000000081525060090191505060405180910390208360a001516040518363ffffffff167c01000000000000000000000000000000000000000000000000000000000281526004018083600019166000191681526020018273ffffffffffffffffffffffffffffffffffffffff1673ffffffffffffffffffffffffffffffffffffffff16815260200192505050600060405180830381600087803b15156147f557600080fd5b6102c65a03f1151561480657600080fd5b5050506000809054906101000a900473ffffffffffffffffffffffffffffffffffffffff1673ffffffffffffffffffffffffffffffffffffffff16633562fd20826000015160405180807f5749540000000000000000000000000000000000000000000000000000000000815250600301828152602001807f7468726573686f6c6450504d0000000000000000000000000000000000000000815250600c0191505060405180910390208360c001516040518363ffffffff167c010000000000000000000000000000000000000000000000000000000002815260040180836000191660001916815260200182815260200192505050600060405180830381600087803b151561491557600080fd5b6102c65a03f1151561492657600080fd5b5050506000809054906101000a900473ffffffffffffffffffffffffffffffffffffffff1673ffffffffffffffffffffffffffffffffffffffff166325cf512d826000015160405180807f5749540000000000000000000000000000000000000000000000000000000000815250600301828152602001807f6c6f636174696f6e00000000000000000000000000000000000000000000000081525060080191505060405180910390208360e001516040518363ffffffff167c0100000000000000000000000000000000000000000000000000000000028152600401808360001916600019168152602001826000191660001916815260200192505050600060405180830381600087803b1515614a3d57600080fd5b6102c65a03f11515614a4e57600080fd5b5050506000809054906101000a900473ffffffffffffffffffffffffffffffffffffffff1673ffffffffffffffffffffffffffffffffffffffff16633562fd20826000015160405180807f5749540000000000000000000000000000000000000000000000000000000000815250600301828152602001807f737461727400000000000000000000000000000000000000000000000000000081525060050191505060405180910390208361010001516040518363ffffffff167c010000000000000000000000000000000000000000000000000000000002815260040180836000191660001916815260200182815260200192505050600060405180830381600087803b1515614b5e57600080fd5b6102c65a03f11515614b6f57600080fd5b5050506000809054906101000a900473ffffffffffffffffffffffffffffffffffffffff1673ffffffffffffffffffffffffffffffffffffffff16633562fd20826000015160405180807f5749540000000000000000000000000000000000000000000000000000000000815250600301828152602001807f656e64000000000000000000000000000000000000000000000000000000000081525060030191505060405180910390208361012001516040518363ffffffff167c010000000000000000000000000000000000000000000000000000000002815260040180836000191660001916815260200182815260200192505050600060405180830381600087803b1515614c7f57600080fd5b6102c65a03f11515614c9057600080fd5b5050506000809054906101000a900473ffffffffffffffffffffffffffffffffffffffff1673ffffffffffffffffffffffffffffffffffffffff16633eba9ed2826000015160405180807f5749540000000000000000000000000000000000000000000000000000000000815250600301828152602001807f6d616b655374616c65000000000000000000000000000000000000000000000081525060090191505060405180910390208361014001516040518363ffffffff167c01000000000000000000000000000000000000000000000000000000000281526004018083600019166000191681526020018215151515815260200192505050600060405180830381600087803b1515614da457600080fd5b6102c65a03f11515614db557600080fd5b5050506000809054906101000a900473ffffffffffffffffffffffffffffffffffffffff1673ffffffffffffffffffffffffffffffffffffffff16633eba9ed2826000015160405180807f5749540000000000000000000000000000000000000000000000000000000000815250600301828152602001807f6177616974696e674576616c756174696f6e000000000000000000000000000081525060120191505060405180910390208361016001516040518363ffffffff167c01000000000000000000000000000000000000000000000000000000000281526004018083600019166000191681526020018215151515815260200192505050600060405180830381600087803b1515614ec957600080fd5b6102c65a03f11515614eda57600080fd5b50505050565b6000809054906101000a900473ffffffffffffffffffffffffffffffffffffffff1673ffffffffffffffffffffffffffffffffffffffff16633562fd2060405180807f5749544944436f756e7465720000000000000000000000000000000000000000815250600c0190506040518091039020614f6e6002614f60614146565b61303f90919063ffffffff16565b6040518363ffffffff167c010000000000000000000000000000000000000000000000000000000002815260040180836000191660001916815260200182815260200192505050600060405180830381600087803b1515614fce57600080fd5b6102c65a03f11515614fdf57600080fd5b505050565b6000614fef82612e1e565b73ffffffffffffffffffffffffffffffffffffffff16141515615017576150163382615074565b5b6150213382615115565b60003373ffffffffffffffffffffffffffffffffffffffff167fddf252ad1be2c89b69c2b068fc378daa952ba7f163c4a11628f55a4df523b3ef836040518082815260200191505060405180910390a350565b8173ffffffffffffffffffffffffffffffffffffffff1661509482611009565b73ffffffffffffffffffffffffffffffffffffffff161415156150b657600080fd5b6150c1816000612f1f565b60008273ffffffffffffffffffffffffffffffffffffffff167f8c5be1e5ebec7d5bd14f71427d1e84f3dd0314c0f7b2291e5b200ac8c7c3b925836040518082815260200191505060405180910390a35050565b60008273ffffffffffffffffffffffffffffffffffffffff1661513783611009565b73ffffffffffffffffffffffffffffffffffffffff1614151561515957600080fd5b615164826000615630565b61516d8361110f565b90506000809054906101000a900473ffffffffffffffffffffffffffffffffffffffff1673ffffffffffffffffffffffffffffffffffffffff16633562fd208460405180807f42616c616e63654f6600000000000000000000000000000000000000000000008152506009018273ffffffffffffffffffffffffffffffffffffffff1673ffffffffffffffffffffffffffffffffffffffff166c01000000000000000000000000028152601401915050604051809103902061523960018561575090919063ffffffff16565b6040518363ffffffff167c010000000000000000000000000000000000000000000000000000000002815260040180836000191660001916815260200182815260200192505050600060405180830381600087803b151561529957600080fd5b6102c65a03f115156152aa57600080fd5b5050506000809054906101000a900473ffffffffffffffffffffffffffffffffffffffff1673ffffffffffffffffffffffffffffffffffffffff16633562fd2061530560016152f76107d5565b61575090919063ffffffff16565b6040518263ffffffff167c010000000000000000000000000000000000000000000000000000000002815260040180807f546f74616c537570706c79000000000000000000000000000000000000000000815250602001828152602001915050600060405180830381600087803b151561537e57600080fd5b6102c65a03f1151561538f57600080fd5b505050505050565b600073ffffffffffffffffffffffffffffffffffffffff166153b882611009565b73ffffffffffffffffffffffffffffffffffffffff161415156153da57600080fd5b6153e48183615630565b6000809054906101000a900473ffffffffffffffffffffffffffffffffffffffff1673ffffffffffffffffffffffffffffffffffffffff16633562fd208360405180807f42616c616e63654f6600000000000000000000000000000000000000000000008152506009018273ffffffffffffffffffffffffffffffffffffffff1673ffffffffffffffffffffffffffffffffffffffff166c0100000000000000000000000002815260140191505060405180910390206154b660016154a88761110f565b61303f90919063ffffffff16565b6040518363ffffffff167c010000000000000000000000000000000000000000000000000000000002815260040180836000191660001916815260200182815260200192505050600060405180830381600087803b151561551657600080fd5b6102c65a03f1151561552757600080fd5b5050506000809054906101000a900473ffffffffffffffffffffffffffffffffffffffff1673ffffffffffffffffffffffffffffffffffffffff16633562fd2060405180807f546f74616c537570706c79000000000000000000000000000000000000000000815250600b01905060405180910390206155b860016155aa6107d5565b61303f90919063ffffffff16565b6040518363ffffffff167c010000000000000000000000000000000000000000000000000000000002815260040180836000191660001916815260200182815260200192505050600060405180830381600087803b151561561857600080fd5b6102c65a03f1151561562957600080fd5b5050505050565b6000809054906101000a900473ffffffffffffffffffffffffffffffffffffffff1673ffffffffffffffffffffffffffffffffffffffff16635a2bf25a8360405180807f4f776e65724f66000000000000000000000000000000000000000000000000008152506007018281526020019150506040518091039020836040518363ffffffff167c01000000000000000000000000000000000000000000000000000000000281526004018083600019166000191681526020018273ffffffffffffffffffffffffffffffffffffffff1673ffffffffffffffffffffffffffffffffffffffff16815260200192505050600060405180830381600087803b151561573857600080fd5b6102c65a03f1151561574957600080fd5b5050505050565b600082821115151561575e57fe5b818303905092915050565b610180604051908101604052806000815260200160008152602001600081526020016000815260200160008152602001600073ffffffffffffffffffffffffffffffffffffffff1681526020016000815260200160008019168152602001600081526020016000815260200160001515815260200160001515815250905600a165627a7a7230582082a86919afe622c4ae99f72b2f3c69ad2ceefb7e397f3e42e6b3a916a47ea0fa0029",
  "source": "pragma solidity ^0.4.18;\n\nimport 'zeppelin-solidity/contracts/math/SafeMath.sol';\nimport './DecoupledERC721Token.sol';\nimport './Arbolcoin.sol';\nimport './EternalDonut.sol';\nimport './Ownable.sol';\nimport './WITEvaluator.sol';\nimport './callbackableWIT.sol';\n\n/**\n * @title Weather Immunity Token for ARBOL and weather protection agreements.\n *\n * @dev If you hold this token you are eligible for a payout based on the outcome of the weather.\n * @dev WITs are a representation of a protection agreement between two parties.\n * @dev Various terms can be set by the \"proposer.\" The proposal is represented as one WIT.\n * @dev The proposal can be accepted. If it is accepted, a new WIT is created according to the terms specified in the first one.\n * @dev WITs can be transferred after they have been created. They are nonfungible ERC721 tokens.\n */\ncontract WeatherImmunityToken is DecoupledERC721Token, Ownable, callbackableWIT {\n  using SafeMath for uint;\n\n    // A struct which represents all the values in a WIT.\n    struct WIT {\n      uint WITID;\n      uint aboveEscrow;\n      uint belowEscrow;\n      uint aboveID;\n      uint belowID; \n      address evaluator;\n      uint thresholdPPM;\n      bytes32 location;\n      uint start;\n      uint end;\n      bool makeStale;\n      bool awaitingEvaluation;  //TODO get rid of this as oraclize callbacks can be executed before the query sometimes.\n    }\n\n    // Arbolcoin smart contract (contains address). \n    Arbolcoin private arbol;\n\n    // ARBOL fees go to this wallet. TODO make this owner, or implement revenue token.\n    address private systemFeeWallet = 0x5AEDA56215b167893e80B4fE645BA6d5Bab767DE;\n\n\n    // The ARBOL system fee in parts per million. (of wei.) 100% for now.\n    uint public systemFeePPM;\n\n    // These are to facilitate queries related to getting open proposals.\n    event Redemption(uint indexed WITID, uint amount, address indexed user);\n    event ProposalAccepted(uint indexed WITID, uint indexed aboveID, uint indexed belowID);\n    event ProposalOffered(uint indexed WITID, uint aboveID, uint belowID, uint indexed weiContributing,  uint indexed weiAsking, address evaluator, uint thresholdPPM, bytes32 location, uint start, uint end, bool makeStale);\n\n\n    //do this separately from constructor because of gas issues\n    function initialize(address _arbolAddress, address storageAddress, address NOAAPrecipAggregate) public onlyContractOwner {\n      require(storageContract.getUIntValue(keccak256(\"WITIDCounter\")) == 0);\n      arbol = Arbolcoin(_arbolAddress);\n      storageContract = EternalDonut(storageAddress);\n\n      systemFeePPM = 1000000;\n      storageContract.setUIntValue(keccak256(\"WITIDCounter\"), uint(1)); //start at 1\n      storageContract.setAddressValue(keccak256(\"Dependants\", uint(1)), address(storageContract));\n      storageContract.setAddressValue(keccak256(\"Dependants\", uint(2)), address(NOAAPrecipAggregate));\n      storageContract.setUIntValue(keccak256(\"DependantsCounter\"), uint(2));\n    }\n\n\n  /**\n  * @dev Guarantees msg.sender is owner of the given token\n  * @param _tokenId uint256 ID of the token to validate its ownership belongs to msg.sender\n  */\n  modifier onlyOwnerOfSubWITOf(uint256 _tokenId) {\n    WIT memory the_wit = getWIT(_tokenId);\n    bool is_above_owner = ownerOf(the_wit.aboveID) == msg.sender;\n    bool is_below_owner = ownerOf(the_wit.belowID) == msg.sender;\n    require(is_above_owner || is_below_owner);\n    _;\n  }\n\n\n   function getTokenCounter() private view returns (uint) {\n    return storageContract.getUIntValue(keccak256(\"WITIDCounter\"));\n   }\n\n   function incrementTokenCounter() private {\n     storageContract.setUIntValue(keccak256(\"WITIDCounter\"), getTokenCounter().add(2)); // Yes, 2.\n   }\n\n    function getWIT(uint tokenID) private returns (WIT) {\n    uint aboveEscrow = storageContract.getUIntValue(keccak256(\"WIT\", tokenID, \"aboveEscrow\"));\n    uint belowEscrow = storageContract.getUIntValue(keccak256(\"WIT\", tokenID, \"belowEscrow\"));\n    uint aboveID = storageContract.getUIntValue(keccak256(\"WIT\", tokenID, \"aboveID\"));\n    uint belowID = storageContract.getUIntValue(keccak256(\"WIT\", tokenID, \"belowID\"));    \n    address evaluator = storageContract.getAddressValue(keccak256(\"WIT\", tokenID, \"evaluator\"));\n    uint thresholdPPM = storageContract.getUIntValue(keccak256(\"WIT\", tokenID, \"thresholdPPM\"));\n    bytes32 location = storageContract.getBytes32Value(keccak256(\"WIT\", tokenID, \"location\"));\n    uint start = storageContract.getUIntValue(keccak256(\"WIT\", tokenID, \"start\"));\n    uint end = storageContract.getUIntValue(keccak256(\"WIT\", tokenID, \"end\"));\n    bool makeStale = storageContract.getBooleanValue(keccak256(\"WIT\", tokenID, \"makeStale\"));\n    bool awaitingEvaluation = storageContract.getBooleanValue(keccak256(\"WIT\", tokenID, \"awaitingEvaluation\"));\n    return WIT(tokenID, aboveEscrow, belowEscrow, aboveID, belowID, evaluator, thresholdPPM, location, start, end, makeStale, awaitingEvaluation);\n        \n    }\n\n    function saveWIT(WIT the_wit) private {\n        storageContract.setUIntValue(keccak256(\"WIT\", the_wit.WITID, \"aboveEscrow\"), the_wit.aboveEscrow);\n        storageContract.setUIntValue(keccak256(\"WIT\", the_wit.WITID, \"belowEscrow\"), the_wit.belowEscrow);\n        storageContract.setUIntValue(keccak256(\"WIT\", the_wit.WITID, \"aboveID\"), the_wit.aboveID);\n        storageContract.setUIntValue(keccak256(\"WIT\", the_wit.WITID, \"belowID\"), the_wit.belowID);        \n        storageContract.setAddressValue(keccak256(\"WIT\", the_wit.WITID, \"evaluator\"), the_wit.evaluator);\n        storageContract.setUIntValue(keccak256(\"WIT\", the_wit.WITID, \"thresholdPPM\"), the_wit.thresholdPPM);\n        storageContract.setBytes32Value(keccak256(\"WIT\", the_wit.WITID, \"location\"), the_wit.location);\n        storageContract.setUIntValue(keccak256(\"WIT\", the_wit.WITID, \"start\"), the_wit.start);\n        storageContract.setUIntValue(keccak256(\"WIT\", the_wit.WITID, \"end\"), the_wit.end);\n        storageContract.setBooleanValue(keccak256(\"WIT\", the_wit.WITID, \"makeStale\"), the_wit.makeStale);\n        storageContract.setBooleanValue(keccak256(\"WIT\", the_wit.WITID, \"awaitingEvaluation\"), the_wit.awaitingEvaluation);\n    }\n\n\n   /**\n    * @dev Create a WIT without a partner. (A proposal.)\n    * @param weiContributing Amount of wei user proposes to contribute\n    * @param weiAsking Amount of wei user proposes the partner contribute.\n    * @param evaluator The address of the contract that will evaluate the WIT (for example one that integrates with a specific weather API).\n    * @param thresholdPPM The threshold by which the payout will be determined.\n    * @param start The start date of the WIT.\n    * @param end The end date of the WIT.\n    * @param makeStale If set to true, the WIT will be taken off the open market after its start date passes. That is, no one will be able to accept it.\n    */\n    function createWITProposal(uint weiContributing, uint weiAsking, bool aboveOrBelow, address evaluator, uint thresholdPPM, bytes32 location, uint start, uint end, bool makeStale) public payable {\n\n\n      require(weiContributing > 0);\n      require(weiAsking > 0);\n      weiAsking.add(weiContributing); // this expression will throw if the escrow amounts are too big.\n\n      require(now < start); // Don't let people create WITs that start in the past. Opens the door for abuse.\n      require(start < end);\n  \n      // Validate amount of wei sent.\n      require(msg.value == weiContributing);\n\n      // Calculate and take ARBOL fee.\n      uint fee = calculateFee(weiContributing, weiAsking);\n\n      if (fee != 0) {\n          require(arbol.transferFrom(msg.sender, systemFeeWallet, fee));\n          //TODO accept ether\n      }\n\n      uint ID = getTokenCounter();\n\n      _mint(msg.sender, ID);\n\n      WIT memory new_WIT;\n      if (aboveOrBelow) {\n        new_WIT = WIT(ID, weiContributing, weiAsking, ID, 0, evaluator, thresholdPPM, location, start, end, makeStale, false);\n        ProposalOffered(ID, ID, 0, weiContributing, weiAsking, evaluator, thresholdPPM, location, start, end, makeStale);\n      }\n      else {\n        new_WIT = WIT(ID, weiAsking, weiContributing, 0, ID, evaluator, thresholdPPM, location, start, end, makeStale, false);\n        ProposalOffered(ID, 0, ID, weiContributing, weiAsking, evaluator, thresholdPPM, location, start, end, makeStale);        \n      }\n\n      saveWIT(new_WIT);\n      incrementTokenCounter();\n    }\n\n\n    /**\n    * @dev Create a WIT and partner it to an existing WIT (accept a proposed protection agreement).\n    * @param proposalID The ID of the WIT to which the new WIT shall be partnered.\n    */\n    function createWITAcceptance(uint proposalID) public payable {\n\n      // Specified partner token must exist\n      require(ownerOf(proposalID) != address(0));\n  \n      WIT memory proposalWIT = getWIT(proposalID);\n\n      uint new_ID = proposalWIT.WITID.add(1);\n      uint fee;\n\n      if (proposalWIT.makeStale) {\n        require(now < proposalWIT.start);\n      }\n\n      // Figure out whether we are adding an \"above\" or \"below\" WIT receipt.\n      if (proposalWIT.aboveID == 0) {\n        // Validate the amount of wei sent.\n        require(msg.value == proposalWIT.aboveEscrow);\n\n        fee = calculateFee(proposalWIT.aboveEscrow, proposalWIT.belowEscrow);\n        if (fee != 0) {\n\n        // TODO accept fee in ether\n        require(arbol.transferFrom(msg.sender, systemFeeWallet, fee));\n        }\n        storageContract.setUIntValue(keccak256(\"WIT\", proposalWIT.WITID, \"aboveID\"), new_ID);        \n        ProposalAccepted(proposalWIT.WITID, new_ID, proposalWIT.WITID);\n\n      }\n      else {\n        require(proposalWIT.belowID == 0);\n\n        // Validate the amount of wei sent.\n        require(msg.value == proposalWIT.belowEscrow);\n  \n        fee = calculateFee(proposalWIT.belowEscrow, proposalWIT.aboveEscrow);\n        if (fee != 0) {\n\n          // TODO accept fee in ether\n          require(arbol.transferFrom(msg.sender, systemFeeWallet, fee));\n\n\n        }\n        storageContract.setUIntValue(keccak256(\"WIT\", proposalWIT.WITID, \"belowID\"), new_ID);     \n        ProposalAccepted(proposalWIT.WITID, proposalWIT.WITID, new_ID);\n\n\n      }\n\n      _mint(msg.sender, new_ID);\n\n    }\n\n    /**\n    * @dev Burns a specific token.  \n    * @param tokenID uint ID of the token being burned by the msg.sender\n    */\n    function burnWIT(uint tokenID) private onlyOwnerOfSubWITOf(tokenID) { // gets called in cancelAndRedeem and evaluate\n      WIT memory the_wit = getWIT(tokenID);\n      \n      _burn(the_wit.belowID);\n      _burn(the_wit.aboveID);\n\n      saveWIT(WIT(tokenID, 0, 0, 0, 0, 0, 0, \"\", 0, 0, false, false));\n    }\n\n\n    /**\n    * @dev Calculates the fee in ARBOL associated with a WIT. Fees are paid by the seller, and are a percentage of the total escrowed ETH amount.\n    * @param weiContributing One half of the total escrowed ETH in a partnered WIT pair (an agreement).\n    * @param weiAsking The other half of the total escrowed ETH.\n    * @return the fee in ARBOL\n    */\n    function calculateFee(uint weiContributing, uint weiAsking) public constant returns (uint) {\n      uint totalEscrow = weiContributing.add(weiAsking);\n\n      if (weiContributing > weiAsking) {         // If user is contributing more than asking, they are the seller and they pay the fee.\n        return totalEscrow.mul(systemFeePPM).div(1000000);\n      } else if (weiContributing < weiAsking) {\n        return 0; // Buyer role pays no fee\n      } else {\n        return totalEscrow.mul(systemFeePPM).div(1000000).div(2);  // If this is a 50-50 thing, split the fee.\n      }\n    }\n\n\n    /**\n    * @dev Set the system fee to a new value. This doesn't affect existing WITs.\n    */ \n    function setSystemFee(uint fee) public \n    onlyContractOwner {\n      require(0 <= fee);\n      systemFeePPM = fee;\n    }\n\n\n    /**\n    * @dev Cancel an unpartnered WIT that you have created. Redeem the ETH escrowed therein.\n    * @param tokenID The ID of your token that you want to cancel.\n    TODO ARBOL redemption\n    */ \n    function cancelAndRedeem(uint tokenID) onlyOwnerOfSubWITOf(tokenID) public {\n      WIT memory the_wit = getWIT(tokenID);\n      uint redemptionAmount = the_wit.belowEscrow;\n      require((the_wit.aboveID == 0) || (the_wit.belowID == 0)); \n      burnWIT(tokenID);\n      msg.sender.transfer(redemptionAmount);\n      Redemption(tokenID, redemptionAmount, msg.sender);\n      \n    }\n\n    event WITEvaluated(uint WITID, string evaluationResult);\n\n    function evaluate(uint tokenID, string runtimeParams) onlyOwnerOfSubWITOf(tokenID) public {\n      WIT memory the_wit = getWIT(tokenID);\n      require(the_wit.end < now);\n      require(the_wit.aboveID != 0);\n      require(the_wit.belowID != 0);\n\n      WITEvaluator evaluator = WITEvaluator(the_wit.evaluator);\n      evaluator.evaluateWIT(tokenID, the_wit.start, the_wit.end, the_wit.thresholdPPM, the_wit.location, 10, \"\");\n      storageContract.setBooleanValue(keccak256(\"WIT\", the_wit.WITID, \"awaitingEvaluation\"), true);\n  \n    }\n\n\n    function evaluatorCallback(uint WITID, string outcome) public {\n          WIT memory the_wit = getWIT(WITID);\n          require(msg.sender == the_wit.evaluator);\n          require(the_wit.awaitingEvaluation);\n\n\n           uint totalEscrow = the_wit.aboveEscrow.add(the_wit.belowEscrow);\n\n      if (keccak256(outcome) == keccak256(\"above\")) { // use keccak because == doesn't work for strings.\n        burnWIT(WITID);\n        Redemption(WITID, totalEscrow, ownerOf(the_wit.aboveID));\n        ownerOf(the_wit.aboveID).transfer(totalEscrow);\n        WITEvaluated(WITID, outcome);\n      }\n\n        else {\n            if (keccak256(outcome) == keccak256(\"below\")) {\n                burnWIT(WITID);\n                Redemption(WITID, totalEscrow, ownerOf(the_wit.belowID));\n                ownerOf(the_wit.belowID).transfer(totalEscrow);\n                WITEvaluated(WITID, outcome);\n            }\n            else {revert();}\n      }\n    }\n\n\n  function addDependant(address dependant) public onlyContractOwner {\n    uint counter = storageContract.getUIntValue(keccak256(\"DependantsCounter\"));\n    storageContract.setAddressValue(keccak256(\"Dependants\", counter.add(1)), dependant);\n    storageContract.setUIntValue(keccak256(\"DependantsCounter\"), counter.add(1));\n  }\n\n\n  function transferOwnershipOfDependants(address newOwner) onlyContractOwner public {\n    for (uint counter = storageContract.getUIntValue(keccak256(\"DependantsCounter\")); counter > 0; counter--) {\n      address dependant = storageContract.getAddressValue(keccak256(\"Dependants\", counter));\n      Ownable(dependant).transferOwnership(newOwner);\n    }\n  }\n\n\n}",
  "sourcePath": "/Users/benandre/cropcrop/contracts/WeatherImmunityToken.sol",
  "compiler": {
    "name": "solc",
    "version": "0.4.18+commit.9cf6e910.Emscripten.clang"
  },
  "schemaVersion": "1.0.1",
  "updatedAt": "2018-04-26T20:25:12.112Z"
}