{
  "contractName": "WeatherImmunityToken",
  "abi": [
    {
      "constant": false,
      "inputs": [
        {
          "name": "_to",
          "type": "address"
        },
        {
          "name": "_tokenId",
          "type": "uint256"
        }
      ],
      "name": "approve",
      "outputs": [],
      "payable": false,
      "stateMutability": "nonpayable",
      "type": "function"
    },
    {
      "constant": false,
      "inputs": [
        {
          "name": "fee",
          "type": "uint256"
        }
      ],
      "name": "setSystemFee",
      "outputs": [],
      "payable": false,
      "stateMutability": "nonpayable",
      "type": "function"
    },
    {
      "constant": true,
      "inputs": [
        {
          "name": "weiContributing",
          "type": "uint256"
        },
        {
          "name": "weiAsking",
          "type": "uint256"
        }
      ],
      "name": "calculateFee",
      "outputs": [
        {
          "name": "",
          "type": "uint256"
        }
      ],
      "payable": false,
      "stateMutability": "view",
      "type": "function"
    },
    {
      "constant": false,
      "inputs": [
        {
          "name": "weiContributing",
          "type": "uint256"
        },
        {
          "name": "weiAsking",
          "type": "uint256"
        },
        {
          "name": "aboveOrBelow",
          "type": "bool"
        },
        {
          "name": "evaluator",
          "type": "address"
        },
        {
          "name": "threshold",
          "type": "string"
        },
        {
          "name": "location",
          "type": "string"
        },
        {
          "name": "start",
          "type": "uint256"
        },
        {
          "name": "end",
          "type": "uint256"
        },
        {
          "name": "makeStale",
          "type": "bool"
        }
      ],
      "name": "createWITProposal",
      "outputs": [],
      "payable": true,
      "stateMutability": "payable",
      "type": "function"
    },
    {
      "constant": false,
      "inputs": [],
      "name": "kill",
      "outputs": [],
      "payable": false,
      "stateMutability": "nonpayable",
      "type": "function"
    },
    {
      "constant": true,
      "inputs": [
        {
          "name": "tokenID",
          "type": "uint256"
        }
      ],
      "name": "ownerOf",
      "outputs": [
        {
          "name": "",
          "type": "address"
        }
      ],
      "payable": false,
      "stateMutability": "view",
      "type": "function"
    },
    {
      "constant": true,
      "inputs": [
        {
          "name": "owner",
          "type": "address"
        }
      ],
      "name": "balanceOf",
      "outputs": [
        {
          "name": "",
          "type": "uint256"
        }
      ],
      "payable": false,
      "stateMutability": "view",
      "type": "function"
    },
    {
      "constant": false,
      "inputs": [
        {
          "name": "tokenID",
          "type": "uint256"
        }
      ],
      "name": "cancelAndRedeem",
      "outputs": [],
      "payable": false,
      "stateMutability": "nonpayable",
      "type": "function"
    },
    {
      "constant": true,
      "inputs": [],
      "name": "owner",
      "outputs": [
        {
          "name": "",
          "type": "address"
        }
      ],
      "payable": false,
      "stateMutability": "view",
      "type": "function"
    },
    {
      "constant": false,
      "inputs": [
        {
          "name": "_to",
          "type": "address"
        },
        {
          "name": "_tokenId",
          "type": "uint256"
        }
      ],
      "name": "transfer",
      "outputs": [],
      "payable": false,
      "stateMutability": "nonpayable",
      "type": "function"
    },
    {
      "constant": false,
      "inputs": [
        {
          "name": "_tokenId",
          "type": "uint256"
        }
      ],
      "name": "takeOwnership",
      "outputs": [],
      "payable": false,
      "stateMutability": "nonpayable",
      "type": "function"
    },
    {
      "constant": false,
      "inputs": [
        {
          "name": "proposalID",
          "type": "uint256"
        }
      ],
      "name": "createWITAcceptance",
      "outputs": [],
      "payable": true,
      "stateMutability": "payable",
      "type": "function"
    },
    {
      "constant": false,
      "inputs": [
        {
          "name": "tokenID",
          "type": "uint256"
        },
        {
          "name": "runtimeParams",
          "type": "string"
        }
      ],
      "name": "evaluate",
      "outputs": [],
      "payable": false,
      "stateMutability": "nonpayable",
      "type": "function"
    },
    {
      "constant": true,
      "inputs": [],
      "name": "systemFeePPM",
      "outputs": [
        {
          "name": "",
          "type": "uint256"
        }
      ],
      "payable": false,
      "stateMutability": "view",
      "type": "function"
    },
    {
      "constant": false,
      "inputs": [
        {
          "name": "newOwner",
          "type": "address"
        }
      ],
      "name": "transferOwnership",
      "outputs": [],
      "payable": false,
      "stateMutability": "nonpayable",
      "type": "function"
    },
    {
      "inputs": [
        {
          "name": "_arbolAddress",
          "type": "address"
        },
        {
          "name": "storageAddress",
          "type": "address"
        }
      ],
      "payable": false,
      "stateMutability": "nonpayable",
      "type": "constructor"
    },
    {
      "anonymous": false,
      "inputs": [
        {
          "indexed": true,
          "name": "WITID",
          "type": "uint256"
        },
        {
          "indexed": false,
          "name": "amount",
          "type": "uint256"
        },
        {
          "indexed": true,
          "name": "user",
          "type": "address"
        }
      ],
      "name": "Redemption",
      "type": "event"
    },
    {
      "anonymous": false,
      "inputs": [
        {
          "indexed": true,
          "name": "WITID",
          "type": "uint256"
        },
        {
          "indexed": true,
          "name": "aboveID",
          "type": "uint256"
        },
        {
          "indexed": true,
          "name": "belowID",
          "type": "uint256"
        }
      ],
      "name": "ProposalAccepted",
      "type": "event"
    },
    {
      "anonymous": false,
      "inputs": [
        {
          "indexed": true,
          "name": "WITID",
          "type": "uint256"
        },
        {
          "indexed": false,
          "name": "aboveID",
          "type": "uint256"
        },
        {
          "indexed": false,
          "name": "belowID",
          "type": "uint256"
        },
        {
          "indexed": true,
          "name": "weiContributing",
          "type": "uint256"
        },
        {
          "indexed": true,
          "name": "weiAsking",
          "type": "uint256"
        },
        {
          "indexed": false,
          "name": "evaluator",
          "type": "address"
        },
        {
          "indexed": false,
          "name": "threshold",
          "type": "string"
        },
        {
          "indexed": false,
          "name": "location",
          "type": "string"
        },
        {
          "indexed": false,
          "name": "start",
          "type": "uint256"
        },
        {
          "indexed": false,
          "name": "end",
          "type": "uint256"
        },
        {
          "indexed": false,
          "name": "makeStale",
          "type": "bool"
        }
      ],
      "name": "ProposalOffered",
      "type": "event"
    },
    {
      "anonymous": false,
      "inputs": [
        {
          "indexed": false,
          "name": "WITID",
          "type": "uint256"
        },
        {
          "indexed": false,
          "name": "evaluationResult",
          "type": "bytes32"
        }
      ],
      "name": "EvaluatorResponse",
      "type": "event"
    },
    {
      "anonymous": false,
      "inputs": [
        {
          "indexed": true,
          "name": "_from",
          "type": "address"
        },
        {
          "indexed": true,
          "name": "_to",
          "type": "address"
        },
        {
          "indexed": false,
          "name": "_tokenId",
          "type": "uint256"
        }
      ],
      "name": "Transfer",
      "type": "event"
    },
    {
      "anonymous": false,
      "inputs": [
        {
          "indexed": true,
          "name": "_owner",
          "type": "address"
        },
        {
          "indexed": true,
          "name": "_approved",
          "type": "address"
        },
        {
          "indexed": false,
          "name": "_tokenId",
          "type": "uint256"
        }
      ],
      "name": "Approval",
      "type": "event"
    },
    {
      "anonymous": false,
      "inputs": [
        {
          "indexed": true,
          "name": "previousOwner",
          "type": "address"
        },
        {
          "indexed": true,
          "name": "newOwner",
          "type": "address"
        }
      ],
      "name": "OwnershipTransferred",
      "type": "event"
    }
  ],
  "bytecode": "0x6060604052735aeda56215b167893e80b4fe645ba6d5bab767de600360006101000a81548173ffffffffffffffffffffffffffffffffffffffff021916908373ffffffffffffffffffffffffffffffffffffffff16021790555034156200006557600080fd5b60405160408062004b418339810160405280805190602001909190805190602001909190505080336000806101000a81548173ffffffffffffffffffffffffffffffffffffffff021916908373ffffffffffffffffffffffffffffffffffffffff16021790555080600160006101000a81548173ffffffffffffffffffffffffffffffffffffffff021916908373ffffffffffffffffffffffffffffffffffffffff1602179055505081600260006101000a81548173ffffffffffffffffffffffffffffffffffffffff021916908373ffffffffffffffffffffffffffffffffffffffff16021790555080600460006101000a81548173ffffffffffffffffffffffffffffffffffffffff021916908373ffffffffffffffffffffffffffffffffffffffff160217905550620f4240600581905550600460009054906101000a900473ffffffffffffffffffffffffffffffffffffffff1673ffffffffffffffffffffffffffffffffffffffff16633562fd2060405180807f5749544944436f756e7465720000000000000000000000000000000000000000815250600c019050604051809103902060016040518363ffffffff167c010000000000000000000000000000000000000000000000000000000002815260040180836000191660001916815260200182815260200192505050600060405180830381600087803b15156200027157600080fd5b6102c65a03f115156200028357600080fd5b50505050506148a980620002986000396000f3006060604052600436106100db576000357c0100000000000000000000000000000000000000000000000000000000900463ffffffff168063095ea7b3146100e057806314b0452b1461012257806334e731221461014557806338492e061461018557806341c0e1b5146102735780636352211e1461028857806370a08231146102eb578063741d215b146103385780638da5cb5b1461035b578063a9059cbb146103b0578063b2e6ceeb146103f2578063c931313c14610415578063dd81afdd1461042d578063e2fc400714610493578063f2fde38b146104bc575b600080fd5b34156100eb57600080fd5b610120600480803573ffffffffffffffffffffffffffffffffffffffff169060200190919080359060200190919050506104f5565b005b341561012d57600080fd5b6101436004808035906020019091905050610640565b005b341561015057600080fd5b61016f60048080359060200190919080359060200190919050506106b5565b6040518082815260200191505060405180910390f35b6102716004808035906020019091908035906020019091908035151590602001909190803573ffffffffffffffffffffffffffffffffffffffff1690602001909190803590602001908201803590602001908080601f0160208091040260200160405190810160405280939291908181526020018383808284378201915050505050509190803590602001908201803590602001908080601f01602080910402602001604051908101604052809392919081815260200183838082843782019150505050505091908035906020019091908035906020019091908035151590602001909190505061075e565b005b341561027e57600080fd5b610286610ea6565b005b341561029357600080fd5b6102a96004808035906020019091905050610f03565b604051808273ffffffffffffffffffffffffffffffffffffffff1673ffffffffffffffffffffffffffffffffffffffff16815260200191505060405180910390f35b34156102f657600080fd5b610322600480803573ffffffffffffffffffffffffffffffffffffffff16906020019091905050611046565b6040518082815260200191505060405180910390f35b341561034357600080fd5b6103596004808035906020019091905050611183565b005b341561036657600080fd5b61036e611307565b604051808273ffffffffffffffffffffffffffffffffffffffff1673ffffffffffffffffffffffffffffffffffffffff16815260200191505060405180910390f35b34156103bb57600080fd5b6103f0600480803573ffffffffffffffffffffffffffffffffffffffff1690602001909190803590602001909190505061132c565b005b34156103fd57600080fd5b610413600480803590602001909190505061137f565b005b61042b60048080359060200190919050506113aa565b005b341561043857600080fd5b610491600480803590602001909190803590602001908201803590602001908080601f01602080910402602001604051908101604052809392919081815260200183838082843782019150505050505091905050611a0f565b005b341561049e57600080fd5b6104a6611ead565b6040518082815260200191505060405180910390f35b34156104c757600080fd5b6104f3600480803573ffffffffffffffffffffffffffffffffffffffff16906020019091905050611eb3565b005b6000813373ffffffffffffffffffffffffffffffffffffffff1661051882610f03565b73ffffffffffffffffffffffffffffffffffffffff1614151561053a57600080fd5b61054383610f03565b91508173ffffffffffffffffffffffffffffffffffffffff168473ffffffffffffffffffffffffffffffffffffffff161415151561058057600080fd5b600061058b84612008565b73ffffffffffffffffffffffffffffffffffffffff161415806105c5575060008473ffffffffffffffffffffffffffffffffffffffff1614155b1561063a576105d4838561210a565b8373ffffffffffffffffffffffffffffffffffffffff168273ffffffffffffffffffffffffffffffffffffffff167f8c5be1e5ebec7d5bd14f71427d1e84f3dd0314c0f7b2291e5b200ac8c7c3b925856040518082815260200191505060405180910390a35b50505050565b6000809054906101000a900473ffffffffffffffffffffffffffffffffffffffff1673ffffffffffffffffffffffffffffffffffffffff163373ffffffffffffffffffffffffffffffffffffffff1614151561069b57600080fd5b806000111515156106ab57600080fd5b8060058190555050565b6000806106cb838561222b90919063ffffffff16565b905082841115610706576106ff620f42406106f16005548461224990919063ffffffff16565b61228490919063ffffffff16565b9150610757565b828410156107175760009150610757565b6107546002610746620f42406107386005548661224990919063ffffffff16565b61228490919063ffffffff16565b61228490919063ffffffff16565b91505b5092915050565b600080610769614804565b60008c11151561077857600080fd5b60008b11151561078757600080fd5b61079a8c8c61222b90919063ffffffff16565b5085421015156107a957600080fd5b84861015156107b757600080fd5b8b341415156107c557600080fd5b6107cf8c8c6106b5565b925060008314151561092557600260009054906101000a900473ffffffffffffffffffffffffffffffffffffffff1673ffffffffffffffffffffffffffffffffffffffff166323b872dd33600360009054906101000a900473ffffffffffffffffffffffffffffffffffffffff16866000604051602001526040518463ffffffff167c0100000000000000000000000000000000000000000000000000000000028152600401808473ffffffffffffffffffffffffffffffffffffffff1673ffffffffffffffffffffffffffffffffffffffff1681526020018373ffffffffffffffffffffffffffffffffffffffff1673ffffffffffffffffffffffffffffffffffffffff1681526020018281526020019350505050602060405180830381600087803b15156108fe57600080fd5b6102c65a03f1151561090f57600080fd5b50505060405180519050151561092457600080fd5b5b61092d61229f565b91506109393383612397565b8915610be557610160604051908101604052808381526020018d81526020018c8152602001838152602001600081526020018a73ffffffffffffffffffffffffffffffffffffffff168152602001896040518082805190602001908083835b6020831015156109bd5780518252602082019150602081019050602083039250610998565b6001836020036101000a0380198251168184511680821785525050505050509050019150506040518091039020600019168152602001886040518082805190602001908083835b602083101515610a295780518252602082019150602081019050602083039250610a04565b6001836020036101000a038019825116818451168082178552505050505050905001915050604051809103902060001916815260200187815260200186815260200185151581525090508a8c837f95465cf22bd406d2ce19e69c90c72d79fa2c6aa9a1e45a3fe8b9df8e0b0c285e8560008e8e8e8e8e8e604051808981526020018881526020018773ffffffffffffffffffffffffffffffffffffffff1673ffffffffffffffffffffffffffffffffffffffff168152602001806020018060200186815260200185815260200184151515158152602001838103835288818151815260200191508051906020019080838360005b83811015610b38578082015181840152602081019050610b1d565b50505050905090810190601f168015610b655780820380516001836020036101000a031916815260200191505b50838103825287818151815260200191508051906020019080838360005b83811015610b9e578082015181840152602081019050610b83565b50505050905090810190601f168015610bcb5780820380516001836020036101000a031916815260200191505b509a505050505050505050505060405180910390a4610e87565b610160604051908101604052808381526020018c81526020018d8152602001600081526020018381526020018a73ffffffffffffffffffffffffffffffffffffffff168152602001896040518082805190602001908083835b602083101515610c635780518252602082019150602081019050602083039250610c3e565b6001836020036101000a0380198251168184511680821785525050505050509050019150506040518091039020600019168152602001886040518082805190602001908083835b602083101515610ccf5780518252602082019150602081019050602083039250610caa565b6001836020036101000a038019825116818451168082178552505050505050905001915050604051809103902060001916815260200187815260200186815260200185151581525090508a8c837f95465cf22bd406d2ce19e69c90c72d79fa2c6aa9a1e45a3fe8b9df8e0b0c285e6000868e8e8e8e8e8e604051808981526020018881526020018773ffffffffffffffffffffffffffffffffffffffff1673ffffffffffffffffffffffffffffffffffffffff168152602001806020018060200186815260200185815260200184151515158152602001838103835288818151815260200191508051906020019080838360005b83811015610dde578082015181840152602081019050610dc3565b50505050905090810190601f168015610e0b5780820380516001836020036101000a031916815260200191505b50838103825287818151815260200191508051906020019080838360005b83811015610e44578082015181840152602081019050610e29565b50505050905090810190601f168015610e715780820380516001836020036101000a031916815260200191505b509a505050505050505050505060405180910390a45b610e9081612431565b610e98612fc1565b505050505050505050505050565b6000809054906101000a900473ffffffffffffffffffffffffffffffffffffffff1673ffffffffffffffffffffffffffffffffffffffff163373ffffffffffffffffffffffffffffffffffffffff16141515610f0157600080fd5b565b600080600160009054906101000a900473ffffffffffffffffffffffffffffffffffffffff1673ffffffffffffffffffffffffffffffffffffffff16634c77e5ba8460405180807f4f776e65724f660000000000000000000000000000000000000000000000000081525060070182815260200191505060405180910390206000604051602001526040518263ffffffff167c0100000000000000000000000000000000000000000000000000000000028152600401808260001916600019168152602001915050602060405180830381600087803b1515610fe457600080fd5b6102c65a03f11515610ff557600080fd5b505050604051805190509050600073ffffffffffffffffffffffffffffffffffffffff168173ffffffffffffffffffffffffffffffffffffffff161415151561103d57600080fd5b80915050919050565b6000600160009054906101000a900473ffffffffffffffffffffffffffffffffffffffff1673ffffffffffffffffffffffffffffffffffffffff1663bdc963d88360405180807f42616c616e63654f6600000000000000000000000000000000000000000000008152506009018273ffffffffffffffffffffffffffffffffffffffff1673ffffffffffffffffffffffffffffffffffffffff166c0100000000000000000000000002815260140191505060405180910390206000604051602001526040518263ffffffff167c0100000000000000000000000000000000000000000000000000000000028152600401808260001916600019168152602001915050602060405180830381600087803b151561116157600080fd5b6102c65a03f1151561117257600080fd5b505050604051805190509050919050565b61118b614804565b600082611196614804565b6000806111a2846130c6565b92503373ffffffffffffffffffffffffffffffffffffffff166111c88460600151610f03565b73ffffffffffffffffffffffffffffffffffffffff161491503373ffffffffffffffffffffffffffffffffffffffff166112058460800151610f03565b73ffffffffffffffffffffffffffffffffffffffff1614905081806112275750805b151561123257600080fd5b61123b876130c6565b95508560400151945060008660600151148061125b575060008660800151145b151561126657600080fd5b61126f87613cb9565b3373ffffffffffffffffffffffffffffffffffffffff166108fc869081150290604051600060405180830381858888f1935050505015156112af57600080fd5b3373ffffffffffffffffffffffffffffffffffffffff16877f79af0603d6af952354516f9583d1640b4e036431911d556b8fd682f83ff43aaf876040518082815260200191505060405180910390a350505050505050565b6000809054906101000a900473ffffffffffffffffffffffffffffffffffffffff1681565b803373ffffffffffffffffffffffffffffffffffffffff1661134d82610f03565b73ffffffffffffffffffffffffffffffffffffffff1614151561136f57600080fd5b61137a338484613e10565b505050565b6113893382613f59565b151561139457600080fd5b6113a76113a082610f03565b3383613e10565b50565b6113b2614804565b600080600073ffffffffffffffffffffffffffffffffffffffff166113d685610f03565b73ffffffffffffffffffffffffffffffffffffffff16141515156113f957600080fd5b611402846130c6565b925061141c6001846000015161222b90919063ffffffff16565b91508261014001511561143d578261010001514210151561143c57600080fd5b5b60008360600151141561171d5782602001513414151561145c57600080fd5b61146e836020015184604001516106b5565b90506000811415156115c457600260009054906101000a900473ffffffffffffffffffffffffffffffffffffffff1673ffffffffffffffffffffffffffffffffffffffff166323b872dd33600360009054906101000a900473ffffffffffffffffffffffffffffffffffffffff16846000604051602001526040518463ffffffff167c0100000000000000000000000000000000000000000000000000000000028152600401808473ffffffffffffffffffffffffffffffffffffffff1673ffffffffffffffffffffffffffffffffffffffff1681526020018373ffffffffffffffffffffffffffffffffffffffff1673ffffffffffffffffffffffffffffffffffffffff1681526020018281526020019350505050602060405180830381600087803b151561159d57600080fd5b6102c65a03f115156115ae57600080fd5b5050506040518051905015156115c357600080fd5b5b600460009054906101000a900473ffffffffffffffffffffffffffffffffffffffff1673ffffffffffffffffffffffffffffffffffffffff16633562fd20846000015160405180807f5749540000000000000000000000000000000000000000000000000000000000815250600301828152602001807f61626f76654944000000000000000000000000000000000000000000000000008152506007019150506040518091039020846040518363ffffffff167c010000000000000000000000000000000000000000000000000000000002815260040180836000191660001916815260200182815260200192505050600060405180830381600087803b15156116cd57600080fd5b6102c65a03f115156116de57600080fd5b50505082600001518284600001517f4e26d2058422e671478446da4522b7c1527f240c0b68519a064219769b062dce60405160405180910390a46119ff565b6000836080015114151561173057600080fd5b82604001513414151561174257600080fd5b611754836040015184602001516106b5565b90506000811415156118aa57600260009054906101000a900473ffffffffffffffffffffffffffffffffffffffff1673ffffffffffffffffffffffffffffffffffffffff166323b872dd33600360009054906101000a900473ffffffffffffffffffffffffffffffffffffffff16846000604051602001526040518463ffffffff167c0100000000000000000000000000000000000000000000000000000000028152600401808473ffffffffffffffffffffffffffffffffffffffff1673ffffffffffffffffffffffffffffffffffffffff1681526020018373ffffffffffffffffffffffffffffffffffffffff1673ffffffffffffffffffffffffffffffffffffffff1681526020018281526020019350505050602060405180830381600087803b151561188357600080fd5b6102c65a03f1151561189457600080fd5b5050506040518051905015156118a957600080fd5b5b600460009054906101000a900473ffffffffffffffffffffffffffffffffffffffff1673ffffffffffffffffffffffffffffffffffffffff16633562fd20846000015160405180807f5749540000000000000000000000000000000000000000000000000000000000815250600301828152602001807f62656c6f774944000000000000000000000000000000000000000000000000008152506007019150506040518091039020846040518363ffffffff167c010000000000000000000000000000000000000000000000000000000002815260040180836000191660001916815260200182815260200192505050600060405180830381600087803b15156119b357600080fd5b6102c65a03f115156119c457600080fd5b50505081836000015184600001517f4e26d2058422e671478446da4522b7c1527f240c0b68519a064219769b062dce60405160405180910390a45b611a093383612397565b50505050565b611a17614804565b600080600085611a25614804565b600080611a31846130c6565b92503373ffffffffffffffffffffffffffffffffffffffff16611a578460600151610f03565b73ffffffffffffffffffffffffffffffffffffffff161491503373ffffffffffffffffffffffffffffffffffffffff16611a948460800151610f03565b73ffffffffffffffffffffffffffffffffffffffff161490508180611ab65750805b1515611ac157600080fd5b611aca8a6130c6565b975042886101200151101515611adf57600080fd5b6000886060015114151515611af357600080fd5b6000886080015114151515611b0757600080fd5b8760a0015196508673ffffffffffffffffffffffffffffffffffffffff1663fc8bbb538b8b8b61010001518c61012001518d60c001518e60e001516000604051602001526040518763ffffffff167c0100000000000000000000000000000000000000000000000000000000028152600401808781526020018060200186815260200185815260200184600019166000191681526020018360001916600019168152602001828103825287818151815260200191508051906020019080838360005b83811015611be4578082015181840152602081019050611bc9565b50505050905090810190601f168015611c115780820380516001836020036101000a031916815260200191505b50975050505050505050602060405180830381600087803b1515611c3457600080fd5b6102c65a03f11515611c4557600080fd5b5050506040518051905095507f1e122d1ab1d8bb9f390f2ca6523e6e09a57f96887bc3ed6859b2b4f90eb2fdb58a876040518083815260200182600019166000191681526020019250505060405180910390a1611cb38860400151896020015161222b90919063ffffffff16565b945060405180807f61626f7665000000000000000000000000000000000000000000000000000000815250600501905060405180910390206000191686600019161415611dab57611d038a613cb9565b611d108860600151610f03565b73ffffffffffffffffffffffffffffffffffffffff168a7f79af0603d6af952354516f9583d1640b4e036431911d556b8fd682f83ff43aaf876040518082815260200191505060405180910390a3611d6b8860600151610f03565b73ffffffffffffffffffffffffffffffffffffffff166108fc869081150290604051600060405180830381858888f193505050501515611daa57600080fd5b5b60405180807f62656c6f77000000000000000000000000000000000000000000000000000000815250600501905060405180910390206000191686600019161415611ea157611df98a613cb9565b611e068860800151610f03565b73ffffffffffffffffffffffffffffffffffffffff168a7f79af0603d6af952354516f9583d1640b4e036431911d556b8fd682f83ff43aaf876040518082815260200191505060405180910390a3611e618860800151610f03565b73ffffffffffffffffffffffffffffffffffffffff166108fc869081150290604051600060405180830381858888f193505050501515611ea057600080fd5b5b50505050505050505050565b60055481565b6000809054906101000a900473ffffffffffffffffffffffffffffffffffffffff1673ffffffffffffffffffffffffffffffffffffffff163373ffffffffffffffffffffffffffffffffffffffff16141515611f0e57600080fd5b600073ffffffffffffffffffffffffffffffffffffffff168173ffffffffffffffffffffffffffffffffffffffff1614151515611f4a57600080fd5b8073ffffffffffffffffffffffffffffffffffffffff166000809054906101000a900473ffffffffffffffffffffffffffffffffffffffff1673ffffffffffffffffffffffffffffffffffffffff167f8be0079c531659141344cd1fd0a4f28419497f9722a3daafe3b4186f6b6457e060405160405180910390a3806000806101000a81548173ffffffffffffffffffffffffffffffffffffffff021916908373ffffffffffffffffffffffffffffffffffffffff16021790555050565b6000600160009054906101000a900473ffffffffffffffffffffffffffffffffffffffff1673ffffffffffffffffffffffffffffffffffffffff16634c77e5ba8360405180807f417070726f766564466f72000000000000000000000000000000000000000000815250600b0182815260200191505060405180910390206000604051602001526040518263ffffffff167c0100000000000000000000000000000000000000000000000000000000028152600401808260001916600019168152602001915050602060405180830381600087803b15156120e857600080fd5b6102c65a03f115156120f957600080fd5b505050604051805190509050919050565b600160009054906101000a900473ffffffffffffffffffffffffffffffffffffffff1673ffffffffffffffffffffffffffffffffffffffff16635a2bf25a8360405180807f417070726f766564466f72000000000000000000000000000000000000000000815250600b018281526020019150506040518091039020836040518363ffffffff167c01000000000000000000000000000000000000000000000000000000000281526004018083600019166000191681526020018273ffffffffffffffffffffffffffffffffffffffff1673ffffffffffffffffffffffffffffffffffffffff16815260200192505050600060405180830381600087803b151561221357600080fd5b6102c65a03f1151561222457600080fd5b5050505050565b600080828401905083811015151561223f57fe5b8091505092915050565b600080600084141561225e576000915061227d565b828402905082848281151561226f57fe5b0414151561227957fe5b8091505b5092915050565b600080828481151561229257fe5b0490508091505092915050565b6000600460009054906101000a900473ffffffffffffffffffffffffffffffffffffffff1673ffffffffffffffffffffffffffffffffffffffff1663bdc963d860405180807f5749544944436f756e7465720000000000000000000000000000000000000000815250600c01905060405180910390206000604051602001526040518263ffffffff167c0100000000000000000000000000000000000000000000000000000000028152600401808260001916600019168152602001915050602060405180830381600087803b151561237757600080fd5b6102c65a03f1151561238857600080fd5b50505060405180519050905090565b600073ffffffffffffffffffffffffffffffffffffffff168273ffffffffffffffffffffffffffffffffffffffff16141515156123d357600080fd5b6123dd8282613f9a565b8173ffffffffffffffffffffffffffffffffffffffff1660007fddf252ad1be2c89b69c2b068fc378daa952ba7f163c4a11628f55a4df523b3ef836040518082815260200191505060405180910390a35050565b600460009054906101000a900473ffffffffffffffffffffffffffffffffffffffff1673ffffffffffffffffffffffffffffffffffffffff16633562fd20826000015160405180807f5749540000000000000000000000000000000000000000000000000000000000815250600301828152602001807f61626f7665457363726f77000000000000000000000000000000000000000000815250600b01915050604051809103902083602001516040518363ffffffff167c010000000000000000000000000000000000000000000000000000000002815260040180836000191660001916815260200182815260200192505050600060405180830381600087803b151561253e57600080fd5b6102c65a03f1151561254f57600080fd5b505050600460009054906101000a900473ffffffffffffffffffffffffffffffffffffffff1673ffffffffffffffffffffffffffffffffffffffff16633562fd20826000015160405180807f5749540000000000000000000000000000000000000000000000000000000000815250600301828152602001807f62656c6f77457363726f77000000000000000000000000000000000000000000815250600b01915050604051809103902083604001516040518363ffffffff167c010000000000000000000000000000000000000000000000000000000002815260040180836000191660001916815260200182815260200192505050600060405180830381600087803b151561265f57600080fd5b6102c65a03f1151561267057600080fd5b505050600460009054906101000a900473ffffffffffffffffffffffffffffffffffffffff1673ffffffffffffffffffffffffffffffffffffffff16633562fd20826000015160405180807f5749540000000000000000000000000000000000000000000000000000000000815250600301828152602001807f61626f7665494400000000000000000000000000000000000000000000000000815250600701915050604051809103902083606001516040518363ffffffff167c010000000000000000000000000000000000000000000000000000000002815260040180836000191660001916815260200182815260200192505050600060405180830381600087803b151561278057600080fd5b6102c65a03f1151561279157600080fd5b505050600460009054906101000a900473ffffffffffffffffffffffffffffffffffffffff1673ffffffffffffffffffffffffffffffffffffffff16633562fd20826000015160405180807f5749540000000000000000000000000000000000000000000000000000000000815250600301828152602001807f62656c6f77494400000000000000000000000000000000000000000000000000815250600701915050604051809103902083608001516040518363ffffffff167c010000000000000000000000000000000000000000000000000000000002815260040180836000191660001916815260200182815260200192505050600060405180830381600087803b15156128a157600080fd5b6102c65a03f115156128b257600080fd5b505050600460009054906101000a900473ffffffffffffffffffffffffffffffffffffffff1673ffffffffffffffffffffffffffffffffffffffff16635a2bf25a826000015160405180807f5749540000000000000000000000000000000000000000000000000000000000815250600301828152602001807f6576616c7561746f72000000000000000000000000000000000000000000000081525060090191505060405180910390208360a001516040518363ffffffff167c01000000000000000000000000000000000000000000000000000000000281526004018083600019166000191681526020018273ffffffffffffffffffffffffffffffffffffffff1673ffffffffffffffffffffffffffffffffffffffff16815260200192505050600060405180830381600087803b15156129ee57600080fd5b6102c65a03f115156129ff57600080fd5b505050600460009054906101000a900473ffffffffffffffffffffffffffffffffffffffff1673ffffffffffffffffffffffffffffffffffffffff166325cf512d826000015160405180807f5749540000000000000000000000000000000000000000000000000000000000815250600301828152602001807f7468726573686f6c64000000000000000000000000000000000000000000000081525060090191505060405180910390208360c001516040518363ffffffff167c0100000000000000000000000000000000000000000000000000000000028152600401808360001916600019168152602001826000191660001916815260200192505050600060405180830381600087803b1515612b1757600080fd5b6102c65a03f11515612b2857600080fd5b505050600460009054906101000a900473ffffffffffffffffffffffffffffffffffffffff1673ffffffffffffffffffffffffffffffffffffffff166325cf512d826000015160405180807f5749540000000000000000000000000000000000000000000000000000000000815250600301828152602001807f6c6f636174696f6e00000000000000000000000000000000000000000000000081525060080191505060405180910390208360e001516040518363ffffffff167c0100000000000000000000000000000000000000000000000000000000028152600401808360001916600019168152602001826000191660001916815260200192505050600060405180830381600087803b1515612c4057600080fd5b6102c65a03f11515612c5157600080fd5b505050600460009054906101000a900473ffffffffffffffffffffffffffffffffffffffff1673ffffffffffffffffffffffffffffffffffffffff16633562fd20826000015160405180807f5749540000000000000000000000000000000000000000000000000000000000815250600301828152602001807f737461727400000000000000000000000000000000000000000000000000000081525060050191505060405180910390208361010001516040518363ffffffff167c010000000000000000000000000000000000000000000000000000000002815260040180836000191660001916815260200182815260200192505050600060405180830381600087803b1515612d6257600080fd5b6102c65a03f11515612d7357600080fd5b505050600460009054906101000a900473ffffffffffffffffffffffffffffffffffffffff1673ffffffffffffffffffffffffffffffffffffffff16633562fd20826000015160405180807f5749540000000000000000000000000000000000000000000000000000000000815250600301828152602001807f656e64000000000000000000000000000000000000000000000000000000000081525060030191505060405180910390208361012001516040518363ffffffff167c010000000000000000000000000000000000000000000000000000000002815260040180836000191660001916815260200182815260200192505050600060405180830381600087803b1515612e8457600080fd5b6102c65a03f11515612e9557600080fd5b505050600460009054906101000a900473ffffffffffffffffffffffffffffffffffffffff1673ffffffffffffffffffffffffffffffffffffffff16633eba9ed2826000015160405180807f5749540000000000000000000000000000000000000000000000000000000000815250600301828152602001807f6d616b655374616c65000000000000000000000000000000000000000000000081525060090191505060405180910390208361014001516040518363ffffffff167c01000000000000000000000000000000000000000000000000000000000281526004018083600019166000191681526020018215151515815260200192505050600060405180830381600087803b1515612faa57600080fd5b6102c65a03f11515612fbb57600080fd5b50505050565b600460009054906101000a900473ffffffffffffffffffffffffffffffffffffffff1673ffffffffffffffffffffffffffffffffffffffff16633562fd2060405180807f5749544944436f756e7465720000000000000000000000000000000000000000815250600c0190506040518091039020613050600261304261229f565b61222b90919063ffffffff16565b6040518363ffffffff167c010000000000000000000000000000000000000000000000000000000002815260040180836000191660001916815260200182815260200192505050600060405180830381600087803b15156130b057600080fd5b6102c65a03f115156130c157600080fd5b505050565b6130ce614804565b600080600080600080600080600080600460009054906101000a900473ffffffffffffffffffffffffffffffffffffffff1673ffffffffffffffffffffffffffffffffffffffff1663bdc963d88d60405180807f5749540000000000000000000000000000000000000000000000000000000000815250600301828152602001807f61626f7665457363726f77000000000000000000000000000000000000000000815250600b0191505060405180910390206000604051602001526040518263ffffffff167c0100000000000000000000000000000000000000000000000000000000028152600401808260001916600019168152602001915050602060405180830381600087803b15156131e357600080fd5b6102c65a03f115156131f457600080fd5b505050604051805190509950600460009054906101000a900473ffffffffffffffffffffffffffffffffffffffff1673ffffffffffffffffffffffffffffffffffffffff1663bdc963d88d60405180807f5749540000000000000000000000000000000000000000000000000000000000815250600301828152602001807f62656c6f77457363726f77000000000000000000000000000000000000000000815250600b0191505060405180910390206000604051602001526040518263ffffffff167c0100000000000000000000000000000000000000000000000000000000028152600401808260001916600019168152602001915050602060405180830381600087803b151561330657600080fd5b6102c65a03f1151561331757600080fd5b505050604051805190509850600460009054906101000a900473ffffffffffffffffffffffffffffffffffffffff1673ffffffffffffffffffffffffffffffffffffffff1663bdc963d88d60405180807f5749540000000000000000000000000000000000000000000000000000000000815250600301828152602001807f61626f766549440000000000000000000000000000000000000000000000000081525060070191505060405180910390206000604051602001526040518263ffffffff167c0100000000000000000000000000000000000000000000000000000000028152600401808260001916600019168152602001915050602060405180830381600087803b151561342957600080fd5b6102c65a03f1151561343a57600080fd5b505050604051805190509750600460009054906101000a900473ffffffffffffffffffffffffffffffffffffffff1673ffffffffffffffffffffffffffffffffffffffff1663bdc963d88d60405180807f5749540000000000000000000000000000000000000000000000000000000000815250600301828152602001807f62656c6f7749440000000000000000000000000000000000000000000000000081525060070191505060405180910390206000604051602001526040518263ffffffff167c0100000000000000000000000000000000000000000000000000000000028152600401808260001916600019168152602001915050602060405180830381600087803b151561354c57600080fd5b6102c65a03f1151561355d57600080fd5b505050604051805190509650600460009054906101000a900473ffffffffffffffffffffffffffffffffffffffff1673ffffffffffffffffffffffffffffffffffffffff16634c77e5ba8d60405180807f5749540000000000000000000000000000000000000000000000000000000000815250600301828152602001807f6576616c7561746f72000000000000000000000000000000000000000000000081525060090191505060405180910390206000604051602001526040518263ffffffff167c0100000000000000000000000000000000000000000000000000000000028152600401808260001916600019168152602001915050602060405180830381600087803b151561366f57600080fd5b6102c65a03f1151561368057600080fd5b505050604051805190509550600460009054906101000a900473ffffffffffffffffffffffffffffffffffffffff1673ffffffffffffffffffffffffffffffffffffffff1663025ec81a8d60405180807f5749540000000000000000000000000000000000000000000000000000000000815250600301828152602001807f7468726573686f6c64000000000000000000000000000000000000000000000081525060090191505060405180910390206000604051602001526040518263ffffffff167c0100000000000000000000000000000000000000000000000000000000028152600401808260001916600019168152602001915050602060405180830381600087803b151561379257600080fd5b6102c65a03f115156137a357600080fd5b505050604051805190509450600460009054906101000a900473ffffffffffffffffffffffffffffffffffffffff1673ffffffffffffffffffffffffffffffffffffffff1663025ec81a8d60405180807f5749540000000000000000000000000000000000000000000000000000000000815250600301828152602001807f6c6f636174696f6e00000000000000000000000000000000000000000000000081525060080191505060405180910390206000604051602001526040518263ffffffff167c0100000000000000000000000000000000000000000000000000000000028152600401808260001916600019168152602001915050602060405180830381600087803b15156138b557600080fd5b6102c65a03f115156138c657600080fd5b505050604051805190509350600460009054906101000a900473ffffffffffffffffffffffffffffffffffffffff1673ffffffffffffffffffffffffffffffffffffffff1663bdc963d88d60405180807f5749540000000000000000000000000000000000000000000000000000000000815250600301828152602001807f737461727400000000000000000000000000000000000000000000000000000081525060050191505060405180910390206000604051602001526040518263ffffffff167c0100000000000000000000000000000000000000000000000000000000028152600401808260001916600019168152602001915050602060405180830381600087803b15156139d857600080fd5b6102c65a03f115156139e957600080fd5b505050604051805190509250600460009054906101000a900473ffffffffffffffffffffffffffffffffffffffff1673ffffffffffffffffffffffffffffffffffffffff1663bdc963d88d60405180807f5749540000000000000000000000000000000000000000000000000000000000815250600301828152602001807f656e64000000000000000000000000000000000000000000000000000000000081525060030191505060405180910390206000604051602001526040518263ffffffff167c0100000000000000000000000000000000000000000000000000000000028152600401808260001916600019168152602001915050602060405180830381600087803b1515613afb57600080fd5b6102c65a03f11515613b0c57600080fd5b505050604051805190509150600460009054906101000a900473ffffffffffffffffffffffffffffffffffffffff1673ffffffffffffffffffffffffffffffffffffffff166317e7dd228d60405180807f5749540000000000000000000000000000000000000000000000000000000000815250600301828152602001807f6d616b655374616c65000000000000000000000000000000000000000000000081525060090191505060405180910390206000604051602001526040518263ffffffff167c0100000000000000000000000000000000000000000000000000000000028152600401808260001916600019168152602001915050602060405180830381600087803b1515613c1e57600080fd5b6102c65a03f11515613c2f57600080fd5b505050604051805190509050610160604051908101604052808d81526020018b81526020018a81526020018981526020018881526020018773ffffffffffffffffffffffffffffffffffffffff16815260200186600019168152602001856000191681526020018481526020018381526020018215158152509a5050505050505050505050919050565b613cc1614804565b81613cca614804565b600080613cd6846130c6565b92503373ffffffffffffffffffffffffffffffffffffffff16613cfc8460600151610f03565b73ffffffffffffffffffffffffffffffffffffffff161491503373ffffffffffffffffffffffffffffffffffffffff16613d398460800151610f03565b73ffffffffffffffffffffffffffffffffffffffff161490508180613d5b5750805b1515613d6657600080fd5b613d6f866130c6565b9450613d7e856080015161421d565b613d8b856060015161421d565b613e086101606040519081016040528088815260200160008152602001600081526020016000815260200160008152602001600073ffffffffffffffffffffffffffffffffffffffff1681526020016000801916815260200160008019168152602001600081526020016000815260200160001515815250612431565b505050505050565b600073ffffffffffffffffffffffffffffffffffffffff168273ffffffffffffffffffffffffffffffffffffffff1614151515613e4c57600080fd5b613e5581610f03565b73ffffffffffffffffffffffffffffffffffffffff168273ffffffffffffffffffffffffffffffffffffffff1614151515613e8f57600080fd5b8273ffffffffffffffffffffffffffffffffffffffff16613eaf82610f03565b73ffffffffffffffffffffffffffffffffffffffff16141515613ed157600080fd5b613edb83826142ad565b613ee5838261434e565b613eef8282613f9a565b8173ffffffffffffffffffffffffffffffffffffffff168373ffffffffffffffffffffffffffffffffffffffff167fddf252ad1be2c89b69c2b068fc378daa952ba7f163c4a11628f55a4df523b3ef836040518082815260200191505060405180910390a3505050565b60008273ffffffffffffffffffffffffffffffffffffffff16613f7b83612008565b73ffffffffffffffffffffffffffffffffffffffff1614905092915050565b60008073ffffffffffffffffffffffffffffffffffffffff16613fbc83610f03565b73ffffffffffffffffffffffffffffffffffffffff16141515613fde57600080fd5b613fe882846145d2565b613ff183611046565b9050600160009054906101000a900473ffffffffffffffffffffffffffffffffffffffff1673ffffffffffffffffffffffffffffffffffffffff16633562fd208460405180807f42616c616e63654f6600000000000000000000000000000000000000000000008152506009018273ffffffffffffffffffffffffffffffffffffffff1673ffffffffffffffffffffffffffffffffffffffff166c0100000000000000000000000002815260140191505060405180910390206140be60018561222b90919063ffffffff16565b6040518363ffffffff167c010000000000000000000000000000000000000000000000000000000002815260040180836000191660001916815260200182815260200192505050600060405180830381600087803b151561411e57600080fd5b6102c65a03f1151561412f57600080fd5b505050600160009054906101000a900473ffffffffffffffffffffffffffffffffffffffff1673ffffffffffffffffffffffffffffffffffffffff16633562fd2061418b600161417d6146f3565b61222b90919063ffffffff16565b6040518263ffffffff167c010000000000000000000000000000000000000000000000000000000002815260040180807f546f74616c537570706c79000000000000000000000000000000000000000000815250602001828152602001915050600060405180830381600087803b151561420457600080fd5b6102c65a03f1151561421557600080fd5b505050505050565b600061422882612008565b73ffffffffffffffffffffffffffffffffffffffff161415156142505761424f33826142ad565b5b61425a338261434e565b60003373ffffffffffffffffffffffffffffffffffffffff167fddf252ad1be2c89b69c2b068fc378daa952ba7f163c4a11628f55a4df523b3ef836040518082815260200191505060405180910390a350565b8173ffffffffffffffffffffffffffffffffffffffff166142cd82610f03565b73ffffffffffffffffffffffffffffffffffffffff161415156142ef57600080fd5b6142fa81600061210a565b60008273ffffffffffffffffffffffffffffffffffffffff167f8c5be1e5ebec7d5bd14f71427d1e84f3dd0314c0f7b2291e5b200ac8c7c3b925836040518082815260200191505060405180910390a35050565b60008273ffffffffffffffffffffffffffffffffffffffff1661437083610f03565b73ffffffffffffffffffffffffffffffffffffffff1614151561439257600080fd5b61439d8260006145d2565b6143a683611046565b9050600160009054906101000a900473ffffffffffffffffffffffffffffffffffffffff1673ffffffffffffffffffffffffffffffffffffffff16633562fd208460405180807f42616c616e63654f6600000000000000000000000000000000000000000000008152506009018273ffffffffffffffffffffffffffffffffffffffff1673ffffffffffffffffffffffffffffffffffffffff166c0100000000000000000000000002815260140191505060405180910390206144736001856147eb90919063ffffffff16565b6040518363ffffffff167c010000000000000000000000000000000000000000000000000000000002815260040180836000191660001916815260200182815260200192505050600060405180830381600087803b15156144d357600080fd5b6102c65a03f115156144e457600080fd5b505050600160009054906101000a900473ffffffffffffffffffffffffffffffffffffffff1673ffffffffffffffffffffffffffffffffffffffff16633562fd2061454060016145326146f3565b6147eb90919063ffffffff16565b6040518263ffffffff167c010000000000000000000000000000000000000000000000000000000002815260040180807f546f74616c537570706c79000000000000000000000000000000000000000000815250602001828152602001915050600060405180830381600087803b15156145b957600080fd5b6102c65a03f115156145ca57600080fd5b505050505050565b600160009054906101000a900473ffffffffffffffffffffffffffffffffffffffff1673ffffffffffffffffffffffffffffffffffffffff16635a2bf25a8360405180807f4f776e65724f66000000000000000000000000000000000000000000000000008152506007018281526020019150506040518091039020836040518363ffffffff167c01000000000000000000000000000000000000000000000000000000000281526004018083600019166000191681526020018273ffffffffffffffffffffffffffffffffffffffff1673ffffffffffffffffffffffffffffffffffffffff16815260200192505050600060405180830381600087803b15156146db57600080fd5b6102c65a03f115156146ec57600080fd5b5050505050565b6000600160009054906101000a900473ffffffffffffffffffffffffffffffffffffffff1673ffffffffffffffffffffffffffffffffffffffff1663bdc963d860405180807f546f74616c537570706c79000000000000000000000000000000000000000000815250600b01905060405180910390206000604051602001526040518263ffffffff167c0100000000000000000000000000000000000000000000000000000000028152600401808260001916600019168152602001915050602060405180830381600087803b15156147cb57600080fd5b6102c65a03f115156147dc57600080fd5b50505060405180519050905090565b60008282111515156147f957fe5b818303905092915050565b610160604051908101604052806000815260200160008152602001600081526020016000815260200160008152602001600073ffffffffffffffffffffffffffffffffffffffff1681526020016000801916815260200160008019168152602001600081526020016000815260200160001515815250905600a165627a7a72305820031c6caef057890ef1d52fe2fb41f368354b29f4e222d044df12d149b64da2850029",
  "source": "pragma solidity ^0.4.18;\n\nimport 'zeppelin-solidity/contracts/math/SafeMath.sol';\nimport './DecoupledERC721Token.sol';\nimport './Arbolcoin.sol';\nimport './EternalDonut.sol';\nimport './WITEvaluator.sol';\n\n/**\n * @title Weather Immunity Token for ARBOL and weather protection agreements.\n *\n * @dev If you hold this token you are eligible for a payout based on the outcome of the weather.\n * @dev WITs are a representation of a protection agreement between two parties.\n * @dev Various terms can be set by the \"proposer.\" The proposal is represented as one WIT.\n * @dev The proposal can be accepted. If it is accepted, a new WIT is created according to the terms specified in the first one.\n * @dev WITs can be transferred after they have been created. They are nonfungible ERC721 tokens.\n */\ncontract WeatherImmunityToken is Ownable, DecoupledERC721Token {\n  using SafeMath for uint;\n\n    // A struct which represents all the values in a WIT.\n    struct WIT {\n      uint WITID;\n      uint aboveEscrow;\n      uint belowEscrow;\n      uint aboveID;\n      uint belowID; \n      address evaluator;\n      bytes32 threshold;\n      bytes32 location;\n      uint start;\n      uint end;\n      bool makeStale;\n    }\n\n    // Arbolcoin smart contract (contains address). \n    Arbolcoin private arbol;\n\n    // ARBOL fees go to this wallet. TODO make this owner, or implement revenue token.\n    address private systemFeeWallet = 0x5AEDA56215b167893e80B4fE645BA6d5Bab767DE;\n\n    EternalDonut private storageContract;\n\n    // The ARBOL system fee in parts per million. (of wei.) 100% for now.\n    uint public systemFeePPM;\n\n    // These are to facilitate queries related to getting open proposals.\n    event Redemption(uint indexed WITID, uint amount, address indexed user);\n    event ProposalAccepted(uint indexed WITID, uint indexed aboveID, uint indexed belowID);\n    event ProposalOffered(uint indexed WITID, uint aboveID, uint belowID, uint indexed weiContributing,  uint indexed weiAsking, address evaluator, string threshold, string location, uint start, uint end, bool makeStale);\n\n\n   /**\n    * @dev Constructor which sets the Arbolcoin address.\n    * @param _arbolAddress The address of the Arbolcoin contract.\n   */    \n    function WeatherImmunityToken(address _arbolAddress, address storageAddress) DecoupledERC721Token(storageAddress) public {\n\n      arbol = Arbolcoin(_arbolAddress);\n      storageContract = EternalDonut(storageAddress);\n      systemFeePPM = 1000000;\n\n\n      storageContract.setUIntValue(keccak256(\"WITIDCounter\"), 1); //start at 1\n    }\n\n\n  /**\n  * @dev Guarantees msg.sender is owner of the given token\n  * @param _tokenId uint256 ID of the token to validate its ownership belongs to msg.sender\n  */\n  modifier onlyOwnerOfSubWITOf(uint256 _tokenId) {\n    WIT memory the_wit = getWIT(_tokenId);\n    bool is_above_owner = ownerOf(the_wit.aboveID) == msg.sender;\n    bool is_below_owner = ownerOf(the_wit.belowID) == msg.sender;\n    require(is_above_owner || is_below_owner);\n    _;\n  }\n\n\n   function getTokenCounter() private view returns (uint) {\n    return storageContract.getUIntValue(keccak256(\"WITIDCounter\"));\n   }\n\n   function incrementTokenCounter() private {\n     storageContract.setUIntValue(keccak256(\"WITIDCounter\"), getTokenCounter().add(2)); // Yes, 2.\n   }\n\n    function getWIT(uint tokenID) private returns (WIT) {\n    uint aboveEscrow = storageContract.getUIntValue(keccak256(\"WIT\", tokenID, \"aboveEscrow\"));\n    uint belowEscrow = storageContract.getUIntValue(keccak256(\"WIT\", tokenID, \"belowEscrow\"));\n    uint aboveID = storageContract.getUIntValue(keccak256(\"WIT\", tokenID, \"aboveID\"));\n    uint belowID = storageContract.getUIntValue(keccak256(\"WIT\", tokenID, \"belowID\"));    \n    address evaluator = storageContract.getAddressValue(keccak256(\"WIT\", tokenID, \"evaluator\"));\n    bytes32 threshold = storageContract.getBytes32Value(keccak256(\"WIT\", tokenID, \"threshold\"));\n    bytes32 location = storageContract.getBytes32Value(keccak256(\"WIT\", tokenID, \"location\"));\n    uint start = storageContract.getUIntValue(keccak256(\"WIT\", tokenID, \"start\"));\n    uint end = storageContract.getUIntValue(keccak256(\"WIT\", tokenID, \"end\"));\n    bool makeStale = storageContract.getBooleanValue(keccak256(\"WIT\", tokenID, \"makeStale\"));\n    return WIT(tokenID, aboveEscrow, belowEscrow, aboveID, belowID, evaluator, threshold, location, start, end, makeStale);\n        \n    }\n\n    function saveWIT(WIT the_wit) private {\n        storageContract.setUIntValue(keccak256(\"WIT\", the_wit.WITID, \"aboveEscrow\"), the_wit.aboveEscrow);\n        storageContract.setUIntValue(keccak256(\"WIT\", the_wit.WITID, \"belowEscrow\"), the_wit.belowEscrow);\n        storageContract.setUIntValue(keccak256(\"WIT\", the_wit.WITID, \"aboveID\"), the_wit.aboveID);\n        storageContract.setUIntValue(keccak256(\"WIT\", the_wit.WITID, \"belowID\"), the_wit.belowID);        \n        storageContract.setAddressValue(keccak256(\"WIT\", the_wit.WITID, \"evaluator\"), the_wit.evaluator);\n        storageContract.setBytes32Value(keccak256(\"WIT\", the_wit.WITID, \"threshold\"), the_wit.threshold);\n        storageContract.setBytes32Value(keccak256(\"WIT\", the_wit.WITID, \"location\"), the_wit.location);\n        storageContract.setUIntValue(keccak256(\"WIT\", the_wit.WITID, \"start\"), the_wit.start);\n        storageContract.setUIntValue(keccak256(\"WIT\", the_wit.WITID, \"end\"), the_wit.end);\n        storageContract.setBooleanValue(keccak256(\"WIT\", the_wit.WITID, \"makeStale\"), the_wit.makeStale);\n    }\n\n   /**\n    * @dev Create a WIT without a partner. (A proposal.)\n    * @param weiContributing Amount of wei user proposes to contribute\n    * @param weiAsking Amount of wei user proposes the partner contribute.\n    * @param evaluator The address of the contract that will evaluate the WIT (for example one that integrates with a specific weather API).\n    * @param threshold The threshold by which the payout will be determined.\n    * @param start The start date of the WIT.\n    * @param end The end date of the WIT.\n    * @param makeStale If set to true, the WIT will be taken off the open market after its start date passes. That is, no one will be able to accept it.\n    */\n    function createWITProposal(uint weiContributing, uint weiAsking, bool aboveOrBelow, address evaluator, string threshold, string location, uint start, uint end, bool makeStale) public payable {\n\n      require(weiContributing > 0);\n      require(weiAsking > 0);\n      weiAsking.add(weiContributing); // this expression will throw if the escrow amounts are too big.\n\n      require(now < start); // Don't let people create WITs that start in the past. Opens the door for abuse.\n      require(start < end);\n  \n      // Validate amount of wei sent.\n      require(msg.value == weiContributing);\n\n      // Calculate and take ARBOL fee.\n      uint fee = calculateFee(weiContributing, weiAsking);\n\n      if (fee != 0) {\n          require(arbol.transferFrom(msg.sender, systemFeeWallet, fee));\n          //TODO accept ether\n      }\n\n      uint ID = getTokenCounter();\n\n      _mint(msg.sender, ID);\n\n      WIT memory new_WIT;\n      if (aboveOrBelow) {\n        new_WIT = WIT(ID, weiContributing, weiAsking, ID, 0, evaluator, keccak256(threshold), keccak256(location), start, end, makeStale);\n        ProposalOffered(ID, ID, 0, weiContributing, weiAsking, evaluator, threshold, location, start, end, makeStale);\n      }\n      else {\n        new_WIT = WIT(ID, weiAsking, weiContributing, 0, ID, evaluator, keccak256(threshold), keccak256(location), start, end, makeStale);\n        ProposalOffered(ID, 0, ID, weiContributing, weiAsking, evaluator, threshold, location, start, end, makeStale);        \n      }\n\n      saveWIT(new_WIT);\n      incrementTokenCounter();\n    }\n\n\n    /**\n    * @dev Create a WIT and partner it to an existing WIT (accept a proposed protection agreement).\n    * @param proposalID The ID of the WIT to which the new WIT shall be partnered.\n    */\n    function createWITAcceptance(uint proposalID) public payable {\n\n      // Specified partner token must exist\n      require(ownerOf(proposalID) != address(0));\n  \n      WIT memory proposalWIT = getWIT(proposalID);\n\n      uint new_ID = proposalWIT.WITID.add(1);\n      uint fee;\n\n      if (proposalWIT.makeStale) {\n        require(now < proposalWIT.start);\n      }\n\n      // Figure out whether we are adding an \"above\" or \"below\" WIT receipt.\n      if (proposalWIT.aboveID == 0) {\n        // Validate the amount of wei sent.\n        require(msg.value == proposalWIT.aboveEscrow);\n\n        fee = calculateFee(proposalWIT.aboveEscrow, proposalWIT.belowEscrow);\n        if (fee != 0) {\n\n        // TODO accept fee in ether\n        require(arbol.transferFrom(msg.sender, systemFeeWallet, fee));\n        }\n        storageContract.setUIntValue(keccak256(\"WIT\", proposalWIT.WITID, \"aboveID\"), new_ID);        \n        ProposalAccepted(proposalWIT.WITID, new_ID, proposalWIT.WITID);\n\n      }\n      else {\n        require(proposalWIT.belowID == 0);\n\n        // Validate the amount of wei sent.\n        require(msg.value == proposalWIT.belowEscrow);\n  \n        fee = calculateFee(proposalWIT.belowEscrow, proposalWIT.aboveEscrow);\n        if (fee != 0) {\n\n          // TODO accept fee in ether\n          require(arbol.transferFrom(msg.sender, systemFeeWallet, fee));\n\n\n        }\n        storageContract.setUIntValue(keccak256(\"WIT\", proposalWIT.WITID, \"belowID\"), new_ID);     \n        ProposalAccepted(proposalWIT.WITID, proposalWIT.WITID, new_ID);\n\n\n      }\n\n      _mint(msg.sender, new_ID);\n\n    }\n\n    /**\n    * @dev Burns a specific token.  \n    * @param tokenID uint ID of the token being burned by the msg.sender\n    */\n    function burnWIT(uint tokenID) private onlyOwnerOfSubWITOf(tokenID) { // gets called in cancelAndRedeem and evaluate\n      WIT memory the_wit = getWIT(tokenID);\n      \n      _burn(the_wit.belowID);\n      _burn(the_wit.aboveID);\n\n      saveWIT(WIT(tokenID, 0, 0, 0, 0, 0, \"\", \"\", 0, 0, false));\n\n    }\n\n\n    /**\n    * @dev Calculates the fee in ARBOL associated with a WIT. Fees are paid by the seller, and are a percentage of the total escrowed ETH amount.\n    * @param weiContributing One half of the total escrowed ETH in a partnered WIT pair (an agreement).\n    * @param weiAsking The other half of the total escrowed ETH.\n    * @return the fee in ARBOL\n    */\n    function calculateFee(uint weiContributing, uint weiAsking) public constant returns (uint) {\n      uint totalEscrow = weiContributing.add(weiAsking);\n\n      if (weiContributing > weiAsking) {         // If user is contributing more than asking, they are the seller and they pay the fee.\n        return totalEscrow.mul(systemFeePPM).div(1000000);\n      } else if (weiContributing < weiAsking) {\n        return 0; // Buyer role pays no fee\n      } else {\n        return totalEscrow.mul(systemFeePPM).div(1000000).div(2);  // If this is a 50-50 thing, split the fee.\n      }\n    }\n\n\n    /**\n    * @dev Set the system fee to a new value. This doesn't affect existing WITs.\n    */ \n    function setSystemFee(uint fee) public \n    onlyContractOwner {\n      require(0 <= fee);\n      systemFeePPM = fee;\n    }\n\n\n    /**\n    * @dev Cancel an unpartnered WIT that you have created. Redeem the ETH escrowed therein.\n    * @param tokenID The ID of your token that you want to cancel.\n    TODO ARBOL redemption\n    */ \n    function cancelAndRedeem(uint tokenID) onlyOwnerOfSubWITOf(tokenID) public {\n      WIT memory the_wit = getWIT(tokenID);\n      uint redemptionAmount = the_wit.belowEscrow;\n      require((the_wit.aboveID == 0) || (the_wit.belowID == 0)); \n      burnWIT(tokenID);\n      msg.sender.transfer(redemptionAmount);\n      Redemption(tokenID, redemptionAmount, msg.sender);\n      \n    }\n\n    event EvaluatorResponse(uint WITID, bytes32 evaluationResult);\n\n    function evaluate(uint tokenID, string runtimeParams) onlyOwnerOfSubWITOf(tokenID) public {\n      WIT memory the_wit = getWIT(tokenID);\n      require(the_wit.end < now);\n      require(the_wit.aboveID != 0);\n      require(the_wit.belowID != 0);\n\n      WITEvaluator evaluator = WITEvaluator(the_wit.evaluator);\n      bytes32 outcome = evaluator.evaluateWIT(tokenID, runtimeParams, the_wit.start, the_wit.end, the_wit.threshold, the_wit.location);\n\n      EvaluatorResponse(tokenID, outcome);\n\n      uint totalEscrow = the_wit.aboveEscrow.add(the_wit.belowEscrow);\n\n      if (outcome == keccak256(\"above\")) { // use keccak because == doesn't work for strings.\n        burnWIT(tokenID);\n        Redemption(tokenID, totalEscrow, ownerOf(the_wit.aboveID));\n        ownerOf(the_wit.aboveID).transfer(totalEscrow);\n      }\n\n      if (outcome == keccak256(\"below\")) {\n        burnWIT(tokenID);\n        Redemption(tokenID, totalEscrow, ownerOf(the_wit.belowID));\n        ownerOf(the_wit.belowID).transfer(totalEscrow);\n      }\n\n\n    }\n\n\n\n    function kill() onlyContractOwner public {\n      //\n    }\n\n\n}",
  "sourcePath": "/Users/benandre/cropcrop/contracts/WeatherImmunityToken.sol",
  "compiler": {
    "name": "solc",
    "version": "0.4.18+commit.9cf6e910.Emscripten.clang"
  },
  "schemaVersion": "1.0.1",
  "updatedAt": "2018-03-29T08:52:18.078Z"
}