{
  "contractName": "WeatherImmunityToken",
  "abi": [
    {
      "constant": false,
      "inputs": [
        {
          "name": "_to",
          "type": "address"
        },
        {
          "name": "_tokenId",
          "type": "uint256"
        }
      ],
      "name": "approve",
      "outputs": [],
      "payable": false,
      "stateMutability": "nonpayable",
      "type": "function"
    },
    {
      "constant": false,
      "inputs": [],
      "name": "totalSupply",
      "outputs": [
        {
          "name": "",
          "type": "uint256"
        }
      ],
      "payable": false,
      "stateMutability": "nonpayable",
      "type": "function"
    },
    {
      "constant": false,
      "inputs": [
        {
          "name": "dependant",
          "type": "address"
        }
      ],
      "name": "addDependant",
      "outputs": [],
      "payable": false,
      "stateMutability": "nonpayable",
      "type": "function"
    },
    {
      "constant": false,
      "inputs": [
        {
          "name": "newOwner",
          "type": "address"
        }
      ],
      "name": "decomission",
      "outputs": [],
      "payable": false,
      "stateMutability": "nonpayable",
      "type": "function"
    },
    {
      "constant": true,
      "inputs": [
        {
          "name": "tokenID",
          "type": "uint256"
        }
      ],
      "name": "ownerOf",
      "outputs": [
        {
          "name": "",
          "type": "address"
        }
      ],
      "payable": false,
      "stateMutability": "view",
      "type": "function"
    },
    {
      "constant": true,
      "inputs": [
        {
          "name": "owner",
          "type": "address"
        }
      ],
      "name": "balanceOf",
      "outputs": [
        {
          "name": "",
          "type": "uint256"
        }
      ],
      "payable": false,
      "stateMutability": "view",
      "type": "function"
    },
    {
      "constant": false,
      "inputs": [
        {
          "name": "tokenID",
          "type": "uint256"
        }
      ],
      "name": "cancelAndRedeem",
      "outputs": [],
      "payable": false,
      "stateMutability": "nonpayable",
      "type": "function"
    },
    {
      "constant": true,
      "inputs": [],
      "name": "owner",
      "outputs": [
        {
          "name": "",
          "type": "address"
        }
      ],
      "payable": false,
      "stateMutability": "view",
      "type": "function"
    },
    {
      "constant": false,
      "inputs": [
        {
          "name": "_to",
          "type": "address"
        },
        {
          "name": "_tokenId",
          "type": "uint256"
        }
      ],
      "name": "transfer",
      "outputs": [],
      "payable": false,
      "stateMutability": "nonpayable",
      "type": "function"
    },
    {
      "constant": false,
      "inputs": [
        {
          "name": "_tokenId",
          "type": "uint256"
        }
      ],
      "name": "takeOwnership",
      "outputs": [],
      "payable": false,
      "stateMutability": "nonpayable",
      "type": "function"
    },
    {
      "constant": false,
      "inputs": [
        {
          "name": "arbolAddress",
          "type": "address"
        },
        {
          "name": "storageAddress",
          "type": "address"
        },
        {
          "name": "NOAAPrecipAggregate",
          "type": "address"
        }
      ],
      "name": "initialize",
      "outputs": [],
      "payable": false,
      "stateMutability": "nonpayable",
      "type": "function"
    },
    {
      "constant": false,
      "inputs": [
        {
          "name": "proposalID",
          "type": "uint256"
        }
      ],
      "name": "createWITAcceptance",
      "outputs": [],
      "payable": true,
      "stateMutability": "payable",
      "type": "function"
    },
    {
      "constant": false,
      "inputs": [
        {
          "name": "WITID",
          "type": "uint256"
        },
        {
          "name": "outcome",
          "type": "string"
        }
      ],
      "name": "evaluatorCallback",
      "outputs": [],
      "payable": false,
      "stateMutability": "nonpayable",
      "type": "function"
    },
    {
      "constant": false,
      "inputs": [
        {
          "name": "tokenID",
          "type": "uint256"
        },
        {
          "name": "runtimeParams",
          "type": "string"
        }
      ],
      "name": "evaluate",
      "outputs": [],
      "payable": false,
      "stateMutability": "nonpayable",
      "type": "function"
    },
    {
      "constant": true,
      "inputs": [],
      "name": "systemFeePPM",
      "outputs": [
        {
          "name": "",
          "type": "uint256"
        }
      ],
      "payable": false,
      "stateMutability": "view",
      "type": "function"
    },
    {
      "constant": false,
      "inputs": [
        {
          "name": "weiContributing",
          "type": "uint256"
        },
        {
          "name": "weiAsking",
          "type": "uint256"
        },
        {
          "name": "aboveOrBelow",
          "type": "bool"
        },
        {
          "name": "evaluator",
          "type": "address"
        },
        {
          "name": "thresholdPPTTH",
          "type": "uint256"
        },
        {
          "name": "location",
          "type": "bytes32"
        },
        {
          "name": "start",
          "type": "uint256"
        },
        {
          "name": "end",
          "type": "uint256"
        },
        {
          "name": "makeStale",
          "type": "bool"
        }
      ],
      "name": "createWITProposal",
      "outputs": [],
      "payable": true,
      "stateMutability": "payable",
      "type": "function"
    },
    {
      "constant": false,
      "inputs": [
        {
          "name": "newOwner",
          "type": "address"
        }
      ],
      "name": "transferOwnership",
      "outputs": [],
      "payable": false,
      "stateMutability": "nonpayable",
      "type": "function"
    },
    {
      "anonymous": false,
      "inputs": [
        {
          "indexed": true,
          "name": "WITID",
          "type": "uint256"
        },
        {
          "indexed": false,
          "name": "amount",
          "type": "uint256"
        },
        {
          "indexed": true,
          "name": "user",
          "type": "address"
        }
      ],
      "name": "Redemption",
      "type": "event"
    },
    {
      "anonymous": false,
      "inputs": [
        {
          "indexed": true,
          "name": "WITID",
          "type": "uint256"
        },
        {
          "indexed": true,
          "name": "aboveID",
          "type": "uint256"
        },
        {
          "indexed": true,
          "name": "belowID",
          "type": "uint256"
        }
      ],
      "name": "ProposalAccepted",
      "type": "event"
    },
    {
      "anonymous": false,
      "inputs": [
        {
          "indexed": true,
          "name": "WITID",
          "type": "uint256"
        },
        {
          "indexed": false,
          "name": "aboveID",
          "type": "uint256"
        },
        {
          "indexed": false,
          "name": "belowID",
          "type": "uint256"
        },
        {
          "indexed": true,
          "name": "weiContributing",
          "type": "uint256"
        },
        {
          "indexed": true,
          "name": "weiAsking",
          "type": "uint256"
        },
        {
          "indexed": false,
          "name": "evaluator",
          "type": "address"
        },
        {
          "indexed": false,
          "name": "thresholdPPTTH",
          "type": "uint256"
        },
        {
          "indexed": false,
          "name": "location",
          "type": "bytes32"
        },
        {
          "indexed": false,
          "name": "start",
          "type": "uint256"
        },
        {
          "indexed": false,
          "name": "end",
          "type": "uint256"
        },
        {
          "indexed": false,
          "name": "makeStale",
          "type": "bool"
        }
      ],
      "name": "ProposalOffered",
      "type": "event"
    },
    {
      "anonymous": false,
      "inputs": [
        {
          "indexed": false,
          "name": "WITID",
          "type": "uint256"
        },
        {
          "indexed": false,
          "name": "evaluationResult",
          "type": "string"
        },
        {
          "indexed": false,
          "name": "weiPayout",
          "type": "uint256"
        }
      ],
      "name": "WITEvaluated",
      "type": "event"
    },
    {
      "anonymous": false,
      "inputs": [
        {
          "indexed": false,
          "name": "numDependants",
          "type": "uint256"
        },
        {
          "indexed": false,
          "name": "balance",
          "type": "uint256"
        },
        {
          "indexed": false,
          "name": "recepientOfEscrow",
          "type": "address"
        }
      ],
      "name": "ContractDecomissioned",
      "type": "event"
    },
    {
      "anonymous": false,
      "inputs": [
        {
          "indexed": false,
          "name": "outcome",
          "type": "string"
        }
      ],
      "name": "GotAReallyWeirdOutcome",
      "type": "event"
    },
    {
      "anonymous": false,
      "inputs": [
        {
          "indexed": true,
          "name": "previousOwner",
          "type": "address"
        },
        {
          "indexed": true,
          "name": "newOwner",
          "type": "address"
        }
      ],
      "name": "OwnershipTransferred",
      "type": "event"
    },
    {
      "anonymous": false,
      "inputs": [
        {
          "indexed": true,
          "name": "_from",
          "type": "address"
        },
        {
          "indexed": true,
          "name": "_to",
          "type": "address"
        },
        {
          "indexed": false,
          "name": "_tokenId",
          "type": "uint256"
        }
      ],
      "name": "Transfer",
      "type": "event"
    },
    {
      "anonymous": false,
      "inputs": [
        {
          "indexed": true,
          "name": "_owner",
          "type": "address"
        },
        {
          "indexed": true,
          "name": "_approved",
          "type": "address"
        },
        {
          "indexed": false,
          "name": "_tokenId",
          "type": "uint256"
        }
      ],
      "name": "Approval",
      "type": "event"
    }
  ],
  "bytecode": "0x6060604052735aeda56215b167893e80b4fe645ba6d5bab767de600360006101000a81548173ffffffffffffffffffffffffffffffffffffffff021916908373ffffffffffffffffffffffffffffffffffffffff1602179055506000600560006101000a81548160ff02191690831515021790555033600160006101000a81548173ffffffffffffffffffffffffffffffffffffffff021916908373ffffffffffffffffffffffffffffffffffffffff160217905550614c45806100c46000396000f3006060604052600436106100f1576000357c0100000000000000000000000000000000000000000000000000000000900463ffffffff168063095ea7b3146100f657806318160ddd146101385780633aee69a7146101615780635a37e17a1461019a5780636352211e146101d357806370a0823114610236578063741d215b146102835780638da5cb5b146102a6578063a9059cbb146102fb578063b2e6ceeb1461033d578063c0c53b8b14610360578063c931313c146103d7578063dbef1a29146103ef578063dd81afdd14610455578063e2fc4007146104bb578063eaa4d2d3146104e4578063f2fde38b14610562575b600080fd5b341561010157600080fd5b610136600480803573ffffffffffffffffffffffffffffffffffffffff1690602001909190803590602001909190505061059b565b005b341561014357600080fd5b61014b6106e6565b6040518082815260200191505060405180910390f35b341561016c57600080fd5b610198600480803573ffffffffffffffffffffffffffffffffffffffff169060200190919050506107dd565b005b34156101a557600080fd5b6101d1600480803573ffffffffffffffffffffffffffffffffffffffff16906020019091905050610b5b565b005b34156101de57600080fd5b6101f46004808035906020019091905050610f9c565b604051808273ffffffffffffffffffffffffffffffffffffffff1673ffffffffffffffffffffffffffffffffffffffff16815260200191505060405180910390f35b341561024157600080fd5b61026d600480803573ffffffffffffffffffffffffffffffffffffffff169060200190919050506110a2565b6040518082815260200191505060405180910390f35b341561028e57600080fd5b6102a460048080359060200190919050506111de565b005b34156102b157600080fd5b6102b961135f565b604051808273ffffffffffffffffffffffffffffffffffffffff1673ffffffffffffffffffffffffffffffffffffffff16815260200191505060405180910390f35b341561030657600080fd5b61033b600480803573ffffffffffffffffffffffffffffffffffffffff16906020019091908035906020019091905050611385565b005b341561034857600080fd5b61035e60048080359060200190919050506113d8565b005b341561036b57600080fd5b6103d5600480803573ffffffffffffffffffffffffffffffffffffffff1690602001909190803573ffffffffffffffffffffffffffffffffffffffff1690602001909190803573ffffffffffffffffffffffffffffffffffffffff16906020019091905050611403565b005b6103ed6004808035906020019091905050611a35565b005b34156103fa57600080fd5b610453600480803590602001909190803590602001908201803590602001908080601f01602080910402602001604051908101604052809392919081815260200183838082843782019150505050505091905050611c5a565b005b341561046057600080fd5b6104b9600480803590602001909190803590602001908201803590602001908080601f0160208091040260200160405190810160405280939291908181526020018383808284378201915050505050509190505061202f565b005b34156104c657600080fd5b6104ce612166565b6040518082815260200191505060405180910390f35b6105606004808035906020019091908035906020019091908035151590602001909190803573ffffffffffffffffffffffffffffffffffffffff1690602001909190803590602001909190803560001916906020019091908035906020019091908035906020019091908035151590602001909190505061216c565b005b341561056d57600080fd5b610599600480803573ffffffffffffffffffffffffffffffffffffffff16906020019091905050612455565b005b6000813373ffffffffffffffffffffffffffffffffffffffff166105be82610f9c565b73ffffffffffffffffffffffffffffffffffffffff161415156105e057600080fd5b6105e983610f9c565b91508173ffffffffffffffffffffffffffffffffffffffff168473ffffffffffffffffffffffffffffffffffffffff161415151561062657600080fd5b6000610631846125ad565b73ffffffffffffffffffffffffffffffffffffffff1614158061066b575060008473ffffffffffffffffffffffffffffffffffffffff1614155b156106e05761067a83856126ae565b8373ffffffffffffffffffffffffffffffffffffffff168273ffffffffffffffffffffffffffffffffffffffff167f8c5be1e5ebec7d5bd14f71427d1e84f3dd0314c0f7b2291e5b200ac8c7c3b925856040518082815260200191505060405180910390a35b50505050565b60008060009054906101000a900473ffffffffffffffffffffffffffffffffffffffff1673ffffffffffffffffffffffffffffffffffffffff1663bdc963d860405180807f546f74616c537570706c79000000000000000000000000000000000000000000815250600b01905060405180910390206000604051602001526040518263ffffffff167c0100000000000000000000000000000000000000000000000000000000028152600401808260001916600019168152602001915050602060405180830381600087803b15156107bd57600080fd5b6102c65a03f115156107ce57600080fd5b50505060405180519050905090565b6000600160009054906101000a900473ffffffffffffffffffffffffffffffffffffffff1673ffffffffffffffffffffffffffffffffffffffff163373ffffffffffffffffffffffffffffffffffffffff1614151561083b57600080fd5b6000809054906101000a900473ffffffffffffffffffffffffffffffffffffffff1673ffffffffffffffffffffffffffffffffffffffff1663bdc963d860405180807f446570656e64616e7473436f756e746572000000000000000000000000000000815250601101905060405180910390206000604051602001526040518263ffffffff167c0100000000000000000000000000000000000000000000000000000000028152600401808260001916600019168152602001915050602060405180830381600087803b151561091057600080fd5b6102c65a03f1151561092157600080fd5b5050506040518051905090506000809054906101000a900473ffffffffffffffffffffffffffffffffffffffff1673ffffffffffffffffffffffffffffffffffffffff16635a2bf25a61097e6001846127ce90919063ffffffff16565b60405180807f446570656e64616e747300000000000000000000000000000000000000000000815250600a018281526020019150506040518091039020846040518363ffffffff167c01000000000000000000000000000000000000000000000000000000000281526004018083600019166000191681526020018273ffffffffffffffffffffffffffffffffffffffff1673ffffffffffffffffffffffffffffffffffffffff16815260200192505050600060405180830381600087803b1515610a4857600080fd5b6102c65a03f11515610a5957600080fd5b5050506000809054906101000a900473ffffffffffffffffffffffffffffffffffffffff1673ffffffffffffffffffffffffffffffffffffffff16633562fd2060405180807f446570656e64616e7473436f756e74657200000000000000000000000000000081525060110190506040518091039020610ae36001856127ce90919063ffffffff16565b6040518363ffffffff167c010000000000000000000000000000000000000000000000000000000002815260040180836000191660001916815260200182815260200192505050600060405180830381600087803b1515610b4357600080fd5b6102c65a03f11515610b5457600080fd5b5050505050565b6000806000600160009054906101000a900473ffffffffffffffffffffffffffffffffffffffff1673ffffffffffffffffffffffffffffffffffffffff163373ffffffffffffffffffffffffffffffffffffffff16141515610bbc57600080fd5b6000809054906101000a900473ffffffffffffffffffffffffffffffffffffffff1673ffffffffffffffffffffffffffffffffffffffff1663bdc963d860405180807f446570656e64616e7473436f756e746572000000000000000000000000000000815250601101905060405180910390206000604051602001526040518263ffffffff167c0100000000000000000000000000000000000000000000000000000000028152600401808260001916600019168152602001915050602060405180830381600087803b1515610c9157600080fd5b6102c65a03f11515610ca257600080fd5b5050506040518051905092508291505b6000821115610e71576000809054906101000a900473ffffffffffffffffffffffffffffffffffffffff1673ffffffffffffffffffffffffffffffffffffffff16634c77e5ba8360405180807f446570656e64616e747300000000000000000000000000000000000000000000815250600a0182815260200191505060405180910390206000604051602001526040518263ffffffff167c0100000000000000000000000000000000000000000000000000000000028152600401808260001916600019168152602001915050602060405180830381600087803b1515610d9857600080fd5b6102c65a03f11515610da957600080fd5b5050506040518051905090508073ffffffffffffffffffffffffffffffffffffffff1663f2fde38b856040518263ffffffff167c0100000000000000000000000000000000000000000000000000000000028152600401808273ffffffffffffffffffffffffffffffffffffffff1673ffffffffffffffffffffffffffffffffffffffff168152602001915050600060405180830381600087803b1515610e4f57600080fd5b6102c65a03f11515610e6057600080fd5b505050818060019003925050610cb2565b7f62dc94d047971f4e6d5c7f13f47a1f886238b01683f0cf4e10bde29c2bf9c56d833073ffffffffffffffffffffffffffffffffffffffff1631600160009054906101000a900473ffffffffffffffffffffffffffffffffffffffff16604051808481526020018381526020018273ffffffffffffffffffffffffffffffffffffffff1673ffffffffffffffffffffffffffffffffffffffff168152602001935050505060405180910390a1600160009054906101000a900473ffffffffffffffffffffffffffffffffffffffff1673ffffffffffffffffffffffffffffffffffffffff166108fc3073ffffffffffffffffffffffffffffffffffffffff16319081150290604051600060405180830381858888f193505050501515610f9657600080fd5b50505050565b6000806000809054906101000a900473ffffffffffffffffffffffffffffffffffffffff1673ffffffffffffffffffffffffffffffffffffffff16634c77e5ba8460405180807f4f776e65724f660000000000000000000000000000000000000000000000000081525060070182815260200191505060405180910390206000604051602001526040518263ffffffff167c0100000000000000000000000000000000000000000000000000000000028152600401808260001916600019168152602001915050602060405180830381600087803b151561107c57600080fd5b6102c65a03f1151561108d57600080fd5b50505060405180519050905080915050919050565b60008060009054906101000a900473ffffffffffffffffffffffffffffffffffffffff1673ffffffffffffffffffffffffffffffffffffffff1663bdc963d88360405180807f42616c616e63654f6600000000000000000000000000000000000000000000008152506009018273ffffffffffffffffffffffffffffffffffffffff1673ffffffffffffffffffffffffffffffffffffffff166c0100000000000000000000000002815260140191505060405180910390206000604051602001526040518263ffffffff167c0100000000000000000000000000000000000000000000000000000000028152600401808260001916600019168152602001915050602060405180830381600087803b15156111bc57600080fd5b6102c65a03f115156111cd57600080fd5b505050604051805190509050919050565b6111e6614ba3565b60008060006111f4856127ec565b93503373ffffffffffffffffffffffffffffffffffffffff1661121a8560600151610f9c565b73ffffffffffffffffffffffffffffffffffffffff161492503373ffffffffffffffffffffffffffffffffffffffff166112578560800151610f9c565b73ffffffffffffffffffffffffffffffffffffffff1614915082806112795750815b151561128457600080fd5b60008460600151148061129b575060008460800151145b15156112a657600080fd5b6112af856133d1565b82156112c157836020015190506112c9565b836040015190505b3373ffffffffffffffffffffffffffffffffffffffff166108fc829081150290604051600060405180830381858888f19350505050151561130957600080fd5b3373ffffffffffffffffffffffffffffffffffffffff16857f79af0603d6af952354516f9583d1640b4e036431911d556b8fd682f83ff43aaf836040518082815260200191505060405180910390a35050505050565b600160009054906101000a900473ffffffffffffffffffffffffffffffffffffffff1681565b803373ffffffffffffffffffffffffffffffffffffffff166113a682610f9c565b73ffffffffffffffffffffffffffffffffffffffff161415156113c857600080fd5b6113d33384846134a5565b505050565b6113e233826135ee565b15156113ed57600080fd5b6114006113f982610f9c565b33836134a5565b50565b600160009054906101000a900473ffffffffffffffffffffffffffffffffffffffff1673ffffffffffffffffffffffffffffffffffffffff163373ffffffffffffffffffffffffffffffffffffffff1614151561145f57600080fd5b82600260006101000a81548173ffffffffffffffffffffffffffffffffffffffff021916908373ffffffffffffffffffffffffffffffffffffffff160217905550816000806101000a81548173ffffffffffffffffffffffffffffffffffffffff021916908373ffffffffffffffffffffffffffffffffffffffff16021790555060008060009054906101000a900473ffffffffffffffffffffffffffffffffffffffff1673ffffffffffffffffffffffffffffffffffffffff1663bdc963d860405180807f5749544944436f756e7465720000000000000000000000000000000000000000815250600c01905060405180910390206000604051602001526040518263ffffffff167c0100000000000000000000000000000000000000000000000000000000028152600401808260001916600019168152602001915050602060405180830381600087803b15156115b757600080fd5b6102c65a03f115156115c857600080fd5b505050604051805190501415156115de57600080fd5b620f42406004819055506000809054906101000a900473ffffffffffffffffffffffffffffffffffffffff1673ffffffffffffffffffffffffffffffffffffffff16633562fd2060405180807f5749544944436f756e7465720000000000000000000000000000000000000000815250600c019050604051809103902060016040518363ffffffff167c010000000000000000000000000000000000000000000000000000000002815260040180836000191660001916815260200182815260200192505050600060405180830381600087803b15156116bd57600080fd5b6102c65a03f115156116ce57600080fd5b5050506000809054906101000a900473ffffffffffffffffffffffffffffffffffffffff1673ffffffffffffffffffffffffffffffffffffffff16635a2bf25a600160405180807f446570656e64616e747300000000000000000000000000000000000000000000815250600a0182815260200191505060405180910390206000809054906101000a900473ffffffffffffffffffffffffffffffffffffffff166040518363ffffffff167c01000000000000000000000000000000000000000000000000000000000281526004018083600019166000191681526020018273ffffffffffffffffffffffffffffffffffffffff1673ffffffffffffffffffffffffffffffffffffffff16815260200192505050600060405180830381600087803b15156117fb57600080fd5b6102c65a03f1151561180c57600080fd5b5050506000809054906101000a900473ffffffffffffffffffffffffffffffffffffffff1673ffffffffffffffffffffffffffffffffffffffff16635a2bf25a600260405180807f446570656e64616e747300000000000000000000000000000000000000000000815250600a018281526020019150506040518091039020836040518363ffffffff167c01000000000000000000000000000000000000000000000000000000000281526004018083600019166000191681526020018273ffffffffffffffffffffffffffffffffffffffff1673ffffffffffffffffffffffffffffffffffffffff16815260200192505050600060405180830381600087803b151561191857600080fd5b6102c65a03f1151561192957600080fd5b5050506000809054906101000a900473ffffffffffffffffffffffffffffffffffffffff1673ffffffffffffffffffffffffffffffffffffffff16633562fd2060405180807f446570656e64616e7473436f756e7465720000000000000000000000000000008152506011019050604051809103902060026040518363ffffffff167c010000000000000000000000000000000000000000000000000000000002815260040180836000191660001916815260200182815260200192505050600060405180830381600087803b1515611a0157600080fd5b6102c65a03f11515611a1257600080fd5b5050506001600560006101000a81548160ff021916908315150217905550505050565b611a3d614ba3565b600080600073ffffffffffffffffffffffffffffffffffffffff16611a6185610f9c565b73ffffffffffffffffffffffffffffffffffffffff1614151515611a8457600080fd5b611a8d846127ec565b9250611aa7600184600001516127ce90919063ffffffff16565b915082610140015115611ac85782610100015142101515611ac757600080fd5b5b600083606001511415611ae15782602001519050611ae9565b826040015190505b8034141515611af757600080fd5b6000809054906101000a900473ffffffffffffffffffffffffffffffffffffffff1673ffffffffffffffffffffffffffffffffffffffff16633562fd20846000015160405180807f5749540000000000000000000000000000000000000000000000000000000000815250600301828152602001807f61626f76654944000000000000000000000000000000000000000000000000008152506007019150506040518091039020846040518363ffffffff167c010000000000000000000000000000000000000000000000000000000002815260040180836000191660001916815260200182815260200192505050600060405180830381600087803b1515611bff57600080fd5b6102c65a03f11515611c1057600080fd5b50505082600001518284600001517f4e26d2058422e671478446da4522b7c1527f240c0b68519a064219769b062dce60405160405180910390a4611c54338361362f565b50505050565b611c62614ba3565b600080611c6e856127ec565b92508260a0015173ffffffffffffffffffffffffffffffffffffffff163373ffffffffffffffffffffffffffffffffffffffff16141515611cae57600080fd5b611cc9836040015184602001516127ce90919063ffffffff16565b915060405180807f61626f76650000000000000000000000000000000000000000000000000000008152506005019050604051809103902060001916846040518082805190602001908083835b602083101515611d3b5780518252602082019150602081019050602083039250611d16565b6001836020036101000a0380198251168184511680821785525050505050509050019150506040518091039020600019161415611d8657611d7f8360600151610f9c565b9050611ee3565b60405180807f62656c6f770000000000000000000000000000000000000000000000000000008152506005019050604051809103902060001916846040518082805190602001908083835b602083101515611df65780518252602082019150602081019050602083039250611dd1565b6001836020036101000a0380198251168184511680821785525050505050509050019150506040518091039020600019161415611e4157611e3a8360800151610f9c565b9050611ee2565b7f3245e4a75053d0a16c5b092e18e5673215e5e96c3c15ae905952e902583fa576846040518080602001828103825283818151815260200191508051906020019080838360005b83811015611ea3578082015181840152602081019050611e88565b50505050905090810190601f168015611ed05780820380516001836020036101000a031916815260200191505b509250505060405180910390a1612028565b5b611eec856133d1565b8073ffffffffffffffffffffffffffffffffffffffff16857f79af0603d6af952354516f9583d1640b4e036431911d556b8fd682f83ff43aaf846040518082815260200191505060405180910390a37f0ffb68e73c330bf939b6f9e8f1c24d8a6903f996fafc9ee959989e01fc5c102d8585846040518084815260200180602001838152602001828103825284818151815260200191508051906020019080838360005b83811015611fab578082015181840152602081019050611f90565b50505050905090810190601f168015611fd85780820380516001836020036101000a031916815260200191505b5094505050505060405180910390a18073ffffffffffffffffffffffffffffffffffffffff166108fc839081150290604051600060405180830381858888f19350505050151561202757600080fd5b5b5050505050565b612037614ba3565b6000612042846127ec565b91504282610120015110151561205757600080fd5b600082606001511415151561206b57600080fd5b600082608001511415151561207f57600080fd5b8160a0015190508073ffffffffffffffffffffffffffffffffffffffff1663990199e234868561010001518661012001518760c001518860e00151600a6040518863ffffffff167c0100000000000000000000000000000000000000000000000000000000028152600401808781526020018681526020018581526020018481526020018360001916600019168152602001828152602001806020018281038252600081526020016020019750505050505050506000604051808303818588803b151561214b57600080fd5b6125ee5a03f1151561215c57600080fd5b5050505050505050565b60045481565b6000612176614ba3565b60008b11151561218557600080fd5b60008a11151561219457600080fd5b6121a78b8b6127ce90919063ffffffff16565b50600560009054906101000a900460ff1615156121cd5784421015156121cc57600080fd5b5b83851015156121db57600080fd5b8a341415156121e957600080fd5b6121f16136c9565b91506121fb6137c0565b881561231d57610160604051908101604052808381526020018c81526020018b8152602001838152602001600081526020018973ffffffffffffffffffffffffffffffffffffffff168152602001888152602001876000191681526020018681526020018581526020018415158152509050898b837f32a1e31199d17c85d6d4bc5532f14905535322fb657272a26e6fe7072785c3128560008d8d8d8d8d8d604051808981526020018881526020018773ffffffffffffffffffffffffffffffffffffffff1673ffffffffffffffffffffffffffffffffffffffff1681526020018681526020018560001916600019168152602001848152602001838152602001821515151581526020019850505050505050505060405180910390a4612435565b610160604051908101604052808381526020018b81526020018c8152602001600081526020018381526020018973ffffffffffffffffffffffffffffffffffffffff168152602001888152602001876000191681526020018681526020018581526020018415158152509050898b837f32a1e31199d17c85d6d4bc5532f14905535322fb657272a26e6fe7072785c3126000868d8d8d8d8d8d604051808981526020018881526020018773ffffffffffffffffffffffffffffffffffffffff1673ffffffffffffffffffffffffffffffffffffffff1681526020018681526020018560001916600019168152602001848152602001838152602001821515151581526020019850505050505050505060405180910390a45b61243e816138c4565b612448338361362f565b5050505050505050505050565b600160009054906101000a900473ffffffffffffffffffffffffffffffffffffffff1673ffffffffffffffffffffffffffffffffffffffff163373ffffffffffffffffffffffffffffffffffffffff161415156124b157600080fd5b600073ffffffffffffffffffffffffffffffffffffffff168173ffffffffffffffffffffffffffffffffffffffff16141515156124ed57600080fd5b8073ffffffffffffffffffffffffffffffffffffffff16600160009054906101000a900473ffffffffffffffffffffffffffffffffffffffff1673ffffffffffffffffffffffffffffffffffffffff167f8be0079c531659141344cd1fd0a4f28419497f9722a3daafe3b4186f6b6457e060405160405180910390a380600160006101000a81548173ffffffffffffffffffffffffffffffffffffffff021916908373ffffffffffffffffffffffffffffffffffffffff16021790555050565b60008060009054906101000a900473ffffffffffffffffffffffffffffffffffffffff1673ffffffffffffffffffffffffffffffffffffffff16634c77e5ba8360405180807f417070726f766564466f72000000000000000000000000000000000000000000815250600b0182815260200191505060405180910390206000604051602001526040518263ffffffff167c0100000000000000000000000000000000000000000000000000000000028152600401808260001916600019168152602001915050602060405180830381600087803b151561268c57600080fd5b6102c65a03f1151561269d57600080fd5b505050604051805190509050919050565b6000809054906101000a900473ffffffffffffffffffffffffffffffffffffffff1673ffffffffffffffffffffffffffffffffffffffff16635a2bf25a8360405180807f417070726f766564466f72000000000000000000000000000000000000000000815250600b018281526020019150506040518091039020836040518363ffffffff167c01000000000000000000000000000000000000000000000000000000000281526004018083600019166000191681526020018273ffffffffffffffffffffffffffffffffffffffff1673ffffffffffffffffffffffffffffffffffffffff16815260200192505050600060405180830381600087803b15156127b657600080fd5b6102c65a03f115156127c757600080fd5b5050505050565b60008082840190508381101515156127e257fe5b8091505092915050565b6127f4614ba3565b6000806000806000806000806000806000809054906101000a900473ffffffffffffffffffffffffffffffffffffffff1673ffffffffffffffffffffffffffffffffffffffff1663bdc963d88d60405180807f5749540000000000000000000000000000000000000000000000000000000000815250600301828152602001807f61626f7665457363726f77000000000000000000000000000000000000000000815250600b0191505060405180910390206000604051602001526040518263ffffffff167c0100000000000000000000000000000000000000000000000000000000028152600401808260001916600019168152602001915050602060405180830381600087803b151561290857600080fd5b6102c65a03f1151561291957600080fd5b5050506040518051905099506000809054906101000a900473ffffffffffffffffffffffffffffffffffffffff1673ffffffffffffffffffffffffffffffffffffffff1663bdc963d88d60405180807f5749540000000000000000000000000000000000000000000000000000000000815250600301828152602001807f62656c6f77457363726f77000000000000000000000000000000000000000000815250600b0191505060405180910390206000604051602001526040518263ffffffff167c0100000000000000000000000000000000000000000000000000000000028152600401808260001916600019168152602001915050602060405180830381600087803b1515612a2a57600080fd5b6102c65a03f11515612a3b57600080fd5b5050506040518051905098506000809054906101000a900473ffffffffffffffffffffffffffffffffffffffff1673ffffffffffffffffffffffffffffffffffffffff1663bdc963d88d60405180807f5749540000000000000000000000000000000000000000000000000000000000815250600301828152602001807f61626f766549440000000000000000000000000000000000000000000000000081525060070191505060405180910390206000604051602001526040518263ffffffff167c0100000000000000000000000000000000000000000000000000000000028152600401808260001916600019168152602001915050602060405180830381600087803b1515612b4c57600080fd5b6102c65a03f11515612b5d57600080fd5b5050506040518051905097506000809054906101000a900473ffffffffffffffffffffffffffffffffffffffff1673ffffffffffffffffffffffffffffffffffffffff1663bdc963d88d60405180807f5749540000000000000000000000000000000000000000000000000000000000815250600301828152602001807f62656c6f7749440000000000000000000000000000000000000000000000000081525060070191505060405180910390206000604051602001526040518263ffffffff167c0100000000000000000000000000000000000000000000000000000000028152600401808260001916600019168152602001915050602060405180830381600087803b1515612c6e57600080fd5b6102c65a03f11515612c7f57600080fd5b5050506040518051905096506000809054906101000a900473ffffffffffffffffffffffffffffffffffffffff1673ffffffffffffffffffffffffffffffffffffffff16634c77e5ba8d60405180807f5749540000000000000000000000000000000000000000000000000000000000815250600301828152602001807f6576616c7561746f72000000000000000000000000000000000000000000000081525060090191505060405180910390206000604051602001526040518263ffffffff167c0100000000000000000000000000000000000000000000000000000000028152600401808260001916600019168152602001915050602060405180830381600087803b1515612d9057600080fd5b6102c65a03f11515612da157600080fd5b5050506040518051905095506000809054906101000a900473ffffffffffffffffffffffffffffffffffffffff1673ffffffffffffffffffffffffffffffffffffffff1663bdc963d88d60405180807f5749540000000000000000000000000000000000000000000000000000000000815250600301828152602001807f7468726573686f6c645050545448000000000000000000000000000000000000815250600e0191505060405180910390206000604051602001526040518263ffffffff167c0100000000000000000000000000000000000000000000000000000000028152600401808260001916600019168152602001915050602060405180830381600087803b1515612eb257600080fd5b6102c65a03f11515612ec357600080fd5b5050506040518051905094506000809054906101000a900473ffffffffffffffffffffffffffffffffffffffff1673ffffffffffffffffffffffffffffffffffffffff1663025ec81a8d60405180807f5749540000000000000000000000000000000000000000000000000000000000815250600301828152602001807f6c6f636174696f6e00000000000000000000000000000000000000000000000081525060080191505060405180910390206000604051602001526040518263ffffffff167c0100000000000000000000000000000000000000000000000000000000028152600401808260001916600019168152602001915050602060405180830381600087803b1515612fd457600080fd5b6102c65a03f11515612fe557600080fd5b5050506040518051905093506000809054906101000a900473ffffffffffffffffffffffffffffffffffffffff1673ffffffffffffffffffffffffffffffffffffffff1663bdc963d88d60405180807f5749540000000000000000000000000000000000000000000000000000000000815250600301828152602001807f737461727400000000000000000000000000000000000000000000000000000081525060050191505060405180910390206000604051602001526040518263ffffffff167c0100000000000000000000000000000000000000000000000000000000028152600401808260001916600019168152602001915050602060405180830381600087803b15156130f657600080fd5b6102c65a03f1151561310757600080fd5b5050506040518051905092506000809054906101000a900473ffffffffffffffffffffffffffffffffffffffff1673ffffffffffffffffffffffffffffffffffffffff1663bdc963d88d60405180807f5749540000000000000000000000000000000000000000000000000000000000815250600301828152602001807f656e64000000000000000000000000000000000000000000000000000000000081525060030191505060405180910390206000604051602001526040518263ffffffff167c0100000000000000000000000000000000000000000000000000000000028152600401808260001916600019168152602001915050602060405180830381600087803b151561321857600080fd5b6102c65a03f1151561322957600080fd5b5050506040518051905091506000809054906101000a900473ffffffffffffffffffffffffffffffffffffffff1673ffffffffffffffffffffffffffffffffffffffff166317e7dd228d60405180807f5749540000000000000000000000000000000000000000000000000000000000815250600301828152602001807f6d616b655374616c65000000000000000000000000000000000000000000000081525060090191505060405180910390206000604051602001526040518263ffffffff167c0100000000000000000000000000000000000000000000000000000000028152600401808260001916600019168152602001915050602060405180830381600087803b151561333a57600080fd5b6102c65a03f1151561334b57600080fd5b505050604051805190509050610160604051908101604052808d81526020018b81526020018a81526020018981526020018881526020018773ffffffffffffffffffffffffffffffffffffffff168152602001868152602001856000191681526020018481526020018381526020018215158152509a5050505050505050505050919050565b6133d9614ba3565b6000806133e5846127ec565b92506133f48360800151610f9c565b9150613404828460800151614442565b6134118360600151610f9c565b9050613421818460600151614442565b61349f6101606040519081016040528086815260200160008152602001600081526020016000815260200160008152602001600073ffffffffffffffffffffffffffffffffffffffff1681526020016000815260200160006001026000191681526020016000815260200160008152602001600015158152506138c4565b50505050565b600073ffffffffffffffffffffffffffffffffffffffff168273ffffffffffffffffffffffffffffffffffffffff16141515156134e157600080fd5b6134ea81610f9c565b73ffffffffffffffffffffffffffffffffffffffff168273ffffffffffffffffffffffffffffffffffffffff161415151561352457600080fd5b8273ffffffffffffffffffffffffffffffffffffffff1661354482610f9c565b73ffffffffffffffffffffffffffffffffffffffff1614151561356657600080fd5b61357083826144d3565b61357a8382614574565b61358482826147d1565b8173ffffffffffffffffffffffffffffffffffffffff168373ffffffffffffffffffffffffffffffffffffffff167fddf252ad1be2c89b69c2b068fc378daa952ba7f163c4a11628f55a4df523b3ef836040518082815260200191505060405180910390a3505050565b60008273ffffffffffffffffffffffffffffffffffffffff16613610836125ad565b73ffffffffffffffffffffffffffffffffffffffff1614905092915050565b600073ffffffffffffffffffffffffffffffffffffffff168273ffffffffffffffffffffffffffffffffffffffff161415151561366b57600080fd5b61367582826147d1565b8173ffffffffffffffffffffffffffffffffffffffff1660007fddf252ad1be2c89b69c2b068fc378daa952ba7f163c4a11628f55a4df523b3ef836040518082815260200191505060405180910390a35050565b60008060009054906101000a900473ffffffffffffffffffffffffffffffffffffffff1673ffffffffffffffffffffffffffffffffffffffff1663bdc963d860405180807f5749544944436f756e7465720000000000000000000000000000000000000000815250600c01905060405180910390206000604051602001526040518263ffffffff167c0100000000000000000000000000000000000000000000000000000000028152600401808260001916600019168152602001915050602060405180830381600087803b15156137a057600080fd5b6102c65a03f115156137b157600080fd5b50505060405180519050905090565b6000809054906101000a900473ffffffffffffffffffffffffffffffffffffffff1673ffffffffffffffffffffffffffffffffffffffff16633562fd2060405180807f5749544944436f756e7465720000000000000000000000000000000000000000815250600c019050604051809103902061384e60026138406136c9565b6127ce90919063ffffffff16565b6040518363ffffffff167c010000000000000000000000000000000000000000000000000000000002815260040180836000191660001916815260200182815260200192505050600060405180830381600087803b15156138ae57600080fd5b6102c65a03f115156138bf57600080fd5b505050565b6000809054906101000a900473ffffffffffffffffffffffffffffffffffffffff1673ffffffffffffffffffffffffffffffffffffffff16633562fd20826000015160405180807f5749540000000000000000000000000000000000000000000000000000000000815250600301828152602001807f61626f7665457363726f77000000000000000000000000000000000000000000815250600b01915050604051809103902083602001516040518363ffffffff167c010000000000000000000000000000000000000000000000000000000002815260040180836000191660001916815260200182815260200192505050600060405180830381600087803b15156139d057600080fd5b6102c65a03f115156139e157600080fd5b5050506000809054906101000a900473ffffffffffffffffffffffffffffffffffffffff1673ffffffffffffffffffffffffffffffffffffffff16633562fd20826000015160405180807f5749540000000000000000000000000000000000000000000000000000000000815250600301828152602001807f62656c6f77457363726f77000000000000000000000000000000000000000000815250600b01915050604051809103902083604001516040518363ffffffff167c010000000000000000000000000000000000000000000000000000000002815260040180836000191660001916815260200182815260200192505050600060405180830381600087803b1515613af057600080fd5b6102c65a03f11515613b0157600080fd5b5050506000809054906101000a900473ffffffffffffffffffffffffffffffffffffffff1673ffffffffffffffffffffffffffffffffffffffff16633562fd20826000015160405180807f5749540000000000000000000000000000000000000000000000000000000000815250600301828152602001807f61626f7665494400000000000000000000000000000000000000000000000000815250600701915050604051809103902083606001516040518363ffffffff167c010000000000000000000000000000000000000000000000000000000002815260040180836000191660001916815260200182815260200192505050600060405180830381600087803b1515613c1057600080fd5b6102c65a03f11515613c2157600080fd5b5050506000809054906101000a900473ffffffffffffffffffffffffffffffffffffffff1673ffffffffffffffffffffffffffffffffffffffff16633562fd20826000015160405180807f5749540000000000000000000000000000000000000000000000000000000000815250600301828152602001807f62656c6f77494400000000000000000000000000000000000000000000000000815250600701915050604051809103902083608001516040518363ffffffff167c010000000000000000000000000000000000000000000000000000000002815260040180836000191660001916815260200182815260200192505050600060405180830381600087803b1515613d3057600080fd5b6102c65a03f11515613d4157600080fd5b5050506000809054906101000a900473ffffffffffffffffffffffffffffffffffffffff1673ffffffffffffffffffffffffffffffffffffffff16635a2bf25a826000015160405180807f5749540000000000000000000000000000000000000000000000000000000000815250600301828152602001807f6576616c7561746f72000000000000000000000000000000000000000000000081525060090191505060405180910390208360a001516040518363ffffffff167c01000000000000000000000000000000000000000000000000000000000281526004018083600019166000191681526020018273ffffffffffffffffffffffffffffffffffffffff1673ffffffffffffffffffffffffffffffffffffffff16815260200192505050600060405180830381600087803b1515613e7c57600080fd5b6102c65a03f11515613e8d57600080fd5b5050506000809054906101000a900473ffffffffffffffffffffffffffffffffffffffff1673ffffffffffffffffffffffffffffffffffffffff16633562fd20826000015160405180807f5749540000000000000000000000000000000000000000000000000000000000815250600301828152602001807f7468726573686f6c645050545448000000000000000000000000000000000000815250600e0191505060405180910390208360c001516040518363ffffffff167c010000000000000000000000000000000000000000000000000000000002815260040180836000191660001916815260200182815260200192505050600060405180830381600087803b1515613f9c57600080fd5b6102c65a03f11515613fad57600080fd5b5050506000809054906101000a900473ffffffffffffffffffffffffffffffffffffffff1673ffffffffffffffffffffffffffffffffffffffff166325cf512d826000015160405180807f5749540000000000000000000000000000000000000000000000000000000000815250600301828152602001807f6c6f636174696f6e00000000000000000000000000000000000000000000000081525060080191505060405180910390208360e001516040518363ffffffff167c0100000000000000000000000000000000000000000000000000000000028152600401808360001916600019168152602001826000191660001916815260200192505050600060405180830381600087803b15156140c457600080fd5b6102c65a03f115156140d557600080fd5b5050506000809054906101000a900473ffffffffffffffffffffffffffffffffffffffff1673ffffffffffffffffffffffffffffffffffffffff16633562fd20826000015160405180807f5749540000000000000000000000000000000000000000000000000000000000815250600301828152602001807f737461727400000000000000000000000000000000000000000000000000000081525060050191505060405180910390208361010001516040518363ffffffff167c010000000000000000000000000000000000000000000000000000000002815260040180836000191660001916815260200182815260200192505050600060405180830381600087803b15156141e557600080fd5b6102c65a03f115156141f657600080fd5b5050506000809054906101000a900473ffffffffffffffffffffffffffffffffffffffff1673ffffffffffffffffffffffffffffffffffffffff16633562fd20826000015160405180807f5749540000000000000000000000000000000000000000000000000000000000815250600301828152602001807f656e64000000000000000000000000000000000000000000000000000000000081525060030191505060405180910390208361012001516040518363ffffffff167c010000000000000000000000000000000000000000000000000000000002815260040180836000191660001916815260200182815260200192505050600060405180830381600087803b151561430657600080fd5b6102c65a03f1151561431757600080fd5b5050506000809054906101000a900473ffffffffffffffffffffffffffffffffffffffff1673ffffffffffffffffffffffffffffffffffffffff16633eba9ed2826000015160405180807f5749540000000000000000000000000000000000000000000000000000000000815250600301828152602001807f6d616b655374616c65000000000000000000000000000000000000000000000081525060090191505060405180910390208361014001516040518363ffffffff167c01000000000000000000000000000000000000000000000000000000000281526004018083600019166000191681526020018215151515815260200192505050600060405180830381600087803b151561442b57600080fd5b6102c65a03f1151561443c57600080fd5b50505050565b600061444d826125ad565b73ffffffffffffffffffffffffffffffffffffffff161415156144755761447482826144d3565b5b61447f8282614574565b60008273ffffffffffffffffffffffffffffffffffffffff167fddf252ad1be2c89b69c2b068fc378daa952ba7f163c4a11628f55a4df523b3ef836040518082815260200191505060405180910390a35050565b8173ffffffffffffffffffffffffffffffffffffffff166144f382610f9c565b73ffffffffffffffffffffffffffffffffffffffff1614151561451557600080fd5b6145208160006126ae565b60008273ffffffffffffffffffffffffffffffffffffffff167f8c5be1e5ebec7d5bd14f71427d1e84f3dd0314c0f7b2291e5b200ac8c7c3b925836040518082815260200191505060405180910390a35050565b6000614581826000614a6a565b61458a836110a2565b90506000809054906101000a900473ffffffffffffffffffffffffffffffffffffffff1673ffffffffffffffffffffffffffffffffffffffff16633562fd208460405180807f42616c616e63654f6600000000000000000000000000000000000000000000008152506009018273ffffffffffffffffffffffffffffffffffffffff1673ffffffffffffffffffffffffffffffffffffffff166c010000000000000000000000000281526014019150506040518091039020614656600185614b8a90919063ffffffff16565b6040518363ffffffff167c010000000000000000000000000000000000000000000000000000000002815260040180836000191660001916815260200182815260200192505050600060405180830381600087803b15156146b657600080fd5b6102c65a03f115156146c757600080fd5b5050506000809054906101000a900473ffffffffffffffffffffffffffffffffffffffff1673ffffffffffffffffffffffffffffffffffffffff16633562fd2060405180807f546f74616c537570706c79000000000000000000000000000000000000000000815250600b0190506040518091039020614758600161474a6106e6565b614b8a90919063ffffffff16565b6040518363ffffffff167c010000000000000000000000000000000000000000000000000000000002815260040180836000191660001916815260200182815260200192505050600060405180830381600087803b15156147b857600080fd5b6102c65a03f115156147c957600080fd5b505050505050565b600073ffffffffffffffffffffffffffffffffffffffff166147f282610f9c565b73ffffffffffffffffffffffffffffffffffffffff1614151561481457600080fd5b61481e8183614a6a565b6000809054906101000a900473ffffffffffffffffffffffffffffffffffffffff1673ffffffffffffffffffffffffffffffffffffffff16633562fd208360405180807f42616c616e63654f6600000000000000000000000000000000000000000000008152506009018273ffffffffffffffffffffffffffffffffffffffff1673ffffffffffffffffffffffffffffffffffffffff166c0100000000000000000000000002815260140191505060405180910390206148f060016148e2876110a2565b6127ce90919063ffffffff16565b6040518363ffffffff167c010000000000000000000000000000000000000000000000000000000002815260040180836000191660001916815260200182815260200192505050600060405180830381600087803b151561495057600080fd5b6102c65a03f1151561496157600080fd5b5050506000809054906101000a900473ffffffffffffffffffffffffffffffffffffffff1673ffffffffffffffffffffffffffffffffffffffff16633562fd2060405180807f546f74616c537570706c79000000000000000000000000000000000000000000815250600b01905060405180910390206149f260016149e46106e6565b6127ce90919063ffffffff16565b6040518363ffffffff167c010000000000000000000000000000000000000000000000000000000002815260040180836000191660001916815260200182815260200192505050600060405180830381600087803b1515614a5257600080fd5b6102c65a03f11515614a6357600080fd5b5050505050565b6000809054906101000a900473ffffffffffffffffffffffffffffffffffffffff1673ffffffffffffffffffffffffffffffffffffffff16635a2bf25a8360405180807f4f776e65724f66000000000000000000000000000000000000000000000000008152506007018281526020019150506040518091039020836040518363ffffffff167c01000000000000000000000000000000000000000000000000000000000281526004018083600019166000191681526020018273ffffffffffffffffffffffffffffffffffffffff1673ffffffffffffffffffffffffffffffffffffffff16815260200192505050600060405180830381600087803b1515614b7257600080fd5b6102c65a03f11515614b8357600080fd5b5050505050565b6000828211151515614b9857fe5b818303905092915050565b610160604051908101604052806000815260200160008152602001600081526020016000815260200160008152602001600073ffffffffffffffffffffffffffffffffffffffff1681526020016000815260200160008019168152602001600081526020016000815260200160001515815250905600a165627a7a72305820f28a4676523bae2070de10c2d6d4253b11d28122e9d13133af7c9b14b6a34aa70029",
  "source": "pragma solidity ^0.4.18;\n\nimport 'zeppelin-solidity/contracts/math/SafeMath.sol';\nimport './DecoupledERC721Token.sol';\nimport './Arbolcoin.sol';\nimport './EternalDonut.sol';\nimport './Ownable.sol';\nimport './WITEvaluator.sol';\nimport './CallbackableWIT.sol';\n\n/**\n * @title Weather Immunity Token for ARBOL.\n *\n * @dev If you hold this token you are eligible for a payout based on the outcome of the weather.\n * @dev WITs are a representation of a protection agreement between two parties.\n * @dev Various terms can be set by the \"proposer.\" The proposer receives their own WIT, and this WIT is referred to as the \"proposal WIT.\"\n * @dev When the proposal WIT is created, the proposer deposits some ether into the smart contract.\n * @dev This ether is referred to as the \"proposal ether\" and represents the amount that the proposer wishes to bet. \n *\n * @dev The proposal needs to be accepted before it does anything interesting. \n * @dev If it is accepted, a new WIT is created according to the terms specified in the first one.\n * @dev The accepter also deposits some ether. Both parties' ether is now locked until the WITs are evaluated.\n *\n * @dev WITs can be transferred after they have been created. They are nonfungible ERC721 tokens.\n *\n */\ncontract WeatherImmunityToken is DecoupledERC721Token, Ownable, CallbackableWIT {\n  using SafeMath for uint;\n\n    struct WIT {\n      uint WITID;           // Unique ID\n      uint aboveEscrow;     // Amount of ether escrowed by the party betting on an \"above threshold\" outcome.\n      uint belowEscrow;     // Amount of ether escrowed by the party betting on a \"below threshold\" outcome.\n      uint aboveID;         // The address of the party betting on an \"above threshold\" outcome (the token holder).\n      uint belowID;         // The address of the party betting on a \"below threshold\" outcome (the token holder).\n      address evaluator;    // The address of the contract that shall provide the outcome (above or below threshold).\n      uint thresholdPPTTH;  // The threshold in \"parts per ten thousand.\" 9000 equals 10% belowaverage, 11000 equals 10% above average\n      bytes32 location;     // The geographic location or locations for which the weather outcome shall be relevant.\n      uint start;           // Unix timestamp representing the start time of the relevant time period.\n      uint end;             // Unix timestamp representing the end time of the relevant time period.\n      bool makeStale;       // Whether or not to allow the proposal to be accepted after \"start\" is in the past. Defaults to \"no.\"\n    }\n\n    // Arbolcoin smart contract (contains address). \n    Arbolcoin private arbol;\n\n    // ARBOL fees go to this wallet. TODO make this owner, or implement revenue token.\n    address private systemFeeWallet = 0x5AEDA56215b167893e80B4fE645BA6d5Bab767DE;\n\n    // The ARBOL system fee in parts per million. (of wei.) 100% for now.\n    uint public systemFeePPM;\n\n    bool private testmode = false;\n\n    event Redemption(uint indexed WITID, uint amount, address indexed user);\n    event ProposalAccepted(uint indexed WITID, uint indexed aboveID, uint indexed belowID);\n    event ProposalOffered(uint indexed WITID, uint aboveID, uint belowID, uint indexed weiContributing,  uint indexed weiAsking, address evaluator, uint thresholdPPTTH, bytes32 location, uint start, uint end, bool makeStale);\n    event WITEvaluated(uint WITID, string evaluationResult, uint weiPayout);\n    event ContractDecomissioned(uint numDependants, uint balance, address recepientOfEscrow);\n    event GotAReallyWeirdOutcome(string outcome);\n\n\n    /**\n    * @dev Initialize the contract. Do this separately from the contstructor because of gas issues.\n    * @param arbolAddress The address of the Arbolcoin contract.\n    * @param storageAddress The address of the decoupled storage contract.\n    * @param NOAAPrecipAggregate The address of a particular evaluator contract.\n    */\n    function initialize(address arbolAddress, address storageAddress, address NOAAPrecipAggregate) public onlyContractOwner {\n        arbol = Arbolcoin(arbolAddress);\n        storageContract = EternalDonut(storageAddress);\n        require(storageContract.getUIntValue(keccak256(\"WITIDCounter\")) == 0);\n        systemFeePPM = 1000000;\n        storageContract.setUIntValue(keccak256(\"WITIDCounter\"), uint(1)); //start at 1\n        storageContract.setAddressValue(keccak256(\"Dependants\", uint(1)), address(storageContract));\n        storageContract.setAddressValue(keccak256(\"Dependants\", uint(2)), address(NOAAPrecipAggregate));\n        storageContract.setUIntValue(keccak256(\"DependantsCounter\"), uint(2)); \n        testmode = true;\n      }\n\n\n    /**\n    * @dev Create a WIT without a partner. (A proposal.)\n    * @param weiContributing Amount of wei user proposes to contribute\n    * @param weiAsking Amount of wei user proposes the partner contribute.\n    * @param aboveOrBelow Whether the user is betting on an above outcome (true) or a below outcome (false).\n    * @param evaluator The address of the contract that will evaluate the WIT (for example one that integrates with a specific weather API).\n    * @param thresholdPPTTH The threshold by which the payout will be determined.\n    * @param location The geographic location or locations relevant to the weather outcome.\n    * @param start The start date of the WIT.\n    * @param end The end date of the WIT.\n    * @param makeStale If set to true, the WIT will be taken off the open market after its start date passes. That is, no one will be able to accept it.\n    */\n    function createWITProposal(uint weiContributing, uint weiAsking, bool aboveOrBelow, address evaluator, uint thresholdPPTTH, bytes32 location, uint start, uint end, bool makeStale) public payable {\n        require(weiContributing > 0);\n        require(weiAsking > 0);\n        weiAsking.add(weiContributing); // this expression will throw if the escrow amounts are too big.\n\n        /*\n        Don't let people create WITs that start in the past. Could allow people to execute a sort of abuse\n        where a hapless rube accidentally accepts a WIT that has already gone in favor of the proposer.\n\n        But we do need to be able to create WITs in the past for testing purposes, so we allow it if \"test\n        mode\" in on. Can't test evaluateWIT unless the term period of the WIT has already passed.\n        */\n\n        // on testnet, we let people create WITs in the past. Otherwise there's nothing to test!\n        if (!testmode) { require(now < start); }\n        require(start < end);\n        require(msg.value == weiContributing);\n        uint ID = getTokenCounter();\n        incrementTokenCounter();\n        WIT memory new_WIT;\n        if (aboveOrBelow) {\n          new_WIT = WIT(ID, weiContributing, weiAsking, ID, 0, evaluator, thresholdPPTTH, location, start, end, makeStale);\n          ProposalOffered(ID, ID, 0, weiContributing, weiAsking, evaluator, thresholdPPTTH, location, start, end, makeStale);\n        }\n        else {\n          new_WIT = WIT(ID, weiAsking, weiContributing, 0, ID, evaluator, thresholdPPTTH, location, start, end, makeStale);\n          ProposalOffered(ID, 0, ID, weiContributing, weiAsking, evaluator, thresholdPPTTH, location, start, end, makeStale);        \n        }\n        saveWIT(new_WIT);\n        _mint(msg.sender, ID);\n    }\n\n\n    /**\n    * @dev Create a WIT and partner it to an existing WIT (accept a proposed protection agreement).\n    * @param proposalID The ID of the WIT to which the new WIT shall be partnered.\n    */\n    function createWITAcceptance(uint proposalID) public payable {\n        require(ownerOf(proposalID) != address(0));\n        WIT memory proposalWIT = getWIT(proposalID);\n        uint new_ID = proposalWIT.WITID.add(1);\n        if (proposalWIT.makeStale) { require(now < proposalWIT.start); }\n        \n        // Figure out whether we are adding an \"above\" or \"below\" WIT.\n        uint expectedEscrow;\n        if (proposalWIT.aboveID == 0) { expectedEscrow = proposalWIT.aboveEscrow; }\n        else { expectedEscrow = proposalWIT.belowEscrow; }\n        require(msg.value == expectedEscrow); \n        storageContract.setUIntValue(keccak256(\"WIT\", proposalWIT.WITID, \"aboveID\"), new_ID);        \n        ProposalAccepted(proposalWIT.WITID, new_ID, proposalWIT.WITID);\n        _mint(msg.sender, new_ID);\n    }\n\n\n    /**\n    * @dev Determine the outcome of the weather for a WIT by invoking the Evaluator contract's evaluateWIT function.\n    * @param tokenID The WIT to be evaluated\n    * @param runtimeParams any additional parameters that are required at evaluation runtime.\n    */\n    function evaluate(uint tokenID, string runtimeParams) public {\n        WIT memory the_wit = getWIT(tokenID);\n        require(the_wit.end < now);\n        require(the_wit.aboveID != 0);\n        require(the_wit.belowID != 0);\n        WITEvaluator evaluator = WITEvaluator(the_wit.evaluator);\n        evaluator.evaluateWIT.value(msg.value)(tokenID, the_wit.start, the_wit.end, the_wit.thresholdPPTTH, the_wit.location, 10, \"\");\n    }\n\n\n    /**\n    * @dev Callback function to be invoked by the evaluator contract upon completion of the evaluation.\n    * @dev This function pays out the ether that has been escrowed to the appropriate WIT holder.\n    * @param WITID The ID of the WIT that has been evaluated.\n    * @param outcome The result of the evaluation. (\"above\" or \"below.\")\n    */\n    function evaluatorCallback(uint WITID, string outcome) public {\n        WIT memory the_wit = getWIT(WITID);\n        require(msg.sender == the_wit.evaluator);\n        uint totalEscrow = the_wit.aboveEscrow.add(the_wit.belowEscrow);\n        address beneficiary;\n        if (keccak256(outcome) == keccak256(\"above\")) { // use keccak because == doesn't work for strings.\n            beneficiary = ownerOf(the_wit.aboveID);\n        }\n        else {\n            if (keccak256(outcome) == keccak256(\"below\")) {\n                beneficiary = ownerOf(the_wit.belowID);\n            }\n            else { \n                GotAReallyWeirdOutcome(outcome); \n                return;\n            }\n        }\n        burnWIT(WITID);\n        Redemption(WITID, totalEscrow, beneficiary);\n        WITEvaluated(WITID, outcome, totalEscrow);\n        beneficiary.transfer(totalEscrow);\n    }\n\n\n\n    /**\n    * @dev Cancel an unpartnered WIT that you have created. Redeem the ETH escrowed therein.\n    * @param tokenID The ID of your token that you want to cancel.\n    */ \n    function cancelAndRedeem(uint tokenID) public {\n        WIT memory the_wit = getWIT(tokenID);\n        bool is_above_owner = ownerOf(the_wit.aboveID) == msg.sender;\n        bool is_below_owner = ownerOf(the_wit.belowID) == msg.sender;\n        require(is_above_owner || is_below_owner);                   // sender must own half of the WIT\n        require((the_wit.aboveID == 0) || (the_wit.belowID == 0));   // also, the other half of the WIT must not be owned.\n        burnWIT(tokenID);\n        uint redemptionAmount;\n        if (is_above_owner) { redemptionAmount = the_wit.aboveEscrow; }\n        else { redemptionAmount = the_wit.belowEscrow; }\n        msg.sender.transfer(redemptionAmount);\n        Redemption(tokenID, redemptionAmount, msg.sender);\n    }    \n\n\n    /**\n    * @dev Retrieves a certain WIT from decoupled storage. Returns the WIT inside a WIT struct.\n    * @param tokenID The ID of the desired WIT.\n    */\n    function getWIT(uint tokenID) private returns (WIT) {\n        uint aboveEscrow = storageContract.getUIntValue(keccak256(\"WIT\", tokenID, \"aboveEscrow\"));\n        uint belowEscrow = storageContract.getUIntValue(keccak256(\"WIT\", tokenID, \"belowEscrow\"));\n        uint aboveID = storageContract.getUIntValue(keccak256(\"WIT\", tokenID, \"aboveID\"));\n        uint belowID = storageContract.getUIntValue(keccak256(\"WIT\", tokenID, \"belowID\"));    \n        address evaluator = storageContract.getAddressValue(keccak256(\"WIT\", tokenID, \"evaluator\"));\n        uint thresholdPPTTH = storageContract.getUIntValue(keccak256(\"WIT\", tokenID, \"thresholdPPTTH\"));\n        bytes32 location = storageContract.getBytes32Value(keccak256(\"WIT\", tokenID, \"location\"));\n        uint start = storageContract.getUIntValue(keccak256(\"WIT\", tokenID, \"start\"));\n        uint end = storageContract.getUIntValue(keccak256(\"WIT\", tokenID, \"end\"));\n        bool makeStale = storageContract.getBooleanValue(keccak256(\"WIT\", tokenID, \"makeStale\"));\n        return WIT(tokenID, aboveEscrow, belowEscrow, aboveID, belowID, evaluator, thresholdPPTTH, location, start, end, makeStale);        \n    }\n\n\n    /**\n    * @dev Saves a WIT to the decoupled storage contract.\n    * @param the_wit The WIT to be saved.\n    */\n    function saveWIT(WIT the_wit) private {\n        storageContract.setUIntValue(keccak256(\"WIT\", the_wit.WITID, \"aboveEscrow\"), the_wit.aboveEscrow);\n        storageContract.setUIntValue(keccak256(\"WIT\", the_wit.WITID, \"belowEscrow\"), the_wit.belowEscrow);\n        storageContract.setUIntValue(keccak256(\"WIT\", the_wit.WITID, \"aboveID\"), the_wit.aboveID);\n        storageContract.setUIntValue(keccak256(\"WIT\", the_wit.WITID, \"belowID\"), the_wit.belowID);        \n        storageContract.setAddressValue(keccak256(\"WIT\", the_wit.WITID, \"evaluator\"), the_wit.evaluator);\n        storageContract.setUIntValue(keccak256(\"WIT\", the_wit.WITID, \"thresholdPPTTH\"), the_wit.thresholdPPTTH);\n        storageContract.setBytes32Value(keccak256(\"WIT\", the_wit.WITID, \"location\"), the_wit.location);\n        storageContract.setUIntValue(keccak256(\"WIT\", the_wit.WITID, \"start\"), the_wit.start);\n        storageContract.setUIntValue(keccak256(\"WIT\", the_wit.WITID, \"end\"), the_wit.end);\n        storageContract.setBooleanValue(keccak256(\"WIT\", the_wit.WITID, \"makeStale\"), the_wit.makeStale);\n    }\n\n\n    /**\n    * @dev Burns a specific token.  \n    * @param tokenID uint ID of the token being burned by the msg.sender\n    */\n    function burnWIT(uint tokenID) private { // gets called in cancelAndRedeem and evaluate\n        WIT memory the_wit = getWIT(tokenID);\n        address belowOwner = ownerOf(the_wit.belowID);\n        _burn(belowOwner, the_wit.belowID);\n        address aboveOwner = ownerOf(the_wit.aboveID);\n        _burn(aboveOwner, the_wit.aboveID);\n        saveWIT(WIT(tokenID, 0, 0, 0, 0, 0, 0, 0, 0, 0, false));\n    }\n\n\n    /**\n    * @dev Get the ID for the next token to be created.\n    */\n    function getTokenCounter() private view returns (uint) {\n       return storageContract.getUIntValue(keccak256(\"WITIDCounter\"));\n    }\n\n\n    /**\n    * @dev Increment the counter for new WIT IDs. We increment by 2 because each WIT has\n    * @dev two ERC721's associated with it, and both of those ERC721's will have unique IDs.\n    * @dev The first will have the same ID as the WIT, and the second will have the ID of the WIT + 1.\n    */\n    function incrementTokenCounter() private {\n        storageContract.setUIntValue(keccak256(\"WITIDCounter\"), getTokenCounter().add(2)); // Yes, 2.\n    }\n\n\n    /**\n    * @dev Add a contract to be owned by this contract.\n    * @param dependant Address of the contract. \n    */\n    function addDependant(address dependant) public onlyContractOwner {\n        uint counter = storageContract.getUIntValue(keccak256(\"DependantsCounter\"));\n        storageContract.setAddressValue(keccak256(\"Dependants\", counter.add(1)), dependant);\n        storageContract.setUIntValue(keccak256(\"DependantsCounter\"), counter.add(1));\n    }\n\n\n    /**\n    * @dev Shut down this contract.\n    * @dev Transfer all owned contracts and transfer all ether.\n    */\n    function decomission(address newOwner) onlyContractOwner public {\n        uint numDependants = storageContract.getUIntValue(keccak256(\"DependantsCounter\")); \n        for (uint counter = numDependants; counter > 0; counter--) {\n            address dependant = storageContract.getAddressValue(keccak256(\"Dependants\", counter));\n            Ownable(dependant).transferOwnership(newOwner);\n        }\n        ContractDecomissioned(numDependants, this.balance, owner);\n        owner.transfer(this.balance);\n        //TODO get ether out of NOAAPrecipAggregate contract\n    }\n\n}",
  "sourcePath": "/Users/benandre/cropcrop/contracts/WeatherImmunityToken.sol",
  "compiler": {
    "name": "solc",
    "version": "0.4.18+commit.9cf6e910.Emscripten.clang"
  },
  "schemaVersion": "1.0.1",
  "updatedAt": "2018-06-16T05:42:22.646Z"
}