{
  "contractName": "WeatherImmunityToken",
  "abi": [
    {
      "constant": false,
      "inputs": [
        {
          "name": "_to",
          "type": "address"
        },
        {
          "name": "_tokenId",
          "type": "uint256"
        }
      ],
      "name": "approve",
      "outputs": [],
      "payable": false,
      "stateMutability": "nonpayable",
      "type": "function"
    },
    {
      "constant": false,
      "inputs": [
        {
          "name": "fee",
          "type": "uint256"
        }
      ],
      "name": "setSystemFee",
      "outputs": [],
      "payable": false,
      "stateMutability": "nonpayable",
      "type": "function"
    },
    {
      "constant": true,
      "inputs": [],
      "name": "totalSupply",
      "outputs": [
        {
          "name": "",
          "type": "uint256"
        }
      ],
      "payable": false,
      "stateMutability": "view",
      "type": "function"
    },
    {
      "constant": true,
      "inputs": [
        {
          "name": "",
          "type": "uint256"
        }
      ],
      "name": "weatherAPIs",
      "outputs": [
        {
          "name": "",
          "type": "string"
        }
      ],
      "payable": false,
      "stateMutability": "view",
      "type": "function"
    },
    {
      "constant": true,
      "inputs": [
        {
          "name": "_tokenId",
          "type": "uint256"
        }
      ],
      "name": "approvedFor",
      "outputs": [
        {
          "name": "",
          "type": "address"
        }
      ],
      "payable": false,
      "stateMutability": "view",
      "type": "function"
    },
    {
      "constant": true,
      "inputs": [
        {
          "name": "weiContributing",
          "type": "uint256"
        },
        {
          "name": "weiAsking",
          "type": "uint256"
        }
      ],
      "name": "calculateFee",
      "outputs": [
        {
          "name": "",
          "type": "uint256"
        }
      ],
      "payable": false,
      "stateMutability": "view",
      "type": "function"
    },
    {
      "constant": true,
      "inputs": [
        {
          "name": "_owner",
          "type": "address"
        }
      ],
      "name": "tokensOf",
      "outputs": [
        {
          "name": "",
          "type": "uint256[]"
        }
      ],
      "payable": false,
      "stateMutability": "view",
      "type": "function"
    },
    {
      "constant": false,
      "inputs": [],
      "name": "ping",
      "outputs": [
        {
          "name": "",
          "type": "string"
        }
      ],
      "payable": false,
      "stateMutability": "nonpayable",
      "type": "function"
    },
    {
      "constant": true,
      "inputs": [
        {
          "name": "_tokenId",
          "type": "uint256"
        }
      ],
      "name": "ownerOf",
      "outputs": [
        {
          "name": "",
          "type": "address"
        }
      ],
      "payable": false,
      "stateMutability": "view",
      "type": "function"
    },
    {
      "constant": true,
      "inputs": [
        {
          "name": "_owner",
          "type": "address"
        }
      ],
      "name": "balanceOf",
      "outputs": [
        {
          "name": "",
          "type": "uint256"
        }
      ],
      "payable": false,
      "stateMutability": "view",
      "type": "function"
    },
    {
      "constant": false,
      "inputs": [
        {
          "name": "tokenID",
          "type": "uint256"
        }
      ],
      "name": "cancelAndRedeem",
      "outputs": [],
      "payable": false,
      "stateMutability": "nonpayable",
      "type": "function"
    },
    {
      "constant": false,
      "inputs": [
        {
          "name": "_to",
          "type": "address"
        },
        {
          "name": "_tokenId",
          "type": "uint256"
        }
      ],
      "name": "transfer",
      "outputs": [],
      "payable": false,
      "stateMutability": "nonpayable",
      "type": "function"
    },
    {
      "constant": true,
      "inputs": [
        {
          "name": "",
          "type": "uint256"
        }
      ],
      "name": "WITs",
      "outputs": [
        {
          "name": "weiEscrow",
          "type": "uint256"
        },
        {
          "name": "weiPartnerEscrow",
          "type": "uint256"
        },
        {
          "name": "index",
          "type": "string"
        },
        {
          "name": "threshold",
          "type": "string"
        },
        {
          "name": "location",
          "type": "string"
        },
        {
          "name": "partnerID",
          "type": "uint256"
        },
        {
          "name": "start",
          "type": "uint256"
        },
        {
          "name": "end",
          "type": "uint256"
        },
        {
          "name": "makeStale",
          "type": "bool"
        }
      ],
      "payable": false,
      "stateMutability": "view",
      "type": "function"
    },
    {
      "constant": false,
      "inputs": [
        {
          "name": "_tokenId",
          "type": "uint256"
        }
      ],
      "name": "takeOwnership",
      "outputs": [],
      "payable": false,
      "stateMutability": "nonpayable",
      "type": "function"
    },
    {
      "constant": false,
      "inputs": [
        {
          "name": "name",
          "type": "string"
        },
        {
          "name": "contractAddress",
          "type": "address"
        }
      ],
      "name": "addWeatherAPI",
      "outputs": [],
      "payable": false,
      "stateMutability": "nonpayable",
      "type": "function"
    },
    {
      "constant": false,
      "inputs": [
        {
          "name": "proposalID",
          "type": "uint256"
        }
      ],
      "name": "createWITAcceptance",
      "outputs": [],
      "payable": true,
      "stateMutability": "payable",
      "type": "function"
    },
    {
      "constant": true,
      "inputs": [],
      "name": "systemFeePPM",
      "outputs": [
        {
          "name": "",
          "type": "uint256"
        }
      ],
      "payable": false,
      "stateMutability": "view",
      "type": "function"
    },
    {
      "constant": false,
      "inputs": [
        {
          "name": "weiContributing",
          "type": "uint256"
        },
        {
          "name": "weiAsking",
          "type": "uint256"
        },
        {
          "name": "index",
          "type": "string"
        },
        {
          "name": "threshold",
          "type": "string"
        },
        {
          "name": "location",
          "type": "string"
        },
        {
          "name": "start",
          "type": "uint256"
        },
        {
          "name": "end",
          "type": "uint256"
        },
        {
          "name": "makeStale",
          "type": "bool"
        }
      ],
      "name": "createWITProposal",
      "outputs": [],
      "payable": true,
      "stateMutability": "payable",
      "type": "function"
    },
    {
      "inputs": [
        {
          "name": "cropDeployedAt",
          "type": "address"
        }
      ],
      "payable": false,
      "stateMutability": "nonpayable",
      "type": "constructor"
    },
    {
      "anonymous": false,
      "inputs": [
        {
          "indexed": false,
          "name": "tokenID",
          "type": "uint256"
        },
        {
          "indexed": false,
          "name": "amount",
          "type": "uint256"
        },
        {
          "indexed": false,
          "name": "user",
          "type": "address"
        }
      ],
      "name": "Redemption",
      "type": "event"
    },
    {
      "anonymous": false,
      "inputs": [
        {
          "indexed": false,
          "name": "tokenIDProposer",
          "type": "uint256"
        },
        {
          "indexed": false,
          "name": "tokenIDAccepter",
          "type": "uint256"
        }
      ],
      "name": "ProposalAccepted",
      "type": "event"
    },
    {
      "anonymous": false,
      "inputs": [
        {
          "indexed": false,
          "name": "tokenID",
          "type": "uint256"
        },
        {
          "indexed": false,
          "name": "weiContributing",
          "type": "uint256"
        },
        {
          "indexed": false,
          "name": "weiAsking",
          "type": "uint256"
        },
        {
          "indexed": false,
          "name": "index",
          "type": "string"
        },
        {
          "indexed": false,
          "name": "threshold",
          "type": "string"
        },
        {
          "indexed": false,
          "name": "location",
          "type": "string"
        },
        {
          "indexed": false,
          "name": "start",
          "type": "uint256"
        },
        {
          "indexed": false,
          "name": "end",
          "type": "uint256"
        }
      ],
      "name": "ProposalOffered",
      "type": "event"
    },
    {
      "anonymous": false,
      "inputs": [
        {
          "indexed": false,
          "name": "one",
          "type": "address"
        },
        {
          "indexed": false,
          "name": "two",
          "type": "address"
        },
        {
          "indexed": false,
          "name": "three",
          "type": "uint256"
        }
      ],
      "name": "Debug",
      "type": "event"
    },
    {
      "anonymous": false,
      "inputs": [
        {
          "indexed": true,
          "name": "_from",
          "type": "address"
        },
        {
          "indexed": true,
          "name": "_to",
          "type": "address"
        },
        {
          "indexed": false,
          "name": "_tokenId",
          "type": "uint256"
        }
      ],
      "name": "Transfer",
      "type": "event"
    },
    {
      "anonymous": false,
      "inputs": [
        {
          "indexed": true,
          "name": "_owner",
          "type": "address"
        },
        {
          "indexed": true,
          "name": "_approved",
          "type": "address"
        },
        {
          "indexed": false,
          "name": "_tokenId",
          "type": "uint256"
        }
      ],
      "name": "Approval",
      "type": "event"
    }
  ],
  "bytecode": "0x6060604052736330a553fc93768f612722bb8c2ec78ac90b3bbc600760006101000a81548173ffffffffffffffffffffffffffffffffffffffff021916908373ffffffffffffffffffffffffffffffffffffffff160217905550730f4f2ac550a1b4e2280d04c21cea7ebd822934b5600860006101000a81548173ffffffffffffffffffffffffffffffffffffffff021916908373ffffffffffffffffffffffffffffffffffffffff160217905550735aeda56215b167893e80b4fe645ba6d5bab767de600a60006101000a81548173ffffffffffffffffffffffffffffffffffffffff021916908373ffffffffffffffffffffffffffffffffffffffff160217905550620f4240600c556000600d55341561011a57600080fd5b60405160208061263583398101604052808051906020019091905050506124ef806101466000396000f3006060604052600436106100fc576000357c0100000000000000000000000000000000000000000000000000000000900463ffffffff168063095ea7b31461010157806314b0452b1461014357806318160ddd146101665780631bf92a7b1461018f5780632a6dd48f1461022b57806334e731221461028e5780635a3f2672146102ce5780635c36b1861461035c5780636352211e146103ea57806370a082311461044d578063741d215b1461049a578063a9059cbb146104bd578063b1ee0e07146104ff578063b2e6ceeb146106f8578063b4a53b7a1461071b578063c931313c14610797578063e2fc4007146107af578063f3b53143146107d8575b600080fd5b341561010c57600080fd5b610141600480803573ffffffffffffffffffffffffffffffffffffffff169060200190919080359060200190919050506108df565b005b341561014e57600080fd5b6101646004808035906020019091905050610a72565b005b341561017157600080fd5b610179610ae8565b6040518082815260200191505060405180910390f35b341561019a57600080fd5b6101b06004808035906020019091905050610af1565b6040518080602001828103825283818151815260200191508051906020019080838360005b838110156101f05780820151818401526020810190506101d5565b50505050905090810190601f16801561021d5780820380516001836020036101000a031916815260200191505b509250505060405180910390f35b341561023657600080fd5b61024c6004808035906020019091905050610bad565b604051808273ffffffffffffffffffffffffffffffffffffffff1673ffffffffffffffffffffffffffffffffffffffff16815260200191505060405180910390f35b341561029957600080fd5b6102b86004808035906020019091908035906020019091905050610bea565b6040518082815260200191505060405180910390f35b34156102d957600080fd5b610305600480803573ffffffffffffffffffffffffffffffffffffffff16906020019091905050610c93565b6040518080602001828103825283818151815260200191508051906020019060200280838360005b8381101561034857808201518184015260208101905061032d565b505050509050019250505060405180910390f35b341561036757600080fd5b61036f610d30565b6040518080602001828103825283818151815260200191508051906020019080838360005b838110156103af578082015181840152602081019050610394565b50505050905090810190601f1680156103dc5780820380516001836020036101000a031916815260200191505b509250505060405180910390f35b34156103f557600080fd5b61040b6004808035906020019091905050610d73565b604051808273ffffffffffffffffffffffffffffffffffffffff1673ffffffffffffffffffffffffffffffffffffffff16815260200191505060405180910390f35b341561045857600080fd5b610484600480803573ffffffffffffffffffffffffffffffffffffffff16906020019091905050610df1565b6040518082815260200191505060405180910390f35b34156104a557600080fd5b6104bb6004808035906020019091905050610e3d565b005b34156104c857600080fd5b6104fd600480803573ffffffffffffffffffffffffffffffffffffffff16906020019091908035906020019091905050610f74565b005b341561050a57600080fd5b6105206004808035906020019091905050610fc7565b604051808a81526020018981526020018060200180602001806020018881526020018781526020018681526020018515151515815260200184810384528b8181546001816001161561010002031660029004815260200191508054600181600116156101000203166002900480156105d95780601f106105ae576101008083540402835291602001916105d9565b820191906000526020600020905b8154815290600101906020018083116105bc57829003601f168201915b505084810383528a81815460018160011615610100020316600290048152602001915080546001816001161561010002031660029004801561065c5780601f106106315761010080835404028352916020019161065c565b820191906000526020600020905b81548152906001019060200180831161063f57829003601f168201915b50508481038252898181546001816001161561010002031660029004815260200191508054600181600116156101000203166002900480156106df5780601f106106b4576101008083540402835291602001916106df565b820191906000526020600020905b8154815290600101906020018083116106c257829003601f168201915b50509c5050505050505050505050505060405180910390f35b341561070357600080fd5b610719600480803590602001909190505061101f565b005b341561072657600080fd5b610795600480803590602001908201803590602001908080601f0160208091040260200160405190810160405280939291908181526020018383808284378201915050505050509190803573ffffffffffffffffffffffffffffffffffffffff1690602001909190505061104a565b005b6107ad6004808035906020019091905050611204565b005b34156107ba57600080fd5b6107c261177e565b6040518082815260200191505060405180910390f35b6108dd600480803590602001909190803590602001909190803590602001908201803590602001908080601f0160208091040260200160405190810160405280939291908181526020018383808284378201915050505050509190803590602001908201803590602001908080601f0160208091040260200160405190810160405280939291908181526020018383808284378201915050505050509190803590602001908201803590602001908080601f016020809104026020016040519081016040528093929190818152602001838380828437820191505050505050919080359060200190919080359060200190919080351515906020019091905050611784565b005b6000813373ffffffffffffffffffffffffffffffffffffffff1661090282610d73565b73ffffffffffffffffffffffffffffffffffffffff1614151561092457600080fd5b61092d83610d73565b91508173ffffffffffffffffffffffffffffffffffffffff168473ffffffffffffffffffffffffffffffffffffffff161415151561096a57600080fd5b600061097584610bad565b73ffffffffffffffffffffffffffffffffffffffff161415806109af575060008473ffffffffffffffffffffffffffffffffffffffff1614155b15610a6c57836002600085815260200190815260200160002060006101000a81548173ffffffffffffffffffffffffffffffffffffffff021916908373ffffffffffffffffffffffffffffffffffffffff1602179055508373ffffffffffffffffffffffffffffffffffffffff168273ffffffffffffffffffffffffffffffffffffffff167f8c5be1e5ebec7d5bd14f71427d1e84f3dd0314c0f7b2291e5b200ac8c7c3b925856040518082815260200191505060405180910390a35b50505050565b600860009054906101000a900473ffffffffffffffffffffffffffffffffffffffff1673ffffffffffffffffffffffffffffffffffffffff163373ffffffffffffffffffffffffffffffffffffffff16141515610ace57600080fd5b80600011151515610ade57600080fd5b80600c8190555050565b60008054905090565b600b81815481101515610b0057fe5b90600052602060002090016000915090508054600181600116156101000203166002900480601f016020809104026020016040519081016040528092919081815260200182805460018160011615610100020316600290048015610ba55780601f10610b7a57610100808354040283529160200191610ba5565b820191906000526020600020905b815481529060010190602001808311610b8857829003601f168201915b505050505081565b60006002600083815260200190815260200160002060009054906101000a900473ffffffffffffffffffffffffffffffffffffffff169050919050565b600080610c00838561185090919063ffffffff16565b905082841115610c3b57610c34620f4240610c26600c548461186e90919063ffffffff16565b6118a990919063ffffffff16565b9150610c8c565b82841415610c4c5760009150610c8c565b610c896002610c7b620f4240610c6d600c548661186e90919063ffffffff16565b6118a990919063ffffffff16565b6118a990919063ffffffff16565b91505b5092915050565b610c9b612317565b600360008373ffffffffffffffffffffffffffffffffffffffff1673ffffffffffffffffffffffffffffffffffffffff168152602001908152602001600020805480602002602001604051908101604052809291908181526020018280548015610d2457602002820191906000526020600020905b815481526020019060010190808311610d10575b50505050509050919050565b610d3861232b565b6040805190810160405280600481526020017f706f6e6700000000000000000000000000000000000000000000000000000000815250905090565b6000806001600084815260200190815260200160002060009054906101000a900473ffffffffffffffffffffffffffffffffffffffff169050600073ffffffffffffffffffffffffffffffffffffffff168173ffffffffffffffffffffffffffffffffffffffff1614151515610de857600080fd5b80915050919050565b6000600360008373ffffffffffffffffffffffffffffffffffffffff1673ffffffffffffffffffffffffffffffffffffffff168152602001908152602001600020805490509050919050565b600080823373ffffffffffffffffffffffffffffffffffffffff16610e6182610d73565b73ffffffffffffffffffffffffffffffffffffffff16141515610e8357600080fd5b6005600085815260200190815260200160002092508260000154915060008360050154141515610eb257600080fd5b610ebb846118c4565b3373ffffffffffffffffffffffffffffffffffffffff166108fc839081150290604051600060405180830381858888f193505050501515610efb57600080fd5b7f79af0603d6af952354516f9583d1640b4e036431911d556b8fd682f83ff43aaf848333604051808481526020018381526020018273ffffffffffffffffffffffffffffffffffffffff1673ffffffffffffffffffffffffffffffffffffffff168152602001935050505060405180910390a150505050565b803373ffffffffffffffffffffffffffffffffffffffff16610f9582610d73565b73ffffffffffffffffffffffffffffffffffffffff16141515610fb757600080fd5b610fc2338484611b2a565b505050565b60056020528060005260406000206000915090508060000154908060010154908060020190806003019080600401908060050154908060060154908060070154908060080160009054906101000a900460ff16905089565b6110293382611c73565b151561103457600080fd5b61104761104082610d73565b3383611b2a565b50565b600760009054906101000a900473ffffffffffffffffffffffffffffffffffffffff1673ffffffffffffffffffffffffffffffffffffffff163373ffffffffffffffffffffffffffffffffffffffff161415156110a657600080fd5b60006006836040518082805190602001908083835b6020831015156110e057805182526020820191506020810190506020830392506110bb565b6001836020036101000a038019825116818451168082178552505050505050905001915050908152602001604051809103902060009054906101000a900473ffffffffffffffffffffffffffffffffffffffff1673ffffffffffffffffffffffffffffffffffffffff1614151561115657600080fd5b806006836040518082805190602001908083835b60208310151561118f578051825260208201915060208101905060208303925061116a565b6001836020036101000a038019825116818451168082178552505050505050905001915050908152602001604051809103902060006101000a81548173ffffffffffffffffffffffffffffffffffffffff021916908373ffffffffffffffffffffffffffffffffffffffff1602179055505050565b60008060008073ffffffffffffffffffffffffffffffffffffffff1661122985610d73565b73ffffffffffffffffffffffffffffffffffffffff161415151561124c57600080fd5b6005600085815260200190815260200160002092506000836005015414151561127457600080fd5b8260080160009054906101000a900460ff161561129e5782600601544210151561129d57600080fd5b5b8260010154341415156112b057600080fd5b6112c283600001548460010154610bea565b9150600960009054906101000a900473ffffffffffffffffffffffffffffffffffffffff1673ffffffffffffffffffffffffffffffffffffffff166323b872dd33600a60009054906101000a900473ffffffffffffffffffffffffffffffffffffffff16856000604051602001526040518463ffffffff167c0100000000000000000000000000000000000000000000000000000000028152600401808473ffffffffffffffffffffffffffffffffffffffff1673ffffffffffffffffffffffffffffffffffffffff1681526020018373ffffffffffffffffffffffffffffffffffffffff1673ffffffffffffffffffffffffffffffffffffffff1681526020018281526020019350505050602060405180830381600087803b15156113e757600080fd5b6102c65a03f115156113f857600080fd5b50505060405180519050151561140d57600080fd5b6114236001600d5461185090919063ffffffff16565b9050610120604051908101604052808460000154815260200184600101548152602001846002018054600181600116156101000203166002900480601f0160208091040260200160405190810160405280929190818152602001828054600181600116156101000203166002900480156114de5780601f106114b3576101008083540402835291602001916114de565b820191906000526020600020905b8154815290600101906020018083116114c157829003601f168201915b50505050508152602001846003018054600181600116156101000203166002900480601f0160208091040260200160405190810160405280929190818152602001828054600181600116156101000203166002900480156115805780601f1061155557610100808354040283529160200191611580565b820191906000526020600020905b81548152906001019060200180831161156357829003601f168201915b50505050508152602001846004018054600181600116156101000203166002900480601f0160208091040260200160405190810160405280929190818152602001828054600181600116156101000203166002900480156116225780601f106115f757610100808354040283529160200191611622565b820191906000526020600020905b81548152906001019060200180831161160557829003601f168201915b50505050508152602001858152602001846006015481526020018460070154815260200160001515815250600560008381526020019081526020016000206000820151816000015560208201518160010155604082015181600201908051906020019061169092919061233f565b5060608201518160030190805190602001906116ad92919061233f565b5060808201518160040190805190602001906116ca92919061233f565b5060a0820151816005015560c0820151816006015560e082015181600701556101008201518160080160006101000a81548160ff0219169083151502179055509050506117173382611cb4565b80600d819055508060056000868152602001908152602001600020600501819055507ff956a500d6c2e87a488e6827b381acae13cbf34caafe6373127af401151c7f278482604051808381526020018281526020019250505060405180910390a150505050565b600c5481565b7f8a4c06a1868f486487fa426616c336c1a6558251628bdd2a01456b04ad2b284d33600960009054906101000a900473ffffffffffffffffffffffffffffffffffffffff16607b604051808473ffffffffffffffffffffffffffffffffffffffff1673ffffffffffffffffffffffffffffffffffffffff1681526020018373ffffffffffffffffffffffffffffffffffffffff1673ffffffffffffffffffffffffffffffffffffffff168152602001828152602001935050505060405180910390a15050505050505050565b600080828401905083811015151561186457fe5b8091505092915050565b600080600084141561188357600091506118a2565b828402905082848281151561189457fe5b0414151561189e57fe5b8091505b5092915050565b60008082848115156118b757fe5b0490508091505092915050565b803373ffffffffffffffffffffffffffffffffffffffff166118e582610d73565b73ffffffffffffffffffffffffffffffffffffffff1614151561190757600080fd5b60056000808152602001908152602001600020600560006005600086815260200190815260200160002060050154815260200190815260200160002060008201548160000155600182015481600101556002820181600201908054600181600116156101000203166002900461197e9291906123bf565b50600382018160030190805460018160011615610100020316600290046119a69291906123bf565b50600482018160040190805460018160011615610100020316600290046119ce9291906123bf565b506005820154816005015560068201548160060155600782015481600701556008820160009054906101000a900460ff168160080160006101000a81548160ff0219169083151502179055509050506005600080815260200190815260200160002060056000848152602001908152602001600020600082015481600001556001820154816001015560028201816002019080546001816001161561010002031660029004611a7e9291906123bf565b5060038201816003019080546001816001161561010002031660029004611aa69291906123bf565b5060048201816004019080546001816001161561010002031660029004611ace9291906123bf565b506005820154816005015560068201548160060155600782015481600701556008820160009054906101000a900460ff168160080160006101000a81548160ff021916908315150217905550905050611b2682611d4e565b5050565b600073ffffffffffffffffffffffffffffffffffffffff168273ffffffffffffffffffffffffffffffffffffffff1614151515611b6657600080fd5b611b6f81610d73565b73ffffffffffffffffffffffffffffffffffffffff168273ffffffffffffffffffffffffffffffffffffffff1614151515611ba957600080fd5b8273ffffffffffffffffffffffffffffffffffffffff16611bc982610d73565b73ffffffffffffffffffffffffffffffffffffffff16141515611beb57600080fd5b611bf58382611e22565b611bff8382611f0b565b611c098282612193565b8173ffffffffffffffffffffffffffffffffffffffff168373ffffffffffffffffffffffffffffffffffffffff167fddf252ad1be2c89b69c2b068fc378daa952ba7f163c4a11628f55a4df523b3ef836040518082815260200191505060405180910390a3505050565b60008273ffffffffffffffffffffffffffffffffffffffff16611c9583610bad565b73ffffffffffffffffffffffffffffffffffffffff1614905092915050565b600073ffffffffffffffffffffffffffffffffffffffff168273ffffffffffffffffffffffffffffffffffffffff1614151515611cf057600080fd5b611cfa8282612193565b8173ffffffffffffffffffffffffffffffffffffffff1660007fddf252ad1be2c89b69c2b068fc378daa952ba7f163c4a11628f55a4df523b3ef836040518082815260200191505060405180910390a35050565b803373ffffffffffffffffffffffffffffffffffffffff16611d6f82610d73565b73ffffffffffffffffffffffffffffffffffffffff16141515611d9157600080fd5b6000611d9c83610bad565b73ffffffffffffffffffffffffffffffffffffffff16141515611dc457611dc33383611e22565b5b611dce3383611f0b565b60003373ffffffffffffffffffffffffffffffffffffffff167fddf252ad1be2c89b69c2b068fc378daa952ba7f163c4a11628f55a4df523b3ef846040518082815260200191505060405180910390a35050565b8173ffffffffffffffffffffffffffffffffffffffff16611e4282610d73565b73ffffffffffffffffffffffffffffffffffffffff16141515611e6457600080fd5b60006002600083815260200190815260200160002060006101000a81548173ffffffffffffffffffffffffffffffffffffffff021916908373ffffffffffffffffffffffffffffffffffffffff16021790555060008273ffffffffffffffffffffffffffffffffffffffff167f8c5be1e5ebec7d5bd14f71427d1e84f3dd0314c0f7b2291e5b200ac8c7c3b925836040518082815260200191505060405180910390a35050565b60008060008473ffffffffffffffffffffffffffffffffffffffff16611f3085610d73565b73ffffffffffffffffffffffffffffffffffffffff16141515611f5257600080fd5b60046000858152602001908152602001600020549250611f846001611f7687610df1565b6122fe90919063ffffffff16565b9150600360008673ffffffffffffffffffffffffffffffffffffffff1673ffffffffffffffffffffffffffffffffffffffff16815260200190815260200160002082815481101515611fd257fe5b906000526020600020900154905060006001600086815260200190815260200160002060006101000a81548173ffffffffffffffffffffffffffffffffffffffff021916908373ffffffffffffffffffffffffffffffffffffffff16021790555080600360008773ffffffffffffffffffffffffffffffffffffffff1673ffffffffffffffffffffffffffffffffffffffff1681526020019081526020016000208481548110151561208057fe5b9060005260206000209001819055506000600360008773ffffffffffffffffffffffffffffffffffffffff1673ffffffffffffffffffffffffffffffffffffffff168152602001908152602001600020838154811015156120dd57fe5b906000526020600020900181905550600360008673ffffffffffffffffffffffffffffffffffffffff1673ffffffffffffffffffffffffffffffffffffffff16815260200190815260200160002080548091906001900361213e9190612446565b506000600460008681526020019081526020016000208190555082600460008381526020019081526020016000208190555061218660016000546122fe90919063ffffffff16565b6000819055505050505050565b60008073ffffffffffffffffffffffffffffffffffffffff166001600084815260200190815260200160002060009054906101000a900473ffffffffffffffffffffffffffffffffffffffff1673ffffffffffffffffffffffffffffffffffffffff1614151561220257600080fd5b826001600084815260200190815260200160002060006101000a81548173ffffffffffffffffffffffffffffffffffffffff021916908373ffffffffffffffffffffffffffffffffffffffff16021790555061225d83610df1565b9050600360008473ffffffffffffffffffffffffffffffffffffffff1673ffffffffffffffffffffffffffffffffffffffff16815260200190815260200160002080548060010182816122b09190612472565b9160005260206000209001600084909190915055508060046000848152602001908152602001600020819055506122f3600160005461185090919063ffffffff16565b600081905550505050565b600082821115151561230c57fe5b818303905092915050565b602060405190810160405280600081525090565b602060405190810160405280600081525090565b828054600181600116156101000203166002900490600052602060002090601f016020900481019282601f1061238057805160ff19168380011785556123ae565b828001600101855582156123ae579182015b828111156123ad578251825591602001919060010190612392565b5b5090506123bb919061249e565b5090565b828054600181600116156101000203166002900490600052602060002090601f016020900481019282601f106123f85780548555612435565b8280016001018555821561243557600052602060002091601f016020900482015b82811115612434578254825591600101919060010190612419565b5b509050612442919061249e565b5090565b81548183558181151161246d5781836000526020600020918201910161246c919061249e565b5b505050565b81548183558181151161249957818360005260206000209182019101612498919061249e565b5b505050565b6124c091905b808211156124bc5760008160009055506001016124a4565b5090565b905600a165627a7a72305820d01645722b0758303eae909d066ccceb40ddc328a31c2e390e8a0e9817e6a1ed0029",
  "source": "pragma solidity ^0.4.18;\n\nimport 'zeppelin-solidity/contracts/token/ERC721/ERC721Token.sol';\nimport 'zeppelin-solidity/contracts/math/SafeMath.sol';\nimport './CropToken.sol';\n\n/**\n * @title Weather Immunity Token for crop and weather protection agreements.\n *\n * @dev If you hold this token you are eligible for a payout based on the outcome of the weather.\n * @dev WITs are a representation of a protection agreement between two parties.\n * @dev Various terms can be set by the \"proposer.\" The proposal is represented as one WIT.\n * @dev The proposal can be accepted. If it is accepted, a new WIT is created according to the terms specified in the first one.\n * @dev WITs can be transferred after they have been created. They are a nonfungible ERC721 tokens.\n */\ncontract WeatherImmunityToken is ERC721Token {\n  using SafeMath for uint;\n\n    // A struct which represents all the values in a WIT.\n    struct WIT {\n      uint weiEscrow;\n      uint weiPartnerEscrow;\n      string index;\n      string threshold;\n      string location;\n      uint partnerID;\n      uint start;\n      uint end;\n      bool makeStale;\n    }\n\n    // WIT IDs => WIT structs\n    mapping (uint => WIT) public WITs;  \n\n    // Name of weather API => address of contract that will hit it.\n    mapping (string => address) private weatherAPIAddresses;\n\n    // Trusted address to add new weatherAPI contracts.\n    address weatherAPIAdder = 0x6330A553Fc93768F612722BB8c2eC78aC90B3bbc;\n\n    // Trusted address to update the system fee rate.\n    address systemFeeSetter = 0x0F4F2Ac550A1b4e2280d04c21cEa7EBD822934b5;\n\n    // Crop Token smart contract (contains address). \n    CropToken cropContract;\n\n    // CROP fees go to this wallet.\n    address systemFeeWallet = 0x5AEDA56215b167893e80B4fE645BA6d5Bab767DE;\n\n    // All the weatherAPI names\n    string[] public weatherAPIs;\n\n    // The CROP system fee in parts per million. (of wei.) 100% for now.\n    uint public systemFeePPM = 1000000;\n\n    // Use a simple counter to create new token IDs.\n    uint private tokenIDCounter = 0;\n\n    // These are to facilitate queries related to getting open proposals.\n    event Redemption(uint  tokenID, uint  amount, address  user);\n    event ProposalAccepted(uint  tokenIDProposer, uint  tokenIDAccepter);\n    event ProposalOffered(uint  tokenID, uint  weiContributing, uint  weiAsking, string index, string threshold, string location, uint start, uint end);\n\n\n    event Debug(address one, address two, uint three);\n\n\n    function WeatherImmunityToken(address cropDeployedAt) public {\n        //cropContract = CropToken(cropDeployedAt);\n    }\n\n\n   /**\n    * @dev Create a WIT without a partner. (A proposal.)\n    * @param weiContributing Amount of wei user proposes to contribute\n    * @param weiAsking Amount of wei user proposes the partner contribute.\n    * @param index The weather API index by which payout will be determined.\n    * @param threshold The threshold by which the payout will be determined.\n    * @param start The start date of the WIT.\n    * @param end The end date of the WIT.\n    * @param makeStale If set to true, the WIT will be taken off the open market after its start date passes. That is, no one will be able to accept it.\n    */\n\n    //, uint weiAsking, string index, string threshold, string location, uint start, uint end, bool makeStale\n    function createWITProposal(uint weiContributing, uint weiAsking, string index, string threshold, string location, uint start, uint end, bool makeStale) public payable {\n\n      Debug(msg.sender, cropContract, 123);\n/*\n\n      require(now < start); // Don't let people create WITs that start in the past. Opens the door for abuse.\n      require(start < end);\n\n      // validate index, threshold and location TODO\n  \n      // Validate amount of wei sent.\n      require(msg.value == weiContributing);\n      \n\n\n      // Calculate and take CROP fee.\n      uint fee = calculateFee(weiContributing, weiAsking);\n\n  //    cropContract.transferFrom(msg.sender, systemFeeWallet, fee);\n\n\n      uint ID = tokenIDCounter.add(1);\n      WITs[ID] = WIT(weiContributing, weiAsking, index, threshold, location, 0, start, end, makeStale);\n      _mint(msg.sender, ID);\n      tokenIDCounter = ID;\n\n      ProposalOffered(ID, weiContributing, weiAsking, index, threshold, location, start, end);*/\n    }\n\n\n    /**\n    * @dev Create a WIT and partner it to an existing WIT (accept a proposed protection agreement).\n    * @param proposalID The ID of the WIT to which the new WIT shall be partnered.\n    */\n    function createWITAcceptance(uint proposalID) public payable {\n\n      // Specified partner token must exist\n      require(ownerOf(proposalID) != address(0));\n  \n      // Specified partner must not already have a partner.\n      WIT storage partner = WITs[proposalID];\n      require(partner.partnerID == 0);\n\n      if (partner.makeStale) {\n        require(now < partner.start);\n      }\n\n      // Validate amount of wei sent.\n      require(msg.value == partner.weiPartnerEscrow);\n\n      // Calculate and take CROP fee.\n      uint fee = calculateFee(partner.weiEscrow, partner.weiPartnerEscrow);\n      require(cropContract.transferFrom(msg.sender, systemFeeWallet, fee));\n\n      // Create the token and set the \"proposal\" as \"accepted.\"\n      uint ID = tokenIDCounter.add(1);\n      WITs[ID] = WIT(partner.weiEscrow, partner.weiPartnerEscrow, partner.index, partner.threshold, partner.location, proposalID, partner.start, partner.end, false);\n      _mint(msg.sender, ID);\n      tokenIDCounter = ID;\n      WITs[proposalID].partnerID = ID;\n    \n      ProposalAccepted(proposalID, ID);\n    }\n\n    function ping() public returns (string){\n      return \"pong\";\n    }\n\n\n    /**\n    * @dev Burns a specific token.\n    * @param tokenID uint ID of the token being burned by the msg.sender\n    */\n    function burnWIT(uint tokenID) private onlyOwnerOf (tokenID){\n      WITs[WITs[tokenID].partnerID] = WITs[0]; // fix later TODO\n      WITs[tokenID] = WITs[0];\n      _burn(tokenID);\n    }\n\n\n    /**\n    * @dev Calculates the fee in CROP associated with a WIT. Fees are paid by the seller, and are a percentage of the total escrowed ETH amount.\n    * @param weiContributing One half of the total escrowed ETH in a partnered WIT pair (an agreement).\n    * @param weiAsking The other half of the total escrowed ETH.\n    * @return the fee in CROP\n    */\n    function calculateFee(uint weiContributing, uint weiAsking) public constant returns (uint) {\n      uint totalEscrow = weiContributing.add(weiAsking);\n\n      if (weiContributing > weiAsking) {         // If user is contributing more than asking, they are the seller and they pay the fee.\n        return totalEscrow.mul(systemFeePPM).div(1000000);\n      } else if (weiContributing == weiAsking) {\n        return 0; // Buyer role pays no feel\n      } else {\n        return totalEscrow.mul(systemFeePPM).div(1000000).div(2);  // If this is a 50-50 thing, split the fee.\n      }\n    }\n\n\n    /**\n    * @dev Add a new weather API to the roster.\n    */    \n    function addWeatherAPI(string name, address contractAddress) public {\n      require(msg.sender == weatherAPIAdder);\n      require(weatherAPIAddresses[name] == 0);\n      weatherAPIAddresses[name] = contractAddress;\n    }\n\n\n    /**\n    * @dev Set the system fee to a new value. This doesn't affect existing WITs.\n    */ \n    function setSystemFee(uint fee) public {\n      require(msg.sender == systemFeeSetter);\n      require(0 <= fee);\n      systemFeePPM = fee;\n    }\n\n\n    /**\n    * @dev Cancel an unpartnered WIT that you have created. Redeem the ETH escrowed therein.\n    * @param tokenID The ID of your token that you want to cancel.\n    */ \n    function cancelAndRedeem(uint tokenID) onlyOwnerOf(tokenID) public {\n      WIT storage token = WITs[tokenID];\n      uint redemptionAmount = token.weiEscrow;\n      require(token.partnerID == 0); \n      burnWIT(tokenID);\n      msg.sender.transfer(redemptionAmount);\n      Redemption(tokenID, redemptionAmount, msg.sender);\n      \n    }\n\n\n\n}",
  "sourcePath": "/Users/benandre/cropcrop/contracts/WeatherImmunityToken.sol",
  "compiler": {
    "name": "solc",
    "version": "0.4.18+commit.9cf6e910.Emscripten.clang"
  },
  "schemaVersion": "1.0.1",
  "updatedAt": "2018-02-17T09:42:57.005Z"
}