{
  "contractName": "WeatherImmunityToken",
  "abi": [
    {
      "constant": false,
      "inputs": [
        {
          "name": "_to",
          "type": "address"
        },
        {
          "name": "_tokenId",
          "type": "uint256"
        }
      ],
      "name": "approve",
      "outputs": [],
      "payable": false,
      "stateMutability": "nonpayable",
      "type": "function"
    },
    {
      "constant": false,
      "inputs": [
        {
          "name": "firstPartnerID",
          "type": "uint256"
        },
        {
          "name": "secondPartnerID",
          "type": "uint256"
        }
      ],
      "name": "makePartners",
      "outputs": [],
      "payable": false,
      "stateMutability": "nonpayable",
      "type": "function"
    },
    {
      "constant": true,
      "inputs": [],
      "name": "totalSupply",
      "outputs": [
        {
          "name": "",
          "type": "uint256"
        }
      ],
      "payable": false,
      "stateMutability": "view",
      "type": "function"
    },
    {
      "constant": true,
      "inputs": [
        {
          "name": "_tokenId",
          "type": "uint256"
        }
      ],
      "name": "approvedFor",
      "outputs": [
        {
          "name": "",
          "type": "address"
        }
      ],
      "payable": false,
      "stateMutability": "view",
      "type": "function"
    },
    {
      "constant": true,
      "inputs": [
        {
          "name": "_owner",
          "type": "address"
        }
      ],
      "name": "tokensOf",
      "outputs": [
        {
          "name": "",
          "type": "uint256[]"
        }
      ],
      "payable": false,
      "stateMutability": "view",
      "type": "function"
    },
    {
      "constant": true,
      "inputs": [
        {
          "name": "_tokenId",
          "type": "uint256"
        }
      ],
      "name": "ownerOf",
      "outputs": [
        {
          "name": "",
          "type": "address"
        }
      ],
      "payable": false,
      "stateMutability": "view",
      "type": "function"
    },
    {
      "constant": true,
      "inputs": [
        {
          "name": "_owner",
          "type": "address"
        }
      ],
      "name": "balanceOf",
      "outputs": [
        {
          "name": "",
          "type": "uint256"
        }
      ],
      "payable": false,
      "stateMutability": "view",
      "type": "function"
    },
    {
      "constant": false,
      "inputs": [
        {
          "name": "_to",
          "type": "address"
        },
        {
          "name": "_tokenId",
          "type": "uint256"
        }
      ],
      "name": "transfer",
      "outputs": [],
      "payable": false,
      "stateMutability": "nonpayable",
      "type": "function"
    },
    {
      "constant": false,
      "inputs": [
        {
          "name": "_tokenId",
          "type": "uint256"
        }
      ],
      "name": "takeOwnership",
      "outputs": [],
      "payable": false,
      "stateMutability": "nonpayable",
      "type": "function"
    },
    {
      "constant": true,
      "inputs": [
        {
          "name": "tokenID",
          "type": "uint256"
        }
      ],
      "name": "partnerOf",
      "outputs": [
        {
          "name": "",
          "type": "uint256"
        }
      ],
      "payable": false,
      "stateMutability": "view",
      "type": "function"
    },
    {
      "constant": false,
      "inputs": [
        {
          "name": "partnerID",
          "type": "uint256"
        }
      ],
      "name": "createWIT",
      "outputs": [],
      "payable": false,
      "stateMutability": "nonpayable",
      "type": "function"
    },
    {
      "anonymous": false,
      "inputs": [
        {
          "indexed": false,
          "name": "owner",
          "type": "address"
        },
        {
          "indexed": false,
          "name": "tokenID",
          "type": "uint256"
        }
      ],
      "name": "CreatedWIT",
      "type": "event"
    },
    {
      "anonymous": false,
      "inputs": [
        {
          "indexed": false,
          "name": "tokenIDOne",
          "type": "uint256"
        },
        {
          "indexed": false,
          "name": "tokenIDTwo",
          "type": "uint256"
        }
      ],
      "name": "WITsPartnered",
      "type": "event"
    },
    {
      "anonymous": false,
      "inputs": [
        {
          "indexed": true,
          "name": "_from",
          "type": "address"
        },
        {
          "indexed": true,
          "name": "_to",
          "type": "address"
        },
        {
          "indexed": false,
          "name": "_tokenId",
          "type": "uint256"
        }
      ],
      "name": "Transfer",
      "type": "event"
    },
    {
      "anonymous": false,
      "inputs": [
        {
          "indexed": true,
          "name": "_owner",
          "type": "address"
        },
        {
          "indexed": true,
          "name": "_approved",
          "type": "address"
        },
        {
          "indexed": false,
          "name": "_tokenId",
          "type": "uint256"
        }
      ],
      "name": "Approval",
      "type": "event"
    }
  ],
  "bytecode": "0x6060604052341561000f57600080fd5b6110ac8061001e6000396000f3006060604052600436106100af576000357c0100000000000000000000000000000000000000000000000000000000900463ffffffff168063095ea7b3146100b45780630e44c923146100f657806318160ddd146101225780632a6dd48f1461014b5780635a3f2672146101ae5780636352211e1461023c57806370a082311461029f578063a9059cbb146102ec578063b2e6ceeb1461032e578063b540281e14610351578063d521116f14610388575b600080fd5b34156100bf57600080fd5b6100f4600480803573ffffffffffffffffffffffffffffffffffffffff169060200190919080359060200190919050506103ab565b005b341561010157600080fd5b610120600480803590602001909190803590602001909190505061053e565b005b341561012d57600080fd5b6101356105b1565b6040518082815260200191505060405180910390f35b341561015657600080fd5b61016c60048080359060200190919050506105ba565b604051808273ffffffffffffffffffffffffffffffffffffffff1673ffffffffffffffffffffffffffffffffffffffff16815260200191505060405180910390f35b34156101b957600080fd5b6101e5600480803573ffffffffffffffffffffffffffffffffffffffff169060200190919050506105f7565b6040518080602001828103825283818151815260200191508051906020019060200280838360005b8381101561022857808201518184015260208101905061020d565b505050509050019250505060405180910390f35b341561024757600080fd5b61025d6004808035906020019091905050610694565b604051808273ffffffffffffffffffffffffffffffffffffffff1673ffffffffffffffffffffffffffffffffffffffff16815260200191505060405180910390f35b34156102aa57600080fd5b6102d6600480803573ffffffffffffffffffffffffffffffffffffffff16906020019091905050610712565b6040518082815260200191505060405180910390f35b34156102f757600080fd5b61032c600480803573ffffffffffffffffffffffffffffffffffffffff1690602001909190803590602001909190505061075e565b005b341561033957600080fd5b61034f60048080359060200190919050506107b1565b005b341561035c57600080fd5b61037260048080359060200190919050506107dc565b6040518082815260200191505060405180910390f35b341561039357600080fd5b6103a960048080359060200190919050506107f9565b005b6000813373ffffffffffffffffffffffffffffffffffffffff166103ce82610694565b73ffffffffffffffffffffffffffffffffffffffff161415156103f057600080fd5b6103f983610694565b91508173ffffffffffffffffffffffffffffffffffffffff168473ffffffffffffffffffffffffffffffffffffffff161415151561043657600080fd5b6000610441846105ba565b73ffffffffffffffffffffffffffffffffffffffff1614158061047b575060008473ffffffffffffffffffffffffffffffffffffffff1614155b1561053857836002600085815260200190815260200160002060006101000a81548173ffffffffffffffffffffffffffffffffffffffff021916908373ffffffffffffffffffffffffffffffffffffffff1602179055508373ffffffffffffffffffffffffffffffffffffffff168273ffffffffffffffffffffffffffffffffffffffff167f8c5be1e5ebec7d5bd14f71427d1e84f3dd0314c0f7b2291e5b200ac8c7c3b925856040518082815260200191505060405180910390a35b50505050565b8060056000848152602001908152602001600020819055508160056000838152602001908152602001600020819055507f6f5723f1776cf6d8a431f184cb23796a751175eb8b41ab6332c66ae30cb71b308282604051808381526020018281526020019250505060405180910390a15050565b60008054905090565b60006002600083815260200190815260200160002060009054906101000a900473ffffffffffffffffffffffffffffffffffffffff169050919050565b6105ff610fef565b600360008373ffffffffffffffffffffffffffffffffffffffff1673ffffffffffffffffffffffffffffffffffffffff16815260200190815260200160002080548060200260200160405190810160405280929190818152602001828054801561068857602002820191906000526020600020905b815481526020019060010190808311610674575b50505050509050919050565b6000806001600084815260200190815260200160002060009054906101000a900473ffffffffffffffffffffffffffffffffffffffff169050600073ffffffffffffffffffffffffffffffffffffffff168173ffffffffffffffffffffffffffffffffffffffff161415151561070957600080fd5b80915050919050565b6000600360008373ffffffffffffffffffffffffffffffffffffffff1673ffffffffffffffffffffffffffffffffffffffff168152602001908152602001600020805490509050919050565b803373ffffffffffffffffffffffffffffffffffffffff1661077f82610694565b73ffffffffffffffffffffffffffffffffffffffff161415156107a157600080fd5b6107ac3384846108b8565b505050565b6107bb3382610a01565b15156107c657600080fd5b6107d96107d282610694565b33836108b8565b50565b600060056000838152602001908152602001600020549050919050565b600060016108056105b1565b0190506000600560008481526020019081526020016000205414151561082a57600080fd5b6108343382610a42565b7fa6925e9bb9498cc0e87d1989da4bda9c881d5db67241c30ec6a9e0fb27c760fe3382604051808373ffffffffffffffffffffffffffffffffffffffff1673ffffffffffffffffffffffffffffffffffffffff1681526020018281526020019250505060405180910390a16000821415156108b4576108b3828261053e565b5b5050565b600073ffffffffffffffffffffffffffffffffffffffff168273ffffffffffffffffffffffffffffffffffffffff16141515156108f457600080fd5b6108fd81610694565b73ffffffffffffffffffffffffffffffffffffffff168273ffffffffffffffffffffffffffffffffffffffff161415151561093757600080fd5b8273ffffffffffffffffffffffffffffffffffffffff1661095782610694565b73ffffffffffffffffffffffffffffffffffffffff1614151561097957600080fd5b6109838382610adc565b61098d8382610bc5565b6109978282610e4d565b8173ffffffffffffffffffffffffffffffffffffffff168373ffffffffffffffffffffffffffffffffffffffff167fddf252ad1be2c89b69c2b068fc378daa952ba7f163c4a11628f55a4df523b3ef836040518082815260200191505060405180910390a3505050565b60008273ffffffffffffffffffffffffffffffffffffffff16610a23836105ba565b73ffffffffffffffffffffffffffffffffffffffff1614905092915050565b600073ffffffffffffffffffffffffffffffffffffffff168273ffffffffffffffffffffffffffffffffffffffff1614151515610a7e57600080fd5b610a888282610e4d565b8173ffffffffffffffffffffffffffffffffffffffff1660007fddf252ad1be2c89b69c2b068fc378daa952ba7f163c4a11628f55a4df523b3ef836040518082815260200191505060405180910390a35050565b8173ffffffffffffffffffffffffffffffffffffffff16610afc82610694565b73ffffffffffffffffffffffffffffffffffffffff16141515610b1e57600080fd5b60006002600083815260200190815260200160002060006101000a81548173ffffffffffffffffffffffffffffffffffffffff021916908373ffffffffffffffffffffffffffffffffffffffff16021790555060008273ffffffffffffffffffffffffffffffffffffffff167f8c5be1e5ebec7d5bd14f71427d1e84f3dd0314c0f7b2291e5b200ac8c7c3b925836040518082815260200191505060405180910390a35050565b60008060008473ffffffffffffffffffffffffffffffffffffffff16610bea85610694565b73ffffffffffffffffffffffffffffffffffffffff16141515610c0c57600080fd5b60046000858152602001908152602001600020549250610c3e6001610c3087610712565b610fb890919063ffffffff16565b9150600360008673ffffffffffffffffffffffffffffffffffffffff1673ffffffffffffffffffffffffffffffffffffffff16815260200190815260200160002082815481101515610c8c57fe5b906000526020600020900154905060006001600086815260200190815260200160002060006101000a81548173ffffffffffffffffffffffffffffffffffffffff021916908373ffffffffffffffffffffffffffffffffffffffff16021790555080600360008773ffffffffffffffffffffffffffffffffffffffff1673ffffffffffffffffffffffffffffffffffffffff16815260200190815260200160002084815481101515610d3a57fe5b9060005260206000209001819055506000600360008773ffffffffffffffffffffffffffffffffffffffff1673ffffffffffffffffffffffffffffffffffffffff16815260200190815260200160002083815481101515610d9757fe5b906000526020600020900181905550600360008673ffffffffffffffffffffffffffffffffffffffff1673ffffffffffffffffffffffffffffffffffffffff168152602001908152602001600020805480919060019003610df89190611003565b5060006004600086815260200190815260200160002081905550826004600083815260200190815260200160002081905550610e406001600054610fb890919063ffffffff16565b6000819055505050505050565b60008073ffffffffffffffffffffffffffffffffffffffff166001600084815260200190815260200160002060009054906101000a900473ffffffffffffffffffffffffffffffffffffffff1673ffffffffffffffffffffffffffffffffffffffff16141515610ebc57600080fd5b826001600084815260200190815260200160002060006101000a81548173ffffffffffffffffffffffffffffffffffffffff021916908373ffffffffffffffffffffffffffffffffffffffff160217905550610f1783610712565b9050600360008473ffffffffffffffffffffffffffffffffffffffff1673ffffffffffffffffffffffffffffffffffffffff1681526020019081526020016000208054806001018281610f6a919061102f565b916000526020600020900160008490919091505550806004600084815260200190815260200160002081905550610fad6001600054610fd190919063ffffffff16565b600081905550505050565b6000828211151515610fc657fe5b818303905092915050565b6000808284019050838110151515610fe557fe5b8091505092915050565b602060405190810160405280600081525090565b81548183558181151161102a57818360005260206000209182019101611029919061105b565b5b505050565b81548183558181151161105657818360005260206000209182019101611055919061105b565b5b505050565b61107d91905b80821115611079576000816000905550600101611061565b5090565b905600a165627a7a723058207770761742ab769a0f18dfe8801b1db32c52d3290a55af6ec911f598021527ee0029",
  "source": "pragma solidity ^0.4.18;\n\nimport 'zeppelin-solidity/contracts/token/ERC721/ERC721Token.sol';\nimport 'zeppelin-solidity/contracts/math/SafeMath.sol';\n//import './CropToken.sol' as CropToken;\n\n/**\n * @title Weather Immunity Token for crop and weather protection\n *\n * @dev If you hold this token you are eligible for a payout based on the outcome of the weather.\n * @dev Various terms can be set.\n */\ncontract WeatherImmunityToken is ERC721Token {\n\n    \n  // Mapping from token ID to partner token ID\n  mapping (uint256 => uint256) private tokenPartners;\n\n  event CreatedWIT(address owner, uint256 tokenID);\n  event WITsPartnered(uint256 tokenIDOne, uint256 tokenIDTwo);\n\n    function createWIT(uint256 partnerID) public {\n\n      uint256 newID = totalSupply() + 1; // index 0 never gets used.\n      // TODO check for overflow condition of ^\n\n      // If a partnerID is specified, that token must be unparterned. \n      // Or 0 can be specified, meaning we are creating an unpartnered token.\n      require(tokenPartners[partnerID] == 0); \n\n      //other validation happens here\n\n      _mint(msg.sender, newID);\n      CreatedWIT(msg.sender, newID);\n\n      if(partnerID != 0){\n        makePartners(partnerID, newID);\n      }\n\n    }\n\n    function makePartners(uint256 firstPartnerID, uint256 secondPartnerID) public {\n      tokenPartners[firstPartnerID] = secondPartnerID;\n      tokenPartners[secondPartnerID] = firstPartnerID;\n      WITsPartnered(firstPartnerID, secondPartnerID);\n    }\n\n    function partnerOf(uint256 tokenID) public view returns (uint256) {\n      return tokenPartners[tokenID]; \n    }\n\n}",
  "sourcePath": "/Users/benandre/cropcrop/contracts/WeatherImmunityToken.sol",
  "compiler": {
    "name": "solc",
    "version": "0.4.18+commit.9cf6e910.Emscripten.clang"
  },
  "schemaVersion": "1.0.1",
  "updatedAt": "2018-02-11T10:45:35.809Z"
}