{
  "contractName": "WeatherImmunityToken",
  "abi": [
    {
      "constant": false,
      "inputs": [
        {
          "name": "_to",
          "type": "address"
        },
        {
          "name": "_tokenId",
          "type": "uint256"
        }
      ],
      "name": "approve",
      "outputs": [],
      "payable": false,
      "stateMutability": "nonpayable",
      "type": "function"
    },
    {
      "constant": false,
      "inputs": [
        {
          "name": "fee",
          "type": "uint256"
        }
      ],
      "name": "setSystemFee",
      "outputs": [],
      "payable": false,
      "stateMutability": "nonpayable",
      "type": "function"
    },
    {
      "constant": false,
      "inputs": [],
      "name": "totalSupply",
      "outputs": [
        {
          "name": "",
          "type": "uint256"
        }
      ],
      "payable": false,
      "stateMutability": "nonpayable",
      "type": "function"
    },
    {
      "constant": false,
      "inputs": [
        {
          "name": "newOwner",
          "type": "address"
        }
      ],
      "name": "transferOwnershipOfDependants",
      "outputs": [],
      "payable": false,
      "stateMutability": "nonpayable",
      "type": "function"
    },
    {
      "constant": false,
      "inputs": [
        {
          "name": "dependant",
          "type": "address"
        }
      ],
      "name": "addDependant",
      "outputs": [],
      "payable": false,
      "stateMutability": "nonpayable",
      "type": "function"
    },
    {
      "constant": true,
      "inputs": [
        {
          "name": "tokenID",
          "type": "uint256"
        }
      ],
      "name": "ownerOf",
      "outputs": [
        {
          "name": "",
          "type": "address"
        }
      ],
      "payable": false,
      "stateMutability": "view",
      "type": "function"
    },
    {
      "constant": true,
      "inputs": [
        {
          "name": "owner",
          "type": "address"
        }
      ],
      "name": "balanceOf",
      "outputs": [
        {
          "name": "",
          "type": "uint256"
        }
      ],
      "payable": false,
      "stateMutability": "view",
      "type": "function"
    },
    {
      "constant": false,
      "inputs": [
        {
          "name": "tokenID",
          "type": "uint256"
        }
      ],
      "name": "cancelAndRedeem",
      "outputs": [],
      "payable": false,
      "stateMutability": "nonpayable",
      "type": "function"
    },
    {
      "constant": false,
      "inputs": [],
      "name": "revert",
      "outputs": [],
      "payable": false,
      "stateMutability": "nonpayable",
      "type": "function"
    },
    {
      "constant": true,
      "inputs": [],
      "name": "owner",
      "outputs": [
        {
          "name": "",
          "type": "address"
        }
      ],
      "payable": false,
      "stateMutability": "view",
      "type": "function"
    },
    {
      "constant": false,
      "inputs": [
        {
          "name": "_to",
          "type": "address"
        },
        {
          "name": "_tokenId",
          "type": "uint256"
        }
      ],
      "name": "transfer",
      "outputs": [],
      "payable": false,
      "stateMutability": "nonpayable",
      "type": "function"
    },
    {
      "constant": false,
      "inputs": [
        {
          "name": "_tokenId",
          "type": "uint256"
        }
      ],
      "name": "takeOwnership",
      "outputs": [],
      "payable": false,
      "stateMutability": "nonpayable",
      "type": "function"
    },
    {
      "constant": false,
      "inputs": [
        {
          "name": "_arbolAddress",
          "type": "address"
        },
        {
          "name": "storageAddress",
          "type": "address"
        },
        {
          "name": "NOAAPrecipAggregate",
          "type": "address"
        }
      ],
      "name": "initialize",
      "outputs": [],
      "payable": false,
      "stateMutability": "nonpayable",
      "type": "function"
    },
    {
      "constant": false,
      "inputs": [
        {
          "name": "proposalID",
          "type": "uint256"
        }
      ],
      "name": "createWITAcceptance",
      "outputs": [],
      "payable": true,
      "stateMutability": "payable",
      "type": "function"
    },
    {
      "constant": false,
      "inputs": [
        {
          "name": "WITID",
          "type": "uint256"
        },
        {
          "name": "outcome",
          "type": "string"
        }
      ],
      "name": "evaluatorCallback",
      "outputs": [],
      "payable": false,
      "stateMutability": "nonpayable",
      "type": "function"
    },
    {
      "constant": false,
      "inputs": [
        {
          "name": "tokenID",
          "type": "uint256"
        },
        {
          "name": "runtimeParams",
          "type": "string"
        }
      ],
      "name": "evaluate",
      "outputs": [],
      "payable": false,
      "stateMutability": "nonpayable",
      "type": "function"
    },
    {
      "constant": true,
      "inputs": [],
      "name": "systemFeePPM",
      "outputs": [
        {
          "name": "",
          "type": "uint256"
        }
      ],
      "payable": false,
      "stateMutability": "view",
      "type": "function"
    },
    {
      "constant": false,
      "inputs": [
        {
          "name": "weiContributing",
          "type": "uint256"
        },
        {
          "name": "weiAsking",
          "type": "uint256"
        },
        {
          "name": "aboveOrBelow",
          "type": "bool"
        },
        {
          "name": "evaluator",
          "type": "address"
        },
        {
          "name": "thresholdPPTTH",
          "type": "uint256"
        },
        {
          "name": "location",
          "type": "bytes32"
        },
        {
          "name": "start",
          "type": "uint256"
        },
        {
          "name": "end",
          "type": "uint256"
        },
        {
          "name": "makeStale",
          "type": "bool"
        }
      ],
      "name": "createWITProposal",
      "outputs": [],
      "payable": true,
      "stateMutability": "payable",
      "type": "function"
    },
    {
      "constant": false,
      "inputs": [
        {
          "name": "newOwner",
          "type": "address"
        }
      ],
      "name": "transferOwnership",
      "outputs": [],
      "payable": false,
      "stateMutability": "nonpayable",
      "type": "function"
    },
    {
      "anonymous": false,
      "inputs": [
        {
          "indexed": true,
          "name": "WITID",
          "type": "uint256"
        },
        {
          "indexed": false,
          "name": "amount",
          "type": "uint256"
        },
        {
          "indexed": true,
          "name": "user",
          "type": "address"
        }
      ],
      "name": "Redemption",
      "type": "event"
    },
    {
      "anonymous": false,
      "inputs": [
        {
          "indexed": true,
          "name": "WITID",
          "type": "uint256"
        },
        {
          "indexed": true,
          "name": "aboveID",
          "type": "uint256"
        },
        {
          "indexed": true,
          "name": "belowID",
          "type": "uint256"
        }
      ],
      "name": "ProposalAccepted",
      "type": "event"
    },
    {
      "anonymous": false,
      "inputs": [
        {
          "indexed": true,
          "name": "WITID",
          "type": "uint256"
        },
        {
          "indexed": false,
          "name": "aboveID",
          "type": "uint256"
        },
        {
          "indexed": false,
          "name": "belowID",
          "type": "uint256"
        },
        {
          "indexed": true,
          "name": "weiContributing",
          "type": "uint256"
        },
        {
          "indexed": true,
          "name": "weiAsking",
          "type": "uint256"
        },
        {
          "indexed": false,
          "name": "evaluator",
          "type": "address"
        },
        {
          "indexed": false,
          "name": "thresholdPPTTH",
          "type": "uint256"
        },
        {
          "indexed": false,
          "name": "location",
          "type": "bytes32"
        },
        {
          "indexed": false,
          "name": "start",
          "type": "uint256"
        },
        {
          "indexed": false,
          "name": "end",
          "type": "uint256"
        },
        {
          "indexed": false,
          "name": "makeStale",
          "type": "bool"
        }
      ],
      "name": "ProposalOffered",
      "type": "event"
    },
    {
      "anonymous": false,
      "inputs": [
        {
          "indexed": false,
          "name": "WITID",
          "type": "uint256"
        },
        {
          "indexed": false,
          "name": "evaluationResult",
          "type": "string"
        },
        {
          "indexed": false,
          "name": "weiPayout",
          "type": "uint256"
        }
      ],
      "name": "WITEvaluated",
      "type": "event"
    },
    {
      "anonymous": false,
      "inputs": [
        {
          "indexed": false,
          "name": "",
          "type": "string"
        }
      ],
      "name": "GotAReallyWeirdOutcome",
      "type": "event"
    },
    {
      "anonymous": false,
      "inputs": [
        {
          "indexed": true,
          "name": "previousOwner",
          "type": "address"
        },
        {
          "indexed": true,
          "name": "newOwner",
          "type": "address"
        }
      ],
      "name": "OwnershipTransferred",
      "type": "event"
    },
    {
      "anonymous": false,
      "inputs": [
        {
          "indexed": true,
          "name": "_from",
          "type": "address"
        },
        {
          "indexed": true,
          "name": "_to",
          "type": "address"
        },
        {
          "indexed": false,
          "name": "_tokenId",
          "type": "uint256"
        }
      ],
      "name": "Transfer",
      "type": "event"
    },
    {
      "anonymous": false,
      "inputs": [
        {
          "indexed": true,
          "name": "_owner",
          "type": "address"
        },
        {
          "indexed": true,
          "name": "_approved",
          "type": "address"
        },
        {
          "indexed": false,
          "name": "_tokenId",
          "type": "uint256"
        }
      ],
      "name": "Approval",
      "type": "event"
    }
  ],
  "bytecode": "0x6060604052735aeda56215b167893e80b4fe645ba6d5bab767de600360006101000a81548173ffffffffffffffffffffffffffffffffffffffff021916908373ffffffffffffffffffffffffffffffffffffffff16021790555033600160006101000a81548173ffffffffffffffffffffffffffffffffffffffff021916908373ffffffffffffffffffffffffffffffffffffffff160217905550615154806100a96000396000f300606060405260043610610107576000357c0100000000000000000000000000000000000000000000000000000000900463ffffffff168063095ea7b31461010c57806314b0452b1461014e57806318160ddd14610171578063291cfe361461019a5780633aee69a7146101d35780636352211e1461020c57806370a082311461026f578063741d215b146102bc5780637da3c3ab146102df5780638da5cb5b146102f4578063a9059cbb14610349578063b2e6ceeb1461038b578063c0c53b8b146103ae578063c931313c14610425578063dbef1a291461043d578063dd81afdd146104a3578063e2fc400714610509578063eaa4d2d314610532578063f2fde38b146105b0575b600080fd5b341561011757600080fd5b61014c600480803573ffffffffffffffffffffffffffffffffffffffff169060200190919080359060200190919050506105e9565b005b341561015957600080fd5b61016f6004808035906020019091905050610734565b005b341561017c57600080fd5b6101846107aa565b6040518082815260200191505060405180910390f35b34156101a557600080fd5b6101d1600480803573ffffffffffffffffffffffffffffffffffffffff169060200190919050506108a1565b005b34156101de57600080fd5b61020a600480803573ffffffffffffffffffffffffffffffffffffffff16906020019091905050610bb7565b005b341561021757600080fd5b61022d6004808035906020019091905050610f35565b604051808273ffffffffffffffffffffffffffffffffffffffff1673ffffffffffffffffffffffffffffffffffffffff16815260200191505060405180910390f35b341561027a57600080fd5b6102a6600480803573ffffffffffffffffffffffffffffffffffffffff1690602001909190505061103b565b6040518082815260200191505060405180910390f35b34156102c757600080fd5b6102dd6004808035906020019091905050611177565b005b34156102ea57600080fd5b6102f26112fb565b005b34156102ff57600080fd5b610307611305565b604051808273ffffffffffffffffffffffffffffffffffffffff1673ffffffffffffffffffffffffffffffffffffffff16815260200191505060405180910390f35b341561035457600080fd5b610389600480803573ffffffffffffffffffffffffffffffffffffffff1690602001909190803590602001909190505061132b565b005b341561039657600080fd5b6103ac600480803590602001909190505061137e565b005b34156103b957600080fd5b610423600480803573ffffffffffffffffffffffffffffffffffffffff1690602001909190803573ffffffffffffffffffffffffffffffffffffffff1690602001909190803573ffffffffffffffffffffffffffffffffffffffff169060200190919050506113a9565b005b61043b60048080359060200190919050506119c0565b005b341561044857600080fd5b6104a1600480803590602001909190803590602001908201803590602001908080601f01602080910402602001604051908101604052809392919081815260200183838082843782019150505050505091905050611d53565b005b34156104ae57600080fd5b610507600480803590602001909190803590602001908201803590602001908080601f01602080910402602001604051908101604052809392919081815260200183838082843782019150505050505091905050612123565b005b341561051457600080fd5b61051c612424565b6040518082815260200191505060405180910390f35b6105ae6004808035906020019091908035906020019091908035151590602001909190803573ffffffffffffffffffffffffffffffffffffffff1690602001909190803590602001909190803560001916906020019091908035906020019091908035906020019091908035151590602001909190505061242a565b005b34156105bb57600080fd5b6105e7600480803573ffffffffffffffffffffffffffffffffffffffff16906020019091905050612700565b005b6000813373ffffffffffffffffffffffffffffffffffffffff1661060c82610f35565b73ffffffffffffffffffffffffffffffffffffffff1614151561062e57600080fd5b61063783610f35565b91508173ffffffffffffffffffffffffffffffffffffffff168473ffffffffffffffffffffffffffffffffffffffff161415151561067457600080fd5b600061067f84612858565b73ffffffffffffffffffffffffffffffffffffffff161415806106b9575060008473ffffffffffffffffffffffffffffffffffffffff1614155b1561072e576106c88385612959565b8373ffffffffffffffffffffffffffffffffffffffff168273ffffffffffffffffffffffffffffffffffffffff167f8c5be1e5ebec7d5bd14f71427d1e84f3dd0314c0f7b2291e5b200ac8c7c3b925856040518082815260200191505060405180910390a35b50505050565b600160009054906101000a900473ffffffffffffffffffffffffffffffffffffffff1673ffffffffffffffffffffffffffffffffffffffff163373ffffffffffffffffffffffffffffffffffffffff1614151561079057600080fd5b806000111515156107a057600080fd5b8060048190555050565b60008060009054906101000a900473ffffffffffffffffffffffffffffffffffffffff1673ffffffffffffffffffffffffffffffffffffffff1663bdc963d860405180807f546f74616c537570706c79000000000000000000000000000000000000000000815250600b01905060405180910390206000604051602001526040518263ffffffff167c0100000000000000000000000000000000000000000000000000000000028152600401808260001916600019168152602001915050602060405180830381600087803b151561088157600080fd5b6102c65a03f1151561089257600080fd5b50505060405180519050905090565b600080600160009054906101000a900473ffffffffffffffffffffffffffffffffffffffff1673ffffffffffffffffffffffffffffffffffffffff163373ffffffffffffffffffffffffffffffffffffffff1614151561090057600080fd5b6000809054906101000a900473ffffffffffffffffffffffffffffffffffffffff1673ffffffffffffffffffffffffffffffffffffffff1663bdc963d860405180807f446570656e64616e7473436f756e746572000000000000000000000000000000815250601101905060405180910390206000604051602001526040518263ffffffff167c0100000000000000000000000000000000000000000000000000000000028152600401808260001916600019168152602001915050602060405180830381600087803b15156109d557600080fd5b6102c65a03f115156109e657600080fd5b5050506040518051905091505b6000821115610bb2576000809054906101000a900473ffffffffffffffffffffffffffffffffffffffff1673ffffffffffffffffffffffffffffffffffffffff16634c77e5ba8360405180807f446570656e64616e747300000000000000000000000000000000000000000000815250600a0182815260200191505060405180910390206000604051602001526040518263ffffffff167c0100000000000000000000000000000000000000000000000000000000028152600401808260001916600019168152602001915050602060405180830381600087803b1515610ad957600080fd5b6102c65a03f11515610aea57600080fd5b5050506040518051905090508073ffffffffffffffffffffffffffffffffffffffff1663f2fde38b846040518263ffffffff167c0100000000000000000000000000000000000000000000000000000000028152600401808273ffffffffffffffffffffffffffffffffffffffff1673ffffffffffffffffffffffffffffffffffffffff168152602001915050600060405180830381600087803b1515610b9057600080fd5b6102c65a03f11515610ba157600080fd5b5050508180600190039250506109f3565b505050565b6000600160009054906101000a900473ffffffffffffffffffffffffffffffffffffffff1673ffffffffffffffffffffffffffffffffffffffff163373ffffffffffffffffffffffffffffffffffffffff16141515610c1557600080fd5b6000809054906101000a900473ffffffffffffffffffffffffffffffffffffffff1673ffffffffffffffffffffffffffffffffffffffff1663bdc963d860405180807f446570656e64616e7473436f756e746572000000000000000000000000000000815250601101905060405180910390206000604051602001526040518263ffffffff167c0100000000000000000000000000000000000000000000000000000000028152600401808260001916600019168152602001915050602060405180830381600087803b1515610cea57600080fd5b6102c65a03f11515610cfb57600080fd5b5050506040518051905090506000809054906101000a900473ffffffffffffffffffffffffffffffffffffffff1673ffffffffffffffffffffffffffffffffffffffff16635a2bf25a610d58600184612a7990919063ffffffff16565b60405180807f446570656e64616e747300000000000000000000000000000000000000000000815250600a018281526020019150506040518091039020846040518363ffffffff167c01000000000000000000000000000000000000000000000000000000000281526004018083600019166000191681526020018273ffffffffffffffffffffffffffffffffffffffff1673ffffffffffffffffffffffffffffffffffffffff16815260200192505050600060405180830381600087803b1515610e2257600080fd5b6102c65a03f11515610e3357600080fd5b5050506000809054906101000a900473ffffffffffffffffffffffffffffffffffffffff1673ffffffffffffffffffffffffffffffffffffffff16633562fd2060405180807f446570656e64616e7473436f756e74657200000000000000000000000000000081525060110190506040518091039020610ebd600185612a7990919063ffffffff16565b6040518363ffffffff167c010000000000000000000000000000000000000000000000000000000002815260040180836000191660001916815260200182815260200192505050600060405180830381600087803b1515610f1d57600080fd5b6102c65a03f11515610f2e57600080fd5b5050505050565b6000806000809054906101000a900473ffffffffffffffffffffffffffffffffffffffff1673ffffffffffffffffffffffffffffffffffffffff16634c77e5ba8460405180807f4f776e65724f660000000000000000000000000000000000000000000000000081525060070182815260200191505060405180910390206000604051602001526040518263ffffffff167c0100000000000000000000000000000000000000000000000000000000028152600401808260001916600019168152602001915050602060405180830381600087803b151561101557600080fd5b6102c65a03f1151561102657600080fd5b50505060405180519050905080915050919050565b60008060009054906101000a900473ffffffffffffffffffffffffffffffffffffffff1673ffffffffffffffffffffffffffffffffffffffff1663bdc963d88360405180807f42616c616e63654f6600000000000000000000000000000000000000000000008152506009018273ffffffffffffffffffffffffffffffffffffffff1673ffffffffffffffffffffffffffffffffffffffff166c0100000000000000000000000002815260140191505060405180910390206000604051602001526040518263ffffffff167c0100000000000000000000000000000000000000000000000000000000028152600401808260001916600019168152602001915050602060405180830381600087803b151561115557600080fd5b6102c65a03f1151561116657600080fd5b505050604051805190509050919050565b61117f6150a9565b60008261118a6150a9565b60008061119684612a97565b92503373ffffffffffffffffffffffffffffffffffffffff166111bc8460600151610f35565b73ffffffffffffffffffffffffffffffffffffffff161491503373ffffffffffffffffffffffffffffffffffffffff166111f98460800151610f35565b73ffffffffffffffffffffffffffffffffffffffff16149050818061121b5750805b151561122657600080fd5b61122f87612a97565b95508560400151945060008660600151148061124f575060008660800151145b151561125a57600080fd5b611263876137a9565b3373ffffffffffffffffffffffffffffffffffffffff166108fc869081150290604051600060405180830381858888f1935050505015156112a357600080fd5b3373ffffffffffffffffffffffffffffffffffffffff16877f79af0603d6af952354516f9583d1640b4e036431911d556b8fd682f83ff43aaf876040518082815260200191505060405180910390a350505050505050565b6113036112fb565b565b600160009054906101000a900473ffffffffffffffffffffffffffffffffffffffff1681565b803373ffffffffffffffffffffffffffffffffffffffff1661134c82610f35565b73ffffffffffffffffffffffffffffffffffffffff1614151561136e57600080fd5b611379338484613886565b505050565b61138833826139cf565b151561139357600080fd5b6113a661139f82610f35565b3383613886565b50565b600160009054906101000a900473ffffffffffffffffffffffffffffffffffffffff1673ffffffffffffffffffffffffffffffffffffffff163373ffffffffffffffffffffffffffffffffffffffff1614151561140557600080fd5b82600260006101000a81548173ffffffffffffffffffffffffffffffffffffffff021916908373ffffffffffffffffffffffffffffffffffffffff160217905550816000806101000a81548173ffffffffffffffffffffffffffffffffffffffff021916908373ffffffffffffffffffffffffffffffffffffffff16021790555060008060009054906101000a900473ffffffffffffffffffffffffffffffffffffffff1673ffffffffffffffffffffffffffffffffffffffff1663bdc963d860405180807f5749544944436f756e7465720000000000000000000000000000000000000000815250600c01905060405180910390206000604051602001526040518263ffffffff167c0100000000000000000000000000000000000000000000000000000000028152600401808260001916600019168152602001915050602060405180830381600087803b151561155d57600080fd5b6102c65a03f1151561156e57600080fd5b5050506040518051905014151561158457600080fd5b620f42406004819055506000809054906101000a900473ffffffffffffffffffffffffffffffffffffffff1673ffffffffffffffffffffffffffffffffffffffff16633562fd2060405180807f5749544944436f756e7465720000000000000000000000000000000000000000815250600c019050604051809103902060016040518363ffffffff167c010000000000000000000000000000000000000000000000000000000002815260040180836000191660001916815260200182815260200192505050600060405180830381600087803b151561166357600080fd5b6102c65a03f1151561167457600080fd5b5050506000809054906101000a900473ffffffffffffffffffffffffffffffffffffffff1673ffffffffffffffffffffffffffffffffffffffff16635a2bf25a600160405180807f446570656e64616e747300000000000000000000000000000000000000000000815250600a0182815260200191505060405180910390206000809054906101000a900473ffffffffffffffffffffffffffffffffffffffff166040518363ffffffff167c01000000000000000000000000000000000000000000000000000000000281526004018083600019166000191681526020018273ffffffffffffffffffffffffffffffffffffffff1673ffffffffffffffffffffffffffffffffffffffff16815260200192505050600060405180830381600087803b15156117a157600080fd5b6102c65a03f115156117b257600080fd5b5050506000809054906101000a900473ffffffffffffffffffffffffffffffffffffffff1673ffffffffffffffffffffffffffffffffffffffff16635a2bf25a600260405180807f446570656e64616e747300000000000000000000000000000000000000000000815250600a018281526020019150506040518091039020836040518363ffffffff167c01000000000000000000000000000000000000000000000000000000000281526004018083600019166000191681526020018273ffffffffffffffffffffffffffffffffffffffff1673ffffffffffffffffffffffffffffffffffffffff16815260200192505050600060405180830381600087803b15156118be57600080fd5b6102c65a03f115156118cf57600080fd5b5050506000809054906101000a900473ffffffffffffffffffffffffffffffffffffffff1673ffffffffffffffffffffffffffffffffffffffff16633562fd2060405180807f446570656e64616e7473436f756e7465720000000000000000000000000000008152506011019050604051809103902060026040518363ffffffff167c010000000000000000000000000000000000000000000000000000000002815260040180836000191660001916815260200182815260200192505050600060405180830381600087803b15156119a757600080fd5b6102c65a03f115156119b857600080fd5b505050505050565b6119c86150a9565b600080600073ffffffffffffffffffffffffffffffffffffffff166119ec85610f35565b73ffffffffffffffffffffffffffffffffffffffff1614151515611a0f57600080fd5b611a1884612a97565b9250611a3260018460000151612a7990919063ffffffff16565b915082610140015115611a535782610100015142101515611a5257600080fd5b5b600083606001511415611bca57826020015134141515611a7257600080fd5b6000809054906101000a900473ffffffffffffffffffffffffffffffffffffffff1673ffffffffffffffffffffffffffffffffffffffff16633562fd20846000015160405180807f5749540000000000000000000000000000000000000000000000000000000000815250600301828152602001807f61626f76654944000000000000000000000000000000000000000000000000008152506007019150506040518091039020846040518363ffffffff167c010000000000000000000000000000000000000000000000000000000002815260040180836000191660001916815260200182815260200192505050600060405180830381600087803b1515611b7a57600080fd5b6102c65a03f11515611b8b57600080fd5b50505082600001518284600001517f4e26d2058422e671478446da4522b7c1527f240c0b68519a064219769b062dce60405160405180910390a4611d43565b60008360800151141515611bdd57600080fd5b826040015134141515611bef57600080fd5b6000809054906101000a900473ffffffffffffffffffffffffffffffffffffffff1673ffffffffffffffffffffffffffffffffffffffff16633562fd20846000015160405180807f5749540000000000000000000000000000000000000000000000000000000000815250600301828152602001807f62656c6f774944000000000000000000000000000000000000000000000000008152506007019150506040518091039020846040518363ffffffff167c010000000000000000000000000000000000000000000000000000000002815260040180836000191660001916815260200182815260200192505050600060405180830381600087803b1515611cf757600080fd5b6102c65a03f11515611d0857600080fd5b50505081836000015184600001517f4e26d2058422e671478446da4522b7c1527f240c0b68519a064219769b062dce60405160405180910390a45b611d4d3383613a10565b50505050565b611d5b6150a9565b600080611d6785612a97565b92508260a0015173ffffffffffffffffffffffffffffffffffffffff163373ffffffffffffffffffffffffffffffffffffffff16141515611da757600080fd5b611dc283604001518460200151612a7990919063ffffffff16565b915060405180807f61626f76650000000000000000000000000000000000000000000000000000008152506005019050604051809103902060001916846040518082805190602001908083835b602083101515611e345780518252602082019150602081019050602083039250611e0f565b6001836020036101000a0380198251168184511680821785525050505050509050019150506040518091039020600019161415611e7f57611e788360600151610f35565b9050611fd8565b60405180807f62656c6f770000000000000000000000000000000000000000000000000000008152506005019050604051809103902060001916846040518082805190602001908083835b602083101515611eef5780518252602082019150602081019050602083039250611eca565b6001836020036101000a0380198251168184511680821785525050505050509050019150506040518091039020600019161415611f3a57611f338360800151610f35565b9050611fd7565b7f3245e4a75053d0a16c5b092e18e5673215e5e96c3c15ae905952e902583fa576846040518080602001828103825283818151815260200191508051906020019080838360005b83811015611f9c578082015181840152602081019050611f81565b50505050905090810190601f168015611fc95780820380516001836020036101000a031916815260200191505b509250505060405180910390a15b5b611fe1856137a9565b8073ffffffffffffffffffffffffffffffffffffffff16857f79af0603d6af952354516f9583d1640b4e036431911d556b8fd682f83ff43aaf846040518082815260200191505060405180910390a38073ffffffffffffffffffffffffffffffffffffffff166108fc839081150290604051600060405180830381858888f19350505050151561207057600080fd5b7f0ffb68e73c330bf939b6f9e8f1c24d8a6903f996fafc9ee959989e01fc5c102d8585846040518084815260200180602001838152602001828103825284818151815260200191508051906020019080838360005b838110156120e05780820151818401526020810190506120c5565b50505050905090810190601f16801561210d5780820380516001836020036101000a031916815260200191505b5094505050505060405180910390a15050505050565b61212b6150a9565b6000836121366150a9565b60008061214284612a97565b92503373ffffffffffffffffffffffffffffffffffffffff166121688460600151610f35565b73ffffffffffffffffffffffffffffffffffffffff161491503373ffffffffffffffffffffffffffffffffffffffff166121a58460800151610f35565b73ffffffffffffffffffffffffffffffffffffffff1614905081806121c75750805b15156121d257600080fd5b6121db88612a97565b9550428661012001511015156121f057600080fd5b600086606001511415151561220457600080fd5b600086608001511415151561221857600080fd5b8560a0015194508473ffffffffffffffffffffffffffffffffffffffff1663990199e2348a8961010001518a61012001518b60c001518c60e00151600a6040518863ffffffff167c0100000000000000000000000000000000000000000000000000000000028152600401808781526020018681526020018581526020018481526020018360001916600019168152602001828152602001806020018281038252600081526020016020019750505050505050506000604051808303818588803b15156122e457600080fd5b6125ee5a03f115156122f557600080fd5b505050506000809054906101000a900473ffffffffffffffffffffffffffffffffffffffff1673ffffffffffffffffffffffffffffffffffffffff16633eba9ed2876000015160405180807f5749540000000000000000000000000000000000000000000000000000000000815250600301828152602001807f6177616974696e674576616c756174696f6e0000000000000000000000000000815250601201915050604051809103902060016040518363ffffffff167c01000000000000000000000000000000000000000000000000000000000281526004018083600019166000191681526020018215151515815260200192505050600060405180830381600087803b151561240657600080fd5b6102c65a03f1151561241757600080fd5b5050505050505050505050565b60045481565b60006124346150a9565b60008b11151561244357600080fd5b60008a11151561245257600080fd5b6124658b8b612a7990919063ffffffff16565b50838510151561247457600080fd5b8a3414151561248257600080fd5b61248a613aaa565b91506124963383613a10565b88156125c157610180604051908101604052808381526020018c81526020018b8152602001838152602001600081526020018973ffffffffffffffffffffffffffffffffffffffff168152602001888152602001876000191681526020018681526020018581526020018415158152602001600015158152509050898b837f32a1e31199d17c85d6d4bc5532f14905535322fb657272a26e6fe7072785c3128560008d8d8d8d8d8d604051808981526020018881526020018773ffffffffffffffffffffffffffffffffffffffff1673ffffffffffffffffffffffffffffffffffffffff1681526020018681526020018560001916600019168152602001848152602001838152602001821515151581526020019850505050505050505060405180910390a46126e2565b610180604051908101604052808381526020018b81526020018c8152602001600081526020018381526020018973ffffffffffffffffffffffffffffffffffffffff168152602001888152602001876000191681526020018681526020018581526020018415158152602001600015158152509050898b837f32a1e31199d17c85d6d4bc5532f14905535322fb657272a26e6fe7072785c3126000868d8d8d8d8d8d604051808981526020018881526020018773ffffffffffffffffffffffffffffffffffffffff1673ffffffffffffffffffffffffffffffffffffffff1681526020018681526020018560001916600019168152602001848152602001838152602001821515151581526020019850505050505050505060405180910390a45b6126eb81613ba1565b6126f3614844565b5050505050505050505050565b600160009054906101000a900473ffffffffffffffffffffffffffffffffffffffff1673ffffffffffffffffffffffffffffffffffffffff163373ffffffffffffffffffffffffffffffffffffffff1614151561275c57600080fd5b600073ffffffffffffffffffffffffffffffffffffffff168173ffffffffffffffffffffffffffffffffffffffff161415151561279857600080fd5b8073ffffffffffffffffffffffffffffffffffffffff16600160009054906101000a900473ffffffffffffffffffffffffffffffffffffffff1673ffffffffffffffffffffffffffffffffffffffff167f8be0079c531659141344cd1fd0a4f28419497f9722a3daafe3b4186f6b6457e060405160405180910390a380600160006101000a81548173ffffffffffffffffffffffffffffffffffffffff021916908373ffffffffffffffffffffffffffffffffffffffff16021790555050565b60008060009054906101000a900473ffffffffffffffffffffffffffffffffffffffff1673ffffffffffffffffffffffffffffffffffffffff16634c77e5ba8360405180807f417070726f766564466f72000000000000000000000000000000000000000000815250600b0182815260200191505060405180910390206000604051602001526040518263ffffffff167c0100000000000000000000000000000000000000000000000000000000028152600401808260001916600019168152602001915050602060405180830381600087803b151561293757600080fd5b6102c65a03f1151561294857600080fd5b505050604051805190509050919050565b6000809054906101000a900473ffffffffffffffffffffffffffffffffffffffff1673ffffffffffffffffffffffffffffffffffffffff16635a2bf25a8360405180807f417070726f766564466f72000000000000000000000000000000000000000000815250600b018281526020019150506040518091039020836040518363ffffffff167c01000000000000000000000000000000000000000000000000000000000281526004018083600019166000191681526020018273ffffffffffffffffffffffffffffffffffffffff1673ffffffffffffffffffffffffffffffffffffffff16815260200192505050600060405180830381600087803b1515612a6157600080fd5b6102c65a03f11515612a7257600080fd5b5050505050565b6000808284019050838110151515612a8d57fe5b8091505092915050565b612a9f6150a9565b60008060008060008060008060008060008060009054906101000a900473ffffffffffffffffffffffffffffffffffffffff1673ffffffffffffffffffffffffffffffffffffffff1663bdc963d88e60405180807f5749540000000000000000000000000000000000000000000000000000000000815250600301828152602001807f61626f7665457363726f77000000000000000000000000000000000000000000815250600b0191505060405180910390206000604051602001526040518263ffffffff167c0100000000000000000000000000000000000000000000000000000000028152600401808260001916600019168152602001915050602060405180830381600087803b1515612bb557600080fd5b6102c65a03f11515612bc657600080fd5b505050604051805190509a506000809054906101000a900473ffffffffffffffffffffffffffffffffffffffff1673ffffffffffffffffffffffffffffffffffffffff1663bdc963d88e60405180807f5749540000000000000000000000000000000000000000000000000000000000815250600301828152602001807f62656c6f77457363726f77000000000000000000000000000000000000000000815250600b0191505060405180910390206000604051602001526040518263ffffffff167c0100000000000000000000000000000000000000000000000000000000028152600401808260001916600019168152602001915050602060405180830381600087803b1515612cd757600080fd5b6102c65a03f11515612ce857600080fd5b5050506040518051905099506000809054906101000a900473ffffffffffffffffffffffffffffffffffffffff1673ffffffffffffffffffffffffffffffffffffffff1663bdc963d88e60405180807f5749540000000000000000000000000000000000000000000000000000000000815250600301828152602001807f61626f766549440000000000000000000000000000000000000000000000000081525060070191505060405180910390206000604051602001526040518263ffffffff167c0100000000000000000000000000000000000000000000000000000000028152600401808260001916600019168152602001915050602060405180830381600087803b1515612df957600080fd5b6102c65a03f11515612e0a57600080fd5b5050506040518051905098506000809054906101000a900473ffffffffffffffffffffffffffffffffffffffff1673ffffffffffffffffffffffffffffffffffffffff1663bdc963d88e60405180807f5749540000000000000000000000000000000000000000000000000000000000815250600301828152602001807f62656c6f7749440000000000000000000000000000000000000000000000000081525060070191505060405180910390206000604051602001526040518263ffffffff167c0100000000000000000000000000000000000000000000000000000000028152600401808260001916600019168152602001915050602060405180830381600087803b1515612f1b57600080fd5b6102c65a03f11515612f2c57600080fd5b5050506040518051905097506000809054906101000a900473ffffffffffffffffffffffffffffffffffffffff1673ffffffffffffffffffffffffffffffffffffffff16634c77e5ba8e60405180807f5749540000000000000000000000000000000000000000000000000000000000815250600301828152602001807f6576616c7561746f72000000000000000000000000000000000000000000000081525060090191505060405180910390206000604051602001526040518263ffffffff167c0100000000000000000000000000000000000000000000000000000000028152600401808260001916600019168152602001915050602060405180830381600087803b151561303d57600080fd5b6102c65a03f1151561304e57600080fd5b5050506040518051905096506000809054906101000a900473ffffffffffffffffffffffffffffffffffffffff1673ffffffffffffffffffffffffffffffffffffffff1663bdc963d88e60405180807f5749540000000000000000000000000000000000000000000000000000000000815250600301828152602001807f7468726573686f6c645050545448000000000000000000000000000000000000815250600e0191505060405180910390206000604051602001526040518263ffffffff167c0100000000000000000000000000000000000000000000000000000000028152600401808260001916600019168152602001915050602060405180830381600087803b151561315f57600080fd5b6102c65a03f1151561317057600080fd5b5050506040518051905095506000809054906101000a900473ffffffffffffffffffffffffffffffffffffffff1673ffffffffffffffffffffffffffffffffffffffff1663025ec81a8e60405180807f5749540000000000000000000000000000000000000000000000000000000000815250600301828152602001807f6c6f636174696f6e00000000000000000000000000000000000000000000000081525060080191505060405180910390206000604051602001526040518263ffffffff167c0100000000000000000000000000000000000000000000000000000000028152600401808260001916600019168152602001915050602060405180830381600087803b151561328157600080fd5b6102c65a03f1151561329257600080fd5b5050506040518051905094506000809054906101000a900473ffffffffffffffffffffffffffffffffffffffff1673ffffffffffffffffffffffffffffffffffffffff1663bdc963d88e60405180807f5749540000000000000000000000000000000000000000000000000000000000815250600301828152602001807f737461727400000000000000000000000000000000000000000000000000000081525060050191505060405180910390206000604051602001526040518263ffffffff167c0100000000000000000000000000000000000000000000000000000000028152600401808260001916600019168152602001915050602060405180830381600087803b15156133a357600080fd5b6102c65a03f115156133b457600080fd5b5050506040518051905093506000809054906101000a900473ffffffffffffffffffffffffffffffffffffffff1673ffffffffffffffffffffffffffffffffffffffff1663bdc963d88e60405180807f5749540000000000000000000000000000000000000000000000000000000000815250600301828152602001807f656e64000000000000000000000000000000000000000000000000000000000081525060030191505060405180910390206000604051602001526040518263ffffffff167c0100000000000000000000000000000000000000000000000000000000028152600401808260001916600019168152602001915050602060405180830381600087803b15156134c557600080fd5b6102c65a03f115156134d657600080fd5b5050506040518051905092506000809054906101000a900473ffffffffffffffffffffffffffffffffffffffff1673ffffffffffffffffffffffffffffffffffffffff166317e7dd228e60405180807f5749540000000000000000000000000000000000000000000000000000000000815250600301828152602001807f6d616b655374616c65000000000000000000000000000000000000000000000081525060090191505060405180910390206000604051602001526040518263ffffffff167c0100000000000000000000000000000000000000000000000000000000028152600401808260001916600019168152602001915050602060405180830381600087803b15156135e757600080fd5b6102c65a03f115156135f857600080fd5b5050506040518051905091506000809054906101000a900473ffffffffffffffffffffffffffffffffffffffff1673ffffffffffffffffffffffffffffffffffffffff166317e7dd228e60405180807f5749540000000000000000000000000000000000000000000000000000000000815250600301828152602001807f6177616974696e674576616c756174696f6e000000000000000000000000000081525060120191505060405180910390206000604051602001526040518263ffffffff167c0100000000000000000000000000000000000000000000000000000000028152600401808260001916600019168152602001915050602060405180830381600087803b151561370957600080fd5b6102c65a03f1151561371a57600080fd5b505050604051805190509050610180604051908101604052808e81526020018c81526020018b81526020018a81526020018981526020018873ffffffffffffffffffffffffffffffffffffffff1681526020018781526020018660001916815260200185815260200184815260200183151581526020018215158152509b505050505050505050505050919050565b6137b16150a9565b6000806137bd84612a97565b92506137cc8360800151610f35565b91506137dc828460800151614948565b6137e98360600151610f35565b90506137f9818460600151614948565b6138806101806040519081016040528086815260200160008152602001600081526020016000815260200160008152602001600073ffffffffffffffffffffffffffffffffffffffff168152602001600081526020016000600102600019168152602001600081526020016000815260200160001515815260200160001515815250613ba1565b50505050565b600073ffffffffffffffffffffffffffffffffffffffff168273ffffffffffffffffffffffffffffffffffffffff16141515156138c257600080fd5b6138cb81610f35565b73ffffffffffffffffffffffffffffffffffffffff168273ffffffffffffffffffffffffffffffffffffffff161415151561390557600080fd5b8273ffffffffffffffffffffffffffffffffffffffff1661392582610f35565b73ffffffffffffffffffffffffffffffffffffffff1614151561394757600080fd5b61395183826149d9565b61395b8382614a7a565b6139658282614cd7565b8173ffffffffffffffffffffffffffffffffffffffff168373ffffffffffffffffffffffffffffffffffffffff167fddf252ad1be2c89b69c2b068fc378daa952ba7f163c4a11628f55a4df523b3ef836040518082815260200191505060405180910390a3505050565b60008273ffffffffffffffffffffffffffffffffffffffff166139f183612858565b73ffffffffffffffffffffffffffffffffffffffff1614905092915050565b600073ffffffffffffffffffffffffffffffffffffffff168273ffffffffffffffffffffffffffffffffffffffff1614151515613a4c57600080fd5b613a568282614cd7565b8173ffffffffffffffffffffffffffffffffffffffff1660007fddf252ad1be2c89b69c2b068fc378daa952ba7f163c4a11628f55a4df523b3ef836040518082815260200191505060405180910390a35050565b60008060009054906101000a900473ffffffffffffffffffffffffffffffffffffffff1673ffffffffffffffffffffffffffffffffffffffff1663bdc963d860405180807f5749544944436f756e7465720000000000000000000000000000000000000000815250600c01905060405180910390206000604051602001526040518263ffffffff167c0100000000000000000000000000000000000000000000000000000000028152600401808260001916600019168152602001915050602060405180830381600087803b1515613b8157600080fd5b6102c65a03f11515613b9257600080fd5b50505060405180519050905090565b6000809054906101000a900473ffffffffffffffffffffffffffffffffffffffff1673ffffffffffffffffffffffffffffffffffffffff16633562fd20826000015160405180807f5749540000000000000000000000000000000000000000000000000000000000815250600301828152602001807f61626f7665457363726f77000000000000000000000000000000000000000000815250600b01915050604051809103902083602001516040518363ffffffff167c010000000000000000000000000000000000000000000000000000000002815260040180836000191660001916815260200182815260200192505050600060405180830381600087803b1515613cad57600080fd5b6102c65a03f11515613cbe57600080fd5b5050506000809054906101000a900473ffffffffffffffffffffffffffffffffffffffff1673ffffffffffffffffffffffffffffffffffffffff16633562fd20826000015160405180807f5749540000000000000000000000000000000000000000000000000000000000815250600301828152602001807f62656c6f77457363726f77000000000000000000000000000000000000000000815250600b01915050604051809103902083604001516040518363ffffffff167c010000000000000000000000000000000000000000000000000000000002815260040180836000191660001916815260200182815260200192505050600060405180830381600087803b1515613dcd57600080fd5b6102c65a03f11515613dde57600080fd5b5050506000809054906101000a900473ffffffffffffffffffffffffffffffffffffffff1673ffffffffffffffffffffffffffffffffffffffff16633562fd20826000015160405180807f5749540000000000000000000000000000000000000000000000000000000000815250600301828152602001807f61626f7665494400000000000000000000000000000000000000000000000000815250600701915050604051809103902083606001516040518363ffffffff167c010000000000000000000000000000000000000000000000000000000002815260040180836000191660001916815260200182815260200192505050600060405180830381600087803b1515613eed57600080fd5b6102c65a03f11515613efe57600080fd5b5050506000809054906101000a900473ffffffffffffffffffffffffffffffffffffffff1673ffffffffffffffffffffffffffffffffffffffff16633562fd20826000015160405180807f5749540000000000000000000000000000000000000000000000000000000000815250600301828152602001807f62656c6f77494400000000000000000000000000000000000000000000000000815250600701915050604051809103902083608001516040518363ffffffff167c010000000000000000000000000000000000000000000000000000000002815260040180836000191660001916815260200182815260200192505050600060405180830381600087803b151561400d57600080fd5b6102c65a03f1151561401e57600080fd5b5050506000809054906101000a900473ffffffffffffffffffffffffffffffffffffffff1673ffffffffffffffffffffffffffffffffffffffff16635a2bf25a826000015160405180807f5749540000000000000000000000000000000000000000000000000000000000815250600301828152602001807f6576616c7561746f72000000000000000000000000000000000000000000000081525060090191505060405180910390208360a001516040518363ffffffff167c01000000000000000000000000000000000000000000000000000000000281526004018083600019166000191681526020018273ffffffffffffffffffffffffffffffffffffffff1673ffffffffffffffffffffffffffffffffffffffff16815260200192505050600060405180830381600087803b151561415957600080fd5b6102c65a03f1151561416a57600080fd5b5050506000809054906101000a900473ffffffffffffffffffffffffffffffffffffffff1673ffffffffffffffffffffffffffffffffffffffff16633562fd20826000015160405180807f5749540000000000000000000000000000000000000000000000000000000000815250600301828152602001807f7468726573686f6c645050545448000000000000000000000000000000000000815250600e0191505060405180910390208360c001516040518363ffffffff167c010000000000000000000000000000000000000000000000000000000002815260040180836000191660001916815260200182815260200192505050600060405180830381600087803b151561427957600080fd5b6102c65a03f1151561428a57600080fd5b5050506000809054906101000a900473ffffffffffffffffffffffffffffffffffffffff1673ffffffffffffffffffffffffffffffffffffffff166325cf512d826000015160405180807f5749540000000000000000000000000000000000000000000000000000000000815250600301828152602001807f6c6f636174696f6e00000000000000000000000000000000000000000000000081525060080191505060405180910390208360e001516040518363ffffffff167c0100000000000000000000000000000000000000000000000000000000028152600401808360001916600019168152602001826000191660001916815260200192505050600060405180830381600087803b15156143a157600080fd5b6102c65a03f115156143b257600080fd5b5050506000809054906101000a900473ffffffffffffffffffffffffffffffffffffffff1673ffffffffffffffffffffffffffffffffffffffff16633562fd20826000015160405180807f5749540000000000000000000000000000000000000000000000000000000000815250600301828152602001807f737461727400000000000000000000000000000000000000000000000000000081525060050191505060405180910390208361010001516040518363ffffffff167c010000000000000000000000000000000000000000000000000000000002815260040180836000191660001916815260200182815260200192505050600060405180830381600087803b15156144c257600080fd5b6102c65a03f115156144d357600080fd5b5050506000809054906101000a900473ffffffffffffffffffffffffffffffffffffffff1673ffffffffffffffffffffffffffffffffffffffff16633562fd20826000015160405180807f5749540000000000000000000000000000000000000000000000000000000000815250600301828152602001807f656e64000000000000000000000000000000000000000000000000000000000081525060030191505060405180910390208361012001516040518363ffffffff167c010000000000000000000000000000000000000000000000000000000002815260040180836000191660001916815260200182815260200192505050600060405180830381600087803b15156145e357600080fd5b6102c65a03f115156145f457600080fd5b5050506000809054906101000a900473ffffffffffffffffffffffffffffffffffffffff1673ffffffffffffffffffffffffffffffffffffffff16633eba9ed2826000015160405180807f5749540000000000000000000000000000000000000000000000000000000000815250600301828152602001807f6d616b655374616c65000000000000000000000000000000000000000000000081525060090191505060405180910390208361014001516040518363ffffffff167c01000000000000000000000000000000000000000000000000000000000281526004018083600019166000191681526020018215151515815260200192505050600060405180830381600087803b151561470857600080fd5b6102c65a03f1151561471957600080fd5b5050506000809054906101000a900473ffffffffffffffffffffffffffffffffffffffff1673ffffffffffffffffffffffffffffffffffffffff16633eba9ed2826000015160405180807f5749540000000000000000000000000000000000000000000000000000000000815250600301828152602001807f6177616974696e674576616c756174696f6e000000000000000000000000000081525060120191505060405180910390208361016001516040518363ffffffff167c01000000000000000000000000000000000000000000000000000000000281526004018083600019166000191681526020018215151515815260200192505050600060405180830381600087803b151561482d57600080fd5b6102c65a03f1151561483e57600080fd5b50505050565b6000809054906101000a900473ffffffffffffffffffffffffffffffffffffffff1673ffffffffffffffffffffffffffffffffffffffff16633562fd2060405180807f5749544944436f756e7465720000000000000000000000000000000000000000815250600c01905060405180910390206148d260026148c4613aaa565b612a7990919063ffffffff16565b6040518363ffffffff167c010000000000000000000000000000000000000000000000000000000002815260040180836000191660001916815260200182815260200192505050600060405180830381600087803b151561493257600080fd5b6102c65a03f1151561494357600080fd5b505050565b600061495382612858565b73ffffffffffffffffffffffffffffffffffffffff1614151561497b5761497a82826149d9565b5b6149858282614a7a565b60008273ffffffffffffffffffffffffffffffffffffffff167fddf252ad1be2c89b69c2b068fc378daa952ba7f163c4a11628f55a4df523b3ef836040518082815260200191505060405180910390a35050565b8173ffffffffffffffffffffffffffffffffffffffff166149f982610f35565b73ffffffffffffffffffffffffffffffffffffffff16141515614a1b57600080fd5b614a26816000612959565b60008273ffffffffffffffffffffffffffffffffffffffff167f8c5be1e5ebec7d5bd14f71427d1e84f3dd0314c0f7b2291e5b200ac8c7c3b925836040518082815260200191505060405180910390a35050565b6000614a87826000614f70565b614a908361103b565b90506000809054906101000a900473ffffffffffffffffffffffffffffffffffffffff1673ffffffffffffffffffffffffffffffffffffffff16633562fd208460405180807f42616c616e63654f6600000000000000000000000000000000000000000000008152506009018273ffffffffffffffffffffffffffffffffffffffff1673ffffffffffffffffffffffffffffffffffffffff166c010000000000000000000000000281526014019150506040518091039020614b5c60018561509090919063ffffffff16565b6040518363ffffffff167c010000000000000000000000000000000000000000000000000000000002815260040180836000191660001916815260200182815260200192505050600060405180830381600087803b1515614bbc57600080fd5b6102c65a03f11515614bcd57600080fd5b5050506000809054906101000a900473ffffffffffffffffffffffffffffffffffffffff1673ffffffffffffffffffffffffffffffffffffffff16633562fd2060405180807f546f74616c537570706c79000000000000000000000000000000000000000000815250600b0190506040518091039020614c5e6001614c506107aa565b61509090919063ffffffff16565b6040518363ffffffff167c010000000000000000000000000000000000000000000000000000000002815260040180836000191660001916815260200182815260200192505050600060405180830381600087803b1515614cbe57600080fd5b6102c65a03f11515614ccf57600080fd5b505050505050565b600073ffffffffffffffffffffffffffffffffffffffff16614cf882610f35565b73ffffffffffffffffffffffffffffffffffffffff16141515614d1a57600080fd5b614d248183614f70565b6000809054906101000a900473ffffffffffffffffffffffffffffffffffffffff1673ffffffffffffffffffffffffffffffffffffffff16633562fd208360405180807f42616c616e63654f6600000000000000000000000000000000000000000000008152506009018273ffffffffffffffffffffffffffffffffffffffff1673ffffffffffffffffffffffffffffffffffffffff166c010000000000000000000000000281526014019150506040518091039020614df66001614de88761103b565b612a7990919063ffffffff16565b6040518363ffffffff167c010000000000000000000000000000000000000000000000000000000002815260040180836000191660001916815260200182815260200192505050600060405180830381600087803b1515614e5657600080fd5b6102c65a03f11515614e6757600080fd5b5050506000809054906101000a900473ffffffffffffffffffffffffffffffffffffffff1673ffffffffffffffffffffffffffffffffffffffff16633562fd2060405180807f546f74616c537570706c79000000000000000000000000000000000000000000815250600b0190506040518091039020614ef86001614eea6107aa565b612a7990919063ffffffff16565b6040518363ffffffff167c010000000000000000000000000000000000000000000000000000000002815260040180836000191660001916815260200182815260200192505050600060405180830381600087803b1515614f5857600080fd5b6102c65a03f11515614f6957600080fd5b5050505050565b6000809054906101000a900473ffffffffffffffffffffffffffffffffffffffff1673ffffffffffffffffffffffffffffffffffffffff16635a2bf25a8360405180807f4f776e65724f66000000000000000000000000000000000000000000000000008152506007018281526020019150506040518091039020836040518363ffffffff167c01000000000000000000000000000000000000000000000000000000000281526004018083600019166000191681526020018273ffffffffffffffffffffffffffffffffffffffff1673ffffffffffffffffffffffffffffffffffffffff16815260200192505050600060405180830381600087803b151561507857600080fd5b6102c65a03f1151561508957600080fd5b5050505050565b600082821115151561509e57fe5b818303905092915050565b610180604051908101604052806000815260200160008152602001600081526020016000815260200160008152602001600073ffffffffffffffffffffffffffffffffffffffff1681526020016000815260200160008019168152602001600081526020016000815260200160001515815260200160001515815250905600a165627a7a723058201088660c2c8da9a3925f900d6c76946cbdd322f9d5e1356219f6816c7f01dc930029",
  "source": "pragma solidity ^0.4.18;\n\nimport 'zeppelin-solidity/contracts/math/SafeMath.sol';\nimport './DecoupledERC721Token.sol';\nimport './Arbolcoin.sol';\nimport './EternalDonut.sol';\nimport './Ownable.sol';\nimport './WITEvaluator.sol';\nimport './CallbackableWIT.sol';\n\n/**\n * @title Weather Immunity Token for ARBOL.\n *\n * @dev If you hold this token you are eligible for a payout based on the outcome of the weather.\n * @dev WITs are a representation of a protection agreement between two parties.\n * @dev Various terms can be set by the \"proposer.\" The proposal is represented as one WIT.\n * @dev When the proposal WIT is created, the proposer deposits some ether into the smart contract. \n *\n * @dev The proposal can be accepted. If it is accepted, a new WIT is created according to the terms specified in the first one.\n * @dev The accepter also deposits some ether. Both parties' ether is now locked until the WITs are evaluated.\n *\n * @dev WITs can be transferred after they have been created. They are nonfungible ERC721 tokens.\n *\n * @dev \n */\ncontract WeatherImmunityToken is DecoupledERC721Token, Ownable, CallbackableWIT {\n  using SafeMath for uint;\n\n    struct WIT {\n      uint WITID;\n      uint aboveEscrow;\n      uint belowEscrow;\n      uint aboveID;\n      uint belowID; \n      address evaluator;\n      uint thresholdPPTTH;\n      bytes32 location;\n      uint start;\n      uint end;\n      bool makeStale;\n      bool awaitingEvaluation;  //TODO get rid of this as oraclize callbacks can be executed before the query sometimes.\n    }\n\n    // Arbolcoin smart contract (contains address). \n    Arbolcoin private arbol;\n\n    // ARBOL fees go to this wallet. TODO make this owner, or implement revenue token.\n    address private systemFeeWallet = 0x5AEDA56215b167893e80B4fE645BA6d5Bab767DE;\n\n    // The ARBOL system fee in parts per million. (of wei.) 100% for now.\n    uint public systemFeePPM;\n\n    event Redemption(uint indexed WITID, uint amount, address indexed user);\n    event ProposalAccepted(uint indexed WITID, uint indexed aboveID, uint indexed belowID);\n    event ProposalOffered(uint indexed WITID, uint aboveID, uint belowID, uint indexed weiContributing,  uint indexed weiAsking, address evaluator, uint thresholdPPTTH, bytes32 location, uint start, uint end, bool makeStale);\n    event WITEvaluated(uint WITID, string evaluationResult, uint weiPayout);\n\n    //do this separately from constructor because of gas issues\n    function initialize(address _arbolAddress, address storageAddress, address NOAAPrecipAggregate) public onlyContractOwner {\n      arbol = Arbolcoin(_arbolAddress);\n      storageContract = EternalDonut(storageAddress);\n      require(storageContract.getUIntValue(keccak256(\"WITIDCounter\")) == 0);\n      systemFeePPM = 1000000;\n      storageContract.setUIntValue(keccak256(\"WITIDCounter\"), uint(1)); //start at 1\n      storageContract.setAddressValue(keccak256(\"Dependants\", uint(1)), address(storageContract));\n      storageContract.setAddressValue(keccak256(\"Dependants\", uint(2)), address(NOAAPrecipAggregate));\n      storageContract.setUIntValue(keccak256(\"DependantsCounter\"), uint(2)); \n    }\n\n  /**\n  * @dev Guarantees msg.sender is owner of the given token\n  * @param _tokenId uint256 ID of the token to validate its ownership belongs to msg.sender\n  */\n  modifier onlyOwnerOfSubWITOf(uint256 _tokenId) {\n    WIT memory the_wit = getWIT(_tokenId);\n    bool is_above_owner = ownerOf(the_wit.aboveID) == msg.sender;\n    bool is_below_owner = ownerOf(the_wit.belowID) == msg.sender;\n    require(is_above_owner || is_below_owner);\n    _;\n  }\n\n   function getTokenCounter() private view returns (uint) {\n    return storageContract.getUIntValue(keccak256(\"WITIDCounter\"));\n   }\n\n   function incrementTokenCounter() private {\n     storageContract.setUIntValue(keccak256(\"WITIDCounter\"), getTokenCounter().add(2)); // Yes, 2.\n   }\n\n    function getWIT(uint tokenID) private returns (WIT) {\n      uint aboveEscrow = storageContract.getUIntValue(keccak256(\"WIT\", tokenID, \"aboveEscrow\"));\n      uint belowEscrow = storageContract.getUIntValue(keccak256(\"WIT\", tokenID, \"belowEscrow\"));\n      uint aboveID = storageContract.getUIntValue(keccak256(\"WIT\", tokenID, \"aboveID\"));\n      uint belowID = storageContract.getUIntValue(keccak256(\"WIT\", tokenID, \"belowID\"));    \n      address evaluator = storageContract.getAddressValue(keccak256(\"WIT\", tokenID, \"evaluator\"));\n      uint thresholdPPTTH = storageContract.getUIntValue(keccak256(\"WIT\", tokenID, \"thresholdPPTTH\"));\n      bytes32 location = storageContract.getBytes32Value(keccak256(\"WIT\", tokenID, \"location\"));\n      uint start = storageContract.getUIntValue(keccak256(\"WIT\", tokenID, \"start\"));\n      uint end = storageContract.getUIntValue(keccak256(\"WIT\", tokenID, \"end\"));\n      bool makeStale = storageContract.getBooleanValue(keccak256(\"WIT\", tokenID, \"makeStale\"));\n      bool awaitingEvaluation = storageContract.getBooleanValue(keccak256(\"WIT\", tokenID, \"awaitingEvaluation\"));\n      return WIT(tokenID, aboveEscrow, belowEscrow, aboveID, belowID, evaluator, thresholdPPTTH, location, start, end, makeStale, awaitingEvaluation);        \n    }\n\n    function saveWIT(WIT the_wit) private {\n        storageContract.setUIntValue(keccak256(\"WIT\", the_wit.WITID, \"aboveEscrow\"), the_wit.aboveEscrow);\n        storageContract.setUIntValue(keccak256(\"WIT\", the_wit.WITID, \"belowEscrow\"), the_wit.belowEscrow);\n        storageContract.setUIntValue(keccak256(\"WIT\", the_wit.WITID, \"aboveID\"), the_wit.aboveID);\n        storageContract.setUIntValue(keccak256(\"WIT\", the_wit.WITID, \"belowID\"), the_wit.belowID);        \n        storageContract.setAddressValue(keccak256(\"WIT\", the_wit.WITID, \"evaluator\"), the_wit.evaluator);\n        storageContract.setUIntValue(keccak256(\"WIT\", the_wit.WITID, \"thresholdPPTTH\"), the_wit.thresholdPPTTH);\n        storageContract.setBytes32Value(keccak256(\"WIT\", the_wit.WITID, \"location\"), the_wit.location);\n        storageContract.setUIntValue(keccak256(\"WIT\", the_wit.WITID, \"start\"), the_wit.start);\n        storageContract.setUIntValue(keccak256(\"WIT\", the_wit.WITID, \"end\"), the_wit.end);\n        storageContract.setBooleanValue(keccak256(\"WIT\", the_wit.WITID, \"makeStale\"), the_wit.makeStale);\n        storageContract.setBooleanValue(keccak256(\"WIT\", the_wit.WITID, \"awaitingEvaluation\"), the_wit.awaitingEvaluation);\n    }\n\n   /**\n    * @dev Create a WIT without a partner. (A proposal.)\n    * @param weiContributing Amount of wei user proposes to contribute\n    * @param weiAsking Amount of wei user proposes the partner contribute.\n    * @param evaluator The address of the contract that will evaluate the WIT (for example one that integrates with a specific weather API).\n    * @param thresholdPPTTH The threshold by which the payout will be determined.\n    * @param start The start date of the WIT.\n    * @param end The end date of the WIT.\n    * @param makeStale If set to true, the WIT will be taken off the open market after its start date passes. That is, no one will be able to accept it.\n    */\n    function createWITProposal(uint weiContributing, uint weiAsking, bool aboveOrBelow, address evaluator, uint thresholdPPTTH, bytes32 location, uint start, uint end, bool makeStale) public payable {\n      require(weiContributing > 0);\n      require(weiAsking > 0);\n      weiAsking.add(weiContributing); // this expression will throw if the escrow amounts are too big.\n\n      /*\n      Don't let people create WITs that start in the past. Could allow people to execute a sort of abuse\n      where a hapless rube accidentally accepts a WIT that has already gone in favor of the proposer.\n\n      But we do need to be able to create WITs in the past for testing purposes, so we allow it for the\n      contract owner. Can't test evaluateWIT unless the term period of the WIT has already passed.\n      */\n\n      // on testnet, we let people create WITs in the past. Otherwise there's nothing to test!\n      //if (msg.sender != owner) { require(now < start); }\n \n\n      require(start < end);\n  \n      // Validate amount of wei sent.\n      require(msg.value == weiContributing);\n\n      // TODO -- Calculate and take ARBOL fee.\n    /*  uint fee = calculateFee(weiContributing, weiAsking);\n\n      if (fee != 0) {\n          require(arbol.transferFrom(msg.sender, systemFeeWallet, fee));\n          //TODO accept ether\n      }*/\n\n      uint ID = getTokenCounter();\n      _mint(msg.sender, ID);\n      WIT memory new_WIT;\n      if (aboveOrBelow) {\n        new_WIT = WIT(ID, weiContributing, weiAsking, ID, 0, evaluator, thresholdPPTTH, location, start, end, makeStale, false);\n        ProposalOffered(ID, ID, 0, weiContributing, weiAsking, evaluator, thresholdPPTTH, location, start, end, makeStale);\n      }\n      else {\n        new_WIT = WIT(ID, weiAsking, weiContributing, 0, ID, evaluator, thresholdPPTTH, location, start, end, makeStale, false);\n        ProposalOffered(ID, 0, ID, weiContributing, weiAsking, evaluator, thresholdPPTTH, location, start, end, makeStale);        \n      }\n      saveWIT(new_WIT);\n      incrementTokenCounter();\n    }\n\n    /**\n    * @dev Create a WIT and partner it to an existing WIT (accept a proposed protection agreement).\n    * @param proposalID The ID of the WIT to which the new WIT shall be partnered.\n    */\n    function createWITAcceptance(uint proposalID) public payable {\n\n        // Specified partner token must exist\n        require(ownerOf(proposalID) != address(0));\n        WIT memory proposalWIT = getWIT(proposalID);\n        uint new_ID = proposalWIT.WITID.add(1);\n        uint fee;\n        if (proposalWIT.makeStale) {\n            require(now < proposalWIT.start);\n        }\n\n        // Figure out whether we are adding an \"above\" or \"below\" WIT receipt.\n        if (proposalWIT.aboveID == 0) {\n        \n            // Validate the amount of wei sent.\n            require(msg.value == proposalWIT.aboveEscrow);\n\n            /*       \n            fee = calculateFee(proposalWIT.aboveEscrow, proposalWIT.belowEscrow);\n            if (fee != 0) {\n\n                // TODO accept fee in ether\n                require(arbol.transferFrom(msg.sender, systemFeeWallet, fee));\n            }\n            */\n            \n            storageContract.setUIntValue(keccak256(\"WIT\", proposalWIT.WITID, \"aboveID\"), new_ID);        \n            ProposalAccepted(proposalWIT.WITID, new_ID, proposalWIT.WITID);\n\n        }\n        else {\n            require(proposalWIT.belowID == 0);\n\n            // Validate the amount of wei sent.\n            require(msg.value == proposalWIT.belowEscrow);\n  \n            /*\n            fee = calculateFee(proposalWIT.belowEscrow, proposalWIT.aboveEscrow);\n            if (fee != 0) {\n\n                // TODO accept fee in ether\n                require(arbol.transferFrom(msg.sender, systemFeeWallet, fee));\n            }\n            */\n            \n            storageContract.setUIntValue(keccak256(\"WIT\", proposalWIT.WITID, \"belowID\"), new_ID);     \n            ProposalAccepted(proposalWIT.WITID, proposalWIT.WITID, new_ID);\n        }\n\n        _mint(msg.sender, new_ID);\n    }\n\n    /**\n    * @dev Burns a specific token.  \n    * @param tokenID uint ID of the token being burned by the msg.sender\n    */\n    function burnWIT(uint tokenID) private { // gets called in cancelAndRedeem and evaluate\n        WIT memory the_wit = getWIT(tokenID);\n        address belowOwner = ownerOf(the_wit.belowID);\n        _burn(belowOwner, the_wit.belowID);\n        address aboveOwner = ownerOf(the_wit.aboveID);\n        _burn(aboveOwner, the_wit.aboveID);\n        saveWIT(WIT(tokenID, 0, 0, 0, 0, 0, 0, 0, 0, 0, false, false)); //TODO why doesnt this work? gas?\n    }\n\n\n    /**\n    * @dev Calculates the fee in ARBOL associated with a WIT. Fees are paid by the seller, and are a percentage of the total escrowed ETH amount.\n    * @param weiContributing One half of the total escrowed ETH in a partnered WIT pair (an agreement).\n    * @param weiAsking The other half of the total escrowed ETH.\n    * @return the fee in ARBOL\n    */\n    /*\n    function calculateFee(uint weiContributing, uint weiAsking) public constant returns (uint) {\n      uint totalEscrow = weiContributing.add(weiAsking);\n\n      if (weiContributing >= weiAsking) {         // If user is contributing more than asking, they are the seller and they pay the fee.\n        return totalEscrow.mul(systemFeePPM).div(1000000);\n      } else if (weiContributing < weiAsking) {\n        return 0; // Buyer role pays no fee\n      } else {\n            revert();\n       }\n    }\n    */\n\n    /**\n    * @dev Set the system fee to a new value. This doesn't affect existing WITs.\n    */ \n    function setSystemFee(uint fee) public \n    onlyContractOwner {\n        require(0 <= fee);\n        systemFeePPM = fee;\n    }\n\n    /**\n    * @dev Cancel an unpartnered WIT that you have created. Redeem the ETH escrowed therein.\n    * @param tokenID The ID of your token that you want to cancel.\n    TODO ARBOL redemption\n    */ \n    function cancelAndRedeem(uint tokenID) onlyOwnerOfSubWITOf(tokenID) public {\n        WIT memory the_wit = getWIT(tokenID);\n        uint redemptionAmount = the_wit.belowEscrow;\n        require((the_wit.aboveID == 0) || (the_wit.belowID == 0)); \n        burnWIT(tokenID);\n        msg.sender.transfer(redemptionAmount);\n        Redemption(tokenID, redemptionAmount, msg.sender);\n    }\n\n    function evaluate(uint tokenID, string runtimeParams) onlyOwnerOfSubWITOf(tokenID) public {\n        WIT memory the_wit = getWIT(tokenID);\n        require(the_wit.end < now);\n        require(the_wit.aboveID != 0);\n        require(the_wit.belowID != 0);\n\n        WITEvaluator evaluator = WITEvaluator(the_wit.evaluator);\n        evaluator.evaluateWIT.value(msg.value)(tokenID, the_wit.start, the_wit.end, the_wit.thresholdPPTTH, the_wit.location, 10, \"\");\n        storageContract.setBooleanValue(keccak256(\"WIT\", the_wit.WITID, \"awaitingEvaluation\"), true);\n    }\n\n    function revert(){ revert(); }\n\n    event GotAReallyWeirdOutcome(string);\n\n    function evaluatorCallback(uint WITID, string outcome) public {\n        WIT memory the_wit = getWIT(WITID);\n        require(msg.sender == the_wit.evaluator);\n        uint totalEscrow = the_wit.aboveEscrow.add(the_wit.belowEscrow);\n        address owner;\n        if (keccak256(outcome) == keccak256(\"above\")) { // use keccak because == doesn't work for strings.\n            owner = ownerOf(the_wit.aboveID);\n        }\n        else {\n            if (keccak256(outcome) == keccak256(\"below\")) {\n                owner = ownerOf(the_wit.belowID);\n            }\n            else { GotAReallyWeirdOutcome(outcome); }\n        }\n        burnWIT(WITID);\n        Redemption(WITID, totalEscrow, owner);\n        owner.transfer(totalEscrow);\n        WITEvaluated(WITID, outcome, totalEscrow);\n    }\n\n    function addDependant(address dependant) public onlyContractOwner {\n        uint counter = storageContract.getUIntValue(keccak256(\"DependantsCounter\"));\n        storageContract.setAddressValue(keccak256(\"Dependants\", counter.add(1)), dependant);\n        storageContract.setUIntValue(keccak256(\"DependantsCounter\"), counter.add(1));\n    }\n\n\n    function transferOwnershipOfDependants(address newOwner) onlyContractOwner public {\n        for (uint counter = storageContract.getUIntValue(keccak256(\"DependantsCounter\")); counter > 0; counter--) {\n            address dependant = storageContract.getAddressValue(keccak256(\"Dependants\", counter));\n            Ownable(dependant).transferOwnership(newOwner);\n        }\n    }\n}",
  "sourcePath": "/Users/benandre/cropcrop/contracts/WeatherImmunityToken.sol",
  "compiler": {
    "name": "solc",
    "version": "0.4.18+commit.9cf6e910.Emscripten.clang"
  },
  "schemaVersion": "1.0.1",
  "updatedAt": "2018-04-30T23:22:16.720Z"
}